:1000000000440020F932010001C9011001C90110AA
:1000100001C9011001C9011001C9011001C9011074
:1000200001C9011001C9011001C9011001C9011064
:1000300001C9011001C901103FC9011070B506F0D6
:10004000D5FB04461848017881B9012101700026CA
:10005000164D07E00C2000FB06F168186958896806
:100060008847761C124800788642F3DB2046BDE8BC
:10007000704006F0BDBB0C4B1B780246002003B954
:10008000704710B50A4C2478A2420BD209B90FF27E
:100090003C010C204243054B98189A58D268BDE8A1
:1000A0001040104710BD0000832B002010180100E5
:1000B000281801000FF21401242205F071BD036815
:1000C0001B6918470368DB6918470000000000003F
:1000D000FFFFFFFFFFFFFFFF000000000000000028
:1000E0000101010100C20100030000000000000046
:1000F000DFF800F085BF0110DFF800F061C00110EB
:10010000DFF800F009C00110DFF800F05DB4011065
:10011000DFF800F0059B0110DFF800F0E1A301100B
:10012000DFF800F079BF0110DFF800F0BDAA011080
:10013000DFF800F015C00110DFF800F079AD011014
:1001400070B506F0DDFB04460026DFF880540DE0B4
:1001500024FA06F0C00708D505EB8600406820B1F8
:10016000026811001CBF31469047761C2868F6B221
:100170008642EDD370BDDFF858040168DFF85404FF
:100180000160DFF8540406F0C1BB2DE9F0470E0012
:10019000F5B2044644BF86F0204686F4C046A80067
:1001A00000F1804000F5012004EA06030168DFF851
:1001B0002C743B4086EA0102A1431943224004F417
:1001C000E023120EB3F5E02F02F0010202D1CA01C2
:1001D00005D411E014F4E02F08BF002A0CD001F47C
:1001E000E022B2F5A02F04D0B2F5C02F04D1052231
:1001F00000E0062262F31241DFF8E4730160386820
:10020000E84000F0010805F1804000F50839B00D24
:10021000B8F1000F00F0010A03D1600248BF89F86D
:1002200000A020020DD5FFF763FF0122AA40396824
:1002300033024CBF13460023914319433960FFF743
:100240005BFFB8F1000F03D0600248BF89F800A03F
:10025000BDE8F087002948BF0021800000F1804000
:1002600000F5012001F03F010268920941EA821184
:100270000160704710B5DFF86C03006800F07F0480
:1002800006F05EFB012804D106F050FB022808BFEF
:10029000641C204610BD2DE9F04FA1B0054605F0C5
:1002A00014FD06F04DFB0026012804D106F03EFBAC
:1002B000022808BF0126DFF83003C168C1F381516D
:1002C00001294FF0010A04D10068000E0AFA00F07B
:1002D0000643DFF81803DFF8F4920078DFF81073B4
:1002E000FFF7C8FF5FEA000BC9F800B004D0FF2297
:1002F0005946384606F042FB4FF00008002405E05E
:100300000AFA00F07C5440EA0808641C55F82400FE
:1003100000F0FF01FE2909D0FF29F6D0594503D28C
:1003200026FA00F2D207EBD5022070E0092005F092
:10033000C6FDC9F8805008232422002117A8FFF722
:10034000DFFE8DF874A017AA012109F1D400FFF790
:10035000DBFE0024DFF89CA20BE05046FFF715FF00
:100360004FF0FF31E0B2FFF775FF0020CBF804003B
:10037000641CD9F80000844213D226FA04F0C007A6
:1003800009EB840B48BF0420F0D428FA04F0C0071E
:1003900047BF385D55F8201004F0FF0040F4C0411D
:1003A000DBE70823302200210BA8FFF7B9FEDFF8B6
:1003B0004852DFF84822287813900BAB00200090B9
:1003C000102109F18400FFF7AFFE08232822002145
:1003D00001A8FFF7ADFE6868DFF82412079000233C
:1003E0000020089001AA09F1A000FFF7A5FEDFF8A0
:1003F0001402016821F47C5141F400510160012094
:10040000DFF804120860DFF804120860002021B051
:10041000BDE8F08F2DE9F0416C4E04460D4606F123
:10042000D40800F036F8002035B900202060606064
:10043000A06085B125E0401C15F82010FE29F4D0FD
:10044000FF29F8D03268914204D206EB8101496855
:100450000029F0D000244046FFF75EFE2046BDE8AC
:10046000F08106EB81020123546003FA01F1626816
:100470001143616055F820205E49204600F07DF868
:10048000384615F82010FE29E5D0471CFF29E8D191
:10049000F6E74FF0FF314046FFF73ABE10B50C4685
:1004A000F0B1416821FA04F2D20719D50122A24025
:1004B000914341600020454901EB840250604C4863
:1004C000025D4C48FF2A0EBF44F02041D1F8801055
:1004D00051F82210FFF759FE4FF0FF31204670E02F
:1004E000022010BD10B5044606E090FAA0F0B0FA64
:1004F00080F12046FFF7D2FF60680028F5D110BDDB
:1005000043492FE038B50C46304915460A689442F5
:1005100004D201EB84014968814201D0022032BD3E
:10052000FFF7E6FD2E490A680123A3409A4305FA26
:1005300004F31A430A606DE010B5244B1C68A14215
:1005400004D203EB81035B68834201D0022010BD1B
:1005500001F18041100001F5083118BF0120087039
:10056000002010BD0968C14001F00100704710B1C2
:100570000160002070470220704738B5134C256891
:100580000B46114601F0FF02AA4204D204EB82029C
:100590005268824201D0022032BD1846FFF7F5FDB5
:1005A000002032BD0B4610B51146084A1468A3421C
:1005B00004D202EB83025268824201D0022010BDB5
:1005C0001846FFF747FE002010BD0000BC280020A1
:1005D000E0200240E02002605C290020007F077FCD
:1005E000D020024044130050A83F0050842B00202C
:1005F000AC290020007FC767E417010077010000E5
:1006000041010000003009400C4009400800094049
:10061000C0200240FFF770FD002032BDDFF800F07F
:1006200055A40110DFF800F0C1BF0110DFF800F0A1
:10063000B9BA0110DFF800F0E5C00110DFF800F0F2
:100640001FBE0110DFF800F069B20110DFF800F002
:10065000A1B60110DFF800F035BD0110DFF800F0A1
:1006600019BD01102DE9F04389B08046894617462F
:100670001D46109C119E0823242200216846FFF786
:10068000D1FF474906964FF47A700A68B0FBF2F042
:10069000454305954743ADF810406B463A464946F9
:1006A0004046FFF7CFFF404609B0BDE8F083FFF7B3
:1006B000C5BF38B504460D4606F03AFB10B12046DA
:1006C000FFF7B4FF00F00EF82046BDE83240FFF718
:1006D000B5BF80B506F02CFB00B10120C0B202BD51
:1006E000FFF7A4BF2E4A10684FF47A71B1FBF0F007
:1006F000454329462046FFF79DBF10B5044600211B
:10070000FFF7A4FF204610BD70B505460C461646FF
:100710000C2003F067FF01000BD08E602846FFF726
:1007200099FF24B14FF080412046FFF777FF012069
:1007300070BD304603F057FF002070BD10B5044671
:10074000FFF78CFFA04204D0846803F04CFF2046E2
:1007500010BD002010BD78B585B0044668460FF284
:100760004801142205F01CFA0E4830250570831C40
:1007700078254570A21D062112F8015D2D09491E3C
:100780001DF8056003F8016B167806F00F061DF8DA
:10079000065003F8015BEFD106B070BD0000000009
:1007A000E8330100802600203031323334353637CB
:1007B0003839414243444546000000003EB50446F6
:1007C000234D05F1100105F13C00FFF723FEE86021
:1007D0000FF23D01FFF7CBFEE8681E4A4FF4E0211F
:1007E000FFF7CBFEE8681C4A4FF0C051FFF7C5FE8B
:1007F000002001900090002314220FF2310105F136
:100800001800FFF72FFF05F118006860AC6037BDD6
:1008100010B50F4C002020700520FFF771FE00F08E
:100820001DF86068BDE81040FFF708BF10B5084C20
:10083000A1680020207049B10520FFF761FE00F09B
:100840000DF82078A168BDE81040084710BD0000F1
:100850001C0A0020050007800500001018B9217847
:1008600041F0010121707047DFF800F0F9740110C8
:10087000DFF800F08D6F0110DFF800F065940110D3
:10088000DFF800F0018C0010DFF800F0099600108E
:10089000DFF800F0B1A50010DFF800F07193001050
:1008A00063480078042800D870472DE9F84F401FAE
:1008B00005D0401E24D0401E012805D9B0E0BDE877
:1008C000F24F01200EF0DCBB5A4CA078FF2817D065
:1008D0000CF0C0F8814609F16C0670680DF0E0FE7E
:1008E0000746387903280BD1B8680021B96000F1B8
:1008F000020A0178457811F0030802D1002038710E
:1009000093E0B8F1030F0ED04DB1307838B909F249
:100910000F113D204870012089F80F0185E04648FD
:1009200000780128FAD04FF49A7009EB000B99F87F
:10093000940060B32D1F5346EAB241464846FFF784
:1009400093FF58B909F20F113D204870012089F832
:100950000F01BDE8F24F3948FFF78ABF38480068F9
:10096000804700904FF4C07299F8061060685143B8
:100970000844002180F83911DBF8000041089BF899
:1009800006000BF0DBF82F49009809688847B8F19A
:10099000030F2ED02C4840690078810708D5C00786
:1009A0004CBF03200020EDB240191AF8000000E00F
:1009B000812030722549BBF83E000978884211D366
:1009C000307A802818BF81280FBF7F2020490978FE
:1009D000401A40B200904346A078EAB25146FFF771
:1009E0004BFF14E0A0784346EAB25146FFF748FFB8
:1009F0000DE00F48007808285146484602D10AF019
:100A0000CDFD01E0FFF740FF504600F023F870688D
:100A1000FFF73EFF39464846BDE8F44FFFF73CBFBD
:100A2000BDE8F24F86200BF0BBBDBDE8F18F00BFE3
:100A30006F4F0020684E0020794F0020AC45002009
:100A40005404002058040020582801006B4F002057
:100A5000704F00207CB50446104801688847104A52
:100A600005461068002101E00146006870B100F100
:100A700008039C4222BF86889B19A342F4D30368D3
:100A800000290CBF13600B600AF004FC284602B07A
:100A9000BDE8704003490A68104700BF54040020B5
:100AA000882A0020580400201200011007702B0033
:100AB00020582700205C04220001524008700700E3
:100AC000002001010000902610310183010001A1E6
:100AD0000CD003C00D0020000152F014200234019C
:100AE000002004523C0422000150026CDC02000190
:100AF0005003780C0020030D0006F3F400003DF5D0
:100B000000005200011007080200200C0D00200117
:100B100011C30100012002C40C002004F3010100F4
:100B20000120023C0D002017120001000208020003
:100B300020000208000000030000520001520001E2
:10100000B41200001810000015AB0110FDB3011060
:101010006DC00110FDAE011099B501100000000077
:10102000000000002F000000B01200003C10000083
:10103000B1C00110A9BF011067C0011069B801104B
:1010400000000000000000002D000000B0120000B1
:1010500060100000BDC00110CDB30110D9BD01105A
:101060006DB3011000000000000000002E00000021
:10107000000000002C0C0020040000000000000014
:1010800000000000200000004C2C01003000000097
:10109000281000004C0C002004000000000000009C
:1010A000000000000C0000002032010018000000C9
:1010B0004C100000540C0020040000000000000050
:1010C0000000000024000000383201001800000079
:1010D00000000000940C002004000000000000004C
:1010E00000000000100000001C2D01002C0000007A
:1010F000001000009C0C0020040000000000000014
:1011000000000000200000004C2E01002400000020
:10111000FFFFFFFFBC0C00200400000000000000E7
:101120000000000028000000702E010024000000D4
:10113000FFFFFFFFE40C002004000000000000009F
:1011400000000000140000005032010018000000F0
:10115000FFFFFFFFEC0C0020040000000000000077
:101160000000000058000000702A01003400000058
:10117000FFFFFFFFF40C002004000000000000004F
:10118000000000001000000068320100180000009C
:10119000FFFFFFFFFC0C0020040000000000000027
:1011A000000000001C000000942E0100240000003C
:1011B000FFFFFFFF040D00200400000000000000FE
:1011C0000000000038000000AC2D010028000000E5
:1011D000FFFFFFFF6C0D0020040000000000000076
:1011E00000000000540000001C2701003C0000002B
:1011F00001000000EC3301000100000000000E00BF
:1012000000000F003200000001000000340C00203C
:10121000000200000000000001C9011000000000F1
:101220000000000008000000000023005C0C00200B
:1012300001000000A40C002008000000C40C0020E5
:101240000000000000000000080000000000000096
:10125000000000000000000000000000010000008D
:101260000C0D00200600000001000000740D00209D
:10127000000000000000000000020000000000006C
:101280002900010025002D002E002F000100010083
:1012900004000000603301000000000000000000B6
:1012A000000001000000030013C4011051F500000C
:1012B000B8120000B812000000000000A40C0020CA
:1012C000B1F400002000000010330100B82E01002E
:1012D00029C10110D35A0000275C0000A1C70110EA
:1012E000A3C70110000000008F120000B42301000A
:1012F000CC2301009C230100020009000100000032
:1013000001120001A12D0100752D01001131010014
:10131000112B0100192C0100DD2A01005D1B0100C9
:10132000B132010029F4000083F5000087F50000C8
:10133000DFF800F005840110DFF800F08984011067
:10134000DFF800F021C00110DFF800F0F99B011078
:10135000DFF800F019AE0110DFF800F04FBF011008
:10136000DFF800F0A5A5011002090A2A00F00F001D
:10137000ACBF373230320A280A70ACBF3730303059
:101380004870704700B58FB008233C2200216846A2
:10139000FFF7D6FFDFF8400D00F15001079140F252
:1013A000622201210892069100236A460FF2494108
:1013B000FFF7CEFF0FB000BD2DE9F041DFF8AC0C18
:1013C000DFF8184DDFF8185DDFF8187D8CB0016884
:1013D000406861710A0A227160700A0C090E000AE5
:1013E000E270A170207008232422002103A8FEF7D8
:1013F00087FE04F1840603AA00213046FEF784FE2E
:101400002E64FEF71BFE04F12000FEF753FE4FF49E
:101410001650A06304F12001012084F8200047F653
:10142000FF78DFF8C40CDFF8C46CE062DFF8C00CB2
:10143000A0620020FEF71FFEE8630022202102F0D8
:1014400019FC04F1740105F15C00FEF7E3FFA863E9
:101450004FF4E021DFF89C2CFFF78FF8A86BDFF842
:10146000982C4FF0C051FFF788F805F1480105F1BD
:101470000D0003F005F804F5C870FFF73EF9E864C5
:101480000021402001900091002341F28832314632
:1014900005F19C00FFF7E6F84FF4006000F0A3F9B7
:1014A00005F1C000FFF7DEF84FF4806000210190E5
:1014B000009100230022314605F1E400FFF7D2F845
:1014C0004FF4804000F08FF905F58470FFF7CAF8FB
:1014D0000FF64520FFF772F9002060641E222121DB
:1014E000384603F0D2FA4FF6FF7642463146DFF82F
:1014F000FC0C03F0CAFA42463146DFF8340D03F023
:10150000C4FA42463146DFF82C0D03F0BEFA4246DB
:101510003146DFF8240D03F0B8FA0023606C012295
:10152000394603F071FADFF88C7CA023062200F024
:1015300056F9A023072200F052F9A023082200F058
:101540004EF9A023092200F04AF9A0230A2200F054
:1015500046F9A0230B2200F042F94FF47A630222ED
:1015600000F03DF932230C2200F039F932230D222C
:1015700000F035F932230E2200F031F932230F2228
:1015800000F02DF93223102200F029F93223112224
:1015900000F025F93223122200F021F93223132220
:1015A00000F01DF93223172200F019F93223182216
:1015B00000F015F9C823152200F011F9C8231622EE
:1015C00000F00DF94FF47A73192200F008F90023A6
:1015D0001A2200F004F900F02FFD0246DFF85C1C2F
:1015E00000F0FAF801208DF8040000210720ADF882
:1015F00000108DF80300002301AA00F068FC00230E
:101600000DF1030201214FF4437003F06DFA002342
:101610006A46022140F2063003F066FA002304F520
:10162000CE7211214FF4427003F05EFA002304F1F0
:101630000C0200F080FA1E208DF8020000230DF14C
:101640000202012140F2044003F04EFA05F10F01BD
:1016500004F5E27003F099FBE87B1227784302F06F
:10166000C1FFE97B286548B1002204E0D2B207FB44
:1016700002F3521CC652D3B28B42F7D3C80002F019
:10168000B1FFA86560B1EA7B0021002606E000EB0F
:10169000C103491CDE801E709E805E809142F6DB95
:1016A00004F5D870009014230022DFF8601C00F0CD
:1016B00047FA4FF0FF32DFF8701C00F08DF84FF062
:1016C000FF32DFF8681C00F087F803F06BFE4FF084
:1016D000FF3003F06BFF01208DF8030003200FF2B1
:1016E000F0028DF801000221D2E900368DF80210D7
:1016F00001A80421C0E900368DF800100DF10302A5
:101700000121002003F088FF0DF1020201210120D8
:1017100003F082FF0DF101020121022003F07CFFA2
:1017200000F0F5FC01AA0521042003F075FF04F583
:10173000E67003F06AFFDFF8F81B00F05AFD00F0D6
:101740007BFC0246DFF8EC1B00F046F8697BDFF813
:101750007C5C00F072FC0246DFF8741C00F03CF880
:1017600002208DF80700012100208DF805008DF87A
:1017700006100DF107008DF80410009001234FF4BE
:10178000806200F0B0FD0DF106000090012340F2F0
:10179000024200F0A8FD0DF105000090012340F287
:1017A000034200F0A0FD01A80090012340F2064290
:1017B00000F099FD04F5E872DFF8201C00F00CF849
:1017C000DFF8B81C00F015FD0CB0BDE8F08100009A
:1017D0000102030405000000102003F0B8B83946E8
:1017E000102003F0B4B80021019000914FF47A73F7
:1017F0001A463146704700002DE9F04F8BB0FFF7D5
:10180000DBFDDFF8DC68DFF8D47807F1680106F16A
:101810005C00FEF7FFFDB06301220021FEF78CFEA5
:1018200000F091F900F0D1FE06F58470079006F102
:1018300080000A9007F5B870069007F5B47009901B
:1018400007F1A000059006F1E400049006F1C00045
:10185000039006F19C000890DFF8248CDFF8909844
:1018600031E0152106F1680004F026F80D2106F19B
:10187000100004F021F80A981A2104F01DF8122132
:1018800006F1200004F018F80798FEF710FF5FEA51
:101890004A4018D5B87E012815D1397FB973002385
:1018A00007F10C0200F047F9002307F1640201215F
:1018B000204603F019F90020B8760798FEF710FFCC
:1018C0000398FEF7F4FEB06CDFF8B82B4FF0FF334F
:1018D0000021FFF739FD5FEA000AF4D000200290F2
:1018E00002AA01A90DF1060002F001FE00283ED176
:1018F000BDF806000124102802BF9DF80410707B7B
:1019000081422ED1029801884FF6FF72914225D173
:101910008078410725D5706D18B3797F00F10802F2
:10192000491C0092797703794288DFF8E41B00F0C4
:1019300007F9C5B2162D18BF042D12D0717B00F027
:101940007CFB034600200090DFF8C81B706D4288C6
:1019500000F0F6F8284600F06EF902E000F0F8F822
:101960000446029800281CBF002C02F0ABFD5FEA81
:101970004A0000F18F805FEA4A6004D50898FEF7BC
:1019800096FE00F0BBFB5FEA0A5040F2053413D527
:1019900000F0B4FB002307F165020121204603F0AB
:1019A000A3F8707801282AF4006A05D10398FEF79D
:1019B00097FE0498FEF77BFE5FEA4A507FF567AF1B
:1019C00000F0C1F8DFF8500B0568BD64290A3976CC
:1019D0002AF4806A387E03F07BFF8346C7F850B054
:1019E0007D760A25787E03F073FF0146F9644FF097
:1019F0006E5003F07BFF594603F0E4FF786504F076
:101A000053F80A21684390FBF1F14D43B865052175
:101A100095FBF1F100EBC100451B7564562038724F
:101A2000622078726520B8728020F8723178DFF811
:101A3000EC5A012964D1387F002872D000F0D0FC24
:101A40000599F06BC822FEF73AFB0999F06B082262
:101A5000FEF738FB00F06BF80598C82103F02CFF67
:101A600000F060F8F06B542205F15C01FEF72AFBF0
:101A700000F05DF8002030700498FEF731FE039806
:101A800003E7606800F064F8606802F01BFD204620
:101A900002F0A9FDF06CFFF75FFC00287FF46BAF4C
:101AA000F06CFEF74BFE0400F4D020880128E8D04B
:101AB000022817D0082810D010280AD02028E6D1F4
:101AC000DFF83C0C0090002361684A89414600F031
:101AD00037F8606802F087FDD9E76068007800F0A9
:101AE0001BFAF6E76068017821B10229F1D1694655
:101AF000022002E00DF10101002003F0D1FDE8E732
:101B0000307B01287FF4ADAE00F0BEFC00F00AF897
:101B1000F06B5C222946FEF7D5FA00F008F80020A9
:101B20003073B4E60699F06B1E22FEF7C8BA306C2B
:101B30004946FEF7EDBA092140F2073002F0D4BF62
:101B4000102002F004BF00220121032003F0D7B9C6
:101B50001CB50178012491290AD0B02904D0D029DC
:101B600008BF00F095F828E000F029F8044624E0CA
:101B700041780E2902D010291BD01EE0818842F244
:101B80000302914202BF81680878002815D151F8FC
:101B9000012F00929DF800004A68DFF8681B01924F
:101BA00000F0FD008DF800006A46102002F0CFFE24
:101BB00003E00021082003F0C9FF204616BD38B518
:101BC0000446DFF81C556078162810D100F034FA6E
:101BD0000422009203466288DFF83819FFF7B0FF4D
:101BE00028B9012000F027F86C65002032BDDFF82D
:101BF000181B00F0FEFAA0B1608800F021FAE88618
:101C000021790B290DD0012912D1217A0A2918BF77
:101C1000122906D0A96D11F8300010B1204600F04D
:101C20009DF9217904F10800FFF786FB012032BD00
:101C30001329EFD1F5E710B5DFF8A4440146606D34
:101C400060B119B101790830FFF776FB606D02F0E1
:101C500039FC0020DFF884146065487710BD80B53A
:101C60000146012000F045F9401E8041C00F02BD31
:101C7000C28852B901238B72C288CA8002890A8144
:101C800082888A8040884880704700208872704728
:101C90002DE9FE4F0446DFF84864A078DFF868AA13
:101CA000DFF840B406F19C0701254FF6FF7860B1DC
:101CB000012840D0042810D0052800F0878006288D
:101CC00000F0C7800D280BD0FBE06089B086E21CD5
:101CD0000821002003F074FBF3E000F089FAF0E043
:101CE0002179601D00F043FB2169887824280ED1FA
:101CF000227B06F1680003F043FF0D2206F16A0122
:101D000006F1100003F03CFF357003F010F9216973
:101D1000887840280ED1227B06F1800003F030FF46
:101D2000122206F1820106F1200003F029FF35732B
:101D300003F0FDF8C5E00020B073E0780028F9D08A
:101D40004246022100F0C0F80027DFF8A0B4DFF817
:101D5000BC692FE06168172001EBC701784306EBEF
:101D600000094A7889F801200622616811F83710C5
:101D70003154B11C01EB000A6068811C01EBC70102
:101D8000504603F0FDFE5046FEF7E5FC01460F22EB
:101D900009F1080003F0F4FE0BF10C0109F1080051
:101DA00041F83700424605FA07F081B200F08CF89E
:101DB0007F1CFFB2E0788742CCDB1D2FBADA05FA30
:101DC00007F082B200F07FF87F1CF6E76078002809
:101DD00077D1DFF83C2900211170211D608900F0C6
:101DE0009BF900F005FAF17B884206D300208DF8BC
:101DF000000000236A4600F06AF8584602F035FEFB
:101E00006489204600F01CF9F086F27B904209D2EA
:101E1000B16D01F830500B1D002223F83020891CD1
:101E200021F83020B08E011FADF804105020717BD6
:101E300002F074FD009001AB2246DFF8D81800F0E4
:101E400053FA00F0D5F901283BD13846FEF72FFCB4
:101E500037E000F0CDF98246A08800F0F1F8F08676
:101E6000F27B90422DD2316D1222424321F8028042
:101E70000022B16D01F8302001EBC00105FA00F03D
:101E8000CA80414682B2DFF8A80302F0FEFDF08E60
:101E900005FA00F082B24146DFF8980302F0F5FD42
:101EA000F08E8540AAB24146DFF88C0302F0EDFDCA
:101EB0005FFA8AF028B91C2200F005F83846FEF7D0
:101EC0000FFCBDE8F78F4146584602F0DEBD012108
:101ED00040F2053002F008BE10B50446012002F0C1
:101EE00081FB28B104700146BDE81040022000E0EB
:101EF00010BD38B504460D46082002F073FB48B10A
:101F0000048045600246764B996CD86CBDE8384039
:101F1000FEF7FABB32BD000038B5C00710D5052466
:101F200044F620650120FFF71BFA2846FFF718FA50
:101F3000641EF7D1BDE834400021002004F00AB847
:101F4000DFF8D40701680A689047082805D1BDE882
:101F50003240DFF8C807FEF7AABB31BD18B504460A
:101F600087B0608800F06CF85D49CB7BC8869842EA
:101F700060D223797F2B5DD08A6D02EBC00210788E
:101F8000012814D1032B55D10FF2D0700088ADF881
:101F90000800022313705020497B02F0BFFC01901F
:101FA00002AB022000906288DFF8741733E0022849
:101FB00034D1072B0DD1208958B1E06803784078DF
:101FC00003EB00235380E0688378C07803EB0023A1
:101FD00093802079072806BF63781A2B012829D11E
:101FE000508838B3032350881370ADF804000220E2
:101FF0009288497B8DF80800ADF80620FF20F12279
:102000008DF80A008DF8092000F017F8009001AB58
:102010006288DFF8101700F067F90BE0032808BFAB
:10202000092B07D1208928B1E0680178407801EBBD
:102030000021D18008B010BD697B502002F06EBC39
:1020400038B5274AD37B126D01460020122400E0E8
:10205000401C85B29D4206D280B204FB00F5555B60
:102060008D42F5D132BD4FF6FF7032BDE8120050FF
:1020700070B504460D461646042002F0B3FA38B196
:1020800004808570C6700146BDE87040102030E7BE
:1020900070BD2DE9F84381460E4617469846142038
:1020A00002F0A0FA04000FD0089D06224946E01C69
:1020B00003F066FD6681277384F80D802561214653
:1020C000BDE8F443202014E7BDE8F1830146DFF8C2
:1020D0005806806CFEF7A2BAE020002068050020B8
:1020E0004007002078080020D5230000CD20000004
:1020F000A0860100FF000580FF00001080B5694642
:10210000022003F0CDFA08B900F001F801BD6A46DB
:102110000121032003F080BA2DE9F84FDFF80866AB
:10212000F27B336D00254FF6FF7B00E06D1C95427E
:102130003DDA12276F43DC5B5C45F7D1D8530124AD
:102140000846FEF708FB0146306DDFF8E480DFF853
:10215000E490DFF8E4A0831C0F22D81903F010FDEF
:10216000AC405A46A1B2404602F08FFC5A46A1B29A
:10217000484602F08AFC5A46A1B2504602F085FC5D
:10218000306D811CC81908EBC50109EBC502C86098
:102190000AEBC501D060C860DFF890058179CA06F6
:1021A00003D45A461C2102F070FCE8B200E015206E
:1021B000BDE8F28FBD84011010B5DFF84C15DFF8D3
:1021C000684500F016F8E17B88420CD2A07B30B95C
:1021D0000121A1730022032002F091FE03E002F02E
:1021E000A6FE0020A073012010BD0000B40800204E
:1021F0005146102002F0ABBB10B5DFF81445217832
:10220000012905D14FF6FE7002F0E1FD00200BE040
:102210001721DFF8F82448431044831C427800213A
:10222000002002F04EFE01202070012010BD0000B1
:102230003809002084090020D009002051880110AD
:10224000F8B5DFF8E4440746A06D811D84B031F88D
:102250003710002944D0DFF8D864307812257D4348
:1022600048B3206D405B002301221221FFF760F884
:102270000290A8B3A06D811D012031F83710ADF890
:102280000600ADF80410002102980170ADF80C10A2
:102290005020617B02F042FB009001AB206DDFF823
:1022A0009414425B00F020F8C0B2A0B1122101A842
:1022B000FFF742F814E0ADF804105020617B02F003
:1022C0002DFB009001AB206DDFF86C14425B00F039
:1022D0000BF8C0B220B93078401E8041C00F30707A
:1022E000012005B0F0BD2946102002F030BB10B52A
:1022F000DFF83434DFF844141C6D12225043205AA6
:102300004880002002F0B6FF012010BD05AB0000A0
:1023100080B5DFF81424136D12214843185A02F0D7
:1023200056FD012002BD0000C93001004D31010001
:102330002D140100318101101CB540F2053400223A
:102340000DF10101204602F0BBFC9DF8010018B11F
:1023500000218DF8001002E001208DF8000000231C
:102360006A460121204602F0BFFB012016BD2DE97F
:10237000F047DFF8CC532E781E2E81468A4622DAAB
:1023800000274FF01708DFF8844300E07F1CF8B205
:10239000B0420BD2FFB2A01C08FB07F10144062299
:1023A000484604F0C9F80028F0D10CE008FB06F715
:1023B000A01C49460622384403F0E2FBE019761CD3
:1023C00080F801A02E70BDE8F0870000E5EC000069
:1023D00099330100D448006CFDF79EBE85310100A1
:1023E000F8B5D84CD84ED04F00F0A0F8314600F0E8
:1023F000A7F8312068712C20A871307FE87104F1B2
:10240000290003F0BDFBF07EA873002604F1300024
:1024100000EB460107F11000805DFEF7A5FF761C7A
:102420000D2EF3D3002604F14C0000F079F8761C51
:10243000082EF8D33948002200F1AE01A35C00F168
:102440005C05AB5408E0A2F14203102B04D2A318A0
:102450009D7A00F15C039D540D230B70521C0A23DE
:10246000522A4B7008D2282AE8D3A2F128031A2B4B
:10247000E9D2A3181D7AECE7F1BD0000C5AB00104E
:10248000452B0100FF7F00C0F8B5B04CAE49A64E09
:1024900000F04CF8002700F053F8352068712C202C
:1024A000A87104F1280003F07BFB706C687304F1E1
:1024B000300000EB470106F12000C05DFEF754FF3D
:1024C0007F1C122FF3D3002604F1540000F028F8EB
:1024D000761C062EF8D90020104901F15A02235C1F
:1024E0000B5406E0A0F14C030E2B02D223181D7AE8
:1024F0000D540D231370401C0A235A28537006D222
:102500002828ECD3A0F12803242BEBD2EEE7F1BD71
:10251000DDFE001099B7001028500940701F002000
:1025200000EB4601E81D805DFEF71EBF41202070D4
:1025300004F121055420607006222B20A070704702
:102540004E20E070532020714F2060715320A07105
:102550005420E0713D202072312060722C20A07246
:102560003020E07278202073082060730C20A07364
:102570002E20E07330202074782060740720A0742F
:102580000C20E0742E202075302060757820A07516
:102590000220E075002020762E2060763020A07684
:1025A0007820E076062020770F2060772C20A07717
:1025B0003020E077362084F8200028706870A870FA
:1025C0002C20E8703220287170472DE9F04FADF5CE
:1025D000905DB1B0002440F6A470009468440FF6FA
:1025E0000061DFF86CB1584C00F0B4F840F684405C
:1025F00068440FF26C1100F0ADF840F664106844C6
:102600000FF27C4100F0A6F840F2446068440FF2FB
:10261000907100F09FF8C9A80FF6A42100F09AF875
:1026200001A84FF4487103F047F940F2446640F6C0
:10263000641740F6844800250DF104090DF5497A28
:102640006E446F44E8445AF82510E07A56F8252085
:1026500057F8253058F825C0081AA17A511A627A1D
:102660009A1A237AACEB0303524303FB032201FBC8
:10267000012100FB001003F093FF594603F036F9E7
:102680004FF0844103F09EFF49F8250004F018F84C
:1026900004F03AF804F052F849F825006D1CC82DF2
:1026A000D1DB40F6A478009E0027E84458F82700C4
:1026B00059F8271003F01AF9314603F083F97F1C0B
:1026C000C82F0646F2DB206E314603F07BF900216D
:1026D00004F068F8E27EE06504D202202077521C04
:1026E000012005E004F070F803D201202077521E8B
:1026F000A0760DF5905DE27631B0BDE8F08F000078
:1027000040E2010095B40010F17F011094230020F5
:102710007D2B002009290100E8010010000800209D
:10272000351C0100E133010040070020780800203B
:102730007E2B002019340100153401006C080020A4
:102740007C2B002020200020680500207C20002019
:10275000000080BF4FF4487203F022BAF0FF00007F
:102760005700000053000000520000005400000019
:10277000510000005500000053000000530000000D
:102780005C0000005D0000005800000058000000E0
:1027900059000000560000005700000054000000DF
:1027A00051000000590000005300000057000000D5
:1027B0005A000000580000004E0000004D000000CC
:1027C000500000004C0000005700000059000000BD
:1027D00050000000580000004E0000004D000000B6
:1027E0004C0000004C000000580000004C000000AD
:1027F000580000004C0000004D0000005300000095
:1028000048000000440000004500000044000000B3
:1028100045000000440000004700000044000000A4
:102820004400000046000000340000003B000000AF
:102830003E000000360000003E00000033000000B3
:102840003E0000003E0000003D000000410000008E
:102850004A0000004C000000490000004500000054
:10286000440000004100000045000000400000005E
:102870004700000046000000530000004600000032
:102880004500000055000000490000004500000020
:102890005100000046000000560000004700000004
:1028A000590000004E0000004D0000004A000000EA
:1028B00045000000510000005A00000051000000D7
:1028C0004D000000560000005700000055000000B9
:1028D00055000000560000005500000053000000A5
:1028E0005300000055000000540000005B00000091
:1028F0005D0000005F000000550000005C0000006B
:10290000580000005D000000560000005600000066
:102910005D0000004F0000004E0000004D00000070
:10292000510000004D000000510000004800000070
:102930004E00000048000000460000004600000075
:102940004C0000005800000053000000530000003D
:1029500053000000540000004D000000590000002A
:102960005800000052000000500000005500000018
:1029700052000000520000004A0000005200000017
:102980005000000053000000520000005200000000
:102990005000000058000000490000004D000000F9
:1029A00050000000470000004900000054000000F3
:1029B000530000004C0000004B0000004D000000E0
:1029C0004B000000580000005700000056000000B7
:1029D00056000000560000004E00000057000000A6
:1029E0005400000052000000570000005800000092
:1029F000580000005500000056000000570000007D
:102A0000540000005A0000005C0000005D0000005F
:102A10005B00000058000000580000005B00000050
:102A2000590000005B0000005E0000005C00000038
:102A300052000000530000005B0000005300000043
:102A40005A0000005D000000540000005900000022
:102A500055000000570000005C0000005E00000010
:102A6000610000005C0000005D0000005A000000F2
:102A7000620000005C0000005D0000005A000000E1
:102A80005C0000005C0000005B00000058000000DB
:102A90005C0000005E0000005C0000005B000000C5
:102AA0005B0000005C0000005D0000005E000000B4
:102AB0005B0000005D0000005A0000005B000000A9
:102AC0005C0000005A0000005E0000005E00000094
:102AD000580000005700000055000000560000009C
:102AE000560000005400000058000000580000008C
:102AF0005800000056000000590000005B00000074
:102B0000570000005A000000570000005900000064
:102B100056000000550000005B0000005800000057
:102B2000530000005000000061000000540000004D
:102B3000510000005C00000054000000550000003F
:102B40005B0000005E0000004E0000004D00000031
:102B5000500000004D000000500000005300000035
:102B60005A0000005F000000600000005C000000F0
:102B70004A000000520000004F0000005300000017
:102B800051000000540000005500000054000000F7
:102B90005700000051000000450000004400000004
:102BA000470000004600000044000000490000000B
:102BB0004100000046000000460000004200000006
:102BC000430000003B0000003D0000004700000003
:102BD0004200000043000000430000003E000000EF
:102BE00044000000440000003A00000039000000EA
:102BF000300000003A000000320000003900000000
:102C00003000000039000000380000002E000000F5
:102C1000560000005600000054000000560000005E
:102C2000550000005D0000005B0000005400000043
:102C30005B0000005700000053000000520000003D
:102C40005C0000005B000000570000005300000023
:102C500059000000560000005D0000004E0000001A
:102C6000490000004D0000004D0000004F00000032
:102C70004B000000530000004E0000004E0000001A
:102C80004E00000050000000510000004D00000008
:102C90004B0000005C0000004D0000004C000000F4
:102CA000580000004D0000005700000058000000D0
:102CB0004F000000510000004F0000004F000000D6
:102CC000530000004E0000004F0000004E000000C6
:102CD0004600000043000000590000004F000000C3
:102CE0005100000055000000530000004D0000009E
:102CF00054000000550000005D000000540000007A
:102D0000490000003D0000004700000044000000B2
:102D1000480000004500000048000000410000009D
:102D200044000000410000004D000000520000007F
:102D3000410000004D000000490000004B00000071
:102D40004C000000480000004F0000004900000057
:102D5000570000005D000000580000006000000007
:102D6000580000005C0000005B00000062000000F2
:102D700061000000610000005E00000057000000DC
:102D80005D0000005E0000005E00000057000000D3
:102D90005C0000005B0000005A0000005E000000C4
:102DA00059000000570000004E0000005A000000CB
:102DB0005B000000500000005B00000052000000BB
:102DC00052000000540000005600000056000000B1
:102DD00052000000550000005D000000510000009E
:102DE0004D0000004F00000054000000580000009B
:102DF0004C0000004A0000004B00000047000000AB
:102E000048000000470000004C00000046000000A1
:102E10004C000000460000004F0000004E00000083
:102E20005000000059000000510000004C0000005C
:102E30004B00000048000000490000004D00000069
:102E400046000000460000003D0000004800000071
:102E50003D00000044000000470000004700000063
:102E60003F00000044000000430000003B00000061
:102E700040000000430000003B0000003D00000057
:102E8000480000004200000042000000370000003F
:102E9000410000004700000046000000470000001D
:102EA0004C0000004D0000004500000051000000F3
:102EB0004700000044000000450000004E000000F4
:102EC0004B000000450000004B00000046000000E1
:102ED0004E000000470000004A00000044000000CF
:102EE000480000004D0000004B00000045000000BD
:102EF0004B000000450000004D00000049000000AC
:102F00005000000047000000580000005200000080
:102F10004F0000005100000051000000520000006E
:102F200052000000580000005A0000004D00000050
:102F3000540000005C0000005E0000005B00000028
:102F400057000000500000005E0000005C00000020
:102F50005B0000005B000000560000004C00000019
:102F6000530000004A00000056000000510000001D
:102F7000460000004E000000560000005300000014
:102F80005A0000005D0000005A0000005D000000D3
:102F90005F0000005C0000005600000058000000C8
:102FA00057000000550000005000000050000000D5
:102FB0005400000053000000520000004C000000CC
:102FC00055000000540000004E00000053000000B7
:102FD000530000005D0000004D000000560000009E
:102FE0005D0000004E0000004D0000005700000092
:102FF000520000005B00000053000000520000007F
:103000005300000051000000540000005700000071
:103010005300000053000000500000005300000067
:103020005700000057000000570000005700000044
:10303000550000005600000055000000550000003B
:103040004F000000500000005A000000590000002E
:1030500055000000520000005C000000500000001D
:103060005E0000005C0000005200000055000000FF
:103070005000000052000000520000005C00000000
:103080005D000000560000005A00000057000000DC
:1030900053000000530000005600000058000000DC
:1030A00057000000520000005700000051000000CF
:1030B00051000000590000005A0000005A000000B2
:1030C0003800000033000000330000004100000021
:1030D000420000004200000030000000320000000A
:1030E00045000000410000003A00000039000000E7
:1030F00038000000450000003A00000038000000E1
:1031000042000000390000004600000047000000B7
:10311000440000004A000000420000004B00000094
:103120004E000000460000004E0000004B00000072
:103130004D0000004A0000004D0000005600000055
:103140005500000051000000520000005400000033
:103150004D0000004A0000004B000000530000003A
:103160004C000000550000004E000000560000001A
:10317000580000004E0000004D0000004E0000000E
:103180004E000000550000005300000054000000F5
:10319000500000005D0000005600000054000000D8
:1031A00053000000560000005700000055000000CA
:1031B0004F000000580000005800000051000000BF
:1031C000510000004F0000005B0000005A000000AA
:1031D0005000000058000000570000005E00000092
:1031E00056000000560000005E0000005400000081
:1031F0005B00000057000000580000005E00000067
:10320000560000005B000000540000005300000066
:103210005F000000530000005E0000005A00000044
:103220005A0000005700000059000000550000003F
:10323000550000005500000056000000540000003A
:10324000540000005100000054000000560000002F
:103250004F00000049000000510000005200000033
:103260004E0000005000000052000000520000001C
:103270004B000000490000005D0000005D00000000
:1032800058000000580000005B0000005A000000D9
:1032900058000000540000005500000057000000D6
:1032A00056000000570000005700000056000000C4
:1032B00053000000540000005700000057000000B9
:1032C000570000005A0000005B000000580000009A
:1032D0004E000000510000005300000050000000AC
:1032E00048000000550000005A0000004B0000009C
:1032F00044000000570000004200000042000000AF
:103300005A00000043000000560000004400000086
:10331000430000004D0000005F0000005500000069
:1033200057000000560000005E0000005900000039
:10333000550000005C000000540000005500000033
:10334000570000005B00000057000000570000001D
:103350005600000059000000570000005A0000000D
:103360005D000000570000005700000059000000F9
:1033700061000000580000005800000059000000E3
:1033800058000000580000005B00000055000000DD
:103390004000000043000000430000004200000025
:1033A0004500000044000000400000004400000010
:1033B0004000000043000000460000004100000003
:1033C0005900000042000000520000004B000000C5
:1033D00047000000500000005600000049000000B7
:1033E00000000000857C903EBEC1273F448B10400A
:1033F00002BC314000004040B1E1493F0C028B3E2D
:103400000000404000004040D95F563F96430B3DCE
:10341000000000002EFF713F1EA7883F32E68E3E5F
:1034200008AC843F33C4313FFF21C53F2AA9134074
:1034300058A8A53F000000000F9C8B3F0000000033
:103440004850BC3E7C61023F000000005D6DE53EDF
:1034500000000000A60A863E7DD09B3F0000404051
:10346000CE19D93F287EAC3F12A535404E62803F31
:1034700048E11A3F00000000A835CD3EE926F13EA4
:10348000508D073F3480B73DBC96403F0E4F0F3FF5
:10349000E3A54B3F32E6AE3E000000000000000016
:1034A00007F0F63EED9E4C3F6744493F93A9123F1B
:1034B00096213E3F3F356E3F6132D53E2EFF513F54
:1034C000FB5C3D3F0000000024B95C3FAD696E3FEE
:1034D0006744493F7A36A33F76E01C3E0000000077
:1034E0004772893FDC46033F12141F3FF2D28D3FE3
:1034F0003411D63E00000000D881F33DD0D5F63E11
:10350000865A333FAC8B1B3ED509E83DFDF6B53EF0
:10351000DE02C93FF4FDD43D19E2483F98DD533F38
:1035200068910D3F92CBDF3EA089303F27C2C63E57
:103530001F85CB3E61C3233FAED8D73FE10B133E7F
:10354000083D1B3F00000000D93D993F00000000EE
:1035500096B24C3E6DE73B3F3E79D83D9EEF273E0D
:10356000832F2C3F4A0C023F4547B23E7B835F3F8F
:10357000D42B35BF182613BF621008BFA69BA4BE6C
:1035800029CBF0BEECC081BF39D645BF000000009A
:10359000000000007B1496BF89D2DEBE66F774BFC0
:1035A000E0BEEEBE903117C03CBD92BEC1A8C4BE05
:1035B0007E8CF9BE3EE82DC06B2B8EBF637F19BF9A
:1035C000197347BF00000000A857CABC00000000E4
:1035D000068145BFCA54C1BD39D685BE0000000072
:1035E0000000000076E01CBD60E5D0BC2AA9B3BE97
:1035F000E2E945BF3A233ABF76E09CBE97FF70BF31
:10360000547404BFDFE08BBD728A4EBF48BF8DBFCC
:1036100014AE47BE58A895BE05A362BFCFF733BF0F
:10362000DA1B4CBF431CABBE3CBD52BF053441BF8F
:10363000547474BF97907FBFCC7F58BF418222BE25
:1036400000000000EB73E5BFC05B10BFA60AC6BD5B
:10365000C9760EBF00000000000040C0000000005E
:103660007B83AFBE9031B7BF00000000CC5DABBE26
:10367000000000006C09F9BC0000000014D004BE7A
:10368000A24512C062A19EBFDC4683BDA91310BF34
:103690001B9E86BF0000000000000000583904BFD8
:1036A000295CAFBE418212BFAED80FBF257502BFE5
:1036B000D5E7B2BF000040C055C138C0840DF7BF88
:1036C0002C6539BF302AE1BF000040C0A9A4CEBE9E
:1036D000CC7F38BF2BF6B7BF3B708EBE5D6D35BF5C
:1036E000D9CE57BF000040C02C65F9BE90A0A8BF3E
:1036F000009196BF00000000E561C1BE5A64EBBFB7
:10370000DFF800F011B00110DFF800F0A9C00110DF
:10371000DFF800F015C10110DFF800F00DC1011055
:10372000DFF800F0DDC00110DFF800F091BE0110FD
:1037300050F8382F11430160704750F8382F22EAB3
:10374000010101607047817DFF291CBFC07DFF28FA
:1037500001D0012070470020704738B50446FCF7BF
:10376000C7FC0546207820B9022002F093FB012017
:1037700020700BE038B50446FCF7BAFC054620780B
:1037800020B1022002F024FB002020702846BDE872
:103790003240FCF7B1BC4068D030FCF7BDBC40689B
:1037A000EC30FCF7B9BC70B5456886680C4606E09D
:1037B000286A401C2862641E686A401C686234B132
:1037C000286A0178306803F049F80028F0D12046D3
:1037D00070BD70B5456886680C4608E0296B0870B6
:1037E000641E286B401C2863686B401C68632CB106
:1037F000306803F02AF810F1010FEFD1204670BDB8
:1038000070B5456886680C4605E0C1B205F1400018
:1038100003F057F8641E2CB1306803F016F810F16D
:10382000010FF2D1204670BD70B544684FF484702A
:1038300026180D463046FCF7F9FE217F627FDFF83F
:103840001C0800685118C91D6943DFF8142851434A
:10385000A269B1FBF2F141186331B1FBF0F0411CF8
:103860003046FCF7E7FE3046BDE87040FCF7E6BEA8
:10387000F8B504464FF484706568A6682F1838467A
:10388000FCF7D4FE306818300068000711D5DFF867
:10389000CC1709684FF4FA70B0FBF1F1022938BF78
:1038A00001213846FCF7C6FE3846BDE8F240FCF779
:1038B000C5BEDFF8B007FFF75DFF30682021FFF7D6
:1038C0003CFF00F08CFA00F090FA01B0BDE8F04047
:1038D000184738B504460D4620212868FFF72DFF0C
:1038E000297D606E0122FCF70DFE297D606E0122AC
:1038F000FCF722FE297D606E0022FCF753FEA97DB5
:10390000606E0022FCF74EFEA078012805D12868E1
:10391000183000680007FAD405E04FF0FF3104F1D9
:10392000D000FCF7F5FB00F0B3FB2846FFF70BFFD8
:1039300030B1A97D606EBDE838401122FCF732BE7F
:1039400031BD2DE9F04780460026D8F808502A6896
:10395000D8F8049002F1400009F12807046802F148
:10396000440014F4F06F04603869FB69D7F820C094
:103970000146A3EB0C0A34D0600518D5101D02686F
:1039800002F00F06002221290260ACBF20250D465F
:10399000294600F05DF8C5F120015145C8BF5146E8
:1039A0004046FFF72DFF16E03869401E3861386940
:1039B00088B1012100F04CF8286850F8041F01F08C
:1039C0000F060021002E0160EED0B868401EB860DE
:1039D000F868401EF86089F81F60404600F08CFAD5
:1039E00025E0620609F19C050AD5E1B100F030F846
:1039F0003861787908B13E6111E0386900280DE03E
:103A0000E20614D579B1397D4E1E864228BF06469E
:103A1000314600F01DF83869801B386107D128460F
:103A2000FFF76EFE03E051464046FFF7E9FEA006B1
:103A30000CD53D6855B129464046FFF7B4FE3860C5
:103A400020B9291D4046BDE8F047EDE6BDE8F08706
:103A50004046BEE638B50446DFF80C066568FFF759
:103A600089FE63E2406800210170DFF8FC05017007
:103A700041707047F0B504468DB06568A6680F4682
:103A8000FCF736FB2978002941D101212970FCF788
:103A900033FB3878687000217878A870786868609F
:103AA000B868A860F868E86038692861387D2875CA
:103AB000787D6875B87DA875B869A861387F287762
:103AC000787F6877B87FA8770020286205F12C00FE
:103AD000416069628160A962C1600170417010211A
:103AE000017400214174706802F0E9F9204600F089
:103AF00028FA204600F077FA68B9306802F093FEA1
:103B0000706802F079F9FCF7F3FA00212970FCF7EC
:103B1000F3FA002065E008233022002101A8FCF719
:103B2000FFFA069401AB307BDFF8402509900020B6
:103B3000009005F18000B168FCF7F6FA082328220E
:103B4000002101A8FCF7F4FA059400233069DFF89E
:103B50002015079001AA05F19C00FCF7EDFA082357
:103B60002422002101A8FCF7CBFA01208DF81C00CB
:103B7000A87840B901AA002105F1D000FCF7C4FAE9
:103B8000DFF8F0042861687840B901AA002105F146
:103B9000EC00FCF7B9FADFF8E004E860082324221F
:103BA000002101A8FCF73EFD00200690ADF81400AE
:103BB00007944FF4847001AB0A22DFF8C014284444
:103BC000FCF740FDF269B16905F1400002F052FED8
:103BD00023460FF2C942042105F16C0002F0E6F819
:103BE00020460DB0F0BD70B506467468B568606ECD
:103BF000FCF778FC286840F2F271FFF79EFD304632
:103C000000F0C2F8304600F077F9286800F12C0186
:103C10000A6822F010020A6050F8301FDFF86024B2
:103C200011400160686802F0E7F804F18000FFF7D6
:103C30006BFD04F19C00FFF76BFDA07818B904F14F
:103C4000D000FFF769FD607818B904F1EC00FFF7C8
:103C500063FD4FF484702044FFF762FDFCF748FADF
:103C600000212170FCF748FA04F16C00BDE87040B7
:103C700002F0E3BA70B50246202955686FF00100E2
:103C800004D023D3222909D004D370BD012085F8A4
:103C90002D001AE0002085F82D0070BD9668FCF715
:103CA00027FA0446306802F0D0FD10F1010FF9D177
:103CB00005F1380000210161C168491E4161002100
:103CC000816101602046FCF717FA002070BD2DE9E4
:103CD000F84304466668A7680D469046FCF708FA64
:103CE0008146B06A18B14846FCF706FA43E04FF443
:103CF00084703044FCF79AFC0020F07735627062E3
:103D00004846FCF7F9F9D84D681CFFF726FDDFF8A7
:103D10007403016841F48071016020464146FFF759
:103D200042FDB06206F1D00958B941462046FFF77E
:103D30007BFDB07820BBB1684846FCF7E9F9E8B9EB
:103D40000FE038682021FFF7F3FCB078C0B9B16804
:103D50004846FCF7DDF988B941462046FFF764FD87
:103D60000020B06239461020F0773046FFF7B1FDF1
:103D7000681CFFF7FFFC4FF0FF3002E0706A00E0C4
:103D80000020BDE8F283B4E070B504466568A6681B
:103D9000FCF7AEF9A96A41B9316818310968090719
:103DA00003D4BDE87040FCF7A7B90021A962FCF775
:103DB000A3F93046FFF7C7FC18B131462846FFF794
:103DC00088FD30682021FFF7B8FC00F008F8A5480E
:103DD000FFF7D0FC00F009F8BDE870401847A9488B
:103DE000016821F48071016070476A6A286A2B6952
:103DF000514201442962204670472DE9F84381462B
:103E00008846D9F80850D9F80440286817464FF476
:103E1000FA61FFF792FC04F13006B06820B100F0BF
:103E200063F84FF0FF305DE0B760271DF876C6F805
:103E3000008070600CE031689DF800000870306808
:103E4000401C30607068401C7060B068401EB060FC
:103E5000B068002838D0694604F1400002F014FD33
:103E60000028E8D5DFF800924846FFF776FC854841
:103E7000016841F4007101604FF4FA612868FFF7AE
:103E800057FC607888B9396804F1EC00FCF740F918
:103E900038BBB0604846FFF76DFC71683068494236
:103EA000084430601020F8761BE094F82D000028BC
:103EB0001CBF7068002805D00020B06004F19C0091
:103EC000FFF71EFC00200DE000F00EF8726830686D
:103ED0005142014431606078012802D1BB684846F4
:103EE00098477068BDE8F28328684FF4FA611FE4D0
:103EF00000BF4FF0FF30704738B504464FF4FA6109
:103F0000A06865680068FFF718FC5E48016821F446
:103F1000007101605448FFF72DFCFCF7E9F8A96B2C
:103F200001B934E40021A963FCF7E6F86A6B286B59
:103F3000EB68514201442963204601B0BDE830409E
:103F4000184770B588B0044602A80FF26011142219
:103F500001F026FE6568A468206802F064FC40F267
:103F6000F27620683146FFF7E8FB206800F1440153
:103F700002AB0E6005F13C014A780978C90853F894
:103F80002110114340F8341F6846FFF7CDFB05F1BF
:103F900018000FF22C11027951F822100FF2301292
:103FA000437952F823208379374D11430FF22812B9
:103FB00052F8232042EA010302680199206802F0C6
:103FC00019FC286840F010002860686840F0010083
:103FD00068602046FFF7B7FB18B1686840F44040BE
:103FE000686008B070BDF0B585B085684468687DCC
:103FF000264F40F0004000900826287D384301906D
:104000002846FFF7A0FB38B1A87D40F000400290A1
:104010001026E87D38430390FE204DF806006946DF
:1040200004F15800FCF7F6F96066A0B1697D0F2233
:10403000FCF7B8FA00F02CF82846FFF784FB48B1EB
:10404000A97D606E1122FCF7ADFAE97D606E122247
:10405000FCF7A8FA012005B0F0BD0000E83301002C
:1040600040420F00BA280020B92800204339000040
:10407000553A0000973700009F3700007138000064
:10408000FEFCFFFF301000402C1000400000C0A0DC
:10409000297D606E1022FCF785BA000080B50428E7
:1040A00004BF1046FFF74DFF002002BD00000000D6
:1040B00008000000100000001800000020000000B0
:1040C0000000000020000000400000006000000030
:1040D00000000000080000000000000006000000D2
:1040E000020000008600000082000000DFF800F0FF
:1040F00031BF0110DFF800F0F5B70110DFF800F074
:104100002DB40110DFF800F0CDAC0110DFF800F0A5
:104110002DC00110DFF800F09DB20110DFF800F0B3
:10412000FDB1011020B108233C220021FDF708B9A0
:10413000704780B5FFF7DAFFADF80000FBF7D8FF56
:10414000ADF80200009802BD01B5BDF80200FBF712
:10415000D3FFBDF80000BDE80240FFF7CBBF38B584
:10416000DFF86828DFF86818DFF8684892089200DE
:10417000891A2161E26010468B18002501E020F8C1
:10418000025B9842FBD38B0802EB8303E82023F801
:10419000045C10804FF6FC700140EC39A2F8E81086
:1041A000002002F1E801616000F004F8A060E0681E
:1041B000606031BDF8B500240025061D16F003002F
:1041C0001CBF311D0E1AFFF7B4FF0146DFF80408CB
:1041D000B6B20160112EB4BF436883681888070423
:1041E00003D580F40040002517E02F0011D0278868
:1041F0001A8817442780BFB2B7420ED33846BCB1E5
:10420000801B83B2042B0EDBA05346F400462680AD
:104210000DE0B04210DA01251C460344188800283E
:10422000DDD1002404E0208840F400402080241DDB
:1042300000F0D6F92046F2BD1C46E0E710B5044672
:10424000FFF777FFDFF88C17086034F8042CC2F30F
:104250000E0224F8042C221F4B689A4238BF4A6091
:10426000BDE8104070E738B50446FFF762FF002252
:104270000C23DFF864175343CD18A96C21B18C428D
:1042800006D0521C032AF3D3FFF75EFF002032BD95
:10429000FFF75AFF05F1480032BD7CB50546FFF730
:1042A00048FF044600210C22DFF82C074A438618F9
:1042B000B06C48B1854210D0491C0329F3D3204685
:1042C000FFF742FF002076BD3065B5640021FFF79F
:1042D00015FFF06408B902F073FB2046FFF734FFC6
:1042E00006F1480076BD38B50446FFF722FF0025E9
:1042F000DFF8E4260C216943515A21B18C4206D0E3
:104300006D1C062DF6D3FFF71FFFFF2032BD01E322
:1043100010B504462088FFF7E6FFFF2802D14FF0D2
:10432000FF3010BD0C21DFF8B026484310448168EF
:1043300011B96FF0010010BD2046BDE810400847DC
:1043400002460FF2B860104710B500200C21DFF8CC
:104350008826002401FB00F31344401C03289C64BE
:104360001C65F7D30020002301FB00F4401C13530D
:104370000628F9D3BDE81040F1E678B58FB0FFF715
:10438000B5FE05466846FFF7CDFE05204FF47A716D
:10439000069008910022DFF84406DFF844160490E6
:1043A00005916946DFF83C06FFF7ACFE040006D035
:1043B000FFF7BFFE06462046FFF76FFF08B902F081
:1043C000FFFA3046FFF7C0FE2846FFF793FE10B015
:1043D00070BD38B504460D46FFF7ABFE002145F829
:1043E0000C1C226812B9256006E00A4652F80C1C23
:1043F0000029FAD142F80C5CBDE83240A4E680B551
:10440000FFF784FEFFF72FFF10B96FF0040002BD25
:10441000816809B9022002BD4068ACE0062881B07D
:104420000ADA0C22DFF8B0355043185A00281CBFB6
:104430004FF6F873984202D14FF0FF3001E0088048
:10444000002001B0704730B5DFF89C552A680C4653
:104450004FF47A71A1FB0001002302F0B5FA0023AA
:1044600099424FF0004201D8904202D36FF002000F
:1044700030BD2060002030BD01468868496808478B
:1044800070B505460E46FFF741FEFFF706FF040034
:1044900009D0FFF74EFE0146002200F09AF820B145
:1044A000521C062AF9D302F08BFA4FF6F8701880E6
:1044B0005C60002098602A706068306000F090F8BE
:1044C000002070BD0C38B9E670B5044615461E468E
:1044D0000846FFF708FFFF2802D14FF0FF3070BDFC
:1044E000014633462A462046BDE870407CE07CB554
:1044F0000546164600F0A9F8040010D12888694640
:10450000C0B2FFF78BFF28B13068FFF7DBFF6FF019
:10451000050076BDBDF800002880FFF770FF20463B
:1045200076BD38B50546FFF7F1FDFFF79CFE044662
:1045300002F062FB002818BF012800D014B96FF008
:10454000040032BD4DB900200090009B606800F06F
:10455000B9F9401E8041C00F32BD15F1010F08BFEF
:104560004FF0FF30F0D069462846FFF76CFF002877
:10457000EBD032BD80B500F064F8002002BD2DE91B
:10458000F843054600F0A3F9FFF787FE04006FF03B
:1045900002091CD0FFF7CDFD0146002200F019F8FA
:1045A00040B1854211D0521C062AF7D302F008FA16
:1045B000BDE8F2831D805C609E603A706068C8F858
:1045C000000000F00DF80020F2E700F009F848467E
:1045D000EEE70C23DFF800045343034418887047C8
:1045E0000846B1E5E6E529E62DE9F8430E46062E34
:1045F000BCBF0446062C154698466FF002090BDA3C
:10460000FFF797FD0C21DFF8D02301FB06F7D71940
:10461000796819B9FFF798FD484610E0FFF794FD57
:10462000A8F108004146047046708570786808302B
:10463000FFF7CFFE7868406800F003F80020BDE87F
:10464000F2834FF00041FBF7E9BF2DE9F041064648
:104650000F469046FFF75AFDFFF705FE050008BF1D
:104660006FF004001BD0FFF764FDA968002441B17E
:104670000C46A4F10C010A68AA6000220A60FF221D
:104680008A72FFF761FD0CB9022008E0A4F10C006A
:104690000179317040793870C8F800400020BDE8D9
:1046A000F08100BF052002F0B6FA02F089F900BFE0
:1046B000FFF730BD10B5DFF8300302686FF000443B
:1046C000A4FB020100234FF47A7202F07DF900236B
:1046D00099424FF0004201D8904200D3204610BDCD
:1046E0007CB50C4615461E466946FFF7ACFE30B950
:1046F000009833462A46214600F002F8002076BD95
:104700002DE9F8411D4689B02C6880460E461746B3
:1047100004BB0C20FFF74EFD040008BF6FF0030040
:104720002CD00823242200216846FBF77BFF0020C1
:10473000ADF810000590069400236A464146DFF864
:10474000AC02FFF7EBFC206000B9ABE76660A76046
:104750002C600BE0DFF898623068804705462068DF
:10476000FBF764FFA76028467168884720684146C8
:10477000FBF760FF2068FBF761FF00200AB0BDE88F
:10478000F08100281CBF0068FBF750BF7047E0B500
:104790008DF80400684602F07BFA9DF805000EBD16
:1047A000E0B50190684602F0A9FA0EBDE0B50190AF
:1047B000684602F0ADFA0EBD2DE9F84384B0044618
:1047C00000F085F8FFF74FFD05460020029002F04B
:1047D00013FA002818BF012800D015B96FF00400A3
:1047E0006DE044B900200190FFF794FC81460198E8
:1047F0000124814423E014F1010F08BF4FF0FF3082
:10480000F1D001A92046FFF71EFE0028ECD056E0AB
:10481000039902A8FFF7DDFD6868FFF712FF019911
:10482000012411F1010F0AD0080008D0FFF772FC33
:10483000B9EB00002ED0019981422BD30190019B4E
:10484000686800F03FF828B303AA69460DF101003B
:10485000FFF7FBFE0400E2D19DF801000DF102011B
:10486000FFF7DCFD0028D3D1039A9DF80010BDF8B6
:104870000200B0470028CBD017B1BDF80200388045
:10488000B8F1000F1CBF9DF8001088F800100C98BC
:1048900003990160FFF7B3FD029EFFF74AFC014652
:1048A00056B1324600E0024652F80C0C0028FAD10C
:1048B000A86842F80C0CAE60FFF792FE204605B0E7
:1048C000BDE8F0834FF000420021FCF73DBD0E46ED
:1048D00017469846FFF71ABC38B5FFF717FC044691
:1048E00002F08AF9002818BF012811D0FFF721FC37
:1048F0000025394A0C236B43D15A39B1D1184B6882
:104900001968A14206D06D1C062DF3D3FFF71CFCDD
:10491000FF2032BDFFF718FCE8B232BDE0B5ADF8BC
:1049200000008DF80610002032490A68ADF8020038
:104930006846904710B99DF807000EBDFF200EBDD8
:104940001078422801D101207047002070470CB434
:1049500078B504460E4687B002F04EF90CAD00283B
:1049600012BF0128052002F056F91420ADF81000FE
:104970000021FF2002918DF8120006960595FFF7A1
:10498000ABFF05AB03222146FFF79EFD002001A9E6
:104990000190009100230022174941F28830FFF76F
:1049A0000BFF012808BF062006D020B9019828B1C6
:1049B000FFF788FD02E0052002F02DF90598006858
:1049C00008B070BC5DF80CFB00000000942B0020C8
:1049D00000400020E81C00207C1C0020A52A0100CB
:1049E0007804002041430000E833010079440000CE
:1049F000540400205C0400204149000011430000E1
:104A0000334100004941000080B5002918BF00284B
:104A100001D0100001D1002002BD087938B1314821
:104A2000921C42708360084600F01FF8012002BD0E
:104A300038B52C4949680A79CB88012404FA00F575
:104A40002B420BD1C5B2954238BF401CF6D305E0CE
:104A5000C1B28A4200D2FF20C0B232BDC4B2944279
:104A6000F6D189680029F7D1F5E738B51D4DAA6858
:104A7000044612B16868214690476C600020FFF739
:104A8000D7FF2870BDE8314015E010B54FF6FF7331
:104A9000994202D0C4882143C1809A4203D0C18880
:104AA00021EA0202C2800F494A68904202D1BDE861
:104AB0001040DAE710BD38B50A4908784D7802246D
:104AC000401CC0B2FFF7B4FF641CFF2802D0E1B263
:104AD000A942F5D3E0B2A84238BF641CFAD331BD75
:104AE00000000000742600202DE9FC47DFF818586C
:104AF0000E461746002440F20133E978AA7895F86B
:104B00000090DFF80888DFF808A8C31A21D05B1EE0
:104B100026D05B1E2BD09B1E2ED05B1E60D05B1E52
:104B200063D05B1E74D05B1E00F088805B1E00F0BB
:104B30008C805B1E00F090805B1E00F096805B1EF8
:104B400000F09A800E3B35D0B3F1E90100F09B8074
:104B5000A0E0102E2FD11022394605F1700081E01F
:104B6000102E28D11022394605F180007AE0042E5B
:104B700021D1386828629BE0012E1CD101292DD05B
:104B80003878A8703AB10028F5D100F0DDF900F0CE
:104B90006CFBC0B28DE00028EDD0DFF87817102054
:104BA000FFF7D5FEDFF870170A78904212D3AC7089
:104BB00015207EE0012E6BD1012A0FD03878E870E5
:104BC00031B1002874D100F0BFF900F04EFB6FE066
:104BD00000286DD0012000F092FB69E0122467E00C
:104BE000022E55D13888288362E0202E50DA05F154
:104BF00098041F21204600F05FFE00F05CF82E7143
:104C000000F0A2F92979009102460194012311E0F4
:104C1000202E3DDA05F1B8041F21204600F04CFE9D
:104C200000F049F8AE7100F08FF9A97900910246C1
:104C300001940023514600F041F936E0012E27D1BE
:104C40003878042824DCE87132E0012E20D138784D
:104C500004281DDA28722BE0062E19D106223946C7
:104C600005F1D80000F08CFF22E0012E10D1387839
:104C700007280DDC68721BE0012E09D13878042862
:104C800006DAA87214E0012E02D13878E8720FE03B
:104C900018240DE028280ADA022E08D13B88DFF814
:104CA0007C1602461020FFF752FE044600E0022464
:104CB000E0B2BDE8F68732463946204600F060BFD4
:104CC00038B50D4600244FF440730246D11ADFF880
:104CD00038061ED0491E1ED0491E20D0491E22D0A3
:104CE000491E23D0491E25D0491E27D0491E27D052
:104CF000491E29D0491E2BD0491E2BD0491E2BD02E
:104D0000491E30D0491E30D00E3915D0E9392ED089
:104D100030E040782CE0102200F170011FE01022FA
:104D200000F180011BE0006A28602CE0062200F1FF
:104D3000900114E080781BE0C07819E0008B1FE040
:104D4000027900F198010AE0827900F1B80106E0E9
:104D5000C0790DE0007A0BE0062200F1D801284668
:104D600000F00EFF0FE0407A02E0807A00E0C07AA7
:104D7000287008E0282A05DADFF8A41500F077FA91
:104D8000288000E00224204632BD1FB5DFF87845B8
:104D900000B16062DFF8802510780870502021781B
:104DA000FFF7BCFD024604F17000019004F12003FE
:104DB000E07A039304F1800102910090102063785F
:104DC000DFF86015FFF7C3FD002004B010BD1CB56F
:104DD000DFF834251178044600F0B7F8132200926A
:104DE00023460246DFF8401500F068F8C0B216BD51
:104DF00000B58FB008233C2200216846FCF7A0FADA
:104E0000DFF8280500F1500107914FF407720321E4
:104E10000892069100236A460FF23511FCF798FAC2
:104E20000FB000BD7CB5DFF8E04404F11C01204662
:104E3000FFF726FB012000210190009100230FF2D3
:104E400025550022294604F12800FBF70BFC02201F
:104E500000210190009100230022294604F14C001A
:104E6000FBF700FC0C206070002104F170000022B0
:104E70000023002580E82E0004F18005002085E84D
:104E80000F002062E0712072A1720720607204F1AD
:104E9000700000901023DFF89864022200F00DF8F3
:104EA00000951023032200F008F804F12000009080
:104EB0000423042200F001F873BD31461020FFF7EF
:104EC00046BDFEB51446DFF840240F46064611786D
:104ED0001D4600F03AF88DF800008DF801608DF85D
:104EE00002708DF803400622294601A800F048FE12
:104EF0006A46DFF8401400F0B5F9C0B2FEBD7CB5DB
:104F00001646DFF804240D460446117800F01DF81B
:104F10008DF800008DF801408DF802508DF8036087
:104F20006A46DFF8141400F09DF9C0B276BD80B572
:104F3000DFF8D403017800F008F80246DFF8FC132C
:104F400000F095F9C0B202BD49465020FFF7E6BC1B
:104F50002DE9F04F85B0FFF765FFDFF8C403DFF8F8
:104F6000A873DFF8DCB3DFF8DCA3049007F1D808FE
:104F7000DFF8D40303904FF6FF79F8694FF0FF3361
:104F800052460021FCF7E0F904004FD000200290C7
:104F900002AA01A90DF10600FFF7A9FA002845D1E0
:104FA000BDF806000125102802BF9DF804103878CE
:104FB000814235D10298018849450BD1408841048E
:104FC0002ED507F120010091042303990422FFF755
:104FD00075FF25E006463078A22802D0D0281BD0E5
:104FE0001EE0707913281BD13189012904BF78791B
:104FF000022807D107F14C00FBF772FB7088FFF71E
:10500000E6FE0DE00499052200F031F981B207F1C6
:105010004C00FBF74EFB03E0304600F03DF8054640
:10502000029800281CBF002DFFF74CFAE00723D59B
:10503000F878B97801431FD018B103208DF800002B
:105040000BE0F979387A8DF800108DF8010006220E
:1050500041460DF1020000F093FD787A39788DF821
:105060000800B87A8DF80900FFF76FFF02466B461B
:1050700059461020FFF76BFCA00707D57879012867
:1050800005D0022804BFF889FFF7A1FE75E707F1F4
:105090000C0100F0EFF870E7F0B5044685B0A17898
:1050A0009B4E994D080014D0022940D0032918BF07
:1050B00004295AD005296FD0062900F08D800729D0
:1050C00000F09C800C2900F09280112900F09D8056
:1050D00024E0607810BB05F17001009110239A4F15
:1050E00002223946FFF7EAFE05F180010091102304
:1050F00003223946FFF7E2FE0622E11C05F190008B
:1051000000F03EFD2978FFF720FF024605F19800E8
:105110000190012328790090FFF7CFFE686A0028EC
:105120001CBF016800291FD02046884798E061789D
:10513000B9B9E07868B12978FFF707FF05F1B80140
:1051400001910246A97900910023FFF7B6FE607035
:1051500007E005F12800FBF7BCFA10B9012000F0C8
:10516000CEF861780029D9D179E06078002876D12D
:10517000032902D10121A970D0E7AA78298B39B17E
:10518000E8780243CAD005F12800FBF792FAC5E798
:10519000012AC3D1A870C1E76078C8B9207B6B49E8
:1051A0000190231D608900901020E278FFF7CFFB6B
:1051B000207B0428B2D100210120A9708DF80800BD
:1051C000002302AA012140F20530FFF78DFCA5E77C
:1051D0003128A3D10020DDE7A2885D496B4610206D
:1051E000FFF7B5FBA2885B4900F041F896E7237B07
:1051F000A28859491020FFF7AAFB30E005F14C00C6
:10520000FBF76EFA607850BB88E7287BA188ADF881
:105210000010022809D1686A00281CBF4268002AD1
:1052200005D06946201D904715E0012803D10020D4
:105230008DF80A000FE070B901208DF80A00E088AF
:10524000ADF802002089ADF804006089ADF80600D1
:10525000A089ADF808006A46404900F003F8012033
:1052600005B0F0BD1020FFF772BB0246414610208A
:10527000FFF76DBB2DE9F0410D4688B004466A8802
:10528000334903AB1020FFF762FB9DF80C10C807F1
:1052900058BF142030D51C4E06F14C00FBF719FA0C
:1052A00048BB05221E49FFF7E2FF07466888ADF8B4
:1052B00000006A46A988ADF80210E8882849ADF8D0
:1052C00004002889ADF806006889ADF80800FFF7EA
:1052D000C9FF8046C0B258B974710C22294606F144
:1052E0000C0000F04DFCB9B206F14C00FBF7E1F9FF
:1052F0005FFA88F000E0162008B0BDE8F0810146B2
:105300000148C069FBF78AB988040020994501105B
:1053100009450110F17F0110694F0020BD84011083
:10532000F584011059200100E5140110041D00202E
:1053300095A8000039090100CD0F01009128010056
:105340005944011003000080E1A80000710401002D
:10535000097F0110C5EF00003DEF000005160110A8
:105360007D150110CBE7024681B01078022903D1E8
:10537000517800EB012013E0032906D1517892788F
:1053800000EB012000EB02400AE0042908D151782B
:10539000937800EB0120D17800EB034000EB016033
:1053A00001B07047E0B50FF2F8107A4A0190102171
:1053B0000091132378491020FFF7C9FAC0B20EBD3F
:1053C0002DE9FC42002708280D469146734E00F255
:1053D0007780DFE800F0050C1824303C48546A0060
:1053E000082D6BD10822494606F1080063E0152D0F
:1053F00064DA152106F1100000F05EFA2A464946EB
:1054000006F1100057E0152D58DA152106F1280095
:1054100000F052FA2A46494606F128004BE0152DC5
:105420004CDA152106F1400000F046FA2A464946BA
:1054300006F140003FE0152D40DA152106F1580035
:1054400000F03AFA2A46494606F1580033E0152D95
:1054500034DA152106F1700000F02EFA2A4649468A
:1054600006F1700027E0152D28DA06F188041521D1
:10547000204600F021FA2A46494620461BE02846ED
:10548000FFF7B0F804000ED0706806F1A001884262
:1054900018BFFFF7A8F82A464946204600F070FBDF
:1054A000746035700DE013270BE0072D06D107223D
:1054B000494606F1B00000F063FB02E0182700E067
:1054C00002273846BDE8F6822DE9FC4791464A6836
:1054D000107852780A9CDDF82C80DFF8C0C000EB11
:1054E0000220002680B242F623221D462746801A5B
:1054F0000CEB070307D0401E052811D9801F20D0D0
:1055000026382ED040E0082F2DD8C7F10807B8451F
:1055100034BF4446C4F108042C8003F108012EE096
:10552000D1F80CA0504601F005FC80B2B8421ADB5D
:10553000C11B8845B4BF4446041B2C800AEB0701FD
:105540001DE09CF800000146A1420CD3C01B804521
:10555000B4BF44460C1B2C80DCF804002A88C11917
:105560000EE0082F01D3072610E0C7F10707B84562
:1055700034BF4446C4F107042C8003F1B0012A88EB
:10558000484600F0FDFA01E02E800A263046BDE8CC
:10559000F68700001C030020ED2C010064020020AF
:1055A000C95400000000000000000000FEB5DFF854
:1055B000EC52DFF8EC62044628788000FFF712F81E
:1055C000010071610BD04FF6FF77384601F0CEFB3A
:1055D00028788000FFF706F80100B16101D113209F
:1055E000FEBD384601F0C2FBE0070BD50FF2BC2030
:1055F000AC4A0190102100911523AB491020FFF710
:10560000A6F900E00020C0B2FEBD18B1A4490861AF
:1056100000207047112070477FB5002413460528ED
:105620000A469F4D37D8DFE800F003080D10232B02
:1056300001292ED1187828732EE0012929D1187854
:10564000687329E0012927D023E0012921D11878A6
:10565000944BA873FF210FF2B90002900191152617
:1056600068690096002205F10E0101F099FB13E034
:1056700005290ED1194605F11C0000F081FA0BE056
:10568000082906D105F124001968016059684160B4
:1056900002E0182400E00224204604B070BD00009F
:1056A00010B500240B4605287D492DD8DFE800F011
:1056B0000305071C1F25087B17E0487B15E00878C9
:1056C00018704878587088789870C878D8700879B9
:1056D00018714879587188799871C879D871087AA1
:1056E0001872487A587210E0887B18700DE0052215
:1056F0001C31184600F044FA07E001F1240001686B
:1057000019604168596000E00224204610BD000085
:1057100070B510460A7A0024D50601D5082070BD60
:10572000049A0AB10B2070BD0A78022A4BD14A684C
:105730001578527805EB0225ADB24FF6F176AD1B28
:10574000012D08D9AD1E12D06D1E04D06D1E08D0DB
:105750006D1E2DD034E001251D80C9680A780270C5
:1057600033E005221A80C96800F00AFA2DE00F2202
:105770001A80CA6813780370CB685A784270CA6876
:1057800093788370CA68D378C370CA681379037139
:10579000CA6853794371CA6893798371CA68D379A7
:1057A000C371CA68137A0372C9684A7A42720CE0FC
:1057B00008221A80C9680A6802604A68426004E0E8
:1057C0001C800A2401E01C800124204670BD2DE9C4
:1057D000FC410E7A0024FF25B70648BF082045D4B7
:1057E0000E78022E18BF01243FD1D1F804C0089EC4
:1057F0009CF800E09CF801C0294F0EEB0C2E1FFA1C
:105800008EFE42F60218BEEB080E3BD04DF2EF685A
:10581000BEEB080E18BFBEF1020E03D0BEF10304AA
:1058200026D038E0C86813780370537843709378B3
:105830008370D378C370137903715379437193796B
:105840008371D379C371137A0372527A4272C86832
:1058500007F10C01884214BF022500253869002891
:105860001FBF01680029284688472046BDE8F68109
:10587000340008BF082B05D1CC6815682560556831
:105880006560052501240194009601F0F1FAFF2DD1
:105890000446E3D1E9E70A24E7E70000694F002066
:1058A00048260020DC0A0020ED2C010011570000E2
:1058B000CF57000000000000002201F063B8017023
:1058C0000A0A42700A0C090E8270C170001D7047EE
:1058D00000280AD0B0FA80F18840D1F19D01C905B5
:1058E000020672F1004241EB10207047FF2212EADB
:1058F000D05C1DBF12EAD153944593422BE09C44E7
:10590000D30780EA01021A4043EA002043EA01215A
:10591000A1FB0030C04238BF40007CF17F010BDBAF
:10592000FE294ADA5B0842EAC15153EA006373F187
:10593000004C51EB10207047D1F1080CDCF1200134
:105940002FDB5B0810FA01F10B4320FA0CF073F126
:1059500000415041704794451CBF02EAD153934225
:1059600080EA010202F000421DD0400019D0490037
:1059700017D05BB9634514D00902B1FA81F399409D
:10598000BCEB030CC00140F00040C1E70002B0FADC
:1059900080FC10FA0CF0B3EB0C0CC90141F0004193
:1059A000B6E71000704740000AD0490008D010F157
:1059B000807F94BF11F1807F02E042F0FF4070478A
:1059C000D043704790EA010F41F1F08281F000412D
:1059D000431A4FF000423EBF5340C01AC91800BFDF
:1059E000D3095FEAD05C13EB400F34BFB3EB410F38
:1059F00040E07CEBD1530CD342EA012122D8D1EB19
:105A0000402009D3400A28BF5FEA500140EBCC5048
:105A10007047401A15D04002B0FA80F2521C9040F4
:105A2000400A4FEA3C23B3EB026384BF00EB7300F0
:105A300007E040F400001A16DB07C2F10102D04073
:105A400018437047182BFCDC31FA03F202FA03F317
:105A5000591A38BF42F00102D2EB40203CBF40004F
:105A6000ACF1010C5FEACC5CC20572F100414CEB79
:105A70005020704713EB400F0FD2C94209D0ACEB56
:105A8000D153022B03DB4902172BDDDD7047914315
:105A9000401AC042D5D10020704713EB410FD0D33C
:105AA0006FF000007047A62AC0F3C7517E390EDDA3
:105AB000C217D1F1200106DD000240F00040C840CD
:105AC000104450407047D04380F0004070470020A1
:105AD0007047FEE7DFF800F0B1BE011038B5154899
:105AE0000FF26904144D046001220121284601F0DF
:105AF00097FA124A136828465D680121A847204694
:105B000001F09CFA0E480F4CFAF7C5FB0E48E2680C
:105B100001681160FEF7CEFDE1684860FEF714FCF5
:105B2000FEF72BFCFFF764F9FBF72CFCFFF7D2FF25
:105B3000002032BD5004002000400340D801001076
:105B40002433010078040020E8330100801E05287A
:105B500081B00DD8DFE800F00A0C0A030C0C01211B
:105B60008DF800109DF800000028FBD101B07047AF
:105B700001218DF800109DF800000028FBD1F5E709
:105B800062B38B0708D0521E11F8013B00F8013BAD
:105B900000F024808B07F6D1830740F0208000BFFF
:105BA000103A07D330B4B1E83810103AA0E83810F2
:105BB000F9D230BC530724BFB1E80810A0E80810A0
:105BC00044BF51F8043B40F8043BD20724BF31F8EE
:105BD000022B20F8022B44BF0B7803707047121F72
:105BE00017D35B0009D151F8043B20F8023B1B0C92
:105BF000121F20F8023BF6D20BE051F8043B00F8EC
:105C0000013B1B0A20F8023B1B0C121F00F8013B52
:105C1000F3D238BF121D521E24BF11F8013B00F809
:105C2000013BF8D870477047DFF800F011BF011052
:105C3000DFF800F005B3011020B108232422002171
:105C4000FAF7F0BC704710B5DFF82C4882B001209D
:105C5000009009232468DFF8240864684FF4007278
:105C60000021A04713BD10B5DFF80C48DFF80C0881
:105C70002468E468002301223421A04700B10120F8
:105C8000C0B210BDDFF8F80780687047DFF8F01782
:105C9000084490F8EE0070470022022904D1012840
:105CA00006D140F2EE2203E0012808BF4FF47A72D9
:105CB00010467047DFF8C80790F8E61021B1D0F819
:105CC0001001010018BF004770472DE9F041DFF8CF
:105CD000B04704F1E1058AB0A879002862D101201B
:105CE000A871DFF8A067DFF8A087307B6871706863
:105CF000C4F8100101A8FFF79FFF00200690ADF83F
:105D00001400079001AB00220FF2F15104F10C00D6
:105D1000FAF798FC01AB00220FF2A96104F1300000
:105D2000FAF790FC01AB00220FF2D55104F15400B8
:105D3000FAF788FCB16801208847DFF8500700783F
:105D4000D8F80400C0F38157707B20B1032F02D133
:105D50000120287003E0032F18BF022F12D1022068
:105D600000F098F8DFF828170968032F0CBF4FF4EC
:105D70007A7042F2107000F0ECFA04F15400FAF775
:105D80005DFC08E0012F06D1DFF8EC4600F0E7FAF1
:105D9000A047FFF758FFD8F8000040075CBF00207D
:105DA00000F078F800200AB0BDE8F08138B5002492
:105DB00008B1150002D16FF0020407E08160C260F3
:105DC00003610146DFF8B80601F057F9204632BDFD
:105DD00010B50446FAF78CF9DFF8A4160A1992F800
:105DE000E8305B1E82F8E830DBB223B98A68012311
:105DF000A3409A438A605EE0F8B50546FAF778F961
:105E00000446DFF87C16481990F8EE20521E80F800
:105E1000EE20D2B2CABB0FF2D460DFF8787600EB86
:105E2000850210F825505688280615D53968096A64
:105E3000304688473968896A304688473968096B2F
:105E400030468847DFF8501601200860DFF84C061E
:105E500000688007FAD512E0680606D501EB8601D6
:105E60000020D1F80411884709E039688969304673
:105E700088473968496B304688470228F9D105F0D0
:105E80003F003F2818BFFFF7B7FF2046FAF734F965
:105E90000020F2BD10B50446FAF72AF9DFF8E01544
:105EA0008A680123A3401A438A60214491F8E820BC
:105EB000521C81F8E820FAF71FF9002010BD2DE9E7
:105EC000F0410646FAF714F90446DFF8B455A8196C
:105ED00090F8EE104A1C002980F8EE2034D10FF221
:105EE0000C6818F8260000F03F003F2818BFFFF7A5
:105EF000E6FF08EB8600478818F82600DFF894656F
:105F000001060ED53168C969384688473168496A43
:105F1000384688473168C96A3846884700F088F8AB
:105F200012E0400606D505EB87010120D1F80411E7
:105F3000884709E031684969384688473168496BC4
:105F4000384688470128F9D12046FAF7D5F80020CD
:105F5000BDE8F081F8B5FAF7CBF8DFF82455044630
:105F6000287A800748BF6FF0030659D4D5F8DC00C3
:105F7000012853D10420C5F8DC00022000F0FBF911
:105F800006004DD1DFF81875396C09680120884783
:105F900068B13A6C5268002103209047FFF763FE16
