:1000000000440020F924010001C9011001C90110B8
:1000100001C9011001C9011001C9011001C9011074
:1000200001C9011001C9011001C9011001C9011064
:1000300001C9011001C901103FC90110120001835B
:1000400001000143C5A70D63A5E615B0070100F443
:10005000190020C5A7000161106108100B8460F829
:100060000543022804438AFF00FF01F00120AD711F
:100070000001F200FE33F323010001100373580066
:1000800000890443515A3F920646100B600200203B
:10009000E812010098FF0000AC0412C00412F01432
:1000A000F24A00011773435011041287041003151C
:1000B0000000800F04121A04F20AFE75F0071C01FA
:1000C00008808000088080FE9911CDF001130000A7
:1000D0000333F311FEFF26F007D241542B43535153
:1000E0000D0A000111ECF41D494E534F53543D319C
:1000F0002C3134302E3132342E33322E3131312CFA
:10010000353637382C32312C062568140346554EC7
:100110003D316B210C8347530C3401494D498131EA
:1001200018200244434F4EA2600A224950222C223A
:100130006E62696F742234C11C5007696E746572F7
:100140006E65742E23F10324700263746E621C10BA
:10015000016F7073197007322C2234363630312219
:1001600074A118F3043932188330313014064E422A
:10017000414E443D352C328238B813415476630DDC
:100180000A0C523FB460024552454718210C5118E1
:1001900064024E534D49001594A81043523D444704
:1001A00052414D2C31372C393231362C3192F60EEA
:1001B00041B8F63635B8201A857C903EBEC1273F3F
:1001C000448B104002BC314000004040B1E1493F47
:1001D0000C028B3E0C21042006D95F563F96430B40
:1001E0003D72201E2EFF713F1EA7883F32E68E3ED5
:1001F00008AC843F33C4313FFF21C53F2AA91340D7
:1002000058A8A53F2430010F9C8B0830054850BCEE
:100210003E7C61020C10015D6DE55010070000A6E8
:100220000A863E7DD09B1430134040CE19D93F281A
:100230007EAC3F12A535404E62803F48E11A2C103B
:1002400019A835CD3EE926F13E508D073F3480B7E1
:100250003DBC96403F0E4F0F3FE3A54B7863AE3E4B
:10026000FA302107F0F63EED9E4C3F6744493F933C
:10027000A9123F96213E3F3F356E3F6132D53E2E5B
:10028000FF513FFB5C3D50300524B95C3FAD696ECA
:100290002830057A36A33F76E01C44301147728936
:1002A0003FDC46033F12141F3FF2D28D3F3411D67C
:1002B000183049D881F33DD0D5F63E865A333FAC4D
:1002C0008B1B3ED509E83DFDF6B53EDE02C93FF485
:1002D000FDD43D19E2483F98DD533F68910D3F92B0
:1002E000CBDF3EA089303F27C2C63E1F85CB3E6193
:1002F000C3233FAED8D73FE10B133E083D1B8030F0
:1003000001D93D9908603A96B24C3E6DE73B3F3EBD
:1003100079D83D9EEF273E832F2C3F4A0C023F4564
:1003200047B23E7B835F3FD42B35BF182613BF6295
:100330001008BFA69BA4BE29CBF0BEECC081BF397C
:10034000D645BFF4302D7B1496BF89D2DEBE66F74A
:1003500074BFE0BEEEBE903117C03CBD92BEC1A8D6
:10036000C4BE7E8CF9BE3EE82DC06B2B8EBF637F72
:1003700019BF197347382002A857CABC08600A067B
:100380008145BFCA54C1BD39D685BE50150C104633
:10039000BD60E5D0BC2AA9B3BEE2E945BF3A233A25
:1003A000BF76E09CBE97FF70BF547404BFDFE08B44
:1003B000BD728A4EBF48BF8DBF14AE47BE58A895C8
:1003C000BE05A362BFCFF733BFDA1B4CBF431CABE4
:1003D000BE3CBD52BF05344130300B74BF97907F97
:1003E000BFCC7F58BF41822264500DEB73E5BFC084
:1003F0005B10BFA60AC6BDC9760EC82340C0081050
:10040000017B83AFC032B7143001CC5DAB3030011B
:100410006C09F9AC741514D004BEA24512C062A1D7
:100420009EBFDC4683BDA91310BF1B9E8608101516
:10043000583904BF295CAFBE418212BFAED80FBF8E
:10044000257502BFD5E7B220300F40C055C138C076
:10045000840DF7BF2C6539BF302AE1143015A9A4EB
:10046000CEBECC7F38BF2BF6B7BF3B708EBE5D6D66
:1004700035BFD9CE571C30092C65F9BE90A0A8BF56
:10048000009196601007E561C1BE5A64EBBF570D3D
:1004900012530412520412540412510452551421DE
:1004A00004125C04125D04525804125904125604DA
:1004B00092573052592C2114525A28124E04124D80
:1004C00004125004524C1C525910A120524C04D218
:1004D0005808211C2154124804124404D2450852E1
:1004E00047082104124604123404123B0429DD5249
:1004F000360852330821042DD903124104434A001F
:10050000608349004C52410C4340005821505253E3
:1005100008211892553052511852562C835900CC4C
:10052000924A24525A08874D0030525504C756004B
:1005300064210C254C475B006C525F14257C52589B
:1005400014525604210C834F0074925108524818DB
:100550002108524604655492530452543452591C93
:1005600025FC259852550C2104924A18925318657F
:10057000C0874900E052471052542C2174524B203E
:10058000524B30835700C421048B4E004452520C0E
:100590006964CB5500648B5A0088925B28210C5209
:1005A0005908525E24214C52531452533C21385264
:1005B000542C215C52572C21348361005C212CD2B5
:1005C0006210525C04617861386114925B30875E1E
:1005D00000C4925A1C525A1C875E000C61E421042C
:1005E000835400D452581461D86D54036D4003698C
:1005F0003C619021E4258421C86D9003525C0C611C
:10060000282178AD90036108652029705260386513
:10061000F8524F208351004C2108525714AD8803E3
:1006200052460C29048B41007C1242044F4300982F
:1006300003523D2C611421048F3E00C403123A047E
:1006400012390452300C9232102108123804C72E8D
:100650000034650C69188754003469B4D25C1465A1
:100660004421348B4E00C8210421F4524B28924E71
:1006700004252C8B5100D08F5C00BC0452580C69AF
:10068000C0524F2C874F00448F4E00B403251821D1
:10069000FC92592C6D0C04874D006C69B48749009D
:1006A0003C25284748007C21088F4100C004213C9C
:1006B00092520C213821AC524C2C524F1421A86D6F
:1006C000D0058B6000D4252429FC526104925E2C55
:1006D000925E10612C69D45259188B4E00F452501E
:1006E000086D340465AC52561061E065548F4F00BC
:1006F000040321B0298421BC21F452480821189216
:1007000046086550216C21848F5100780487480089
:10071000D8698C523D188B3D00B82104523F1069B6
:10072000A8CB4000B421345242044737006069F43A
:10073000619821686DF80565A8211021A0524B0C25
:10074000524B34524E24874A00D0D24D2887450060
:10075000C46D6005251C8B52003487510060211C3C
:100760008B5A00406DA40469F8525010ADB40425B2
:100770008C21BC2978524A10835100A4CF560040E6
:10078000056108435F00482120ADCC045250046D40
:10079000040621988F4C003804524E182104214839
:1007A00021ACAD88036D44032138835B0044AD84E4
:1007B00004835700446DC004D257046D5805525548
:1007C00004524F2C21C06D00066D1804A5186998BD
:1007D000875000586DD8058F560084056180A500AC
:1007E000525208659852593021042DB804523304EE
:1007F0008B41004C2DD804473200EC21186D0005C8
:10080000523814523A0C52421869702934524A181C
:10081000292C874E00B46D7407874A00608B550001
:100820002C9254206DE80465A465F4875800906DFF
:1008300000056DA00421408750001465EC87560028
:100840007C25706DC806651021146D340487500036
:10085000388F5E001804210CADC005925820835BD0
:10086000006C525F08875E0064875700DC6104619A
:10087000A08B54004021146D08056514C74E00F488
:10088000524B208F5D002805835800C0210C6DA4B9
:1008900005835700FC610C6528A9946D1805655CFB
:1008A0008B5100C44348004C2124217C52443469BC
:1008B0002821184343005C6DA804259CC35F008475
:1008C000875E0004C35C00A4C35B00A48359009846
:1008D000925D1C2118836100F4C759000021506DFE
:1008E0002005210421A06D0808924008211C2994AC
:1008F00029D8525928655C29C421F82188F3FF4979
:100900000001F1FF01F1F1011EECC01721046D2B74
:10091000033C01A9230125163001FF001413200216
:100920000C1A0020045214048F4C1055034D8217EA
:10093000100101003018F206301C224C181104522C
:100940005404525C0412002C12082443B81E7C4349
:10095000800610127C1C2104439C01042148ADEA4E
:10096000173001BFBD016612A424210452AC045209
:10097000B40452BC0452C40452CC0483210746126E
:10098000050AEDD51743241B1312FC2C2104430444
:100990001B04520C04521404521C04522404522C02
:1009A00004523404830000B06204641E026C0742E7
:1009B000251CD00353C001100001EDCA1812804855
:1009C000210452880452900452980452A00452A860
:1009D000046178F1C7016520FE0E01F3191C03FFC5
:1009E0002B00006FD41563BF2B315108240205770B
:1009F000100185DDAE18F7A9E803361E8DA8038324
:100A00008D8AC010088D19010079250100351B1849
:100A10003211EE44010002660312B418F50B3BA13B
:100A20002C43BC253C43666C101EB3A0032110432D
:100A3000AE711043D81D10612052B420436A751066
:100A4000D2D62052B52043A6761012D420ED5F1ADC
:100A50001C0C3903010045DF00000DF90000ADF862
:100A600094161E7BA91A33081B26F301C425BA1E4F
:100A7000342904200618008001A414140C1E1D56ED
:100A80001C000302020201FF1200011007E43700FC
:100A900020CC330020D00422000152400860060020
:100AA0000020010100000418510183010001A10C84
:100AB000D003801B0020000152B01420023401003A
:100AC0002004523C0422000150026CDC0200015060
:100AD00003381A0020030D100333E600007D045292
:100AE0000001100708020020CC1A00200111C301E8
:100AF00000011284182104F3010100012002FC1AF4
:100B00000020171200010002080200200002080065
:0E0B100000001200010300005200015200011B
:10100000B41200001810000015AB0110FDB3011060
:101010006DC00110FDAE011099B501100000000077
:10102000000000002F000000B01200003C10000083
:10103000B1C00110A9BF011067C0011069B801104B
:1010400000000000000000002D000000B0120000B1
:1010500060100000BDC00110CDB30110D9BD01105A
:101060006DB3011000000000000000002E00000021
:1010700000000000EC190020040000000000000047
:101080000000000020000000B01E01003000000041
:10109000281000000C1A00200400000000000000CE
:1010A000000000000C0000003824010018000000BF
:1010B0004C100000141A0020040000000000000082
:1010C000000000002400000050240100180000006F
:1010D00000000000541A002004000000000000007E
:1010E0000000000010000000501F01002C00000054
:1010F000001000005C1A0020040000000000000046
:1011000000000000200000008020010024000000FA
:10111000FFFFFFFF7C1A0020040000000000000019
:101120000000000028000000A420010024000000AE
:10113000FFFFFFFFA41A00200400000000000000D1
:1011400000000000140000006824010018000000E6
:10115000FFFFFFFFAC1A00200400000000000000A9
:101160000000000058000000D41C01003400000002
:10117000FFFFFFFFB41A0020040000000000000081
:101180000000000010000000802401001800000092
:10119000FFFFFFFFBC1A0020040000000000000059
:1011A000000000001C000000C82001002400000016
:1011B000FFFFFFFFC41A0020040000000000000031
:1011C0000000000038000000E01F010028000000BF
:1011D000FFFFFFFF2C1B00200400000000000000A8
:1011E0000000000054000000501901003C00000005
:1011F00001000000D02501000100000000000E00E9
:1012000000000F003200000001000000F41900206F
:10121000000200000000000001C9011000000000F1
:101220000000000008000000000023001C1A00203D
:1012300001000000641A002008000000841A002049
:101240000000000000000000080000000000000096
:10125000000000000000000000000000010000008D
:10126000CC1A00200600000001000000341B002002
:10127000000000000000000000020000000000006C
:0F1280002900010025002D002E002F0001000184
:10129000040000004C2501000000000000000000D8
:1012A000000001000000030013C4011091E60000DB
:1012B000B8120000B812000000000000641A0020FC
:1012C000F1E500002000000010250100EC200100E5
:1012D00029C10110FF790000237A0000A1C7011085
:1012E000A3C701100000000036910000B4140100F3
:1012F000CC1401009C140100020009000100000050
:0113000001EB
:10130400D51F0100A91F010045230100A91D0100EB
:101314007D1E0100751D01006D0E0100B124010048
:1013240069E50000C3E60000C7E60000DFF800F04E
:1013340085BF0110DFF800F009C00110DFF800F0EC
:1013440061C00110DFF800F0059B0110DFF800F028
:10135400E1A30110DFF800F0C1BF0110DFF800F0D5
:10136400B9BA0110DFF800F0E5C00110DFF800F0B1
:101374001FBE0110DFF800F05DB40110DFF800F0CB
:1013840069B20110DFF800F011BF0110DFF800F0BE
:1013940079BF0110DFF800F0BDAA0110DFF800F0FA
:1013A40015C00110DFF800F089AF0110DFF800F07C
:1013B40079AD0110DFF800F005B3011020B1082366
:1013C40030220021FFF7E2BF704720B10823282212
:1013D4000021FFF7E3BF704738B500F0DDFF256853
:1013E4000DB129682160FFF7A9FF284632BD70B509
:1013F40004460D462668002028601EB9FFF796FFB4
:1014040025600DE0FFF792FF00E03668316800299F
:10141400FBD1AE4203D1FFF791FF002070BD3560D0
:10142400FFF78CFF012070BD0022DFF88C1B01EB5D
:101434004211CB7F1B0605D5B1F91C30834201D183
:1014440008467047521C082AEFDB0020704738B565
:1014540004281AD1DFF8084B04F1EC05284601F002
:1014640063F890B1284601F065F8DFF8501B09686D
:101474004843642809D22846FFF770FF052001F08D
:101484009BF90120E07700F096FC002032BD70B596
:101494000546FFF74BFF0446DFF8C80AC17D0A0082
:1014A40022D0491EC175C9B2F1B9DFF8B46A082166
:1014B40006F14C0001F05AFCB5B1B06B7830FFF77F
:1014C4004DFFB06BDFF8F41AC0680968281AB0FB46
:1014D400F1F1022906F1EC0538BF01212846FFF796
:1014E40041FF2846FFF742FF2046BDE87040FFF762
:1014F40025BF10B50446207B00F00F0002280FD151
:1015040000F032FDA168081ADFF8541A896BC96823
:10151400800801F57A71814238BFB0F1405F00D391
:10152400002010BD38B5DFF8980ADFF8982A016862
:10153400DFF82C4A02EA0105E9430160A90606D551
:101544004068800603D54FF4005100F030FC15F4D8
:10155400602F08D0206905F4602108432061002130
:1015640004F19C00CEE131BD70B5FFF7DFFEDFF87A
:10157400F0490646206910F4602F27D02069C50180
:101584002D0EE80748BF002506D4A80748BF01254B
:1015940002D4680748BF0225681D40B200F05DFF11
:1015A4002069012105F111029140884320613046F0
:1015B400FFF7C4FE04EB85004668300009D02068BC
:1015C40000224FF00063691DB04702E03046FFF788
:1015D400B5FE206930B104F19C00BDE870400021E3
:1015E40001F0C4BB70BD70B501F0EEFBDFF87059BB
:1015F400DFF8004CAB6A024690071DD4D3E904011E
:10160400104007D0EB629969084398614FF4804118
:1016140000F097FDA86A002847D16E6A002E44D0D6
:10162400F068A96B884224D005F14C00BDE87040F5
:101634004FF4805101F09ABB0BB9A86AEAE7002085
:10164400A862D3E904019E69024042F002023243D7
:101654009A61626982436261E26822EA0100E060A1
:10166400194605F13000FFF7C2FE022100F069FDC2
:10167400E3E7B068FFF73DFFA86408B1A86CCAE0CF
:10168400D6E90401626902436261E26841EA020048
:10169400E0600020E061B0682060E0690028FCD0D0
:1016A40005F12400FFF798FEAE6270BD0020EEE65F
:1016B400F8B506461446B76E1D4607B1B847A007ED
:1016C40008D4D6E91801204029400022914208BFDD
:1016D400904207D0C6E91C4506F14000BDE8F2403F
:1016E400FFF734BEF1BDFEE780B501F0C7FBDFF8BC
:1016F40070280146906BD26BBDE808401047042166
:10170400DFF8F40A01F032BB80B501F05DFBDFF8CD
:10171400EC1A084204D0BDE804404FF00051EFE752
:1017240001BD70B5040075D0A168202001E04968AE
:10173400401E79B1C2B26AB10A8840F603039A42E4
:101744001CBF40F604039A42F1D1E0681822283005
:1017540001F0AAFBA0690021A1616168D9B140F040
:101764000202E07F002300F00700012807D00228CE
:1017740009D0042804BF00224FF0805306E0002261
:101784004FF0005302E000224FF08043B4F91C10E4
:10179400E0686568A847FFF7C9FDDFF8C457064647
:1017A400E88E401CC0F30B00E8860020296BC87744
:1017B40005F13000FFF710FE3046FFF7BFFDB5F925
:1017C4003610E06800F1C002B2F90030994202BF5D
:1017D400DFF89017097D00291CD1917809B90168B7
:1017E40011B90020907016E0AA6B126812F1010F73
:1017F40010D0DFF8C8271268B1FBF2F1022938BF14
:1018040001217830FFF7AEFDE068BDE87040783024
:10181400FFF7ACBD70BDBDE8704038E638B50D4685
:10182400A807DFF83C4716D5206BFFF77AFF206B3B
:1018340025F0020510B145F0020109E0680702D461
:10184400606A00285DD004F1EC00FFF787FD0421F5
:1018540004F14C0056E0680753D5012084F82000B9
:10186400042000F0A9FFDFF8CC0A0068006B804771
:101874002064606A08B1C068A063A06BDFF8B82A6E
:1018840041680B781360126809788A421CBF856925
:10189400002D05D000224FF000736FF0FF01A84720
:1018A400022000F089FF112000F09BFF0120E07668
:1018B400A06B617E007C084204BF0E2000F091FF03
:1018C400A06BDFF8301940688268002A04BFC06842
:1018D400002804D00020C861DFF8D40A086040F270
:1018E400FF70DFF8D02A106000208861DFF80C094F
:1018F40048610FF21900E0631920BDE83240FFF798
:1019040051BD31BDBDE8344001F030BA2DE9FF4787
:101914008046880040F1C980DFF84456A86B4068CF
:101924004068010018BF8047A86BDFF8C89840687A
:101934008168002904BFC168002914D0D9F81C109B
:101944000029FBD00021C9F81C108068010018BFD1
:101954008047A86B4068C068010018BF8047DFF863
:10196400A40A01F039FA0020C9F81C0040F60A0A5A
:10197400DFF8940ADFF8EC45C9F8000008F108061E
:10198400012001F071FA0FF28110E863A4F800A0BD
:10199400002060800021207B00F0F00020730020F4
:1019A4006060607B00F0F00040F00100607330681C
:1019B40007467980697E09B1717AB1B1018840F630
:1019C4000202914218BFB1F5C15F05D1398A4FF6C1
:1019D4000F421140398204E0398B4FF60F42114017
:1019E40039830021717201F02DFA3068694601F0E3
:1019F4001BFA684601F027FA00E0074678680028D9
:101A04001CBF01885145F8D17C6040F60301787B06
:101A140000F0F0007873686A8068008888421CBF10
:101A240040F60401884202D10020286417E0308C7B
:101A3400A8B100207084706208F13400017801F0CC
:101A4400F0010170417801F0F00141F001014170B1
:101A540008F128006060607B00F0F0006073D9F842
:101A64001C000028FBD00020C9F81C004FF6FF32F0
:101A74003068018A11400182E87F30B101F03AF800
:101A84000028FBD001F047F80CE0DFF80C1A0968D5
:101A9400096801208847012804D000F081F90FF279
:101AA4001100E8633068C9F80000BDE8FF87000052
:101AB400DFF8E809014200D17047DFF8DC190120A2
:101AC40010B50968DFF8984409688847012808D1E7
:101AD4000FF23500DFF81C17E063DFF888040860B4
:101AE40010BDDFF8D81409683220B0FBF1F10229E7
:101AF40038BF0121EC342046FFF734FC2046BDE812
:101B04001040FFF733BC00002DE9FE4F06460D469A
:101B14006804DFF84C4419D5FFF708FCE66AB76996
:101B2400B9070ED46EB10021B161FFF707FC7068EC
:101B340048B1B6F91C10F06876683A460023B047FD
:101B440001E0FFF7FBFB25F4804523E1A8070AD554
:101B5400206BFFF7E6FD206B002825F0020501D07D
:101B640045F0020516E1A80004F1800840F60909D1
:101B7400DFF8F073DFF8BCB77DD594F8200028B106
:101B8400042000F0B7FD002084F8200040F6020293
:101B9400B0680188914218BFB1F5C15F05D1028ACE
:101BA4002D2161F30912028204E0028B2D2161F3DD
:101BB40009120283206CD0B1DBF8541009680420A8
:101BC4008847A0B1DBF80000006B8047216C81429C
:101BD40028BF401E401A718A11EB1030F060A0F546
:101BE400FA70B0F5FA6F84BF40F6C410F060D6F80E
:101BF40018C0BCF1000F1CBFDFF8A4188C450DD031
:101C0400787B0F21084204BF708D484506D100221D
:101C14004FF000736FF480713046E0470022DFF824
:101C24008418404601F083F9A07E50B10220ADF83B
:101C34000000684601F0D0F8BDF80800A08200203A
:101C4400A07601202076F87D401CF8750020E0760F
:101C5400606A18B1192001F06DF901E045F0020540
:101C640077692FB100224FF0806300213046B847D6
:101C740025F000558EE0A07F25F0080A20B1280742
:101C840002D50020A07772E0280772D5E07F20B14A
:101C94000020E077052000F02DFD002020760120B3
:101CA4002077002001F0E0F80022DFF8FC1740461E
:101CB40001F03DF9A17E607E81F00101084202D16C
:101CC4000120607611E0A06C68B3DBF80000006BC3
:101CD4008047216C626C401A02EB10306064A16C86
:101CE400C90181421FD200206064A7F8009000F06F
:101CF40057F800207880387B00F0F000387300201B
:101D04007860DFF8F004416921F0020141616FF06D
:101D140002010161076002699207FCD50161416912
:101D240041F0020141610020206401F062F8DFF813
:101D3400841600200860022000F0DCFC112000F072
:101D4400EDFC307C10B90E2000F0E8FC0020A083EC
:101D5400787D18B906F14000FFF7F8FADFF84C0770
:101D6400E063387E18B10020387600F024F8554638
:101D740010E0A8040ED5A66A002E1CBF70680028C7
:101D840006D0B6F91C10F068766800222023B0470C
:101D940025F4005515B1294600F009F8BDE8F78F80
:101DA400787B00F0F00040F001007873704704F194
:101DB4004C0000F0DBBF042104F14C0000F0D6BF5E
:101DC40030B58DB000F013FCDFF8E406DFF8E4462C
:101DD4000168634D41F00201016001A8FFF7F5FAC3
:101DE400A078DFF8D4160790002301AA05F14C006F
:101DF400FFF7DCFA01A8FFF7E1FA0020ADF81C00B8
:101E040001AB2078DFF8A02609901921002000906A
:101E140005F18000FFF7BEFA01A8FFF7D6FAE078D3
:101E2400DFF898160790002301AA05F19C00FFF73C
:101E3400BDFA01A8FFF7C2FA0120ADF81C0001ABFE
:101E44006078DFF87C2609901A210020009005F1C3
:101E5400D000FFF79FFA00230022DFF8681605F18F
:101E6400EC00FFF78BFADFF84406DFF85C26E86342
:101E740000234FF488700421284400F029FC4FF615
:101E8400FF70A8820DB00120A8760020E87568765E
:101E9400E876E861286485F8200030BD2DE9F0413A
:101EA400304E0446707D90B00F4690461D4618B9DA
:101EB400FFF786FF01207075002F1CBF6760B8F123
:101EC400000F4BD0C4F80880FFF730FAB17D002929
:101ED40042D10121B175FFF731FA35B909A80FF2E2
:101EE4002C611C2200F0E0FF09AD286820606868BE
:101EF400E060287C2074A868606101206074688AAE
:101F04006082E868010018BFA061A02104F12800E4
:101F140001F01AF80823242200216846FFF70AFA80
:101F240001208DF818006A46002104F14000FFF7F3
:101F340021FA0823242200216846FFF70BFA0694AD
:101F44006B460022DFF8841504F17800FFF716FAD7
:101F5400204610B0BDE8F081FFF7F0F90020F8E763
:101F6400F03300201435002038B5FFF7DFF9DFF82F
:101F74006015097E31B1DFF85C150C68FFF7DEF9F6
:101F8400204632BDFFF7DAF9DFF8A8030068006BDA
:101F9400804710F50030DFF8402541F10001A2FB35
:101FA4000045DFF8380502FB0155016900202218BD
:101FB40045EB0103184632BD38270020CC2501002B
:101FC4000810044020000E002DE9F84F044689460D
:101FD40092469B46FFF7AAF9DFF8F4548046B5F918
:101FE4003400B5F93610401AC0F30B0008286FF01E
:101FF400010646DAA88E401CC0F30B00A886B5F98A
:102004003400ADF800000020DFF8D41401EB4017D1
:10201400F97F090604D5401CC0B20828F4DB002768
:1020240004F17800FFF79AF9C7F8089087F81EA022
:10203400C7F804B02021BDF80000B883FC60DDE9D6
:102044000A23DFF8A00410401940C7E90401C03492
:102054000020F87740F6FF79686A0028394605F1D0
:10206400240006D0FFF7C3F930B100F05DF8404614
:102074004DE0FFF7BCF940B9A88E4844C0F30B000B
:10208400A88600F068F930464CE000F04DF8687F0F
:10209400297EDFF84864084207D00120A877002091
:1020A4006877A876F07D401CF07500F054F9A86AB2
:1020B400002835D1287E18B1192000F03BFF2FE00D
:1020C400E87E68BBFFF732F90446287F10B101208F
:1020D40030761BE0B868FFF70CFAA864D0B1A86B9F
:1020E400DFF80414C0680968AA6C121AB2FBF1F292
:1020F400022A23BFAA6C101AB0FBF1F10121EC35BE
:102104002846FFF72FF92846FFF730F92046FFF756
:1021140015F905E02046FFF711F9042100F011F844
:10212400BDF90000BDE8F28FBDF800002080F87F03
:1021340040F08000F877A07810B10020A070A87655
:10214400704705F14C0000F011BE2DE9F041064640
:102154000F4614461D46FFF715F980463846FFF72B
:1021640063F9070003D14046FFF724F90AE0F87F3A
:102174000721084209D04046FFF71CF90721F87FE0
:102184000842FCD10220002116E07968DFF85C03E4
:10219400814202D07968B1667860C6E91845404644
:1021A400FFF708F94FF0FF3106F14000FFF7CAF8D6
:1021B4000020B066D6E91C01BDE8F081DCB5DDE99C
:1021C40006670446CDE90067180008BFDFF81C3332
:1021D4002046FFF7F9FE002803D500204FF0004108
:1021E400DCBD0146204602B0BDE8D04002224FF0DB
:1021F400E043AAE7001004403C3400200200004001
:1022040001E042F002022DE9F843DFF8C442606ABB
:102214000090894603271546FFF788F819F1010F46
:1022240005F0010680460AD1A06A002819BFA06AF9
:10223400B0F91C90E08E00F101090020E0750FFA5E
:1022440089F0FFF7F1F801006ED0A06A814205F031
:10225400020525D1280003D0606A00900020606246
:102264000122C87FB2401043C877FFF78BF80746B6
:10227400002E14BFDFF87802DFF8780200F0ACFD1E
:1022840000F069F825B906E000F058F800F05EF8AF
:1022940000980028F8D13846FFF78CF8832745E0EA
:1022A400009A8A4204F1EC0016D1FFF757F828008F
:1022B40012BF0020606A0068606200F04CF8009869
:1022C40000F03CF800F042F8009818B32800F6D16A
:1022D40020E0009A12680092009AEAB112688A42D9
:1022E400F7D1FFF73BF8009800681DB1009A002170
:1022F400116004E00168009A1160002101600090FF
:1023040003E000F01BF800F021F800980028F8D151
:1023140000F021F8832701E000F01DF8E07E28B9E1
:102324000221FFF744FD01E000F015F83846BDE84E
:10233400F28300008C010010D0210840C07F009976
:1023440040F00400C8776846FFF746B8014604F138
:102354003000FFF74CB84046FEF7F0BF0FF2AC1167
:102364001C2200F0A1BD38B500F016F80546584807
:10237400007E68B1204600F02FFD044600F046F8C8
:1023840004F0FF00012801D1812032BD022032BDBA
:1023940000F03CF8012032BD0446FEF7C7BF0A46F0
:1023A4004B49896B884201D0032070470BE0000041
:1023B40051000706000004600A464549896B8842BB
:1023C40001D00320704700211046CCE770B5404986
:1023D4008A6B90426FF07F0411D1087E78B1FEF7CA
:1023E400A5FF0546444800F0F7FC064600F00EF849
:1023F40006F0FF00012802D13002001670BD20460D
:1024040070BD00000100070601010E042846FEF716
:1024140095BF70B50E461546FEF788FF83242C49F8
:102424001EB1022E0DD005D30EE08A6A3AB1896A34
:10243400898B02E08A7E12B9898A298005E080248A
:1024440003E0097E297000E0032459E080B50846C2
:10245400FEF7EAFF00B1806802BD38B5FFF79CFFC4
:102464001B49CA7D520702D58B7D9C4210D00122A4
:102474008B8A02FA04F52B438B820C341F490B68B8
:10248400A24023EA02020A60096809B9134A1175D5
:10249400BDE83240FEF752BFE00100100400002006
:1024A400EB160000EB1500000D17000021180000CA
:1024B400002009402C0C0100ED1600006D150000F1
:1024C400291500000317000053140000B116000082
:1024D400F03300200430044000093D00143500208E
:1024E40038270020F1EFFF9FCC250100B51600002E
:1024F4000100020401000104010003040C10044063
:10250400FEF71CFF204670BD00000000FFFFFFFF28
:10251400C409000000000000EB16000001001A01CD
:102524000000000000000000808A7047DFF800F01F
:102534009DB2011010B50446A08A012804D1FFF70A
:10254400F5FFE168081A10BDA06810BDDFF800F0BF
:1025540031BF0110DFF800F0F5B7011020B10823F6
:1025640024220021FEF7F6BE704710B5DFF850476D
:1025740082B00120009009232468DFF848076468CA
:102584004FF400720021A04713BD10B5DFF83047A7
:10259400DFF830072468E468002301223421A047CF
:1025A40000B10120C0B210BDDFF81C07806870477D
:1025B400DFF81417084490F8EE007047002202294F
:1025C40004D1012806D140F2EE2203E0012808BF1D
:1025D4004FF47A7210467047DFF8EC0690F8E61074
:1025E40021B1D0F81001010018BF004770472DE950
:1025F400F041DFF8D44604F1E1058AB0A879002857
:1026040062D10120A871DFF8C466DFF8C486307B8C
:1026140068717068C4F8100101A8FFF79FFF0020DB
:102624000690ADF81400079001AB00220FF215518B
:1026340004F10C00FEF7A2FE01AB00220FF2CD5113
:1026440004F13000FEF79AFE01AB00220FF2F941CB
:1026540004F15400FEF792FEB16801208847DFF8C8
:1026640074060078D8F80400C0F38157707B20B159
:10267400032F02D10120287003E0032F18BF022F7B
:1026840012D1022000F098F8DFF84C160968032FE5
:102694000CBF4FF47A7042F2107000F07EFA04F12D
:1026A4005400FEF763FE08E0012F06D1DFF8104660
:1026B40000F079FAA047FFF758FFD8F80000400768
:1026C4005CBF002000F078F800200AB0BDE8F0817B
:1026D40038B5002408B1150002D16FF0020407E0F8
:1026E4008160C26003610146DFF8DC0500F039FC5B
:1026F400204632BD10B50446FEF718FEDFF8C815B3
:102704000A1992F8E8305B1E82F8E830DBB223B98C
:102714008A680123A3409A438A605EE0F8B50546BF
:10272400FEF704FE0446DFF8A015481990F8EE20E1
:10273400521E80F8EE20D2B2CABB0FF2DC50DFF892
:102744009C7500EB850210F825505688280615D58F
:102754003968096A304688473968896A3046884743
:102764003968096B30468847DFF874150120086022
:10277400DFF8700500688007FAD512E0680606D510
:1027840001EB86010020D1F80411884709E039687B
:102794008969304688473968496B3046884702283A
:1027A400F9D105F03F003F2818BFFFF7B7FF2046D7
:1027B400FEF7C4FD0020F2BD10B50446FEF7B6FDD9
:1027C400DFF804158A680123A3401A438A60214470
:1027D40091F8E820521C81F8E820FEF7AFFD0020B4
:1027E40010BD2DE9F0410646FEF7A0FD0446DFF8D2
:1027F400D854A81990F8EE104A1C002980F8EE204D
:1028040034D10FF2145818F8260000F03F003F2886
:1028140018BFFFF7E6FF08EB8600478818F8260084
:10282400DFF8B86401060ED53168C96938468847AF
:102834003168496A384688473168C96A38468847E2
:1028440000F01AF812E0400606D505EB87010120D6
:10285400D1F80411884709E0316849693846884746
:102864003168496B384688470128F9D12046FEF77C
:1028740065FD0020BDE8F081DFF8641401200860E4
:10288400DFF8600400688007FAD570472DE9F04F3F
:1028940000250024012883B0A24618BF6FF0010967
:1028A40064D1DFF82484D8F8DC0001285CD102204C
:1028B400C8F8DC00FFF74AFE0090012000F07FF921
:1028C4005FEA000953D1FEF75DFDDFF82014DFF85D
:1028D4000C6401900C600120B16A096888470128E2
:1028E40003D1002000F0C1F90124DFF80414DFF85B
:1028F400F8030D6000681120FFF75AFE00B10125AE
:102904001020FFF755FE08B145F002050F20FFF730
:102914004FFE08B145F004050B20FFF749FE20B136
:102924003168096B4FF4806088470A20FFF740FE46
:1029340020B13168096B4FF481608847DFF8A01338
:10294400DFF8B0B30120086045F0200031688969E0
:102954008847DFF8A4130120086098F80800C0072E
:102964000CD54FF0010A1CE06FF0040982E001204D
:10297400C8F8DC000098FFF7EDFD7BE0316A896858
:10298400584688470746042FF8D0012F04D1326AED
:10299400526803215846904700F06FF88008800081
:1029A4000860002000F002FBDFF83C030068306898
:1029B400806B8047BAF1000F0BD1012F04D1326A2A
:1029C400526801215846904700F057F840F0030040
:1029D40008600120DFF81813086028463168496947
:1029E40088470B20FFF7E4FD20B13168C96A4FF432
:1029F400806088470A20FFF7DBFD20B13168C96A8F
:102A04004FF481608847B649012008600020BA4924
:102A140008600320C8F8DC003168496B2846884701
:102A24000128F9D1B0480068042000F0C8F8054630
:102A3400AE4901200860AC480068B04800688006D0
:102A4400FBD514B1012000F010F900F001FC0820BE
:102A540000F0B5F840EA05040120C8F8DC0001984C
:102A6400FEF7A8FC00F074FB0098FFF773FD0CB1AF
:102A74004FF0FF394846BDE8FE8FA148A0490068E1
:102A8400704738B50446FEF751FC054621468E488A
:102A940000F07BFA2846BDE83240FEF74FBC30B563
:102AA400002401288BB004D021D303281DD018D3CF
:102AB4001DE001A8FFF752FD834D92490694ADF83D
:102AC4001440079401AB012205F17800FEF756FC8F
:102AD400009400238C4A2C2105F19C00FEF75AFC3B
:102AE40005E000F0D5FB044601E000F08FFC204631
:102AF4000BB030BD38B5FEF719FC0546724890F8A6
:102B0400E000012410B1FFF740FD04462846FEF71B
:102B140015FC204632BD70B5FEF708FC044600F0F3
:102B240000FE6949002081F8E000684885680220B9
:102B3400A8470646102000F042F80EB10320A8472B
:102B44008EE000007047000010B55D4C82B0E16B70
:102B5400096804208847022818BF032808D100F018
:102B640022F8A047FFF701FDBDE816400220C1E5A9
:102B74006648594900680968534CC0F381500328DA
:102B84000CBF4FF47A7041F2883000F006F804F17B
:102B94005400BDE81640FEF7E9BBB0FBF1F104F1C7
:102BA4005400FEF7DFBB032000901C232468454833
:102BB40064684FF04052002170470020704738B5D8
:102BC4000446414D284600F0C2F9A0B9284600F059
:102BD400C4F90546A868204208D02A69EB68002198
:102BE4002046984710B14FF0FF3032BD284600F020
:102BF400B6F90500EED1002032BD454901280CBFCD
:102C040040F2FF70002008600020704770B5FEF7A6
:102C14008DFB2D4E2D4D044696F8E00028B100F0B2
:102C240080FD68B1002086F8E0000220AD68A84766
:102C340006461020FFF7C3FF8EB10320A8470EE01D
:102C4400254909683220B0FBF1F101B9012106F1EF
:102C54003000FEF787FB06F13000FEF787FB00BF6C
:102C64002046BDE87040FEF769BB38B5012823D182
:102C7400284909680968884701281DD000F044FDE7
:102C8400114C012084F8E000207A800616D4124901
:102C940009683220B0FBF1F505B9012504F13000D3
:102CA400FEF75CFB294604F13000FEF75BFB04F100
:102CB4003000FEF75BFB01E000F059FD002032BD5F
:102CC400A401001000A00C40B41B0020FC0B010068
:102CD400B03F0050ED370020CC250100B8010010B2
:102CE40028200860282008402C2009400C40094076
:102CF40000022243004003408001044314100940B1
:102D0400242208405D350000F1320000B43F005039
:102D140000000460E00100108F0000008F0001003B
:102D24008F0002008F000300900000018F0001015A
:102D340090000002900000038F0001048F00000542
:102D44008F0008048F0000048F000006510000006B
:102D54007F0001003F0004003F0002003F0001002B
:102D64007F000200DFF800F011B0011038B504460E
:102D74000D4600F052FD616A0D43656200F04EFDA0
:102D84002046BDE83240FFF7EDBF024681B010781F
:102D9400022903D1517800EB012013E0032906D165
:102DA4005178927800EB012000EB02400AE00429FC
:102DB40008D15178937800EB0120D17800EB0340DF
:102DC40000EB016001B0704721490868C2430A6002
:102DD4000A680242FAD170471E490A68002AFCD1E7
:102DE400CA610860C8690028FCD00020C86148682E
:102DF4007047194801686FF00202114041F40071F4
:102E0400016003211548816041F2300141610121D3
:102E1400C160502141610121C1604FF4CA61416127
:102E24000121C160016070470D4802680A60826830
:102E34004A60C2688A60406B20F0784040F080505D
:102E4400C8607047704701461022064800F01CB85D
:102E540010100440001004400000046000410440CD
:102E64004C13005018000021704701700A0A427088
:102E74000A0C090E8270C170001D704701488068F9
:102E8400704700BFC801002062B38B0708D0521EF0
:102E940011F8013B00F8013B00F024808B07F6D1C8
:102EA400830740F0208000BF103A07D330B4B1E864
:102EB4003810103AA0E83810F9D230BC530724BFB8
:102EC400B1E80810A0E8081044BF51F8043B40F8EA
:102ED400043BD20724BF31F8022B20F8022B44BF55
:102EE4000B7803707047121F17D35B0009D151F898
:102EF400043B20F8023B1B0C121F20F8023BF6D2C5
:102F04000BE051F8043B00F8013B1B0A20F8023B9C
:102F14001B0C121F00F8013BF3D238BF121D521EC6
:102F240024BF11F8013B00F8013BF8D870478160D9
:102F340042607047102803D302491038C1F8000FCB
:102F4400704700BF00E000E0002200F08FBC006882
:102F540008B9012070470020704700687047006876
:102F6400704738B504460D4600F099FC00212960ED
:102F7400616869606168002914BF0D60256065603F
:102F8400FFE7BDE8324000F08CBC0B684A68002BB8
:102F94000CBF42605A604A6809680AB90160704708
:102FA400116070471628A8BF203870472DE9F84FE4
:102FB40006469548954C0068954D800704D5082031
:102FC400A87194482060C1E0934800680068804775
:102FD40080469248006800900027001700F101091C
:102FE4000098800208D4C8F13E00C0100928A8BF88
:102FF40008208145B8BF814689480068C0F3046051
:10300400FFF7D0FF824687480068C0F30440FFF70B
:10301400C9FF09EB0A011629A8BF152104DA6FF0CC
:1030240009029142B8BF114601F01F027E4B42F4DF
:10303400F8521A807D4A126812F0030F18BF012754
:10304400520748BF47F002070EB147F0040795F94D
:103054000720A8EB0202052A02DAAA7997425DD07A
:10306400A8F10F0C0026BCF1000FB64607F00102D0
:1030740007F00403DFF8B89123D40CEB0C1C4FEADF
:103084002C2EBEF1080F28BF4FF0070E7646072EF0
:1030940028BF062609EB860A59F82660DAF804A048
:1030A400AAEB060A0AF0FF0613B1CAF3072B5E4423
:1030B4005FEA877B44BFCAF3074B5E440AB106EB61
:1030C4001A6659F82E9009F0FF0A13B1C9F30723C1
:1030D4009A44BB0744BFC9F307439A440AB10AEBB5
:1030E400196A401AACEB0E220099AF717243803218
:1030F4000128B8BF0120342301F0FF0158430AEB33
:1031040012224843B0FBF2F0B0F5803F28BF4FF6DF
:10311400FF7008F30708A88085F807804548006811
:10312400A988286000201F2904D21F21A98004E057
:103134004908401CB1F5007FFAD20F39090940EA69
:10314400C1003D490843206000206060BDE8F18F64
:1031540010B53A48006884B22CB32F480068006860
:1031640080472B4991F90720904205DA6FF07F02DE
:103174009042B8BF1046C8718888844201D28C80BE
:1031840010BD2C4A12680B68D21A921C202A28BF40
:103194001F22231A5208D3401818B0F5803F28BFC5
:1031A4004FF6FF70888010BD2548026802B9704749
:1031B40010B5244B996801F04060B0F1406F21D004
:1031C40011480468A4071DD45C68A4071AD40468D1
:1031D4001B68C3F303531C331B0114F0050F06D003
:1031E4009A420FD26FF005012140016010BD934255
:1031F40008D20A0158BF44F00104490158BF44F001
:103204000404046010BD00000000094030100940AF
:10321400F4360020FDFDA400EC010010B43F005082
:10322400B81200503C1100506E620840242208403D
:103234009C1300500820094000E7A4803410094082
:1032440028500940AC3F0050EFF3108072B670472D
:10325400EFF3108062B670470138FDD170477047B4
:10326400DFF800F0A1C7011010B50C18FFF7ECFF50
:10327400401E8041C00FDFF854140A68002AFCD0B5
:10328400246801220A6008B1FFF7E2FF204610BD5E
:1032940038B5DFF83C44DFF83C142078897B0025FE
:1032A40008430AD0FEF742F8A178002906BF01219D
:1032B400A1700125FEF742F80DB1002032BD0220B5
:1032C400FFF77AFA0E20FFF78CFADFF80C04016896
:1032D40009B1012032BDDFF804144022CA600A603B
:1032E4000121C1610020607032BD0000F8B5DFF833
:1032F400EC1300200860DFF8E80300F1D804A17A99
:103304000A0000F081800129DFF8D853DFF8D823C0
:1033140031D110684BF2F5214843060ADFF8CC039B
:103324000068C0F3814001280BD1A86C0068804775
:1033340000F039FA00F051FA3509C010684306EB81
:10334400E036607B10B10020607306E0DFF8A00374
:10335400006820F07F4030184608DFF898030660C4
:10336400310C416001218160DFF86803807B002813
:1033740048D0052047E0022909D11568284600F005
:1033840013F9A5F2FF5003283CD308203BE003299E
:103394003AD1116800F1B806A1F5C0613068F16155
:1033A400002848BF4042002948BF49428842A8BF7C
:1033B400002026DA7068D04F80B200900823D5F838
:1033C40000C0DCF804C04FF47F4230213846E047A7
:1033D400B06880B200901223D5F800C0DCF804C0B5
:1033E4004FF4F80204213846E047B06980B20090F7
:1033F4000A232D686D684FF4406220213846A8479F
:10340400012020700B202073BDE8F1402DE9F84322
:10341400DFF8CC82B94EDFF8E092B94CB94FAF482F
:1034240008F1E105E9784A1E0B2A00F28880DFE8FA
:1034340002F00626374E63374E63374E6B7631689B
:103444000968202088470F20E060072341F61D50BB
:1034540020614FF4C0720220009000217468D4F8F7
:1034640004C04846E0477668F66807234FF4C07204
:1034740000214846B04701203860022048E001207E
:10348400E061287800281DBF002038610320062051
:10349400E87003202060002078607868800738D4C2
:1034A40070684668E878032805D1022000F04DF8DA
:1034B400B047042008E0002000F047F8B047E8785F
:1034C40006280CBF07200A20E87001201AE004290E
:1034D40003D12021A161012105E001220A29A26171
:1034E4000CBF032102216970002121600821C16001
:1034F40001600120206026E005290CBF0620092078
:10350400E8700020786004E00020386078600C20C7
:10351400E87008F17800BDE8F243FDF727BF002109
:10352400016001206C4908600E20FFF7F7F80220C3
:10353400FFF7E0F80120E8700020A87003E0BDE880
:10354400F143FFF78DBEBDE8F183009005236022AF
:10355400002148467047000080B56149694891F8E8
:10356400E410891E0A291AD8DFE801F0060A0E19A8
:103574000A0E190A0E19120001688907FCD510E019
:1035840041688907FCD40CE041688907FCD508E050
:1035940001688907FCD441688907FCD401E0FFF77E
:1035A4005FFEBDE8014031E7F8B50746524C3021D3
:1035B4002046FFF759FE4A4E06F1B805C0F307202E
:1035C400686004212046FFF74FFEC0F38440A860E2
:1035D40020212046FFF748FEC0F38120A861B7F5FB
:1035E400C060286002D186F8D800F1BD296996F838
:1035F400D8202AB96A68A968EA60E861AA696A6198
:10360400E86900284CBF6FF00102022200EB400081
:103614001018421000EB927001EBA0006968E96099
:10362400012810DA6A69032A04D1153001281DDA49
:1036340001201BE00B300128B8BF0120491E48BF00
:103644000021E96007E01F2812DB6A692AB91538EE
:103654001F28A8BF1E20032109E00B381F28A8BF7C
:103664001E20491C4029A8BF3F21E960002169614F
:10367400286108231B4EE86880B200904FF47F4213
:1036840037687F6830212046B84701200090112315
:1036940037687F684FF4003204212046B847286910
:1036A40080B20090122337687F684FF4F802042137
:1036B4002046B847686980B200900A2320463468DF
:1036C40064684FF440622021A047F1BD00800C40A3
:1036D400951C0020FC0B010004800C402C500C4075
:1036E400B41B0020A401001008400C40B43F00505B
:1036F400102009403C600C4000A00C40A0010010C8
:1037040000400C4034600C4010B5384C626D526877
:103714000121032090472068C06A804734498860AB
:1037240010BD38B5314C616D096801208847012806
:103734001BD0A5692C48ED68002301223421A84739
:10374400A0B100F02CF82068C06A804728498B6833
:103754000A68C860A2EB9202C01A264B5843000CB8
:103764000860904238BF10460860012032BD38B569
:103774001E4C626D5268002103209047616D0968F8
:103784000120884708B100F00AF82068184DC06A83
:1037940080476860206E00688047286131BD164804
:1037A400006800F081B810B514490A681449096822
:1037B400140424161B384443E41004EB2244120678
:1037C40000FB00F3121609065A435843091604EB8A
:1037D400A222484302EBA04010BD00FB00F1C0EB65
:1037E400A15000B27047000000A00C408C010010F2
:1037F400E036002040420F0080000010901300507B
:10380400A410005000E005E0EFF31180202181F3C3
:103814001188704780F311887047F5E7FAE70000D4
:10382400F2E7F7E70D49C20744BF01220A608207A5
:1038340044BF4FF480720A60400744BF4FF48030A5
:1038440008607047064AC30748BF1160830748BF32
:103854005160400748BF9160704700000420094050
:103864001820094062F30F2262F31F4200B500BF23
:10387400130096469446103928BFA0E80C50FAD895
:103884005FEA417C28BF0CC048BF40F8042BC9073D
:1038940028BF20F8022B48BF00F8012B00BDFDF71C
:1038A40045BDFDF74BBD001870B50446FFF7CCFCD1
:1038B400451EAD41ED0F074E30680028FCD0A047EF
:1038C40001203060002D1CBFBDE87040FFF7C0BC74
:1038D40070BD000000800C40DFF800F021C0011032
:1038E400DFF800F019AE0110DFF800F0F99B0110C9
:1038F400DFF800F055A40110DFF800F04FBF01100D
:10390400DFF800F089840110DFF800F0058401106D
:10391400DFF800F0DDC00110DFF800F0A5A501100C
:1039240002090A2A00F00F00ACBF373230320A28ED
:103934000A70ACBF373030304870704700B58FB074
:1039440008233C2200216846FFF7C6FFDFF8E00C9D
:1039540000F1500107914FF4587201210892069129
:1039640000236A460FF27921FFF7BAFF0FB000BDBA
:10397400F8B5DFF8A40ADFF8A42ADFF8B85CDFF8AA
:10398400B84C0FF63926DFF8987A8CB00168406895
:1039940051730B0A137350720B0CD372090E000A85
:1039A4009172107208232422002103A8FDF7C2FC9F
:1039B40003AA002105F13400FDF7DCFC05F1340015
:1039C400606400F091FF281D00F0CAFF4FF4165008
:1039D400E861291D012028710FF631202861DFF8E4
:1039E400180DE860002000F09CFF206400222021D4
:1039F40001F086FA05F1680104F5927001F026FEE3
:103A040060654FF4E021DFF8342C01F0CBFE606DEB
:103A1400DFF82C2C4FF0C05101F0C4FE04F14C012E
:103A240004F1080002F0CAF805F1500002F0CAFBE4
:103A3400206500230020019000904FF47A723146F3
:103A440004F1940002F07AFB0FF67D1002F0EAFB19
:103A5400002028636A464FF6FF7068850121002024
:103A6400E86214208DF8000040F2044002F020FCCB
:103A74004FF47A63022200F0BFFB4FF47A6303220F
:103A840000F0BAFB0FF22410DFF8B81BDFF8B87BA4
:103A9400009014230022102002F0F4FA44F6C740E8
:103AA4000290012100208DF807108DF806008DF892
:103AB400050002A901208DF80400009104234FF4AD
:103AC400816200F081F80DF10700009001234FF4AA
:103AD400806200F079F80DF106000090012340F2B5
:103AE400024200F071F80DF105000090012340F24C
:103AF400034200F069F801A80090012340F2064255
:103B040000F062F8DFF8F41B102002F0BBFA00F0BA
:103B140057F80246DFF8E81B00F0D5F94FF0FF3202
:103B2400DFF8E01B00F0CFF94FF0FF32DFF8D81BCD
:103B340000F0C9F905F15C0002F0A0FB05F1600298
:103B4400DFF8501C00F0BFF900F03AF80246DFF845
:103B5400481C00F0B8F900F033F80246DFF83C1CCA
:103B640000F0B1F94FF4806000F032F804F1B800CD
:103B740002F0E4FA4FF4006000210190009104F196
:103B8400DC054FF47A731A463146284602F0D6FA19
:103B94004FF4804000F01CF804F5807002F0CEFA77
:103BA400284602F0F0FA0DB0F0BD000053696D70C4
:103BB4006C6520424C452043656E7472616C000054
:103BC400217A502002F045BA3946102002F05ABA40
:103BD4000021019000914FF47A731A4631467047E0
:103BE4002DE9F04F87B0FFF7C3FEDFF84C7ADFF81A
:103BF400B06B06F1180107F5927001F027FD7865A6
:103C04000022002101F0B2FD00F060F95820387064
:103C1400622078705620B8708020F87000F0C9FDDA
:103C240007F58070069007F1B800059007F1DC00F5
:103C34000490DFF8589CDFF86CABDFF854BC8FE0DD
:103C4400132107F16000FFF77FF90D2107F1100040
:103C5400FFF77AF91F2107F17400FFF775F91221B4
:103C640007F12000FFF770F9069802F08CFA60E083
:103C7400606800F030F9606801F0C2FF204602F08D
:103C840050F8386DFFF738FE002840F09180386D09
:103C940002F0B9FA0400F4D0208802281AD00428CB
:103CA40006D008281AD010282ED02028E0D0E5E726
:103CB400BD8E02F09FFCDFF8DC1BDFF8D82BB0FBD5
:103CC400F1F102FB1100009000232A465146102016
:103CD40002F0D8F9606802F024F8CFE765686A88D2
:103CE4004FF6FF708242C9D00123494600F085FA9D
:103CF4000028C3D02988686802F047FA6A88DFF888
:103D0400981B00F0E0F8B9E7A178002000F098F9DA
:103D1400B4E7B879012893D100F0F8FC00F0CDF8AD
:103D2400386C5622214600F023FE00F0C2F8002031
:103D3400B8715FEAC87013D50020B863F886012013
:103D44007873B88F011FADF80C105020397A02F047
:103D540080F9009003ABBA8EDFF8401B00F049FAFB
:103D6400F86CDFF83C2B4FF0FF330021FFF7BCFD6C
:103D74005FEA0008F4D00020029002AA01A90DF124
:103D8400060001F052FF78B9BDF80600102802BF02
:103D94009DF80410387A814204BF029800F09BF821
:103DA400029808B101F02CFF5FEA48003FF569AFC3
:103DB4005FEA085011D500F035FB786D0122FF2130
:103DC40001F0D4FC7879012828F4006805D104981E
:103DD40002F0EBF9059802F0D6F95FEA4850A8D54D
:103DE40000F074F8DFF8BC0A04687460210A3170CA
:103DF40028F48068307802F003FC0546F56074709E
:103E04000A24707802F0FCFB0146B1604FF06E505A
:103E140002F004FC294602F06DFC306102F0DCFC87
:103E24000A21604390FBF1F14C437061052194FB3E
:103E3400F1F100EBC100041BBC643879DFF8684A77
:103E4400DFF8B45801287FF464AF07F1180108685B
:103E5400386039460FF688200268009268460422CA
:103E640002F0D0FC08B100F0A4FCF87900281FD0BF
:103E740000F0F8FB386CC822594600F076FD386C27
:103E8400082207F1580100F073FD00F012F8C82170
:103E94005846FFF759F800F010F8386C4E2204F138
:103EA400580100F065FD00F004F800203871F87145
:103EB4003FE7786C2946FDF745BA386C1E2206F1B7
:103EC400240100F052BD102002F0DCB800220121D0
:103ED400032002F067BA1CB504462078912830D03C
:103EE400B02805D0D02835D12046BDE8164032E0B0
:103EF400DFF84407017B02291CD16278162A19D005
:103F040021790B2914D0012906BF227A0A2A132900
:103F14000ED0012904BF227A122A09D07E2918BFA3
:103F24007F2907D0407B28B1204600F090F901E0BA
:103F34000021817304F108002179BDE81C40FFF7DA
:103F4400DFBC6078102805D1BDE81C4000210820A2
:103F540002F0C4BC13BD70B505464FF0FF36A87817
:103F6400DFF8D4464FF6FE7140B1012837D005285A
:103F74003FD0062855D00D2803D070BD6889A0878E
:103F840070BD2979681D00F0C8F92969887824284A
:103F94000FD12A7B04F16000FEF776FF0D2204F1B5
:103FA400620104F11000FEF76FFF0120207102F09E
:103FB40010FA29698878402840D12A7B04F17400DA
:103FC400FEF762FF122204F1760104F12000FEF7ED
:103FD4005BFF0120A071BDE8704002F0FAB9002037
:103FE400E0728021E06CFFF783FC607A30B3A67244
:103FF40070BD687880B9022121736889A086012088
:10400400A073608F18B904F1940002F0BCF8BDE805
:1040140070400821002013E000202073A186607303
:1040240070BD0020207360736087A073A186032095
:10403400E073A672A888BDE87040E1E070BD00009E
:10404400F8B5DFF8F445E77B94F90A60E07A0A46AC
:10405400217B130784B04FF0FF3511D541B90028F7
:104064000DD1761CA67276B2607A864207DB24E014
:10407400022904D1032F0CBF00277F1CE773B6E08D
:10408400D206FCD5D9B916F1010F09D10028F6D111
:104094000120E072002200206072FFF718FFA6E002
:1040A40001222273DFF8040800EBC600831C427867
:1040B400002002F043F900206072A57297E0022903
:1040C400FCD1A68EDFF86C55032FF7D8DFE807F094
:1040D40002447C88618F00290CD0A27B002AEDD198
:1040E400287818B30023012212213046FFF70CFC74
:1040F400002802907BD00121608FADF80610ADF846
:104104000400002002990870ADF80C0000F001F9D9
:10411400009001ABA28EDFF8981700F06AF8C0B2E5
:1041240090B1122101A8FFF7EBFB60E0ADF8041099
:1041340000F0EFF8009001ABA28EDFF8781700F0E2
:1041440058F8C0B2002852D10120A0732878401E2C
:104154008041C00F28704AE0304600F06EF878BB0A
:1041640001233246DFF8241700F047F800283ED038
:10417400304600F062F804004FF47A7704D06068A7
:1041840002F013F8278016E0688D4FF6FF7188421D
:104194002DD1242001F0C4FDE86240B30021019137
:1041A4000022009200230FF2292101F0C7FF6E853F
:1041B40005F128042F853946606801F0E6FF16E012
:1041C400304600F01DF812E04FF416700090002302
:1041D4004FF448724FF4C871304602F0CFF806E04D
:1041E40003202073304602F09AF80020E07305B0F3
:1041F400F0BD102001F046BF3946102001F042BF47
:1042040038B5044600F019F8A8B14068DFF8245422
:1042140001F0CBFF688DA0420BD1E86A30B1FFF703
:1042240077FBE86A01F07DFD0020E8624FF6FF703D
:104234006885002032BD122032BDDFF8F8134A8DA4
:10424400824202D101F1280070470020704718B55E
:10425400DFF8E443617B012987B013D10079032897
:1042640055D10FF280610988ADF8081002206073FF
:1042740000F04FF802220092019002ABA28EDFF808
:1042840038162DE0022931D1017907292BD1018972
:1042940051B1C1680A784B7802EB0322E2868A782E
:1042A400C97802EB0122228740781A282FD1E08EA8
:1042B40068B303216173ADF804000221208F8DF8E7
:1042C4000810ADF80600FF21F1208DF80A108DF8D2
:1042D400090000F01EF8A28EDFF8E015009001AB93
:1042E400FFF787FF13E0012911D1E0E703290ED17D
:1042F4000279092A09D1018939B1C0680178407865
:1043040001EB002161870021A1730020607308B0D4
:1043140010BD5020217A01F09CBE2DE9F843C64D12
:104324006C7A142C814688461FDA0026DFF87C75E7
:1043340000E0761CF0B2A0420AD2B81CF6B200EB40
:10434400C6010622484602F05DFA0028F1D10CE0CD
:10435400B81C0622494600EBC400FEF795FD07EBA6
:10436400C400641C80F801806C72BDE8F18380B5E0
:1043740002460021202000F033F8401E8041C00F87
:1043840002BD38B50C461546012001F0C9FC30B118
:10439400214605700246BDE83840022020E031BDC8
:1043A40010B51C46012001F0BBFC30B1047002467C
:1043B400BDE810400021042012E010BD0146DFF8E2
:1043C4000005C06CFFF794BA01460022102007E0F4
:1043D400984901EBC00101F1280200215FF00800B7
:1043E40070B504460D461646082001F099FC58B1F4
:1043F4000480857046600246BDE87040DFF8C03432
:10440400D96C186D01F0E5BE70BD0000DFF8B00492
:10441400406CFCF79BBF0000E8120050FC04002035
:10442400BD8401102DE9FC41834CDFF89864206CB5
:10443400F17CDFF85C5479B900F00CF9206C0B22A4
:1044440006F12C0100F094FA606CDFF87C14FCF7A0
:1044540079FF0120F074E9E0317DA74FB1B900F094
:10446400F9F8206C0B2206F1380100F081FA00F013
:10447400F5F8002006F11C0205F10801095C11544D
:10448400401C0F28F8DB01203075CFE0717DA1B905
:1044940000F0E0F8206C092206F1440100F068FA0B
:1044A40000F0DCF80F22A91C3046FEF7EDFC307852
:1044B400342801D101217175B8E0B17D002957D1AB
:1044C400B3783179F278302B0ED1312A08BF3129F3
:1044D4002ED11A2206F1900100F04AFA00F0B6F843
:1044E400152206F1DC011EE0362B21D1302A0CD135
:1044F40031291DD11B2206F1500100F039FA00F0D8
:10450400A5F8152206F1AC010DE0392A08BF3229BD
:104514000ED1222206F16C0100F02AFA00F096F87E
:10452400152206F1C401206C00F022FA0120B075B6
:104534000C22206C06F5907100F01AFA00F086F84F
:10454400206C0C2206F5847100F012FA00F07EF85B
:10455400206C112206F1F40100F00AFA00F076F85A
:1045640000F077F8606C3946BDE8FC41FCF7EABE20
:10457400F17D91B900F06EF8206C082204F1580125
:1045840000F0F6F900F06AF8E8793074287A70746B
:1045940039284BD00120F07548E0717EB1B900F0A4
:1045A40059F8206C0B2206F58A7100F0E1F900F04D
:1045B40055F8687A312803D101207076002003E091
:1045C400302833D1B07C401CB0742FE0317E79B9EF
:1045D40000F040F8206C0B2206F5967100F0C8F943
:1045E40000F03CF8E87A312820D1012131761DE031
:1045F4006179D9B900F02EF8206C1A2206F5A2715F
:1046040000F0B6F942F210784046FFF785F900F061
:1046140020F8206C0B2206F59C7100F0A9F94046A5
:10462400FFF77AF900F01AF801206071BDE8F38110
:10463400B42E002010030020CC030020FF000580CE
:10464400FF000010A99000006DC900003846FFF774
:1046540063B9206CC822294600F087B9606C3946DA
:10466400FCF770BE70B5994C954D207C401C2074AD
:104674000622E879207004F10801601CFEF704FCAE
:10468400607CE071002604F1380000EB460105F17E
:104694001000805DFFF744F9761C0D2EF3D300253E
:1046A40004F1540000F080F86D1C082DF8D37E4806
:1046B400002200F1A40104F1140300F158059B5CED
:1046C400AB5408E0A2F13C03102B04D2A3181D7EC6
:1046D40000F158039D540D230B70521C0A234C2ADD
:1046E4004B7008D2222AE6D3A2F122031A2BE9D274
:1046F400A3189D7DECE770BDA08601006D08010044
:1047040085250100FD220100C523010070B56F4815
:104714006F4C017C6A4D491C0174062200F10801AA
:104724002046FEF7C1FBA86CA071002604F12C0002
:1047340000EB460105F12000805DFFF7F1F8761CDF
:10474400122EF3D3002504F1500000F02DF86D1C57
:10475400062DF8D95449002001F1540204F108034C
:104764001B5C0B5406E0A0F146030E2B02D2231867
:104774009D7A0D540D231370401C0A235428537042
:1047840006D22228EAD3A0F12203242BEBD2EEE7AF
:1047940070BD0000652301005188011031810110B2
:1047A40088030020091D010000EB4501605DFFF74F
:1047B400B7B82DE9F84F474CDFF81C91404D00275E
:1047C40004F6AC7804F66C1B04F24C6A04F54B76E0
:1047D40004F68C4050F82710E8785BF827205AF844
:1047E400273056F827C0081AA978511A6A789A1AF5
:1047F4002B78ACEB0303524303FB032201FB01219F
:1048040000FB001002F082F8494601F007FF4FF068
:10481400844102F08DF848F8270002F007F902F00D
:1048240029F902F041F948F827007F1CC82FCFDB93
:10483400D4F80490002604F10C0058F8261050F81F
:10484400260001F0EBFE494601F054FF761CC82E09
:104854008146F0DBC4F80490204901F04BFF1B4A69
:10486400A060002102F054F9537C04D20220E871C4
:104874005B1C012005E002F05DF903D20120E87120
:104884005B1E20705374BDE8F18F0000B17F0110EE
:10489400442D002040420F0025AB00106D1B010089
:1048A400C17C00C0285009400C2E00206432002036
:1048B400FD250100F9250100D90E0100E1EC0000FD
:1048C400CC03002060050020C0270900FC04002060
:1048D400C006002020070020000080BF1198F73C8C
:1048E40000000000F0FF011870B5FEF7D8FF044681
:1048F4001848017881B9012101700026164D07E09E
:104904000C2000FB06F16818695889688847761CF2
:10491400124800788642F3DB2046BDE87040FEF77B
:10492400C0BF0C4B1B780246002003B9704710B57A
:104934000A4C2478A2420BD209B90FF23C010C2094
:104944004243054B98189A58D268BDE81040104766
:1049540010BD0000EC370020500C0100680C010071
:104964000FF214012422FEF79FBA03681B6918474B
:104974000368DB691847000000000000FFFFFFFF29
:10498400FFFFFFFF00000000000000000101010123
:1049940000C201000300000000000000DFF800F086
:1049A400A9C00110DFF800F015C10110DFF800F014
:1049B4000DC10110DFF800F091BE011050F8382F3E
:1049C40011430160704750F8382F22EA0101016059
:1049D4007047817DFF291CBFC07DFF2801D00120C5
:1049E40070470020704738B50446FCF79FFC054625
:1049F400207820B90220FDF7DFFE012020700BE0B3
:104A040038B50446FCF792FC0546207820B1022014
:104A1400FDF770FE002020702846BDE83240FCF708
:104A24008DBC4068D030FCF791BC4068EC30FCF79A
:104A34008DBC70B5456886680C4606E0286A401C43
:104A44002862641E686A401C686234B1286A01786E
:104A5400306802F0B5F80028F0D1204670BD70B57A
:104A6400456886680C4608E0296B0870641E286B4C
:104A7400401C2863686B401C68632CB1306802F0EA
:104A840096F810F1010FEFD1204670BD70B545685E
:104A940086680C4605E0C1B205F1400002F0C3F897
:104AA400641E2CB1306802F082F810F1010FF2D1CB
:104AB400204670BD70B544684FF4847026180D46C6
:104AC4003046FCF74BFC217F627FDFF81C0800684E
:104AD4005118C91D6943DFF814285143A269B1FB79
:104AE400F2F141186331B1FBF0F0411C3046FCF7A0
:104AF40039FC3046BDE87040FCF738BCF8B50446D4
:104B04004FF484706568A6682F183846FCF726FCB5
:104B1400306818300068000711D5DFF8CC17096831
:104B24004FF4FA70B0FBF1F1022938BF0121384685
:104B3400FCF718FC3846BDE8F240FCF717BCDFF878
:104B4400B007FFF75DFF30682021FFF73CFF00F05E
:104B54008CFA00F090FA01B0BDE8F040184738B57F
:104B640004460D4620212868FFF72DFF297D606E3D
:104B7400012200F0E1FD297D606E012200F0F6FDC6
:104B8400297D606E002200F022FEA97D606E002265
:104B940000F01DFEA078012805D1286818300068AF
:104BA4000007FAD405E04FF0FF3104F1D000FCF720
:104BB400C9FB00F0B3FB2846FFF70BFF30B1A97D1A
:104BC400606EBDE83840112200F001BE31BD2DE910
:104BD400F04780460026D8F808502A68D8F8049090
:104BE40002F1400009F12807046802F1440014F4BA
:104BF400F06F04603869FB69D7F820C00146A3EB65
:104C04000C0A34D0600518D5101D026802F00F0696
:104C1400002221290260ACBF20250D46294600F060
:104C24005DF8C5F120015145C8BF51464046FFF724
:104C34002DFF16E03869401E3861386988B10121BA
:104C440000F04CF8286850F8041F01F00F0600210A
:104C5400002E0160EED0B868401EB860F868401EAF
:104C6400F86089F81F60404600F08CFA25E062067F
:104C740009F19C050AD5E1B100F030F83861787982
:104C840008B13E6111E0386900280DE0E20614D550
:104C940079B1397D4E1E864228BF0646314600F062
:104CA4001DF83869801B386107D12846FEF75AF889
:104CB40003E051464046FFF7E9FEA0060CD53D68E7
:104CC40055B129464046FFF7B4FE386020B9291D86
:104CD4004046BDE8F047EDE6BDE8F0874046BEE655
:104CE40038B50446DFF80C066568FFF789FE63E211
:104CF400406800210170DFF8FC05017041707047C5
:104D0400F0B504468DB06568A6680F46FCF70EFB47
:104D14002978002941D101212970FCF70FFB38784B
:104D2400687000217878A87078686860B868A860AE
:104D3400F868E86038692861387D2875787D687579
:104D4400B87DA875B869A861387F2877787F6877B7
:104D5400B87FA8770020286205F12C0041606962C1
:104D64008160A962C1600170417010210174002149
:104D740041747068FDF735FD204600F028FA20469E
:104D840000F077FA68B9306801F0FFFE7068FDF74B
:104D9400C5FCFCF7CBFA00212970FCF7CFFA002000
:104DA40065E008233022002101A8FCF7EFFA0694FD
:104DB40001AB307BDFF8402509900020009005F11D
:104DC4008000B168FCF7E6FA08232822002101A834
:104DD400FCF7E4FA059400233069DFF82015079006
:104DE40001AA05F19C00FCF7E1FA08232422002122
:104DF40001A8FCF79FFA01208DF81C00A87840B99F
:104E040001AA002105F1D000FCF7B4FADFF8F004A0
:104E14002861687840B901AA002105F1EC00FCF78B
:104E2400A9FADFF8E004E86008232422002101A89D
:104E3400FCF790FA00200690ADF8140007944FF4A4
:104E4400847001AB0A22DFF8C0142844FCF796FAF8
:104E5400F269B16905F1400001F0BEFE23460FF28C
:104E6400C942042105F16C00FDF732FC20460DB067
:104E7400F0BD70B506467468B568606E00F04EFC0F
:104E8400286840F2F271FFF79EFD304600F0C2F848
:104E9400304600F077F9286800F12C010A6822F006
:104EA40010020A6050F8301FDFF8602411400160DE
:104EB4006868FDF733FC04F18000FFF76FFD04F12F
:104EC4009C00FFF76FFDA07818B904F1D000FFF73C
:104ED4006DFD607818B904F1EC00FFF767FD4FF43D
:104EE40084702044FEF714FDFCF720FA00212170A1
:104EF400FCF724FA04F16C00BDE87040FDF7C1BD75
:104F040070B50246202955686FF0010004D023D300
:104F1400222909D004D370BD012085F82D001AE0A0
:104F2400002085F82D0070BD9668FCF7FFF9044653
:104F3400306801F03CFE10F1010FF9D105F13800A1
:104F440000210161C168491E416100218161016044
:104F54002046FCF7F3F9002070BD2DE9F843044620
:104F64006668A7680D469046FCF7E0F98146B06A8A
:104F740018B14846FCF7E2F943E04FF4847030443A
:104F8400FCF7ECF90020F077356270624846FCF7D4
:104F9400D5F9D84D681CFFF726FDDFF874030168C6
:104FA40041F48071016020464146FFF742FDB06242
:104FB40006F1D00958B941462046FFF77BFDB07889
:104FC40020BBB1684846FCF7BDF9E8B90FE0386882
:104FD4002021FFF7F3FCB078C0B9B1684846FCF76C
:104FE400B1F988B941462046FFF764FD0020B0625C
:104FF40039461020F0773046FFF7B1FD681CFFF703
:10500400FFFC4FF0FF3002E0706A00E00020BDE8D2
:10501400F283B4E070B504466568A668FCF786F9C7
:10502400A96A41B9316818310968090703D4BDE890
:105034007040FCF783B90021A962FCF77FF9304680
:10504400FFF7C7FC18B131462846FFF788FD3068E2
:105054002021FFF7B8FC00F008F8A548FFF7D0FCC2
:1050640000F009F8BDE870401847A948016821F428
:105074008071016070476A6A286A2B695142014451
:105084002962204670472DE9F84381468846D9F8BD
:105094000850D9F80440286817464FF4FA61FFF71E
:1050A40092FC04F13006B06820B100F063F84FF0D0
:1050B400FF305DE0B760271DF876C6F800807060A9
:1050C4000CE031689DF8000008703068401C3060C6
:1050D4007068401C7060B068401EB060B068002802
:1050E40038D0694604F1400001F080FD0028E8D57D
:1050F400DFF800924846FFF776FC8548016841F4E2
:10510400007101604FF4FA612868FFF757FC60787A
:1051140088B9396804F1EC00FCF714F938BBB060C5
:105124004846FFF76DFC71683068494208443060B6
:105134001020F8761BE094F82D0000281CBF70683E
:10514400002805D00020B06004F19C00FDF70AFEA1
:1051540000200DE000F00EF87268306851420144FE
:1051640031606078012802D1BB684846984770686E
:10517400BDE8F28328684FF4FA611FE400BF4FF0E2
:10518400FF30704738B504464FF4FA61A06865688B
:105194000068FFF718FC5E48016821F400710160A3
:1051A4005448FFF72DFCFCF7C1F8A96B01B934E4AE
:1051B4000021A963FCF7C2F86A6B286BEB685142C3
:1051C40001442963204601B0BDE83040184770B55A
:1051D40088B0044602A80FF260111422FDF764FEA1
:1051E4006568A468206801F0D0FC40F2F27620687B
:1051F4003146FFF7E8FB206800F1440102AB0E6082
:1052040005F13C014A780978C90853F82110114383
:1052140040F8341F6846FFF7CDFB05F118000FF284
:105224002C11027951F822100FF23012437952F8FE
:1052340023208379374D11430FF2281252F823208B
:1052440042EA010302680199206801F085FC28689C
:1052540040F010002860686840F001006860204653
:10526400FFF7B7FB18B1686840F44040686008B0C5
:1052740070BDF0B585B085684468687D264F40F000
:10528400004000900826287D384301902846FFF707
:10529400A0FB38B1A87D40F0004002901026E87DC4
:1052A40038430390FE204DF80600694604F1580087
:1052B40000F0CCF96066A0B1697D0F2200F087FA96
:1052C40000F02CF82846FFF784FB48B1A97D606EF6
:1052D400112200F07CFAE97D606E122200F077FA68
:1052E400012005B0F0BD0000CC25010040420F00B4
:1052F4002E3500202D350020D34B0000E54C000056
:10530400274A00002F4A0000014B0000FEFCFFFF6B
:10531400301000402C1000400000C0A0297D606EB9
:10532400102200F054BA000080B5042804BF1046CF
:10533400FFF74DFF002002BD000000000800000040
:105344001000000018000000200000000000000011
:105354002000000040000000600000000000000089
:105364000800000000000000060000000200000029
:10537400860000008200000070B5FDF77FFD044642
:105384000026DFF870540DE024FA06F0C00708D5B3
:1053940005EB8600406820B1026811001CBF31464D
:1053A4009047761C2868F6B28642EDD370BDDFF8CC
:1053B40048040168DFF844040160DFF84404FDF7A1
:1053C400D5BC2DE9F0470E00F5B2044644BF86F083
:1053D400204686F4C046A80000F1804000F5012074
:1053E40004EA06030168DFF81C743B4086EA010204
:1053F400A1431943224004F4E023120EB3F5E02F35
:1054040002F0010202D1CA0105D411E014F4E02F24
:1054140008BF002A0CD001F4E022B2F5A02F04D07A
:10542400B2F5C02F04D1052200E0062262F3124136
:10543400DFF8D47301603868E84000F0010805F132
:10544400804000F50839B00DB8F1000F00F0010AF2
:1054540003D1600248BF89F800A020020DD5FBF7F4
:1054640065FF0122AA40396833024CBF134600236A
:10547400914319433960FBF761FFB8F1000F03D082
:10548400600248BF89F800A0BDE8F087002948BF42
:105494000021800000F1804000F5012001F03F016F
:1054A4000268920941EA82110160704710B5DFF881
:1054B4005C03006800F07F0401F0DEFB012804D1E6
:1054C40001F0D0FB022808BF641C204610BD2DE962
:1054D400F04FA1B00546FDF78AF801F0CDFB002698
:1054E400012804D101F0BEFB022808BF0126DFF821
:1054F4002003C168C1F3815101294FF0010A04D18D
:105504000068000E0AFA00F00643DFF80803DFF82B
:10551400E4920078DFF80073FFF7C8FF5FEA000B3E
:10552400C9F800B004D0FF2259463846FEF79AF96C
:105534004FF00008002405E00AFA00F07C5440EA29
:105544000808641C55F8240000F0FF01FE2909D066
:10555400FF29F6D0594503D226FA00F2D207EBD53B
:10556400022070E00920FDF73CF9C9F880500823B7
:105574002422002117A8FBF7DDFE8DF874A017AADA
:10558400012109F1D400FBF7F5FE0024DFF88CA219
:105594000BE05046FFF715FF4FF0FF31E0B2FFF785
:1055A40075FF0020CBF80400641CD9F80000844285
:1055B40013D226FA04F0C00709EB840B48BF042079
:1055C400F0D428FA04F0C00747BF385D55F820101E
:1055D40004F0FF0040F4C041DBE70823302200213F
:1055E4000BA8FBF7D3FEDFF83852DFF8382228780F
:1055F40013900BAB00200090102109F18400FBF7FD
:10560400C9FE08232822002101A8FBF7C7FE686809
:10561400DFF81412079000230020089001AA09F172
:10562400A000FBF7C3FEDFF80402016821F47C51FB
:1056340041F4005101600120DFF8F4110860DFF843
:10564400F4110860002021B0BDE8F08F2DE9F0418D
:10565400684E04460D4606F1D40800F036F80020E2
:1056640035B9002020606060A06085B125E0401C51
:1056740015F82010FE29F4D0FF29F8D032689142A1
:1056840004D206EB810149680029F0D00024404689
:10569400FBF75CFE2046BDE8F08106EB81020123A6
:1056A400546003FA01F162681143616055F82020E7
:1056B4005A49204600F076F8384615F82010FE299D
:1056C400E5D0471CFF29E8D1F6E74FF0FF3140460B
:1056D400FBF738BE10B50C46F0B1416821FA04F26C
:1056E400D20719D50122A2409143416000204149CB
:1056F40001EB840250604848025D4848FF2A0EBF0F
:1057040044F02041D1F8801051F82210FFF759FEDF
:105714004FF0FF31204669E0022010BD10B5044669
:1057240006E090FAA0F0B0FA80F12046FFF7D2FF2D
:1057340060680028F5D110BD38B50C462D491546D2
:105744000A68944204D201EB84014968814201D081
:10575400022032BDFBF7EAFD2B490A680123A3406E
:105764009A4305FA04F31A430A6065E010B5214B25
:105774001C68A14204D203EB81035B68834201D01D
:10578400022010BD01F18041100001F5083118BF5D
:1057940001200870002010BD10B101600020704786
:1057A4000220704738B5134C25680B46114601F0AA
:1057B400FF02AA4204D204EB82025268824201D060
:1057C400022032BD1846FFF7FCFD002032BD0B4617
:1057D40010B51146074A1468A34204D202EB8302AF
:1057E4005268824201D0022010BD1846FFF74EFED7
:1057F400002010BD30350020E0200240E02002608F
:10580400D0350020007F077FD02002404413005091
:10581400A83F0050ED37002020360020007FC767E6
:10582400240C0100B35300007D53000000300940F4
:105834000C40094008000940FBF780FD002032BD00
:10584400DFF800F02DB40110DFF800F0CDAC01104A
:10585400DFF800F02DC00110DFF800F0FDB10110F9
:1058640020B108233C220021FEF736B8704780B5EA
:10587400FCF76CFEADF80000FBF758FDADF8020034
:10588400009802BD01B5BDF80200FBF757FDBDF855
:105894000000BDE80240FCF75DBE38B5DFF84828DB
:1058A400DFF84818DFF8484892089200891A216105
:1058B400E26010468B18002501E020F8025B984254
:1058C400FBD38B0802EB8303E82023F8045C1080ED
:1058D4004FF6FC700140EC39A2F8E810002002F108
:1058E400E801616000F004F8A060E068606031BD28
:1058F400F8B500240025061D16F003001CBF311D59
:105904000E1AFFF7B4FF0146DFF8E407B6B20160F0
:10591400112EB4BF436883681888070403D580F444
:105924000040002517E02F0011D027881A8817445B
:105934002780BFB2B7420ED33846BCB1801B83B2B6
:10594400042B0EDBA05346F4004626800DE0B04243
:1059540010DA01251C46034418880028DDD10024F0
:1059640004E0208840F400402080241D00F0D6F993
:105974002046F2BD1C46E0E710B50446FFF777FF6A
:10598400DFF86C17086034F8042CC2F30E0224F814
:10599400042C221F4B689A4238BF4A60BDE810406D
:1059A40070E738B50446FFF762FF00220C23DFF8E6
:1059B40044175343CD18A96C21B18C4206D0521C14
:1059C400032AF3D3FFF75EFF002032BDFFF75AFF2F
:1059D40005F1480032BD7CB50546FFF748FF044693
:1059E40000210C22DFF80C074A438618B06C48B13A
:1059F400854210D0491C0329F3D32046FFF742FF08
:105A0400002076BD3065B5640021FFF719FFF0640E
:105A140008B901F053F92046FFF734FF06F14800B6
:105A240076BD38B50446FFF722FF0025DFF8C4260B
:105A34000C216943515A21B18C4206D06D1C062DAC
:105A4400F6D3FFF71FFFFF2032BDFEE210B5044678
:105A54002088FFF7E6FFFF2802D14FF0FF3010BD8A
:105A64000C21DFF8902648431044816811B96FF087
:105A7400010010BD2046BDE81040084702460FF261
:105A84009860104710B500200C21DFF86826002428
:105A940001FB00F31344401C03289C641C65F7D3EA
:105AA4000020002301FB00F4401C13530628F9D303
:105AB400BDE81040F1E678B58FB0FCF747FD054628
:105AC4006846FFF7CDFE05204FF47A7106900891E1
:105AD4000022DFF82406DFF82416049005916946B5
:105AE400DFF81C06FFF7B0FE040006D0FFF7BFFE88
:105AF40006462046FFF76FFF08B901F0DFF830468D
:105B0400FFF7C0FE2846FCF725FD10B070BD38B580
:105B140004460D46FFF7ABFE002145F80C1C226835
:105B240012B9256006E00A4652F80C1C0029FAD185
:105B340042F80C5CBDE83240A4E680B5FFF788FE6D
:105B4400FFF72FFF10B96FF0040002BD816809B997
:105B5400022002BD4068ACE0062881B00ADA0C22BB
:105B6400DFF890355043185A00281CBF4FF6F873DD
:105B7400984202D14FF0FF3001E00880002001B0CC
:105B8400704730B5DFF87C552A680C464FF47A71BB
:105B9400A1FB0001002301F095F8002399424FF086
:105BA400004201D8904202D36FF0020030BD206061
:105BB400002030BD014688684968084770B505462D
:105BC4000E46FFF745FEFFF706FF040009D0FFF776
:105BD4004EFE0146002200F09AF820B1521C062A1B
:105BE400F9D301F06BF84FF6F87018805C60002070
:105BF40098602A706068306000F090F8002070BDF2
:105C04000C38B9E670B5044615461E460846FFF73B
:105C140008FFFF2802D14FF0FF3070BD0146334624
:105C24002A462046BDE870407CE07CB50546164611
:105C340000F0A9F8040010D128886946C0B2FFF723
:105C44008BFF28B13068FFF7DBFF6FF0050076BDEE
:105C5400BDF800002880FFF770FF204676BD38B5F8
:105C64000546FFF7F5FDFFF79CFE044601F042F9F7
:105C7400002818BF012800D014B96FF0040032BD09
:105C84004DB900200090009B606800F0B6F9401EFA
:105C94008041C00F32BD15F1010F08BF4FF0FF3036
:105CA400F0D069462846FFF76CFF0028EBD032BDE0
:105CB40080B500F064F8002002BD2DE9F8430546E4
:105CC40000F0A0F9FFF787FE04006FF002091CD072
:105CD400FFF7CDFD0146002200F019F840B18542DE
:105CE40011D0521C062AF7D300F0E8FFBDE8F28376
:105CF4001D805C609E603A706068C8F8000000F027
:105D04000DF80020F2E700F009F84846EEE70C230E
:105D1400DFF8E00353430344188870470846B1E5AD
:105D2400E6E529E62DE9F8430E46062EBCBF0446F7
:105D3400062C154698466FF002090BDAFFF797FD1B
:105D44000C21DFF8B02301FB06F7D719796819B9DC
:105D5400FFF798FD484610E0FFF794FDA8F108000E
:105D6400414604704670857078680830FFF7CFFEAE
:105D74007868406800F003F80020BDE8F2834FF033
:105D84000041FDF7B5BD2DE9F04106460F469046AA
:105D9400FFF75EFDFFF705FE050008BF6FF0040086
:105DA4001BD0FFF764FDA968002441B10C46A4F19F
:105DB4000C010A68AA6000220A60FF228A72FFF7B7
:105DC40061FD0CB9022008E0A4F10C0001793170E6
:105DD40040793870C8F800400020BDE8F08100F038
:105DE4006DFF00BFFCF7A2BB10B5DFF81803026813
:105DF4006FF00044A4FB020100234FF47A7200F018
:105E040061FF002399424FF0004201D8904200D331
:105E1400204610BD7CB50C4615461E466946FFF764
:105E2400B0FE30B9009833462A46214600F002F805
:105E3400002076BD2DE9F8411D4689B02C688046C6
:105E44000E4617460CBB0C20FFF752FD040008BF9A
:105E54006FF003002DD00823242200216846FBF7AD
:105E640079FA0020ADF810000590069400236A46E4
:105E74004146DFF89402FFF7EFFC206008B900F018
:105E84001DFF6660A7602C600BE0DFF8806230685D
:105E9400804705462068FBF761FAA76028467168C9
:105EA400884720684146FBF75DFA2068FBF75EFAF5
:105EB40000200AB0BDE8F08100281CBF0068FBF791
:105EC4004DBA7047E0B58DF80400684601F046F815
:105ED4009DF805000EBDE0B50190684601F074F828
:105EE4000EBDE0B50190684601F078F80EBD2DE9CD
:105EF400F84384B0044600F085F8FFF752FD0546E8
:105F04000020029000F0F6FF002818BF012800D0FE
:105F140015B96FF004006DE044B900200190FCF75E
:105F240005FB814601980124814423E014F1010F0B
:105F340008BF4FF0FF30F1D001A92046FFF721FE42
:105F44000028ECD056E0039902A8FFF7E0FD68684A
:105F5400FFF715FF0199012411F1010F0AD0080080
:105F640008D0FCF7E3FAB9EB00002ED00199814286
:105F74002BD30190019B686800F03FF828B303AA73
:105F840069460DF10100FFF7FEFE0400E2D19DF821
:105F940001000DF10201FFF7DFFD0028D3D1039AC0
:105FA4009DF80010BDF80200B0470028CBD017B10F
:105FB400BDF802003880B8F1000F1CBF9DF8001036
