:10000000F03F0020F59A000001C9011001C901105C
:1000100001C9011001C9011001C9011001C9011074
:1000200001C9011001C9011001C9011001C9011064
:1000300001C9011001C901103FC90110120001835B
:1000400001000143C5A70D63698E15B00701004883
:10005000090020C5A7000161106108100B8460F839
:100060000543022804438AFF00FF01F00100957C4C
:100070000001F3110C0001120E246002380300206D
:100080002BA00A4D6F64656C204E756D6265723FE2
:10009000F00302536572696119500F4669726D77FA
:1000A000617265205265766973696F6E1CF0020398
:1000B0004861726418F00203536F667418500F4D54
:1000C000616E756661637475726572204E616D65EF
:1000D000181003FE006578707C14046D656E746101
:1000E0006C1E120D191002100100020747409B4CB4
:1000F0003001F099001052441020021C0C00201016
:1001000043DE991043A002106120521D2052E020CE
:10011000D2A820521E2052E220D2C020521F2052CC
:10012000E420D2D82052202052E620D2F0205221C2
:100130002052E820C308032052222052EA20D22075
:100140002052232052EC20D2382052242052EE207C
:100150001248201003474400005D0430012546008A
:1001600001830600011260A01404C8940000949159
:100170000C110412BC044B94041490010100032AD6
:1001800018010600805512E813F0039A3075FFFF3E
:100190000001F0013C020106AF180243686172AF32
:1001A000199A20047374696320315DD114F202320C
:1001B00014F2023314F2023414F20235142236140B
:1001C0008B0200F8CBA49AF85625F812961825B69B
:1001D00043141B10524820CBD00528522630439898
:1001E0009A10D21530D2E430522730529A78D20881
:1001F00030D2F83052283030019C9A00015216302B
:10020000434C9BA0D21C40C30C0640522940129E76
:1002100040120408D22430D22030522A3056A00096
:10022000D22C70D22040F0033E340600200001F3AF
:1002300081010001F0094846656E63655F536C619A
:1002400076659E33110966322D661C01051250B584
:100250000413020A6E83E5687312ED0C100706089A
:1002600080801F0000801904D2FE8EE00213FF4040
:1002700002A11DB80318010302F0F41D1407874002
:1002800009B047F999D43001FF00141312601C2102
:1002900004526804834C104A4594100101008418EC
:1002A000F206841C12A018210452A80452B00412B1
:1002B000002C12082443380E7C4380061012D01CF8
:1002C0002104439C0104C70100FC3001BFBD01664D
:1002D00012F824210443000A045208045210045264
:1002E000180452200483A5934512050BE9A1437815
:1002F0000A13125008210452580452600452680430
:10030000527004527804528004528804830000B072
:10031000620464157E43B8141CD00353C00110005E
:1003200001E9DC12D448210452DC0452E40452EC0A
:100330000452F40452FC046178F1C7016520FE0EFA
:100340000105041804FF2B00006F2C24422B2862A7
:10035000020100040A0208100210120001100784B2
:10036000210020F41E0020F804211043F03B081166
:1003700001700520010100002C1E103101830100D5
:1003800001A10CD003D40A0020000143040B142067
:10039000023401002004523C0422000150026CDCB3
:1003A00002000150038C090020030D0006F78D00A8
:1003B00000418E0000520001100708020020200AB0
:1003C00000200111C30100012002D809002004F31C
:1003D000010100012002500A002017120001000252
:1003E00008020020000208000000120001030000C3
:0603F00052000152000161
:10100000B41200001810000015AB0110FDB3011060
:101010006DC00110FDAE011099B501100000000077
:10102000000000002F000000B01200003C10000083
:10103000B1C00110A9BF011067C0011069B801104B
:1010400000000000000000002D000000B0120000B1
:1010500060100000BDC00110CDB30110D9BD01105A
:101060006DB3011000000000000000002E00000021
:101070000000000040090020040000000000000003
:1010800000000000200000009896000030000000E2
:10109000281000006009002004000000000000008B
:1010A000000000000C000000349A0000180000004E
:1010B0004C1000006809002004000000000000003F
:1010C00000000000240000004C9A000018000000FE
:1010D00000000000A809002004000000000000003B
:1010E0000000000010000000C89600002C00000066
:1010F00000100000B0090020040000000000000003
:101100000000000020000000A49700002400000060
:10111000FFFFFFFFD00900200400000000000000D6
:101120000000000028000000C89700002400000014
:10113000FFFFFFFFF809002004000000000000008E
:101140000000000014000000649A00001800000075
:10115000FFFFFFFF000A0020040000000000000065
:101160000000000058000000C89500003400000096
:10117000FFFFFFFF080A002004000000000000003D
:1011800000000000100000007C9A00001800000021
:10119000FFFFFFFF100A0020040000000000000015
:1011A000000000001C000000EC970000240000007C
:1011B000FFFFFFFF180A00200400000000000000ED
:1011C00000000000380000002C97000028000000FC
:1011D000FFFFFFFF800A0020040000000000000065
:1011E00000000000540000008C9500003C0000004E
:1011F00001000000549B00000100000000000E00F0
:1012000000000F003200000001000000480900202B
:10121000000200000000000001C9011000000000F1
:1012200000000000080000000000230070090020FA
:1012300001000000B809002008000000D8090020C3
:101240000000000000000000080000000000000096
:10125000000000000000000000000000010000008D
:10126000200A00200600000001000000880A00207B
:10127000000000000000000000020000000000006C
:0F1280002900010025002D002E002F0001000184
:1012900004000000209B000000000000000000008F
:1012A000000001000000030013C40110558E00006F
:1012B000B8120000B812000000000000B8090020B9
:1012C000B58D0000200000000C9B0000109800006D
:1012D00029C101108F2D0000332E0000A1C701107D
:1012E000A3C70110000000005E3800001C9500003C
:1012F0003495000004950000020009000100000080
:0113000001EB
:1013040021970000F5960000BD9900003196000079
:1013140065960000FD95000041940000C59A000008
:101324002D8D0000878E00008B8E0000DFF800F00A
:1013340009C00110DFF800F05DB40110DFF800F01F
:1013440085BF0110DFF800F061C00110DFF800F084
:10135400059B0110DFF800F0E1A30110DFF800F0B5
:10136400C1BF0110DFF800F0B9BA0110DFF800F0D6
:10137400E5C00110DFF800F01FBE0110DFF800F037
:1013840069B20110DFF800F011BF0110DFF800F0BE
:1013940079BF0110DFF800F0BDAA0110DFF800F0FA
:1013A40015C00110DFF800F089AF0110DFF800F07C
:1013B40079AD0110DFF800F005B3011020B1082366
:1013C40030220021FFF7E2BF704720B10823282212
:1013D4000021FFF7E3BF704738B500F0DDFF256853
:1013E4000DB129682160FFF7ADFF284632BD70B505
:1013F40004460D462668002028601EB9FFF79EFFAC
:1014040025600DE0FFF79AFF00E036683168002997
:10141400FBD1AE4203D1FFF795FF002070BD3560CC
:10142400FFF790FF012070BD0022DFF88C1B01EB59
:101434004211CB7F1B0605D5B1F91C30834201D183
:1014440008467047521C082AEFDB0020704738B565
:1014540004281AD1DFF8084B04F1EC05284601F002
:1014640063F890B1284601F065F8DFF8501B09686D
:101474004843642809D22846FFF774FF052001F089
:101484009BF90120E07700F096FC002032BD70B596
:101494000546FFF753FF0446DFF8C80AC17D0A007A
:1014A40022D0491EC175C9B2F1B9DFF8B46A082166
:1014B40006F14C0001F05AFCB5B1B06B7830FFF77F
:1014C40051FFB06BDFF8F41AC0680968281AB0FB42
:1014D400F1F1022906F1EC0538BF01212846FFF796
:1014E40045FF2846FFF746FF2046BDE87040FFF75A
:1014F40029BF10B50446207B00F00F0002280FD14D
:1015040000F032FDA168081ADFF8541A896BC96823
:10151400800801F57A71814238BFB0F1405F00D391
:10152400002010BD38B5DFF8980ADFF8982A016862
:10153400DFF82C4A02EA0105E9430160A90606D551
:101544004068800603D54FF4005100F030FC15F4D8
:10155400602F08D0206905F4602108432061002130
:1015640004F19C00CEE131BD70B5FFF7E7FEDFF872
:10157400F0490646206910F4602F27D02069C50180
:101584002D0EE80748BF002506D4A80748BF01254B
:1015940002D4680748BF0225681D40B200F05DFF11
:1015A4002069012105F111029140884320613046F0
:1015B400FFF7C8FE04EB85004668300009D02068B8
:1015C40000224FF00063691DB04702E03046FFF788
:1015D400B9FE206930B104F19C00BDE870400021DF
:1015E40001F0C4BB70BD70B501F0D0FBDFF87059D9
:1015F400DFF8004CAB6A024690071DD4D3E904011E
:10160400104007D0EB629969084398614FF4804118
:1016140000F097FDA86A002847D16E6A002E44D0D6
:10162400F068A96B884224D005F14C00BDE87040F5
:101634004FF4805101F09ABB0BB9A86AEAE7002085
:10164400A862D3E904019E69024042F002023243D7
:101654009A61626982436261E26822EA0100E060A1
:10166400194605F13000FFF7C2FE022100F069FDC2
:10167400E3E7B068FFF73DFFA86408B1A86CCAE0CF
:10168400D6E90401626902436261E26841EA020048
:10169400E0600020E061B0682060E0690028FCD0D0
:1016A40005F12400FFF798FEAE6270BD0020EEE65F
:1016B400F8B506461446B76E1D4607B1B847A007ED
:1016C40008D4D6E91801204029400022914208BFDD
:1016D400904207D0C6E91C4506F14000BDE8F2403F
:1016E400FFF738BEF1BDFEE780B501F0A1FBDFF8DE
:1016F40070280146906BD26BBDE808401047042166
:10170400DFF8F40A01F032BB80B501F03FFBDFF8EB
:10171400EC1A084204D0BDE804404FF00051EFE752
:1017240001BD70B5040075D0A168202001E04968AE
:10173400401E79B1C2B26AB10A8840F603039A42E4
:101744001CBF40F604039A42F1D1E0681822283005
:1017540001F084FBA0690021A1616168D9B140F066
:101764000202E07F002300F00700012807D00228CE
:1017740009D0042804BF00224FF0805306E0002261
:101784004FF0005302E000224FF08043B4F91C10E4
:10179400E0686568A847FFF7D1FDDFF8C45706463F
:1017A400E88E401CC0F30B00E8860020296BC87744
:1017B40005F13000FFF710FE3046FFF7C3FDB5F921
:1017C4003610E06800F1C002B2F90030994202BF5D
:1017D400DFF89017097D00291CD1917809B90168B7
:1017E40011B90020907016E0AA6B126812F1010F73
:1017F40010D0DFF8C8271268B1FBF2F1022938BF14
:1018040001217830FFF7B2FDE068BDE87040783020
:10181400FFF7B0BD70BDBDE8704038E638B50D4681
:10182400A807DFF83C4716D5206BFFF77AFF206B3B
:1018340025F0020510B145F0020109E0680702D461
:10184400606A00285DD004F1EC00FFF78BFD0421F1
:1018540004F14C0056E0680753D5012084F82000B9
:10186400042000F0A9FFDFF8CC0A0068006B804771
:101874002064606A08B1C068A063A06BDFF8B82A6E
:1018840041680B781360126809788A421CBF856925
:10189400002D05D000224FF000736FF0FF01A84720
:1018A400022000F089FF112000F09BFF0120E07668
:1018B400A06B617E007C084204BF0E2000F091FF03
:1018C400A06BDFF8301940688268002A04BFC06842
:1018D400002804D00020C861DFF8D40A086040F270
:1018E400FF70DFF8D02A106000208861DFF80C094F
:1018F40048610FF21900E0631920BDE83240FFF798
:1019040051BD31BDBDE8344001F030BA2DE9FF4787
:101914008046880040F1C980DFF84456A86B4068CF
:101924004068010018BF8047A86BDFF8C89840687A
:101934008168002904BFC168002914D0D9F81C109B
:101944000029FBD00021C9F81C108068010018BFD1
:101954008047A86B4068C068010018BF8047DFF863
:10196400A40A01F01BFA0020C9F81C0040F60A0A78
:10197400DFF8940ADFF8EC45C9F8000008F108061E
:10198400012001F053FA0FF28110E863A4F800A0DB
:10199400002060800021207B00F0F00020730020F4
:1019A4006060607B00F0F00040F00100607330681C
:1019B40007467980697E09B1717AB1B1018840F630
:1019C4000202914218BFB1F5C15F05D1398A4FF6C1
:1019D4000F421140398204E0398B4FF60F42114017
:1019E40039830021717201F00FFA3068694601F001
:1019F400FDF9684601F009FA00E007467868002816
:101A04001CBF01885145F8D17C6040F60301787B06
:101A140000F0F0007873686A8068008888421CBF10
:101A240040F60401884202D10020286417E0308C7B
:101A3400A8B100207084706208F13400017801F0CC
:101A4400F0010170417801F0F00141F001014170B1
:101A540008F128006060607B00F0F0006073D9F842
:101A64001C000028FBD00020C9F81C004FF6FF32F0
:101A74003068018A11400182E87F30B101F03AF800
:101A84000028FBD001F047F80CE0DFF80C1A0968D5
:101A9400096801208847012804D000F081F90FF279
:101AA4001100E8633068C9F80000BDE8FF87000052
:101AB400DFF8E809014200D17047DFF8DC190120A2
:101AC40010B50968DFF8984409688847012808D1E7
:101AD4000FF23500DFF81C17E063DFF888040860B4
:101AE40010BDDFF8D81409683220B0FBF1F10229E7
:101AF40038BF0121EC342046FFF738FC2046BDE80E
:101B04001040FFF737BC00002DE9FE4F06460D4696
:101B14006804DFF84C4419D5FFF710FCE66AB7698E
:101B2400B9070ED46EB10021B161FFF70BFC7068E8
:101B340048B1B6F91C10F06876683A460023B047FD
:101B440001E0FFF7FFFB25F4804523E1A8070AD550
:101B5400206BFFF7E6FD206B002825F0020501D07D
:101B640045F0020516E1A80004F1800840F60909D1
:101B7400DFF8F073DFF8BCB77DD594F8200028B106
:101B8400042000F0B7FD002084F8200040F6020293
:101B9400B0680188914218BFB1F5C15F05D1028ACE
:101BA4002D2161F30912028204E0028B2D2161F3DD
:101BB40009120283206CD0B1DBF8541009680420A8
:101BC4008847A0B1DBF80000006B8047216C81429C
:101BD40028BF401E401A718A11EB1030F060A0F546
:101BE400FA70B0F5FA6F84BF40F6C410F060D6F80E
:101BF40018C0BCF1000F1CBFDFF8A4188C450DD031
:101C0400787B0F21084204BF708D484506D100221D
:101C14004FF000736FF480713046E0470022DFF824
:101C24008418404601F05DF9A07E50B10220ADF861
:101C34000000684601F0B2F8BDF80800A082002058
:101C4400A07601202076F87D401CF8750020E0760F
:101C5400606A18B1192001F047F901E045F0020566
:101C640077692FB100224FF0806300213046B847D6
:101C740025F000558EE0A07F25F0080A20B1280742
:101C840002D50020A07772E0280772D5E07F20B14A
:101C94000020E077052000F02DFD002020760120B3
:101CA4002077002001F0C2F80022DFF8FC1740463C
:101CB40001F017F9A17E607E81F00101084202D192
:101CC4000120607611E0A06C68B3DBF80000006BC3
:101CD4008047216C626C401A02EB10306064A16C86
:101CE400C90181421FD200206064A7F8009000F06F
:101CF40057F800207880387B00F0F000387300201B
:101D04007860DFF8F004416921F0020141616FF06D
:101D140002010161076002699207FCD50161416912
:101D240041F0020141610020206401F044F8DFF831
:101D3400841600200860022000F0DCFC112000F072
:101D4400EDFC307C10B90E2000F0E8FC0020A083EC
:101D5400787D18B906F14000FFF7FCFADFF84C076C
:101D6400E063387E18B10020387600F024F8554638
:101D740010E0A8040ED5A66A002E1CBF70680028C7
:101D840006D0B6F91C10F068766800222023B0470C
:101D940025F4005515B1294600F009F8BDE8F78F80
:101DA400787B00F0F00040F001007873704704F194
:101DB4004C0000F0DBBF042104F14C0000F0D6BF5E
:101DC40030B58DB000F013FCDFF8E406DFF8E4462C
:101DD4000168634D41F00201016001A8FFF7F5FAC3
:101DE400A078DFF8D4160790002301AA05F14C006F
:101DF400FFF7DCFA01A8FFF7E1FA0020ADF81C00B8
:101E040001AB2078DFF8A02609901921002000906A
:101E140005F18000FFF7BEFA01A8FFF7D6FAE078D3
:101E2400DFF898160790002301AA05F19C00FFF73C
:101E3400BDFA01A8FFF7C2FA0120ADF81C0001ABFE
:101E44006078DFF87C2609901A210020009005F1C3
:101E5400D000FFF79FFA00230022DFF8681605F18F
:101E6400EC00FFF78BFADFF84406DFF85C26E86342
:101E740000234FF488700421284400F029FC4FF615
:101E8400FF70A8820DB00120A8760020E87568765E
:101E9400E876E861286485F8200030BD2DE9F0413A
:101EA400304E0446707D90B00F4690461D4618B9DA
:101EB400FFF786FF01207075002F1CBF6760B8F123
:101EC400000F4BD0C4F80880FFF738FAB17D002921
:101ED40042D10121B175FFF735FA35B909A80FF2DE
:101EE4002C611C2200F0BAFF09AD286820606868E4
:101EF400E060287C2074A868606101206074688AAE
:101F04006082E868010018BFA061A02104F12800E4
:101F140000F0F4FF0823242200216846FFF706FAA4
:101F240001208DF818006A46002104F14000FFF7F3
:101F340001FA0823242200216846FFF70FFA0694C9
:101F44006B460022DFF8841504F17800FFF716FAD7
:101F5400204610B0BDE8F081FFF7F4F90020F8E75F
:101F6400181F00203C20002038B5FFF7E7F9DFF800
:101F74006015097E31B1DFF85C150C68FFF7E2F9F2
:101F8400204632BDFFF7DEF9DFF8A8030068006BD6
:101F9400804710F50030DFF8402541F10001A2FB35
:101FA4000045DFF8380502FB0155016900202218BD
:101FB40045EB0103184632BDB8160020509B0000C3
:101FC4000810044020000E002DE9F84F044689460D
:101FD40092469B46FFF7B2F9DFF8F4548046B5F910
:101FE4003400B5F93610401AC0F30B0008286FF01E
:101FF400010646DAA88E401CC0F30B00A886B5F98A
:102004003400ADF800000020DFF8D41401EB4017D1
:10201400F97F090604D5401CC0B20828F4DB002768
:1020240004F17800FFF79EF9C7F8089087F81EA01E
:10203400C7F804B02021BDF80000B883FC60DDE9D6
:102044000A23DFF8A00410401940C7E90401C03492
:102054000020F87740F6FF79686A0028394605F1D0
:10206400240006D0FFF7C3F930B100F05DF8404614
:102074004DE0FFF7BCF940B9A88E4844C0F30B000B
:10208400A88600F068F930464CE000F04DF8687F0F
:10209400297EDFF84864084207D00120A877002091
:1020A4006877A876F07D401CF07500F054F9A86AB2
:1020B400002835D1287E18B1192000F015FF2FE033
:1020C400E87E68BBFFF73AF90446287F10B1012087
:1020D40030761BE0B868FFF70CFAA864D0B1A86B9F
:1020E400DFF80414C0680968AA6C121AB2FBF1F292
:1020F400022A23BFAA6C101AB0FBF1F10121EC35BE
:102104002846FFF733F92846FFF734F92046FFF74E
:1021140019F905E02046FFF715F9042100F011F83C
:10212400BDF90000BDE8F28FBDF800002080F87F03
:1021340040F08000F877A07810B10020A070A87655
:10214400704705F14C0000F011BE2DE9F041064640
:102154000F4614461D46FFF715F980463846FFF72B
:1021640063F9070003D14046FFF724F90AE0F87F3A
:102174000721084209D04046FFF71CF90721F87FE0
:102184000842FCD10220002116E07968DFF85C03E4
:10219400814202D07968B1667860C6E91845404644
:1021A400FFF708F94FF0FF3106F14000FFF7CEF8D2
:1021B4000020B066D6E91C01BDE8F081DCB5DDE99C
:1021C40006670446CDE90067180008BFDFF81C3332
:1021D4002046FFF7F9FE002803D500204FF0004108
:1021E400DCBD0146204602B0BDE8D04002224FF0DB
:1021F400E043AAE700100440641F002002000040EE
:1022040001E042F002022DE9F843DFF8C442606ABB
:102214000090894603271546FFF790F819F1010F3E
:1022240005F0010680460AD1A06A002819BFA06AF9
:10223400B0F91C90E08E00F101090020E0750FFA5E
:1022440089F0FFF7F1F801006ED0A06A814205F031
:10225400020525D1280003D0606A00900020606246
:102264000122C87FB2401043C877FFF78BF80746B6
:10227400002E14BFDFF87802DFF8780200F08EFD3C
:1022840000F069F825B906E000F058F800F05EF8AF
:1022940000980028F8D13846FFF78CF8832745E0EA
:1022A400009A8A4204F1EC0016D1FFF75BF828008B
:1022B40012BF0020606A0068606200F04CF8009869
:1022C40000F03CF800F042F8009818B32800F6D16A
:1022D40020E0009A12680092009AEAB112688A42D9
:1022E400F7D1FFF73FF8009800681DB1009A00216C
:1022F400116004E00168009A1160002101600090FF
:1023040003E000F01BF800F021F800980028F8D151
:1023140000F021F8832701E000F01DF8E07E28B9E1
:102324000221FFF744FD01E000F015F83846BDE84E
:10233400F28300008C010010D0210840C07F009976
:1023440040F00400C8776846FFF746B8014604F138
:102354003000FFF74CB84046FEF7F4BF0FF2AC1163
:102364001C2200F07BBD38B500F016F8054658482D
:10237400007E68B1204600F011FD044600F046F8E6
:1023840004F0FF00012801D1812032BD022032BDBA
:1023940000F03CF8012032BD0446FEF7CFBF0A46E8
:1023A4004B49896B884201D0032070470BE0000041
:1023B40051000706000004600A464549896B8842BB
:1023C40001D00320704700211046CCE770B5404986
:1023D4008A6B90426FF07F0411D1087E78B1FEF7CA
:1023E400ADFF0546444800F0D9FC064600F00EF85F
:1023F40006F0FF00012802D13002001670BD20460D
:1024040070BD00000100070601010E042846FEF716
:1024140099BF70B50E461546FEF790FF83242C49EC
:102424001EB1022E0DD005D30EE08A6A3AB1896A34
:10243400898B02E08A7E12B9898A298005E080248A
:1024440003E0097E297000E0032459E080B50846C2
:10245400FEF7EAFF00B1806802BD38B5FFF79CFFC4
:102464001B49CA7D520702D58B7D9C4210D00122A4
:102474008B8A02FA04F52B438B820C341F490B68B8
:10248400A24023EA02020A60096809B9134A1175D5
:10249400BDE83240FEF756BFE00100100400002002
:1024A400EB160000EB1500000D17000021180000CA
:1024B400002009407C930000ED1600006D1500001B
:1024C400291500000317000053140000B116000082
:1024D400181F00200430044000093D003C20002067
:1024E400B8160020F1EFFF9F509B0000B5160000C6
:1024F4000100020401000104010003040C10044063
:10250400FEF720FF204670BD00000000FFFFFFFF24
:10251400C409000000000000EB16000001001A01CD
:102524000000000000000000808A7047DFF800F01F
:102534009DB2011010B50446A08A012804D1FFF70A
:10254400F5FFE168081A10BDA06810BDDFF800F0BF
:1025540031BF0110DFF800F0F5B7011020B10823F6
:1025640024220021FEF7FABE704710B5DFF8504769
:1025740082B00120009009232468DFF848076468CA
:102584004FF400720021A04713BD10B5DFF83047A7
:10259400DFF830072468E468002301223421A047CF
:1025A40000B10120C0B210BDDFF81C07806870477D
:1025B400DFF81417084490F8EE007047002202294F
:1025C40004D1012806D140F2EE2203E0012808BF1D
:1025D4004FF47A7210467047DFF8EC0690F8E61074
:1025E40021B1D0F81001010018BF004770472DE950
:1025F400F041DFF8D44604F1E1058AB0A879002857
:1026040062D10120A871DFF8C466DFF8C486307B8C
:1026140068717068C4F8100101A8FFF79FFF0020DB
:102624000690ADF81400079001AB00220FF215518B
:1026340004F10C00FEF7A2FE01AB00220FF2CD5113
:1026440004F13000FEF79AFE01AB00220FF2F941CB
:1026540004F15400FEF792FEB16801208847DFF8C8
:1026640074060078D8F80400C0F38157707B20B159
:10267400032F02D10120287003E0032F18BF022F7B
:1026840012D1022000F098F8DFF84C160968032FE5
:102694000CBF4FF47A7042F2107000F07EFA04F12D
:1026A4005400FEF767FE08E0012F06D1DFF810465C
:1026B40000F079FAA047FFF758FFD8F80000400768
:1026C4005CBF002000F078F800200AB0BDE8F0817B
:1026D40038B5002408B1150002D16FF0020407E0F8
:1026E4008160C26003610146DFF8DC0500F013FC81
:1026F400204632BD10B50446FEF720FEDFF8C815AB
:102704000A1992F8E8305B1E82F8E830DBB223B98C
:102714008A680123A3409A438A605EE0F8B50546BF
:10272400FEF70CFE0446DFF8A015481990F8EE20D9
:10273400521E80F8EE20D2B2CABB0FF2DC50DFF892
:102744009C7500EB850210F825505688280615D58F
:102754003968096A304688473968896A3046884743
:102764003968096B30468847DFF874150120086022
:10277400DFF8700500688007FAD512E0680606D510
:1027840001EB86010020D1F80411884709E039687B
:102794008969304688473968496B3046884702283A
:1027A400F9D105F03F003F2818BFFFF7B7FF2046D7
:1027B400FEF7C8FD0020F2BD10B50446FEF7BEFDCD
:1027C400DFF804158A680123A3401A438A60214470
:1027D40091F8E820521C81F8E820FEF7B3FD0020B0
:1027E40010BD2DE9F0410646FEF7A8FD0446DFF8CA
:1027F400D854A81990F8EE104A1C002980F8EE204D
:1028040034D10FF2145818F8260000F03F003F2886
:1028140018BFFFF7E6FF08EB8600478818F8260084
:10282400DFF8B86401060ED53168C96938468847AF
:102834003168496A384688473168C96A38468847E2
:1028440000F01AF812E0400606D505EB87010120D6
:10285400D1F80411884709E0316849693846884746
:102864003168496B384688470128F9D12046FEF77C
:1028740069FD0020BDE8F081DFF8641401200860E0
:10288400DFF8600400688007FAD570472DE9F04F3F
:1028940000250024012883B0A24618BF6FF0010967
:1028A40064D1DFF82484D8F8DC0001285CD102204C
:1028B400C8F8DC00FFF74AFE0090012000F07FF921
:1028C4005FEA000953D1FEF75DFDDFF82014DFF85D
:1028D4000C6401900C600120B16A096888470128E2
:1028E40003D1002000F0C1F90124DFF80414DFF85B
:1028F400F8030D6000681120FFF75AFE00B10125AE
:102904001020FFF755FE08B145F002050F20FFF730
:102914004FFE08B145F004050B20FFF749FE20B136
:102924003168096B4FF4806088470A20FFF740FE46
:1029340020B13168096B4FF481608847DFF8A01338
:10294400DFF8B0B30120086045F0200031688969E0
:102954008847DFF8A4130120086098F80800C0072E
:102964000CD54FF0010A1CE06FF0040982E001204D
:10297400C8F8DC000098FFF7EDFD7BE0316A896858
:10298400584688470746042FF8D0012F04D1326AED
:10299400526803215846904700F06FF88008800081
:1029A4000860002000F0DCFADFF83C0300683068BF
:1029B400806B8047BAF1000F0BD1012F04D1326A2A
:1029C400526801215846904700F057F840F0030040
:1029D40008600120DFF81813086028463168496947
:1029E40088470B20FFF7E4FD20B13168C96A4FF432
:1029F400806088470A20FFF7DBFD20B13168C96A8F
:102A04004FF481608847B649012008600020BA4924
:102A140008600320C8F8DC003168496B2846884701
:102A24000128F9D1B0480068042000F0C8F8054630
:102A3400AE4901200860AC480068B04800688006D0
:102A4400FBD514B1012000F010F900F0DBFB0820E5
:102A540000F0B5F840EA05040120C8F8DC0001984C
:102A6400FEF7A8FC00F04EFB0098FFF773FD0CB1D5
:102A74004FF0FF394846BDE8FE8FA148A0490068E1
:102A8400704738B50446FEF759FC054621468E4882
:102A940000F055FA2846BDE83240FEF753BC30B585
:102AA400002401288BB004D021D303281DD018D3CF
:102AB4001DE001A8FFF752FD834D92490694ADF83D
:102AC4001440079401AB012205F17800FEF756FC8F
:102AD400009400238C4A2C2105F19C00FEF75AFC3B
:102AE40005E000F0AFFB044601E000F069FC20467D
:102AF4000BB030BD38B5FEF721FC0546724890F89E
:102B0400E000012410B1FFF740FD04462846FEF71B
:102B140019FC204632BD70B5FEF710FC044600F0E7
:102B2400DAFD6949002081F8E000684885680220E0
:102B3400A8470646102000F042F80EB10320A8472B
:102B44008EE000007047000010B55D4C82B0E16B70
:102B5400096804208847022818BF032808D100F018
:102B640022F8A047FFF701FDBDE816400220C1E5A9
:102B74006648594900680968534CC0F381500328DA
:102B84000CBF4FF47A7041F2883000F006F804F17B
:102B94005400BDE81640FEF7EDBBB0FBF1F104F1C3
:102BA4005400FEF7E3BB032000901C23246845482F
:102BB40064684FF04052002170470020704738B5D8
:102BC4000446414D284600F09CF9A0B9284600F07F
:102BD4009EF90546A868204208D02A69EB680021BE
:102BE4002046984710B14FF0FF3032BD284600F020
:102BF40090F90500EED1002032BD454901280CBFF3
:102C040040F2FF70002008600020704770B5FEF7A6
:102C140095FB2D4E2D4D044696F8E00028B100F0AA
:102C24005AFD68B1002086F8E0000220AD68A8478C
:102C340006461020FFF7C3FF8EB10320A8470EE01D
:102C4400254909683220B0FBF1F101B9012106F1EF
:102C54003000FEF78BFB06F13000FEF78BFB00BF64
:102C64002046BDE87040FEF76DBB38B5012823D17E
:102C7400284909680968884701281DD000F01EFD0D
:102C8400114C012084F8E000207A800616D4124901
:102C940009683220B0FBF1F505B9012504F13000D3
:102CA400FEF760FB294604F13000FEF75FFB04F1F8
:102CB4003000FEF75FFB01E000F033FD002032BD81
:102CC400A401001000A00C40080B0020DC920000BE
:102CD400B03F00508A210020509B0000B801001032
:102CE40028200860282008402C2009400C40094076
:102CF40000022243004003408001044314100940B1
:102D04002422084011350000A5320000B43F0050D1
:102D140000000460E00100108F0000008F0001003B
:102D24008F0002008F000300900000018F0001015A
:102D340090000002900000038F0001048F00000542
:102D44008F0008048F0000048F000006510000006B
:102D54007F0001003F0004003F0002003F0001002B
:102D64007F000200DFF800F011B0011038B504460E
:102D74000D4600F02CFD616A0D43656200F028FDEC
:102D84002046BDE83240FFF7EDBFFEE72149086861
:102D9400C2430A600A680242FAD170471E490A68AF
:102DA400002AFCD1CA610860C8690028FCD0002050
:102DB400C86148687047194801686FF00202114001
:102DC40041F40071016003211548816041F2300132
:102DD40041610121C160502141610121C1604FF471
:102DE400CA6141610121C160016070470D480268F8
:102DF4000A6082684A60C2688A60406B20F078404A
:102E040040F08050C8607047704701461022064861
:102E140000F014B8101004400010044000000460D6
:102E2400004104404C1300501800002170477047C3
:102E340001488068704700BFC801002062B38B0757
:102E440008D0521E11F8013B00F8013B00F0248029
:102E54008B07F6D1830740F0208000BF103A07D3D8
:102E640030B4B1E83810103AA0E83810F9D230BCC8
:102E7400530724BFB1E80810A0E8081044BF51F874
:102E8400043B40F8043BD20724BF31F8022B20F85E
:102E9400022B44BF0B7803707047121F17D35B00DB
:102EA40009D151F8043B20F8023B1B0C121F20F8F7
:102EB400023BF6D20BE051F8043B00F8013B1B0A3D
:102EC40020F8023B1B0C121F00F8013BF3D238BF61
:102ED400121D521E24BF11F8013B00F8013BF8D823
:102EE4007047816042607047102803D3024910384C
:102EF400C1F8000F704700BF00E000E0002200F0BE
:102F04008FBC006808B90120704700207047006832
:102F140070470068704738B504460D4600F099FCC8
:102F240000212960616869606168002914BF0D602F
:102F340025606560FFE7BDE8324000F08CBC0B689B
:102F44004A68002B0CBF42605A604A6809680AB993
:102F540001607047116070471628A8BF2038704779
:102F64002DE9F84F06469548954C0068954D800725
:102F740004D50820A87194482060C1E093480068F3
:102F84000068804780469248006800900027001738
:102F940000F101090098800208D4C8F13E00C01075
:102FA4000928A8BF08208145B8BF81468948006820
:102FB400C0F30460FFF7D0FF824687480068C0F37F
:102FC4000440FFF7C9FF09EB0A011629A8BF152120
:102FD40004DA6FF009029142B8BF114601F01F02F2
:102FE4007E4B42F4F8521A807D4A126812F0030FA5
:102FF40018BF0127520748BF47F002070EB147F038
:10300400040795F90720A8EB0202052A02DAAA7937
:1030140097425DD0A8F10F0C0026BCF1000FB64614
:1030240007F0010207F00403DFF8B89123D40CEB96
:103034000C1C4FEA2C2EBEF1080F28BF4FF0070ED0
:103044007646072E28BF062609EB860A59F826601D
:10305400DAF804A0AAEB060A0AF0FF0613B1CAF3D1
:10306400072B5E445FEA877B44BFCAF3074B5E4489
:103074000AB106EB1A6659F82E9009F0FF0A13B14B
:10308400C9F307239A44BB0744BFC9F307439A44CF
:103094000AB10AEB196A401AACEB0E220099AF711F
:1030A400724380320128B8BF0120342301F0FF01AC
:1030B40058430AEB12224843B0FBF2F0B0F5803FCC
:1030C40028BF4FF6FF7008F30708A88085F807802B
:1030D40045480068A988286000201F2904D21F21C0
:1030E400A98004E04908401CB1F5007FFAD20F39E9
:1030F400090940EAC1003D4908432060002060609E
:10310400BDE8F18F10B53A48006884B22CB32F485B
:103114000068006880472B4991F90720904205DA3E
:103124006FF07F029042B8BF1046C871888884420D
:1031340001D28C8010BD2C4A12680B68D21A921CE2
:10314400202A28BF1F22231A5208D3401818B0F58A
:10315400803F28BF4FF6FF70888010BD2548026865
:1031640002B9704710B5244B996801F04060B0F182
:10317400406F21D011480468A4071DD45C68A407DB
:103184001AD404681B68C3F303531C331B0114F0E3
:10319400050F06D09A420FD26FF00501214001605D
:1031A40010BD934208D20A0158BF44F001044901FA
:1031B40058BF44F00404046010BD0000000009403E
:1031C400301009407C210020FDFDA400EC0100101A
:1031D400B43F0050B81200503C1100506E620840D9
:1031E400242208409C1300500820094000E7A480D2
:1031F4003410094028500940AC3F0050EFF31080D0
:1032040072B67047EFF3108062B670470138FDD193
:1032140070477047DFF800F0A1C7011010B50C1813
:10322400FFF7ECFF401E8041C00FDFF854140A681A
:10323400002AFCD0246801220A6008B1FFF7E2FFEB
:10324400204610BD38B5DFF83C44DFF83C14207844
:10325400897B002508430AD0FEF770F8A17800297D
:1032640006BF0121A1700125FEF76CF80DB1002005
:1032740032BD0220FFF7A0FA0E20FFF7B2FADFF802
:103284000C04016809B1012032BDDFF804144022A6
:10329400CA600A600121C1610020607032BD000073
:1032A400F8B5DFF8EC1300200860DFF8E80300F15C
:1032B400D804A17A0A0000F081800129DFF8D853EC
:1032C400DFF8D82331D110684BF2F5214843060AC0
:1032D400DFF8CC030068C0F3814001280BD1A86C4F
:1032E4000068804700F039FA00F051FA3509C0103F
:1032F400684306EBE036607B10B10020607306E0A3
:10330400DFF8A003006820F07F4030184608DFF89B
:1033140098030660310C416001218160DFF8680385
:10332400807B002848D0052047E0022909D1156890
:10333400284600F013F9A5F2FF5003283CD30820D7
:103344003BE003293AD1116800F1B806A1F5C06148
:103354003068F161002848BF4042002948BF494213
:103364008842A8BF002026DA7068D04F80B200904F
:103374000823D5F800C0DCF804C04FF47F423021A4
:103384003846E047B06880B200901223D5F800C0F8
:10339400DCF804C04FF4F80204213846E047B06971
:1033A40080B200900A232D686D684FF4406220219A
:1033B4003846A847012020700B202073BDE8F14057
:1033C4002DE9F843DFF8CC82B94EDFF8E092B94C2E
:1033D400B94FAF4808F1E105E9784A1E0B2A00F21B
:1033E4008880DFE802F00626374E63374E63374E97
:1033F4006B7631680968202088470F20E060072336
:1034040041F61D5020614FF4C0720220009000214B
:103414007468D4F804C04846E0477668F668072321
:103424004FF4C07200214846B047012038600220A2
:1034340048E00120E061287800281DBF00203861A1
:1034440003200620E870032020600020786078685C
:10345400800738D470684668E878032805D10220CC
:1034640000F04DF8B047042008E0002000F047F8D1
:10347400B047E87806280CBF07200A20E87001202E
:103484001AE0042903D12021A161012105E00122D0
:103494000A29A2610CBF0321022169700021216065
:1034A4000821C16001600120206026E005290CBFCD
:1034B40006200920E8700020786004E000203860CD
:1034C40078600C20E87008F17800BDE8F243FDF75D
:1034D40051BF0021016001206C4908600E20FFF7F4
:1034E4001DF90220FFF706F90120E8700020A870FA
:1034F40003E0BDE8F143FFF78DBEBDE8F183009022
:1035040005236022002148467047000080B56149C8
:10351400694891F8E410891E0A291AD8DFE801F0F5
:10352400060A0E190A0E190A0E19120001688907F3
:10353400FCD510E041688907FCD40CE04168890798
:10354400FCD508E001688907FCD441688907FCD4EC
:1035540001E0FFF75FFEBDE8014031E7F8B507463B
:10356400524C30212046FFF759FE4A4E06F1B80569
:10357400C0F30720686004212046FFF74FFEC0F324
:103584008440A86020212046FFF748FEC0F3812034
:10359400A861B7F5C060286002D186F8D800F1BDF3
:1035A400296996F8D8202AB96A68A968EA60E861A6
:1035B400AA696A61E86900284CBF6FF0010202221F
:1035C40000EB40001018421000EB927001EBA000D9
:1035D4006968E960012810DA6A69032A04D11530A0
:1035E40001281DDA01201BE00B300128B8BF01209F
:1035F400491E48BF0021E96007E01F2812DB6A6901
:103604002AB915381F28A8BF1E20032109E00B384A
:103614001F28A8BF1E20491C4029A8BF3F21E960DC
:1036240000216961286108231B4EE86880B200907C
:103634004FF47F4237687F6830212046B847012025
:103644000090112337687F684FF40032042120462C
:10365400B847286980B20090122337687F684FF416
:10366400F80204212046B847686980B200900A2312
:103674002046346864684FF440622021A047F1BDBD
:1036840000800C40E90B0020DC92000004800C4018
:103694002C500C40080B0020A401001008400C40E2
:1036A400B43F0050102009403C600C4000A00C4086
:1036B400A001001000400C4034600C4010B5384CA0
:1036C400626D52680121032090472068C06A8047D8
:1036D4003449886010BD38B5314C616D09680120EA
:1036E400884701281BD0A5692C48ED6800230122D6
:1036F4003421A847A0B100F02CF82068C06A8047A4
:1037040028498B680A68C860A2EB9202C01A264B4B
:103714005843000C0860904238BF104608600120EE
:1037240032BD38B51E4C626D5268002103209047AB
:10373400616D09680120884708B100F00AF8206823
:10374400184DC06A80476860206E00688047286111
:1037540031BD1648006800F081B810B514490A68F4
:1037640014490968140424161B384443E41004EB78
:103774002244120600FB00F3121609065A4358436A
:10378400091604EBA222484302EBA04010BD00FB43
:1037940000F1C0EBA15000B27047000000A00C4043
:1037A4008C0100106821002040420F0080000010AE
:1037B40090130050A410005000E005E0EFF31180D6
:1037C400202181F31188704780F311887047F5E751
:1037D400FAE70000F2E7F7E70D49C20744BF012208
:1037E4000A60820744BF4FF480720A60400744BFF6
:1037F4004FF4803008607047064AC30748BF116021
:10380400830748BF5160400748BF9160704700007C
:10381400042009401820094062F30F2262F31F427A
:1038240000B500BF130096469446103928BFA0E89F
:103834000C50FAD85FEA417C28BF0CC048BF40F85E
:10384400042BC90728BF20F8022B48BF00F8012B1E
:1038540000BDFDF773BDFDF775BD000070B50446EE
:10386400FFF7CCFC451EAD41ED0F124E3068002829
:10387400FCD0A04701203060002D1CBFBDE8704083
:10388400FFF7C0BC70BDF8B504460D46FFF7B6FCA3
:10389400461EB641F60F074F38680028FCD028466C
:1038A400A04701203860002E1CBFBDE8F140FFF79F
:1038B400A9BCF1BD00800C40DFF800F021C001106C
:1038C400DFF800F055A40110DFF800F0F99B0110B7
:1038D400DFF800F019AE01102DE9FC4EDFF80C5AA8
:1038E4000E469246002440F2013BAB7869792A796E
:1038F40095F80190B0EB0B0740F67B4C32D07F1E5D
:1039040037D07F1E3DD0BF1E41D07F1E00F07A808D
:103914007F1E00F07D807F1E00F08D807F1E00F0F2
:103924009F807F1E00F0A4807F1E00F0A9807F1E70
:1039340000F0AF807F1E00F0B480FF1E00F0B9805D
:103944007F1E00F0BE807F1E00F0C3807F1E00F04B
:10395400C8807F1E00F0CD807F1F00F0D580BF1E81
:103964002BD0EBE0102E05D11022514605F1A40016
:103974008CE0102E40F0E0801022514605F1B40096
:1039840084E0042E6DD1DAF80000E862E4E0012E50
:1039940067D1012934D09AF80000287132B1002887
:1039A400F4D1022B18D0052BF0D115E00028EDD06E
:1039B400012B21D0042B1DD11EE0012E51D1012A4F
:1039C4001ED09AF80000687169B100280AD1032B4F
:1039D4001CBF072B052B05D100F0B8FA0246822143
:1039E40000F05DF9B8E00028FCD0012B1CBF042BCB
:1039F400062B01D0052B02D1012000F072FCABE0B4
:103A04001224A9E0022E2CD1BAF80000A883A3E066
:103A1400202E32DA05F1CC041F21204600F06EFC82
:103A240000F0A1F8AE7100F091FAA9790091024674
:103A34000194012311E0202E1FDA05F1EC041F216B
:103A4400204600F05BFC00F08EF8EE7100F07EFA88
:103A5400E979009102460194002300F07BFA78E0B2
:103A6400012E69D19AF80000042865DC287273E0FD
:103A7400012E61D19AF8000004285DDA68726BE0C7
:103A8400062E59D10622514605F58670FFF7D6F960
:103A940062E0012E50D19AF8000007284CDCA8728D
:103AA4005AE0012E48D19AF80000042844DAE8725A
:103AB40052E0012E40D19AF8000005283CDC28741D
:103AC4004AE000F04CF837D1811F614534D2688256
:103AD40042E000F044F82FD1811F61452CD2A88226
:103AE4003AE000F03CF827D1B0F5FA7F24DAE88216
:103AF40032E000F034F81FD1A0F10A0140F6774219
:103B0400914219D2288327E0012E04BF9AF80000BD
:103B1400012811D105F1800000F037FC50B905F1FE
:103B2400100100F08EFB040016D105F15C0000F0DA
:103B340033FC11E016240FE018240DE028280ADADB
:103B4400022E08D1BAF8003002467D21102001F07F
:103B540083F8044600E00224E0B2BDE8F68EBAF829
:103B64000000022E7047324651462046FFF766B9E0
:103B740038B50D4600244FF440730246D11ADFF8DD
:103B84006C0736D0491E36D0491E38D0491E3AD06B
:103B9400491E3BD0491E3DD0491E3FD0491E3FD04F
:103BA400491E41D0491E43D0491E43D0491E43D02B
:103BB400491E45D0491E45D0491E45D0891E45D0D1
:103BC400491E45D0491E45D0491E45D0491E45D001
:103BD400491E45D0491E4AD0491E4AD0491E4AD0E2
:103BE400891E4CD0491E17D0491E46D0491E48D0C4
:103BF4004AE0C07846E0102200F1A40133E010222C
:103C040000F1B4012FE0C06A286044E0062200F10C
:103C1400C40128E0007935E0407933E0808B37E057
:103C2400827900F1CC011EE0C27900F1EC011AE0C6
:103C3400007A27E0407A25E0062200F5867112E03A
:103C4400807A1FE0C07A1DE0C08B21E0007C1FE079
:103C5400408A1DE0808A1BE0C08A19E0008B17E0CF
:103C6400062200F58A712846FFF7E8F813E0008C75
:103C74000EE0408C0CE0808C0AE0007B02E080784F
:103C840000E0407B287006E0282A03DA00F006F8FA
:103C9400288000E00224204632BD05227E21102027
:103CA40000F0DABF1FB5DFF84446A178B1B900B11E
:103CB4002063617800F04BF904F1B40102910246EB
:103CC40004F12C03039304F1A4000021019000915A
:103CD4007B21E37800F03FF9002000E0112004B0DC
:103CE40010BD1CB5DFF80446A078062818BF0728C5
:103CF4000BD1617800F02BF9132200920246E38B7A
:103D0400862100F028F9C0B216BD122016BD00B5F8
:103D14008FB008233C2200216846FFF7CDFDDFF871
:103D2400D00500F1500107914FF4DC720321089291
:103D3400069100236A460FF2C901FFF7C9FD0FB0CF
:103D440000BD7CB5DFF8A44504F12801601C00F037
:103D54001FFD00214FF6FF70A170E083D7211020D2
:103D640000F07AFF207000210120019000910023CF
:103D74000FF285550022294604F1380000F0CEFAEE
:103D8400022000F035F804F15C0000F0C7FA0420CA
:103D940000F02EF804F1800000F0C0FA0420E07076
:103DA400002104F1A40000220023002580E82E0055
:103DB40004F1B405002685E84E00E16221726172C7
:103DC400E2720721A172009010230222EC2100F07C
:103DD400C2F8009510230322EC2100F0BCF804F192
:103DE4002C00009004230422EC2100F0B4F873BDED
:103DF4000021019000910023002229467047000011
:103E04002DE9F84386B0FFF79CFFDFF8E054DFF8B4
:103E1400E49405F5867605F180074FF6FF78A86AE5
:103E24004FF0FF334A460021FFF74EFD0400F6D061
:103E34000020029002AA01A90DF1060000F0DFFCA7
:103E4400002839D1BDF80600102802BF9DF80410DF
:103E5400687881422CD10298018841450BD1408871
:103E6400410425D505F12C01009104230422ED2100
:103E740000F071F81CE00178A22904D0D02908BF11
:103E840000F06CF814E04179132911D1008901285C
:103E940004BFA97B022905D1384600F07DFAFFF75B
:103EA40020FF05E0FFF7F9FE81B2384600F05DFA25
:103EB400029808B100F08EFCE0072ED568792979C4
:103EC40001432AD018B103208DF80C000BE0297AA5
:103ED400687A8DF80C108DF80D00062231460DF12C
:103EE4000E00FEF7ABFFA87A69788DF81400E87A23
:103EF4008DF8150000F02BF8024603AB8421102046
:103F040000F0AAFE00281FBF0820A870286B002814
:103F140003D0016809B108208847A00704D505F13A
:103F24001001002000F08DF9600706D5A87B012858
:103F340004D0022808BFFFF7D4FE70E700902B8B53
:103F4400EA8AA98A688A00F0B3F968E749465020EA
:103F540000F069BE8321102000F07EBEFEB5054648
:103F6400DFF88843A978A2786379080004F58A7693
:103F740004F1800715D0022947D0032918BF04296A
:103F84006ED0052900F09080062900F0C080072932
:103F940000F0E3800F2900F0FB80112900F0FF807E
:103FA400F7BD6878010024D104F1A4000090102327
:103FB4000222ED21FFF7CFFF04F1B4020092102397
:103FC4000322ED21FFF7C7FF0622E91C04F1C40018
:103FD400FEF734FF0120A0705020617800F023FE2A
:103FE400024604F1CC0001900123A0790090FFF770
:103FF400B1FFC0B208B10820A070206B00281FBF19
:1040040001680029A0788847F7BD697811BBE87872
:1040140068B16178FFF79BFF04F1EC01019102465E
:10402400E17900910023FFF795FF687012E0022AFE
:1040340018BF072A0ED0062A02D1012B0AD101E0AB
:10404400032A07D004F1380000F09FF910B90120C9
:1040540000F047F968780028D6D00821A170CCE791
:10406400687800BB2079032908D1062A08BF0720F5
:10407400C2D000280CBF03200220BDE7A18B31B1C0
:1040840003430AD004F1380000F06FF905E0012879
:1040940007BF0020207100206071A078072814BF9A
:1040A40004200620A8E7A6E7687850BB0622291D4D
:1040B4003046FEF7C3FE6889E0830620A070E889D5
:1040C4002084288A6084688AA084E8782073207C0D
:1040D400012818BF02280AD11F22FFF7DFFD80B292
:1040E4004FF47A71414304F15C0000F03EF904207E
:1040F40001902B1D688900907221EA78FFF72BFF4D
:104104007BE73128CFD100202071042074E7AA88EE
:104114007321FFF7C4FD0621304600F0EFF80020BC
:1041240020846084A084A879607304F15C0000F0AA
:1041340033F9384600F030F94FF6FF70E0836079C8
:1041440008B103218AE7A87908280CBF05200420B8
:10415400A070012000F0C5F84FE7384600F01CF9C4
:104164006878002813D1E9882184288960846889C3
:10417400A08404F15C0000F008F9002807D1636B07
:10418400002B04D0A28C618C208C1B689847F7BD4F
:10419400AA8805238C21102000F05EFDF7BD217C48
:1041A400A888ADF80000052903D100208DF80A0085
:1041B40041E001218DF80A1004F15C0000F0ECF8F4
:1041C400207C012818BF04281AD1608AE98881421A
:1041D40028BF0846ADF80200A18A2889884238BF62
:1041E4000846ADF80400E18A6889884238BF084669
:1041F400ADF80600218BA88988421AD2084618E037
:10420400032818BF02280AD1608AADF80200A08AE8
:10421400ADF80400E08AADF80600208B09E0E888D8
:10422400ADF802002889ADF804006889ADF80600ED
:10423400A889ADF808006A468721102000F00CFD1B
:10424400F7BDFEB50F46294D79880446288C88426F
:1042540024BFB988814207D3688CF988884202BF99
:10426400A88C3989884220D0FFF717FDE98BADF877
:10427400001006467888ADF802006A46B888ADF8A2
:1042840004008521F888ADF806003889ADF80800E7
:10429400102000F0E1FC0746C0B238B9AC73B1B2EB
:1042A40005F1800000F061F800E01827F8B2FEBDC7
:1042B4003EB50E4DAC78062C01D014203EBDADF8B1
:1042C4000200ADF80410ADF80620ADF8083005F191
:1042D4005C00069C00F060F869462046FFF7B1FFD9
:1042E4003EBD01460148806AFFF7EABAB4040020E3
:1042F400300C002007000080F3E70000002200F0EB
:10430400FBBC0000DFF800F0A1B60110DFF800F0FC
:1043140035BD0110DFF800F019BD01102DE9F0439F
:1043240089B08046894617461D46109C119E082375
:10433400242200216846FDF711F8354906964FF40A
:104344007A700A68B0FBF2F0454305954743ADF82F
:1043540010406B463A4649464046FDF70FF8404642
:1043640009B0BDE8F083FDF705B838B504460D463D
:10437400FEF7DAF810B12046FCF7F4FF00F00EF86F
:104384002046BDE83240FCF7F5BF80B5FEF7CCF817
:1043940000B10120C0B202BDFCF7E4BF1C4A1068A2
:1043A4004FF47A71B1FBF0F0454329462046FCF7FF
:1043B400DDBF10B504460021FFF7A4FF204610BD61
:1043C40070B505460C4616460C2000F093FA010021
:1043D4000BD08E602846FFF799FF24B14FF080413F
:1043E4002046FFF76DFA012070BD304600F083FAD5
:1043F400002070BD10B50446FFF78CFFA04204D026
:10440400846800F078FA204610BD002010BD00003A
:10441400509B0000DFF800F02DB40110DFF800F02D
:10442400CDAC0110DFF800F02DC00110DFF800F072
:10443400FDB1011020B108233C220021FFF73CBA52
:10444400704780B5FEF782F8ADF80000FCF776FF00
:10445400ADF80200009802BD01B5BDF80200FCF7FA
:1044640071FFBDF80000BDE80240FEF773B838B52F
:10447400DFF84828DFF84818DFF848489208920027
:10448400891A2161E26010468B18002501E020F8AA
:10449400025B9842FBD38B0802EB8303E82023F8EA
:1044A400045C10804FF6FC700140EC39A2F8E8106F
:1044B400002002F1E801616000F004F8A060E06807
:1044C400606031BDF8B500240025061D16F0030018
:1044D4001CBF311D0E1AFFF7B4FF0146DFF8E407D5
:1044E400B6B20160112EB4BF43688368188807040C
:1044F40003D580F40040002517E02F0011D0278851
:104504001A8817442780BFB2B7420ED33846BCB1CD
:10451400801B83B2042B0EDBA05346F40046268096
:104524000DE0B04210DA01251C4603441888002827
:10453400DDD1002404E0208840F400402080241DC4
:1045440000F0D6F92046F2BD1C46E0E710B504465B
:10455400FFF777FFDFF86C17086034F8042CC2F318
:104564000E0224F8042C221F4B689A4238BF4A607A
:10457400BDE8104070E738B50446FFF762FF00223B
:104584000C23DFF844175343CD18A96C21B18C4296
:1045940006D0521C032AF3D3FFF75EFF002032BD7E
:1045A400FFF75AFF05F1480032BD7CB50546FFF719
:1045B40048FF044600210C22DFF80C074A43861802
:1045C400B06C48B1854210D0491C0329F3D320466E
:1045D400FFF742FF002076BD3065B5640021FFF788
:1045E40019FFF06408B900F0B6FB2046FFF734FF6A
:1045F40006F1480076BD38B50446FFF722FF0025D2
:10460400DFF8C4260C216943515A21B18C4206D0EB
:104614006D1C062DF6D3FFF71FFFFF2032BDFEE20F
:1046240010B504462088FFF7E6FFFF2802D14FF0BB
:10463400FF3010BD0C21DFF89026484310448168F8
:1046440011B96FF0010010BD2046BDE810400847C5
:1046540002460FF29860104710B500200C21DFF8D5
:104664006826002401FB00F31344401C03289C64C7
:104674001C65F7D30020002301FB00F4401C1353F6
:104684000628F9D3BDE81040F1E678B58FB0FDF700
:104694005DFF05466846FFF7CDFE05204FF47A71AD
:1046A400069008910022DFF82406DFF8241604900F
:1046B40005916946DFF81C06FFF7B0FE040006D03A
:1046C400FFF7BFFE06462046FFF76FFF08B900F06C
:1046D40042FB3046FFF7C0FE2846FDF73BFF10B013
:1046E40070BD38B504460D46FFF7ABFE002145F812
:1046F4000C1C226812B9256006E00A4652F80C1C0C
:104704000029FAD142F80C5CBDE83240A4E680B539
:10471400FFF788FEFFF72FFF10B96FF0040002BD0A
:10472400816809B9022002BD4068ACE0062881B066
:104734000ADA0C22DFF890355043185A00281CBFBF
:104744004FF6F873984202D14FF0FF3001E0088031
:10475400002001B0704730B5DFF87C552A680C465C
:104764004FF47A71A1FB0001002300F0F7FA002353
:1047740099424FF0004201D8904202D36FF00200F8
:1047840030BD2060002030BD014688684968084774
:1047940070B505460E46FFF745FEFFF706FF040019
:1047A40009D0FFF74EFE0146002200F09AF820B12E
:1047B400521C062AF9D300F0CEFA4FF6F87018808E
:1047C4005C60002098602A706068306000F090F8A7
:1047D400002070BD0C38B9E670B5044615461E4677
:1047E4000846FFF708FFFF2802D14FF0FF3070BDE5
:1047F400014633462A462046BDE870407CE07CB53D
:104804000546164600F0A9F8040010D12888694628
:10481400C0B2FFF78BFF28B13068FFF7DBFF6FF002
:10482400050076BDBDF800002880FFF770FF204624
:1048340076BD38B50546FFF7F5FDFFF79CFE044647
:1048440000F0A4FB002818BF012800D014B96FF0B1
:10485400040032BD4DB900200090009B606800F058
:10486400B6F9401E8041C00F32BD15F1010F08BFDB
:104874004FF0FF30F0D069462846FFF76CFF002860
:10488400EBD032BD80B500F064F8002002BD2DE904
:10489400F843054600F0A0F9FFF787FE04006FF027
:1048A40002091CD0FFF7CDFD0146002200F019F8E3
:1048B40040B1854211D0521C062AF7D300F04BFABE
:1048C400BDE8F2831D805C609E603A706068C8F841
:1048D400000000F00DF80020F2E700F009F8484667
:1048E400EEE70C23DFF8E0035343034418887047D2
:1048F4000846B1E5E6E529E62DE9F8430E46062E1D
:10490400BCBF0446062C154698466FF002090BDA24
:10491400FFF797FD0C21DFF8B02301FB06F7D71949
:10492400796819B9FFF798FD484610E0FFF794FD40
:10493400A8F1080041460470467085707868083014
:10494400FFF7CFFE7868406800F003F80020BDE868
:10495400F2834FF00041FEF7B3BF2DE9F041064664
:104964000F469046FFF75EFDFFF705FE050008BF02
:104974006FF004001BD0FFF764FDA968002441B167
:104984000C46A4F10C010A68AA6000220A60FF2206
:104994008A72FFF761FD0CB9022008E0A4F10C0053
:1049A4000179317040793870C8F800400020BDE8C2
:1049B400F08100F0D0F900BFFDF7B8BD10B5DFF805
:1049C400180302686FF00044A4FB020100234FF4B3
:1049D4007A7200F0C3F9002399424FF0004201D8E3
:1049E400904200D3204610BD7CB50C4615461E46A9
:1049F4006946FFF7B0FE30B9009833462A4621468F
:104A040000F002F8002076BD2DE9F8411D4689B07A
:104A14002C6880460E4617460CBB0C20FFF752FD4F
:104A2400040008BF6FF003002DD0082324220021C6
:104A34006846FCF793FC0020ADF81000059006943E
:104A440000236A464146DFF89402FFF7EFFC20603A
:104A540008B900F080F96660A7602C600BE0DFF80D
:104A640080623068804705462068FCF77BFCA760BD
:104A740028467168884720684146FCF777FC20681F
:104A8400FCF778FC00200AB0BDE8F08100281CBFC8
:104A94000068FCF767BC7047E0B58DF80400684611
:104AA40000F0A8FA9DF805000EBDE0B50190684637
:104AB40000F0D6FA0EBDE0B50190684600F0DAFACF
:104AC4000EBD2DE9F84384B0044600F085F8FFF7E5
:104AD40052FD05460020029000F058FA002818BF45
:104AE400012800D015B96FF004006DE044B900202E
:104AF4000190FDF71BFD814601980124814423E0C8
:104B040014F1010F08BF4FF0FF30F1D001A9204686
:104B1400FFF721FE0028ECD056E0039902A8FFF726
:104B2400E0FD6868FFF715FF0199012411F1010FF9
:104B34000AD0080008D0FDF7F9FCB9EB00002ED02C
:104B4400019981422BD30190019B686800F03FF8E2
:104B540028B303AA69460DF10100FFF7FEFE040025
:104B6400E2D19DF801000DF10201FFF7DFFD0028FD
:104B7400D3D1039A9DF80010BDF80200B047002875
:104B8400CBD017B1BDF802003880B8F1000F1CBFBC
:104B94009DF8001088F800100C9803990160FFF745
:104BA400B6FD029EFFF74DFC014656B1324600E0C9
:104BB400024652F80C0C0028FAD1A86842F80C0CF2
:104BC400AE60FFF795FE204605B0BDE8F0834FF0D8
:104BD40000420021FEF778BE0E4617469846FFF7BE
:104BE40021BC38B5FFF71EFC044600F0CFF90028BD
:104BF40018BF012811D0FFF724FC0025324A0C23EA
:104C04006B43D15A39B1D1184B681968A14206D007
:104C14006D1C062DF3D3FFF71FFCFF2032BDFFF7F9
:104C24001BFCE8B232BDE0B5ADF800008DF806100B
:104C340000202C490A68ADF802006846904710B974
:104C44009DF807000EBDFF200EBD1078422801D14B
:104C540001207047002070470CB478B504460E4616
:104C640087B000F093F91420ADF810000021FF2064
:104C74000CAD02918DF8120006960595FFF7B1FF71
:104C840005AB03222146FFF7A7FD002001A90190EF
:104C9400009100230022144941F28830FFF711FFEC
:104CA400012804D018B9019808B1FFF793FD0598BD
:104CB400006808B070BC5DF80CFB00009021002077
:104CC400F03B0020B81A00204C1A0020017A0100A1
:104CD400A404002055460000509B00008D470000AE
:104CE40080040020880400204F4C0000254600006A
:104CF400474400005D440000401810F0030308D04E
:104D0400C91A1FD3DB0748BF00F8012D28BF20F8BC
:104D1400022D130030B414461546103928BF20E97B
:104D24003C00FAD8490728BF20E90C0048BF40F8E6
:104D3400042D890028BF20F8022D48BF00F8012D5A
:104D440030BC7047C91818BF00F8012DCB0728BF25
:104D540000F8012D7047012000F09CB9B3BBD9B114
:104D6400B2F5803F7DD2022A1ED98C46B1FBF2F106
:104D740002FB11C31B0443EA1043B3FBF2FC02FB26
:104D84001C3380B240EA0343B3FBF2F002FB10325F
:104D940040EA0C4000237047022A05D98446B0FB40
:104DA400F2F002FB10C270474AB105D100F00102D3
:104DB40049085FEA3000704700220023704700F082
:104DC4006FB90B000200002100207047904271EB84
:104DD400030CF6D3B3F5803F2FD2F0B5B3FA83F7C3
:104DE400B1FA81F4A7F10F0E3D1B5340CEF120061A
:104DF40002FA0EF2F3415340B5F10F0746D80F3CC7
:104E04002C444140C4F12006A040F1414140B1FB93
:104E1400F3F603FB1611A2FB0645001BA94102D2BF
:104E2400761E8018594180EA010221FA0EF362FAD3
:104E34000EF200215A403046F0BD30B4B1FBF3FC11
:104E440003FB1C11A2FB0C45001BA94103D2ACF1CE
:104E5400010C8018594130BC02460B4660460021C3
:104E64007047B2F1807F65D3F0B5B2FA82F7B1FA38
:104E740081F4C7F10F063D1B22FA06F307F1110E68
:104E8400F24120355A40B5F10F07B8D94140C4F179
:104E94002006A040F1414140B1FBF3FC03FB1C118F
:104EA400A2FB0C45001BA94103D2BCF1010C8018E4
:104EB40059410F2F12D30F3FC90341EA5041B1FBAF
:104EC400F3F603FB1611A2FB0645D4EBC030A9414F
:104ED40002D2761E8018594146EACC3C07B34140C1
:104EE400C7F12006B840F1414140B1FBF3F603FBA2
:104EF4001611A2FB0645001BA94102D2761E80189A
:104F0400594180EA010221FA0EF3C7F1200462FA42
:104F14000EF20CFA07F05A402CFA04F13043F0BDBB
:104F240080EA010221FA0EF3002162FA0EF26046D1
:104F34005A40F0BD8C46B1FBF2F102FB11C31B02D7
:104F440043EA1063B3FBF2FC02FB1C331B024CEA82
:104F5400002043EA1063B3FBF2FC02FB1C331B0288
:104F64004CEA002043EA1063B3FBF2FC02FB1C335F
:104F74001B024CEA002043EA1063B3FBF2FC02FB81
:104F84001C324CEA00200023704700000148007DD9
:104F9400704700BFA401002038B50446012501E094
:104FA400FDF70AFCB4FA84F0C0B2202806D000F061
:104FB40019F8F5DB401FFDF714FCF3E731BD38B5F4
:104FC4000446012501E0FDF795FBB4FA84F0C0B274
:104FD400202806D000F006F8F5DB401FFDF79EFB05
:104FE400F3E731BDC0F11F00C0B205FA00F14C4037
:104FF4000528704738B5044601206071244D207996
:10500400A8B1FFF71EFA04462878FF2805D12046E8
:10501400FFF722FA6FF0060032BD401C2870C0B2C0
:10502400012804BF6868FFF7B7FF204614E0FFF7C4
:1050340008FA297821B9FFF70FFA6FF0070032BD9B
:10504400491E2970C9B239B9FFF706FA6868FFF733
:10505400B6FF0020607101E0FFF7FEF9002032BDC9
:1050640080B5406810F07F4F00D00DE0FFF794FF4B
:10507400002002BD80B5406810F07F4F00D003E0EF
:10508400FFF79DFF002002BD6FF0020002BD00008B
:105094008C0400202021090326311820ABBEF9E737
:1050A40070470000DFF800F0A9C00110DFF800F03D
:1050B40015C10110DFF800F00DC10110DFF800F098
:1050C40091BE0110DFF800F0DDC0011050F8382F58
:1050D40011430160704750F8382F22EA0101016042
:1050E4007047817DFF291CBFC07DFF2801D00120AE
:1050F40070470020704738B50446FCF71FF9054691
:10510400207820B90220FDF757FB012020700BE026
:1051140038B50446FCF712F90546207820B1022080
:10512400FDF7E8FA002020702846BDE83240FCF77D
:1051340009B94068D030FCF70DB94068EC30FCF791
:1051440009B970B5456886680C4606E0286A401CB3
:105154002862641E686A401C686234B1286A017857
:10516400306800F0C5FC0028F0D1204670BD70B551
:10517400456886680C4608E0296B0870641E286B35
:10518400401C2863686B401C68632CB1306800F0D5
:10519400A6FC10F1010FEFD1204670BD70B5456833
:1051A40086680C4605E0C1B205F1400000F0D3FC6E
:1051B400641E2CB1306800F092FC10F1010FF2D1A2
:1051C400204670BD70B544684FF4847026180D46AF
:1051D4003046FCF7C7F8217F627FDFF81C080068BF
:1051E4005118C91D6943DFF814285143A269B1FB62
:1051F400F2F141186331B1FBF0F0411C3046FCF789
:10520400B5F83046BDE87040FCF7B4B8F8B50446CC
:105214004FF484706568A6682F183846FCF7A2F826
:10522400306818300068000711D5DFF8CC1709681A
:105234004FF4FA70B0FBF1F1022938BF012138466E
:10524400FCF794F83846BDE8F240FCF793B8DFF871
:10525400B007FFF75DFF30682021FFF73CFF00F047
:105264008CFA00F090FA01B0BDE8F040184738B568
:1052740004460D4620212868FFF72DFF297D606E26
:10528400012200F067FE297D606E012200F07CFEA1
:10529400297D606E002200F0A8FEA97D606E0022C8
:1052A40000F0A3FEA078012805D128681830006812
:1052B4000007FAD405E04FF0FF3104F1D000FCF709
:1052C40045F800F0B3FB2846FFF70BFF30B1A97D8A
:1052D400606EBDE83840112200F087BE31BD2DE973
:1052E400F04780460026D8F808502A68D8F8049079
:1052F40002F1400009F12807046802F1440014F4A3
:10530400F06F04603869FB69D7F820C00146A3EB4D
:105314000C0A34D0600518D5101D026802F00F067F
:10532400002221290260ACBF20250D46294600F049
:105334005DF8C5F120015145C8BF51464046FFF70D
:105344002DFF16E03869401E3861386988B10121A3
:1053540000F04CF8286850F8041F01F00F060021F3
:10536400002E0160EED0B868401EB860F868401E98
:10537400F86089F81F60404600F08CFA25E0620668
:1053840009F19C050AD5E1B100F030F8386178796B
:1053940008B13E6111E0386900280DE0E20614D539
:1053A40079B1397D4E1E864228BF0646314600F04B
:1053B4001DF83869801B386107D12846FDF7D2FCF7
:1053C40003E051464046FFF7E9FEA0060CD53D68D0
:1053D40055B129464046FFF7B4FE386020B9291D6F
:1053E4004046BDE8F047EDE6BDE8F0874046BEE63E
:1053F40038B50446DFF80C066568FFF789FE63E2FA
:10540400406800210170DFF8FC05017041707047AD
:10541400F0B504468DB06568A6680F46FBF78EFFAD
:105424002978002941D101212970FBF78BFF3878B5
:10543400687000217878A87078686860B868A86097
:10544400F868E86038692861387D2875787D687562
:10545400B87DA875B869A861387F2877787F6877A0
:10546400B87FA8770020286205F12C0041606962AA
:105474008160A962C1600170417010210174002132
:1054840041747068FDF7ADF9204600F028FA204613
:1054940000F077FA68B9306800F00FFB7068FDF728
:1054A4003DF9FBF74BFF00212970FBF74BFF002070
:1054B40065E008233022002101A8FBF767FF06946A
:1054C40001AB307BDFF8402509900020009005F106
:1054D4008000B168FBF75EFF08232822002101A8A1
:1054E400FBF75CFF059400233069DFF82015079073
:1054F40001AA05F19C00FBF759FF0823242200218F
:1055040001A8FBF713FF01208DF81C00A87840B90F
:1055140001AA002105F1D000FBF70CFFDFF8F0042D
:105524002861687840B901AA002105F1EC00FBF775
:1055340001FFDFF8E004E86008232422002101A829
:10554400FBF70CFF00200690ADF8140007944FF40D
:10555400847001AB0A22DFF8C0142844FBF70EFF65
:10556400F269B16905F1400000F0CEFA23460FF26A
:10557400C942042105F16C00FDF7AAF820460DB0DC
:10558400F0BD70B506467468B568606E00F0D4FC72
:10559400286840F2F271FFF79EFD304600F0C2F831
:1055A400304600F077F9286800F12C010A6822F0EF
:1055B40010020A6050F8301FDFF8602411400160C7
:1055C4006868FDF7ABF804F18000FFF76BFD04F1A8
:1055D4009C00FFF76BFDA07818B904F1D000FFF729
:1055E40069FD607818B904F1EC00FFF763FD4FF42E
:1055F40084702044FFF766FDFBF7A0FE00212170B4
:10560400FBF7A0FE04F16C00BDE87040FDF739BA69
:1056140070B50246202955686FF0010004D023D3E9
:10562400222909D004D370BD012085F82D001AE089
:10563400002085F82D0070BD9668FBF77FFE0446B8
:10564400306800F04CFA10F1010FF9D105F138007F
:1056540000210161C168491E41610021816101602D
:105664002046FBF76FFE002070BD2DE9F843044689
:105674006668A7680D469046FBF760FE8146B06AEF
:1056840018B14846FBF75EFE43E04FF484703044A3
:10569400FBF768FE0020F077356270624846FBF73E
:1056A40051FED84D681CFFF726FDDFF8740301682E
:1056B40041F48071016020464146FFF742FDB0622B
:1056C40006F1D00958B941462046FFF77BFDB07872
:1056D40020BBB1684846FBF739FEE8B90FE03868EB
:1056E4002021FFF7F3FCB078C0B9B1684846FBF756
:1056F4002DFE88B941462046FFF764FD0020B062C4
:1057040039461020F0773046FFF7B1FD681CFFF7EB
:10571400FFFC4FF0FF3002E0706A00E00020BDE8BB
:10572400F283B4E070B504466568A668FBF706FE2C
:10573400A96A41B9316818310968090703D4BDE879
:105744007040FBF7FFBD0021A962FBF7FBFD30466B
:10575400FFF7C7FC18B131462846FFF788FD3068CB
:105764002021FFF7B8FC00F008F8A548FFF7D0FCAB
:1057740000F009F8BDE870401847A948016821F411
:105784008071016070476A6A286A2B69514201443A
:105794002962204670472DE9F84381468846D9F8A6
:1057A4000850D9F80440286817464FF4FA61FFF707
:1057B40092FC04F13006B06820B100F063F84FF0B9
:1057C400FF305DE0B760271DF876C6F80080706092
:1057D4000CE031689DF8000008703068401C3060AF
:1057E4007068401C7060B068401EB060B0680028EB
:1057F40038D0694604F1400000F090F90028E8D55B
:10580400DFF800924846FFF776FC8548016841F4CA
:10581400007101604FF4FA612868FFF757FC607863
:1058240088B9396804F1EC00FBF790FD38BBB0602F
:105834004846FFF76DFC716830684942084430609F
:105844001020F8761BE094F82D0000281CBF706827
:10585400002805D00020B06004F19C00FDF782FA16
:1058640000200DE000F00EF87268306851420144E7
:1058740031606078012802D1BB6848469847706857
:10588400BDE8F28328684FF4FA611FE400BF4FF0CB
:10589400FF30704738B504464FF4FA61A068656874
:1058A4000068FFF718FC5E48016821F4007101608C
:1058B4005448FFF72DFCFBF741FDA96B01B934E413
:1058C4000021A963FBF73EFD6A6B286BEB6851422C
:1058D40001442963204601B0BDE83040184770B543
:1058E40088B0044602A80FF260111422FDF7B6FA3C
:1058F4006568A468206800F0E0F840F2F276206859
:105904003146FFF7E8FB206800F1440102AB0E606A
:1059140005F13C014A780978C90853F8211011436C
:1059240040F8341F6846FFF7C9FB05F118000FF271
:105934002C11027951F822100FF23012437952F8E7
:1059440023208379374D11430FF2281252F8232074
:1059540042EA010302680199206800F095F828687A
:1059640040F010002860686840F00100686020463C
:10597400FFF7B7FB18B1686840F44040686008B0AE
:1059840070BDF0B585B085684468687D264F40F0E9
:10599400004000900826287D384301902846FFF7F0
:1059A400A0FB38B1A87D40F0004002901026E87DAD
:1059B40038430390FE204DF80600694604F1580070
:1059C40000F052FA6066A0B1697D0F2200F00DFB71
:1059D40000F02CF82846FFF784FB48B1A97D606EDF
:1059E400112200F002FBE97D606E122200F0FDFA44
:1059F400012005B0F0BD0000509B000040420F00A4
:105A04005620002055200020E3520000F5530000EA
:105A1400375100003F51000011520000FEFCFFFF0F
:105A2400301000402C1000400000C0A0297D606EA2
:105A3400102200F0DABA000080B5042804BF104632
:105A4400FFF74DFF002002BD000000000800000029
:105A540010000000180000002000000000000000FA
:105A64002000000040000000600000000000000072
:105A74000800000000000000060000000200000012
:105A84008600000082000000F8B504460E46174662
:105A94001D4600F012F8F000B0FBF7F0401C40087F
:105AA40004F124028109116000F03F0004F128018F
:105AB400086004F12C000560F1BD00F118010968CB
:105AC4000907FAD400F12C016FF010030A681A4098
:105AD4000A6050F8301F0B4A11400160704700F112
:105AE40018010968C90654BF00684FF0FF307047B9
:105AF40000F11802126892065ABF016001200020CA
:105B040070470000FEFCFFFF0160426000218160DD
:105B1400511EC160002101614161704738B500F038
:105B240016F8A16801B92FE021682269895C2970FF
:105B340021696268491CB1FBF2F302FB1311216174
:105B4400A168491EA160FDF786FEA06832BD044627
:105B54000D46FDF77EBE38B5FFF7F9FF6168A26810
:105B64008A4211D0E268521CB2FBF1F301FB13210B
:105B740022685554E1606269A168491C8A4238BFB1
:105B84000A46A1606261DEE7FDF765FE4FF0FF3073
:105B940032BD000070B5FDF74BF904460026DFF86E
:105BA40070540DE024FA06F0C00708D505EB860012
:105BB400406820B1026811001CBF31469047761C32
:105BC4002868F6B28642EDD370BDDFF84804016858
:105BD400DFF844040160DFF84404FDF7C7B82DE999
:105BE400F0470E00F5B2044644BF86F0204686F422
:105BF400C046A80000F1804000F5012004EA060335
:105C04000168DFF81C743B4086EA0102A143194392
:105C1400224004F4E023120EB3F5E02F02F0010257
:105C240002D1CA0105D411E014F4E02F08BF002A00
:105C34000CD001F4E022B2F5A02F04D0B2F5C02FAD
:105C440004D1052200E0062262F31241DFF8D47386
:105C540001603868E84000F0010805F1804000F573
:105C64000839B00DB8F1000F00F0010A03D1600249
:105C740048BF89F800A020020DD5FBF75FFB012285
:105C8400AA40396833024CBF134600239143194399
:105C94003960FBF757FBB8F1000F03D0600248BF2F
:105CA40089F800A0BDE8F087002948BF00218000E2
:105CB40000F1804000F5012001F03F0102689209E3
:105CC40041EA82110160704710B5DFF85C03006897
:105CD40000F07F0400F0CCF9012804D100F0BEF9F3
:105CE400022808BF641C204610BD2DE9F04FA1B066
:105CF4000546FCF77CFC00F0BBF90026012804D122
:105D040000F0ACF9022808BF0126DFF82003C168BF
:105D1400C1F3815101294FF0010A04D10068000E3A
:105D24000AFA00F00643DFF80803DFF8E49200788B
:105D3400DFF80073FFF7C8FF5FEA000BC9F800B093
:105D440004D0FF2259463846FDF766FD4FF000089F
:105D5400002405E00AFA00F07C5440EA0808641CB8
:105D640055F8240000F0FF01FE2909D0FF29F6D0E0
:105D7400594503D226FA00F2D207EBD5022070E08F
:105D84000920FCF72EFDC9F88050082324220021A5
:105D940017A8FBF7CBFA8DF874A017AA012109F113
:105DA400D400FBF7C7FA0024DFF88CA20BE05046BE
:105DB400FFF715FF4FF0FF31E0B2FFF775FF00204A
:105DC400CBF80400641CD9F80000844213D226FAEC
:105DD40004F0C00709EB840B48BF0420F0D428FA70
:105DE40004F0C00747BF385D55F8201004F0FF00E9
:105DF40040F4C041DBE70823302200210BA8FBF765
:105E0400C5FADFF83852DFF83822287813900BAB44
:105E140000200090102109F18400FBF7BBFA08234D
:105E24002822002101A8FBF7B9FA6868DFF81412E8
:105E3400079000230020089001AA09F1A000FBF7B5
:105E4400B5FADFF80402016821F47C5141F40051F1
:105E540001600120DFF8F4110860DFF8F411086034
:105E6400002021B0BDE8F08F2DE9F041684E0446D2
:105E74000D4606F1D40800F036F8002035B90020AC
:105E840020606060A06085B125E0401C15F82010FA
:105E9400FE29F4D0FF29F8D03268914204D206EBEF
:105EA400810149680029F0D000244046FBF752FAEA
:105EB4002046BDE8F08106EB81020123546003FA19
:105EC40001F162681143616055F820205A49204667
:105ED40000F076F8384615F82010FE29E5D0471C66
:105EE400FF29E8D1F6E74FF0FF314046FBF72EBA21
:105EF40010B50C46F0B1416821FA04F2D20719D565
:105F04000122A240914341600020414901EB8402F7
:105F140050604848025D4848FF2A0EBF44F02041C3
:105F2400D1F8801051F82210FFF759FE4FF0FF31DD
:105F3400204669E0022010BD10B5044606E090FA40
:105F4400A0F0B0FA80F12046FFF7D2FF6068002885
:105F5400F5D110BD38B50C462D4915460A68944252
:105F640004D201EB84014968814201D0022032BD90
:105F7400FBF7E4F92B490A680123A3409A4305FA85
:105F840004F31A430A6065E010B5214B1C68A14272
:105F940004D203EB81035B68834201D0022010BD6D
:105FA40001F18041100001F5083118BF012008708B
:105FB400002010BD10B1016000207047022070471E
:105FC40038B5134C25680B46114601F0FF02AA426E
:105FD40004D204EB82025268824201D0022032BD14
:105FE4001846FFF7FCFD002032BD0B4610B51146E4
:105FF400074A1468A34204D202EB83025268824225
:1060040001D0022010BD1846FFF74EFE002010BD3F
:1060140058200020E0200240E0200260F820002008
:10602400007F077FD020024044130050A83F005057
:106034008A21002048210020007FC7677493000054
:10604400CF5B0000995B0000003009400C40094020
:1060540008000940FBF776F9002032BD0D480068BE
:10606400000C00F00700062828BF4FF0FF307047EF
:1060740009490A68C2F30F324BF69A139A424FF059
:10608400FF3006D10868000F0B2801D103207047A8
:1060940000207047941200501813005080B5FFF789
:1060A400E7FF032800D101BDFEE70000DFF800F0A0
:1060B4004FBF011002090A2A00F00F00ACBF3732AB
:1060C40030320A280A70ACBF37303030487070471D
:1060D40080B500220021042000F00FFCDFF83429F1
:1060E400106CBDE804400121FDF7EABB00B58FB098
:1060F40008233C2200216846FDF7DEFBDFF818097F
:1061040000F1500107914FF4217201210892069188
:1061140000236A460FF2E931FDF7DAFB0FB000BD48
:10612400F8B58EB008232422002105A8FBF7FEF859
:10613400DFF8E84805AA002104F13C00FBF7FAF86F
:10614400DFF8D058DFF8D86804F13C00E86300F0C9
:106154008DFC04F1140000F0C5FC4FF41650E0620D
:1061640004F11401012020750FF2B9702062DFF8E8
:10617400B408E061002000F096FCA06304F18C01F7
:1061840004F19C00FFF770FEE864DFF89C18FFF749
:1061940011FFE86CDFF894284FF4E021FFF710FFBB
:1061A400E86CDFF88C284FF0C051FFF709FF05F1C8
:1061B400400105F11E00FEF7EBFA33681F68002268
:1061C4002F210D20B84733681E6800223021072094
:1061D400B0470122502100F08AF90C22432100F03B
:1061E40086F900F097FC05F1200000900A23812233
:1061F400EC2100F072FBDFF83C080168406868702D
:106204000A0A000A2870697140F2E270E8812A7172
:1062140000200A0C090E2873A860EA70A97005F121
:10622400080000F05CFDE86200F0B4FC00F07EFBC6
:106234004620207004F10C01652060706E20A0706F
:106244006320E070652020712D2060715320A071BF
:106254006C20E07161202072762060726520A0724B
:106264002D20E0722879FFF725FF687904F10E01EB
:10627400FFF720FF04F15800FEF79BF86864002341
:106284001F2200F037F901208DF801008DF800007D
:106294004FF448715020ADF80800ADF80610002006
:1062A4006421ADF80400ADF8021040F205360DF19A
:1062B400010201213046FDF70FFB04F164021621AF
:1062C4004FF44270FDF708FBDFF86C271A2140F207
:1062D4000730FDF701FB6A4601214FF44470FDF7D6
:1062E400FBFA02AA022140F21130FDF7F5FA0DF192
:1062F4000602022140F21230FDF7EEFA01AA022151
:1063040040F21330FDF7E8FA0DF1020202214FF4D6
:106314004570FDF7E1FA0094142300226A2100F08D
:10632400DCFAA023062200F0E5F8A023072200F0FF
:10633400E1F8A023082200F0DDF8A023092200F0F0
:10634400D9F801208DF80700012103208DF80500FC
:106354008DF806100DF107008DF80410009001234C
:106364004FF4806200F0BFF80DF1060000900123A5
:1063740040F2024200F0B7F80DF10500009001234D
:1063840040F2034200F0AFF801A80090012340F26C
:10639400064200F0A8F84FF0FF326B2100F0A7F896
:1063A4004FF0FF32C82100F0A2F800F001FD4FF0D9
:1063B400FF3000F0FFFD01208DF8030002210320CF
:1063C4000FF2A0628DF80100D2E900378DF80210B7
:1063D40003A80421C0E900378DF80010002301A9A7
:1063E4000DF10302C1E900330121002000F018FE81
:1063F4000DF102020121012000F012FE0DF1010253
:106404000121022000F00CFE00F069F903AA052125
:10641400042000F005FE01AA0821052000F000FE7A
:1064240004F1880000F0F5FD04F17C00FDF73AFC6E
:1064340004F18002742100F05AF8A97F0FF2B147E9
:1064440000F04AF902467C2100F051F8A97F00F0DF
:1064540043F90246A62100F04AF813211020FEF762
:10646400FBFBE86C00220921FFF78EFDE86C00229B
:106474000B21FFF789FDE86C00F031F810200021B2
:106484000190009105F19C044FF47A731A46394641
:106494002046FDF743FF20200021019000914FF496
:1064A4007A72DFF89835394605F17800FDF736FF42
:1064B40040200021019000914FF47A731A46394626
:1064C40005F1C000FDF72AFF2046FDF74CFF05F15A
:1064D400500201213046FDF7FFF90FB0F0BD002254
:1064E4000A21FFF751BD70211020FEF7B5BB102023
:1064F400FEF7B2BB7D211020FEF7AEBB000000000A
:106504002DE9F04F85B0FFF70BFE00F0D7FEDFF862
:106514000465DFF82485DFF828A506F1C0000390A0
:1065240040F2073B06F19C0004904FF6FF797AE0B5
:10653400706CFDF75FFF040004D000F02CF92046D6
:10654400FEF7D9F9706CFFF7B1FD0028F0D0E80729
:106554000AD506F15400FDF706FF6946022000F053
:10656400A3FD08B900F0BBF8E8061ED500F0ADF8AD
:106574000921327FF06CFFF707FD327FF06CFFF7E3
:10658400AFFFB06B012825F010050ED1F06C00228E
:106594000921FFF7F9FCF06CFFF7A1FF0498FDF760
:1065A400FBFE06F17800FDF7DEFEA80622D500F01A
:1065B400C9F90622314608F10400FCF74FFC306BA0
:1065C40088F80A00092206F1210108F10B00FCF702
:1065D40035FC42461A215846FDF77EF906F1500271
:1065E400012140F20530FDF777F90398FDF7BBFE72
:1065F40025F02005680616D5706B401C706300F00A
:1066040064F80B21327FF06CFFF7BEFC706B1E2820
:1066140009DB002171630022F06C0B21FFF7B4FC4D
:106624000398FDF7B9FE306C4FF0FF33524600215A
:10663400FDF74AF9054600F079F9002DF3D0002062
:10664400029002AA01A90DF10600FEF7D8F800286D
:1066540037D1BDF806000124102802BF9DF80410AC
:10666400B07F814227D102980188494520D18078A2
:10667400C10720D5B06CF0B1F17F491C00F10802CC
:10668400F1770092A721037900F026F9C7B2162FFB
:1066940018BF042F0FD000F01EF80346B06C002181
:1066A4000091582100F018F9384600F063F802E030
:1066B40000F01AF80446029800281CBF002CFEF7CC
:1066C40089F868003FF53EAF41E7307F401E8041C6
:1066D400C00F30777047B17F5020FEF7A4BA6A46E6
