:1000000000440020ED18010001C9011001C90110D0
:1000100001C9011001C9011001C9011001C9011074
:1000200001C9011001C9011001C9011001C9011064
:0C00300001C9011001C901103FC90110F5
:10100000B41200001810000015AB0110FDB3011060
:101010006DC00110FDAE011099B501100000000077
:10102000000000002F000000B01200003C10000083
:10103000B1C00110A9BF011067C0011069B801104B
:1010400000000000000000002D000000B0120000B1
:1010500060100000BDC00110CDB30110D9BD01105A
:101060006DB3011000000000000000002E00000021
:10107000000000009C0B00200400000000000000A5
:101080000000000020000000681201003000000095
:1010900028100000BC0B002004000000000000002D
:1010A000000000000C0000001418010018000000EF
:1010B0004C100000C40B00200400000000000000E1
:1010C00000000000240000002C180100180000009F
:1010D00000000000040C00200400000000000000DC
:1010E0000000000010000000381301002C00000078
:1010F000001000000C0C00200400000000000000A4
:101100000000000020000000401401002400000046
:10111000FFFFFFFF2C0C0020040000000000000077
:1011200000000000280000006414010024000000FA
:10113000FFFFFFFF540C002004000000000000002F
:101140000000000014000000441801001800000016
:10115000FFFFFFFF5C0C0020040000000000000007
:1011600000000000580000008C1001003400000056
:10117000FFFFFFFF640C00200400000000000000DF
:1011800000000000100000005C18010018000000C2
:10119000FFFFFFFF6C0C00200400000000000000B7
:1011A000000000001C000000881401002400000062
:1011B000FFFFFFFF740C002004000000000000008F
:1011C0000000000038000000C813010028000000E3
:1011D000FFFFFFFFDC0C0020040000000000000007
:1011E0000000000054000000380D01003C00000029
:1011F00001000000E01901000100000000000E00E5
:1012000000000F003200000001000000A40B0020CD
:10121000000200000000000001C9011000000000F1
:10122000000000000800000000002300CC0B00209C
:1012300001000000140C002008000000340C002005
:101240000000000000000000080000000000000096
:10125000000000000000000000000000010000008D
:101260007C0C00200600000001000000E40C0020BF
:10127000000000000000000000020000000000006C
:0F1280002900010025002D002E002F0001000184
:1012900004000000541901000000000000000000DC
:1012A000000001000000030013C40110A9DB0000CE
:1012B000B8120000B812000000000000140C00205A
:1012C00009DB00002000000004190100AC1401003B
:1012D00029C101109F3900007F5F0000A1C70110E4
:1012E000A3C7011000000000FE6D0000D00901003E
:1012F000E8090100B809010002000900010000002E
:0113000001EB
:10130400BD13010091130100051701002D11010007
:1013140035120100F910010031010100A518010086
:1013240081DA0000DBDB0000DFDB0000DFF800F027
:1013340085BF0110DFF800F061C00110DFF800F094
:10134400C1BF0110DFF800F0B9BA0110DFF800F0F6
:10135400E5C00110DFF800F01FBE0110DFF800F057
:1013640069B20110DFF800F011BF0110DFF800F0DE
:1013740009C00110DFF800F0E1A30110DFF800F06C
:101384005DB40110DFF800F0059B0110DFF800F0F8
:1013940079BF0110DFF800F0BDAA0110DFF800F0FA
:1013A40015C00110DFF800F089AF0110DFF800F07C
:1013B40079AD0110DFF800F005B3011020B1082366
:1013C40030220021FFF7E2BF704720B10823282212
:1013D4000021FFF7E3BF704738B500F0DDFF256853
:1013E4000DB129682160FFF7A5FF284632BD70B50D
:1013F40004460D462668002028601EB9FFF796FFB4
:1014040025600DE0FFF792FF00E03668316800299F
:10141400FBD1AE4203D1FFF78DFF002070BD3560D4
:10142400FFF788FF012070BD0022DFF88C1B01EB61
:101434004211CB7F1B0605D5B1F91C30834201D183
:1014440008467047521C082AEFDB0020704738B565
:1014540004281AD1DFF8084B04F1EC05284601F002
:1014640063F890B1284601F065F8DFF8501B09686D
:101474004843642809D22846FFF764FF052001F099
:101484009BF90120E07700F096FC002032BD70B596
:101494000546FFF74BFF0446DFF8C80AC17D0A0082
:1014A40022D0491EC175C9B2F1B9DFF8B46A082166
:1014B40006F14C0001F0C8FCB5B1B06B7830FFF711
:1014C40041FFB06BDFF8F41AC0680968281AB0FB52
:1014D400F1F1022906F1EC0538BF01212846FFF796
:1014E40035FF2846FFF736FF2046BDE87040FFF77A
:1014F40021BF10B50446207B00F00F0002280FD155
:1015040000F032FDA168081ADFF8541A896BC96823
:10151400800801F57A71814238BFB0F1405F00D391
:10152400002010BD38B5DFF8980ADFF8982A016862
:10153400DFF82C4A02EA0105E9430160A90606D551
:101544004068800603D54FF4005100F030FC15F4D8
:10155400602F08D0206905F4602108432061002130
:1015640004F19C00CEE131BD70B5FFF7DFFEDFF87A
:10157400F0490646206910F4602F27D02069C50180
:101584002D0EE80748BF002506D4A80748BF01254B
:1015940002D4680748BF0225681D40B200F05DFF11
:1015A4002069012105F111029140884320613046F0
:1015B400FFF7C0FE04EB85004668300009D02068C0
:1015C40000224FF00063691DB04702E03046FFF788
:1015D400B1FE206930B104F19C00BDE870400021E7
:1015E40001F032BC70BD70B501F05CFCDFF87059DD
:1015F400DFF8004CAB6A024690071DD4D3E904011E
:10160400104007D0EB629969084398614FF4804118
:1016140000F097FDA86A002847D16E6A002E44D0D6
:10162400F068A96B884224D005F14C00BDE87040F5
:101634004FF4805101F008BC0BB9A86AEAE7002016
:10164400A862D3E904019E69024042F002023243D7
:101654009A61626982436261E26822EA0100E060A1
:10166400194605F13000FFF7C2FE022100F069FDC2
:10167400E3E7B068FFF73DFFA86408B1A86CCAE0CF
:10168400D6E90401626902436261E26841EA020048
:10169400E0600020E061B0682060E0690028FCD0D0
:1016A40005F12400FFF798FEAE6270BD0020EEE65F
:1016B400F8B506461446B76E1D4607B1B847A007ED
:1016C40008D4D6E91801204029400022914208BFDD
:1016D400904207D0C6E91C4506F14000BDE8F2403F
:1016E400FFF748BEF1BDFEE780B501F035FCDFF839
:1016F40070280146906BD26BBDE808401047042166
:10170400DFF8F40A01F0A0BB80B501F0CBFBDFF8F1
:10171400EC1A084204D0BDE804404FF00051EFE752
:1017240001BD70B5040075D0A168202001E04968AE
:10173400401E79B1C2B26AB10A8840F603039A42E4
:101744001CBF40F604039A42F1D1E0681822283005
:1017540001F018FCA0690021A1616168D9B140F0D1
:101764000202E07F002300F00700012807D00228CE
:1017740009D0042804BF00224FF0805306E0002261
:101784004FF0005302E000224FF08043B4F91C10E4
:10179400E0686568A847FFF7C9FDDFF8C457064647
:1017A400E88E401CC0F30B00E8860020296BC87744
:1017B40005F13000FFF710FE3046FFF7BBFDB5F929
:1017C4003610E06800F1C002B2F90030994202BF5D
:1017D400DFF89017097D00291CD1917809B90168B7
:1017E40011B90020907016E0AA6B126812F1010F73
:1017F40010D0DFF8C8271268B1FBF2F1022938BF14
:1018040001217830FFF7A2FDE068BDE87040783030
:10181400FFF7A0BD70BDBDE8704038E638B50D4691
:10182400A807DFF83C4716D5206BFFF77AFF206B3B
:1018340025F0020510B145F0020109E0680702D461
:10184400606A00285DD004F1EC00FFF77BFD042101
:1018540004F14C0056E0680753D5012084F82000B9
:10186400042000F0A9FFDFF8CC0A0068006B804771
:101874002064606A08B1C068A063A06BDFF8B82A6E
:1018840041680B781360126809788A421CBF856925
:10189400002D05D000224FF000736FF0FF01A84720
:1018A400022000F089FF112000F09BFF0120E07668
:1018B400A06B617E007C084204BF0E2000F091FF03
:1018C400A06BDFF8301940688268002A04BFC06842
:1018D400002804D00020C861DFF8D40A086040F270
:1018E400FF70DFF8D02A106000208861DFF80C094F
:1018F40048610FF21900E0631920BDE83240FFF798
:1019040051BD31BDBDE8344001F09EBA2DE9FF4719
:101914008046880040F1C980DFF84456A86B4068CF
:101924004068010018BF8047A86BDFF8C89840687A
:101934008168002904BFC168002914D0D9F81C109B
:101944000029FBD00021C9F81C108068010018BFD1
:101954008047A86B4068C068010018BF8047DFF863
:10196400A40A01F0A7FA0020C9F81C0040F60A0AEC
:10197400DFF8940ADFF8EC45C9F8000008F108061E
:10198400012001F0DFFA0FF28110E863A4F800A04F
:10199400002060800021207B00F0F00020730020F4
:1019A4006060607B00F0F00040F00100607330681C
:1019B40007467980697E09B1717AB1B1018840F630
:1019C4000202914218BFB1F5C15F05D1398A4FF6C1
:1019D4000F421140398204E0398B4FF60F42114017
:1019E40039830021717201F09BFA3068694601F075
:1019F40089FA684601F095FA00E0074678680028FD
:101A04001CBF01885145F8D17C6040F60301787B06
:101A140000F0F0007873686A8068008888421CBF10
:101A240040F60401884202D10020286417E0308C7B
:101A3400A8B100207084706208F13400017801F0CC
:101A4400F0010170417801F0F00141F001014170B1
:101A540008F128006060607B00F0F0006073D9F842
:101A64001C000028FBD00020C9F81C004FF6FF32F0
:101A74003068018A11400182E87F30B101F09AF8A0
:101A84000028FBD001F0A7F80CE0DFF80C1A096875
:101A9400096801208847012804D000F081F90FF279
:101AA4001100E8633068C9F80000BDE8FF87000052
:101AB400DFF8E809014200D17047DFF8DC190120A2
:101AC40010B50968DFF8984409688847012808D1E7
:101AD4000FF23500DFF81C17E063DFF888040860B4
:101AE40010BDDFF8D81409683220B0FBF1F10229E7
:101AF40038BF0121EC342046FFF728FC2046BDE81E
:101B04001040FFF727BC00002DE9FE4F06460D46A6
:101B14006804DFF84C4419D5FFF708FCE66AB76996
:101B2400B9070ED46EB10021B161FFF703FC7068F0
:101B340048B1B6F91C10F06876683A460023B047FD
:101B440001E0FFF7F7FB25F4804523E1A8070AD558
:101B5400206BFFF7E6FD206B002825F0020501D07D
:101B640045F0020516E1A80004F1800840F60909D1
:101B7400DFF8F073DFF8BCB77DD594F8200028B106
:101B8400042000F0B7FD002084F8200040F6020293
:101B9400B0680188914218BFB1F5C15F05D1028ACE
:101BA4002D2161F30912028204E0028B2D2161F3DD
:101BB40009120283206CD0B1DBF8541009680420A8
:101BC4008847A0B1DBF80000006B8047216C81429C
:101BD40028BF401E401A718A11EB1030F060A0F546
:101BE400FA70B0F5FA6F84BF40F6C410F060D6F80E
:101BF40018C0BCF1000F1CBFDFF8A4188C450DD031
:101C0400787B0F21084204BF708D484506D100221D
:101C14004FF000736FF480713046E0470022DFF824
:101C24008418404601F0F1F9A07E50B10220ADF8CD
:101C34000000684601F03EF9BDF80800A0820020CB
:101C4400A07601202076F87D401CF8750020E0760F
:101C5400606A18B1192001F0DBF901E045F00205D2
:101C640077692FB100224FF0806300213046B847D6
:101C740025F000558EE0A07F25F0080A20B1280742
:101C840002D50020A07772E0280772D5E07F20B14A
:101C94000020E077052000F02DFD002020760120B3
:101CA4002077002001F04EF90022DFF8FC174046AF
:101CB40001F0ABF9A17E607E81F00101084202D1FE
:101CC4000120607611E0A06C68B3DBF80000006BC3
:101CD4008047216C626C401A02EB10306064A16C86
:101CE400C90181421FD200206064A7F8009000F06F
:101CF40057F800207880387B00F0F000387300201B
:101D04007860DFF8F004416921F0020141616FF06D
:101D140002010161076002699207FCD50161416912
:101D240041F0020141610020206401F0D0F8DFF8A5
:101D3400841600200860022000F0DCFC112000F072
:101D4400EDFC307C10B90E2000F0E8FC0020A083EC
:101D5400787D18B906F14000FFF70CFBDFF84C075B
:101D6400E063387E18B10020387600F024F8554638
:101D740010E0A8040ED5A66A002E1CBF70680028C7
:101D840006D0B6F91C10F068766800222023B0470C
:101D940025F4005515B1294600F009F8BDE8F78F80
:101DA400787B00F0F00040F001007873704704F194
:101DB4004C0001F049B8042104F14C0001F044B88E
:101DC40030B58DB000F013FCDFF8E406DFF8E4462C
:101DD4000168634D41F00201016001A8FFF7F5FAC3
:101DE400A078DFF8D4160790002301AA05F14C006F
:101DF400FFF7DCFA01A8FFF7E1FA0020ADF81C00B8
:101E040001AB2078DFF8A02609901921002000906A
:101E140005F18000FFF7BEFA01A8FFF7D6FAE078D3
:101E2400DFF898160790002301AA05F19C00FFF73C
:101E3400BDFA01A8FFF7C2FA0120ADF81C0001ABFE
:101E44006078DFF87C2609901A210020009005F1C3
:101E5400D000FFF79FFA00230022DFF8681605F18F
:101E6400EC00FFF77BFADFF84406DFF85C26E86352
:101E740000234FF488700421284400F029FC4FF615
:101E8400FF70A8820DB00120A8760020E87568765E
:101E9400E876E861286485F8200030BD2DE9F0413A
:101EA400304E0446707D90B00F4690461D4618B9DA
:101EB400FFF786FF01207075002F1CBF6760B8F123
:101EC400000F4BD0C4F80880FFF730FAB17D002929
:101ED40042D10121B175FFF72DFA35B909A80FF2E6
:101EE4002C611C2201F04EF809AD28682060686856
:101EF400E060287C2074A868606101206074688AAE
:101F04006082E868010018BFA061A02104F12800E4
:101F140001F088F80823242200216846FFF726FAF6
:101F240001208DF818006A46002104F14000FFF7F3
:101F340025FA0823242200216846FFF7FFF90694B6
:101F44006B460022DFF8841504F17800FFF706FAE7
:101F5400204610B0BDE8F081FFF7ECF90020F8E767
:101F640090240020B425002038B5FFF7DFF9DFF80E
:101F74006015097E31B1DFF85C150C68FFF7DAF9FA
:101F8400204632BDFFF7D6F9DFF8A8030068006BDE
:101F9400804710F50030DFF8402541F10001A2FB35
:101FA4000045DFF8380502FB0155016900202218BD
:101FB40045EB0103184632BD80180020DC190100EE
:101FC4000810044020000E002DE9F84F044689460D
:101FD40092469B46FFF7AAF9DFF8F4548046B5F918
:101FE4003400B5F93610401AC0F30B0008286FF01E
:101FF400010646DAA88E401CC0F30B00A886B5F98A
:102004003400ADF800000020DFF8D41401EB4017D1
:10201400F97F090604D5401CC0B20828F4DB002768
:1020240004F17800FFF78EF9C7F8089087F81EA02E
:10203400C7F804B02021BDF80000B883FC60DDE9D6
:102044000A23DFF8A00410401940C7E90401C03492
:102054000020F87740F6FF79686A0028394605F1D0
:10206400240006D0FFF7C3F930B100F05DF8404614
:102074004DE0FFF7BCF940B9A88E4844C0F30B000B
:10208400A88600F068F930464CE000F04DF8687F0F
:10209400297EDFF84864084207D00120A877002091
:1020A4006877A876F07D401CF07500F054F9A86AB2
:1020B400002835D1287E18B1192000F0A9FF2FE09F
:1020C400E87E68BBFFF732F90446287F10B101208F
:1020D40030761BE0B868FFF70CFAA864D0B1A86B9F
:1020E400DFF80414C0680968AA6C121AB2FBF1F292
:1020F400022A23BFAA6C101AB0FBF1F10121EC35BE
:102104002846FFF723F92846FFF724F92046FFF76E
:1021140011F905E02046FFF70DF9042100F011F84C
:10212400BDF90000BDE8F28FBDF800002080F87F03
:1021340040F08000F877A07810B10020A070A87655
:10214400704705F14C0000F07FBE2DE9F0410646D2
:102154000F4614461D46FFF705F980463846FFF73B
:1021640063F9070003D14046FFF724F90AE0F87F3A
:102174000721084209D04046FFF71CF90721F87FE0
:102184000842FCD10220002116E07968DFF85C03E4
:10219400814202D07968B1667860C6E91845404644
:1021A400FFF708F94FF0FF3106F14000FFF7EAF8B6
:1021B4000020B066D6E91C01BDE8F081DCB5DDE99C
:1021C40006670446CDE90067180008BFDFF81C3332
:1021D4002046FFF7F9FE002803D500204FF0004108
:1021E400DCBD0146204602B0BDE8D04002224FF0DB
:1021F400E043AAE700100440DC2400200200004071
:1022040001E042F002022DE9F843DFF8C442606ABB
:102214000090894603271546FFF788F819F1010F46
:1022240005F0010680460AD1A06A002819BFA06AF9
:10223400B0F91C90E08E00F101090020E0750FFA5E
:1022440089F0FFF7F1F801006ED0A06A814205F031
:10225400020525D1280003D0606A00900020606246
:102264000122C87FB2401043C877FFF77BF80746C6
:10227400002E14BFDFF87802DFF8780200F01AFEAF
:1022840000F069F825B906E000F058F800F05EF8AF
:1022940000980028F8D13846FFF78CF8832745E0EA
:1022A400009A8A4204F1EC0016D1FFF74BF828009B
:1022B40012BF0020606A0068606200F04CF8009869
:1022C40000F03CF800F042F8009818B32800F6D16A
:1022D40020E0009A12680092009AEAB112688A42D9
:1022E400F7D1FFF72FF8009800681DB1009A00217C
:1022F400116004E00168009A1160002101600090FF
:1023040003E000F01BF800F021F800980028F8D151
:1023140000F021F8832701E000F01DF8E07E28B9E1
:102324000221FFF744FD01E000F015F83846BDE84E
:10233400F28300008C010010D0210840C07F009976
:1023440040F00400C8776846FFF746B8014604F138
:102354003000FFF74CB84046FEF7ECBF0FF2AC116B
:102364001C2200F00FBE38B500F016F80546584898
:10237400007E68B1204600F09DFD044600F046F85A
:1023840004F0FF00012801D1812032BD022032BDBA
:1023940000F03CF8012032BD0446FEF7C7BF0A46F0
:1023A4004B49896B884201D0032070470BE0000041
:1023B40051000706000004600A464549896B8842BB
:1023C40001D00320704700211046CCE770B5404986
:1023D4008A6B90426FF07F0411D1087E78B1FEF7CA
:1023E400A5FF0546444800F065FD064600F00EF8DA
:1023F40006F0FF00012802D13002001670BD20460D
:1024040070BD00000100070601010E042846FEF716
:1024140091BF70B50E461546FEF788FF83242C49FC
:102424001EB1022E0DD005D30EE08A6A3AB1896A34
:10243400898B02E08A7E12B9898A298005E080248A
:1024440003E0097E297000E0032459E080B50846C2
:10245400FEF7EAFF00B1806802BD38B5FFF79CFFC4
:102464001B49CA7D520702D58B7D9C4210D00122A4
:102474008B8A02FA04F52B438B820C341F490B68B8
:10248400A24023EA02020A60096809B9134A1175D5
:10249400BDE83240FEF74EBFE0010010040000200A
:1024A400EB160000EB1500000D17000021180000CA
:1024B4000020094058090100ED1600006D150000C8
:1024C400291500000317000053140000B116000082
:1024D400902400200430044000093D00B42500206D
:1024E40080180020F1EFFF9FDC190100B5160000F1
:1024F4000100020401000104010003040C10044063
:10250400FEF718FF204670BD00000000FFFFFFFF2C
:10251400C409000000000000EB16000001001A01CD
:102524000000000000000000808A7047DFF800F01F
:102534009DB2011010B50446A08A012804D1FFF70A
:10254400F5FFE168081A10BDA06810BDDFF800F0BF
:1025540031BF0110DFF800F0F5B7011020B10823F6
:1025640024220021FEF7EABE704710B5DFF81048B8
:1025740082B00120009009232468DFF80808646809
:102584004FF400720021A04713BD10B5DFF8F047E7
:10259400DFF8F0072468E468002301223421A0470F
:1025A40000B10120C0B210BDDFF8DC0780687047BD
:1025B400DFF8D417084490F8EE007047002202298F
:1025C40004D1012806D140F2EE2203E0012808BF1D
:1025D4004FF47A7210467047DFF8AC0790F8E610B3
:1025E40021B1D0F81001010018BF004770472DE950
:1025F400F041DFF8944704F1E1058AB0A879002896
:1026040062D10120A871DFF88467DFF88487307B0A
:1026140068717068C4F8100101A8FFF79FFF0020DB
:102624000690ADF81400079001AB00220FF2D551CB
:1026340004F10C00FEF792FE01AB00220FF28D6153
:1026440004F13000FEF78AFE01AB00220FF2B9510B
:1026540004F15400FEF782FEB16801208847DFF8D8
:1026640034070078D8F80400C0F38157707B20B198
:10267400032F02D10120287003E0032F18BF022F7B
:1026840012D1022000F098F8DFF80C170968032F24
:102694000CBF4FF47A7042F2107000F0DEFA04F1CD
:1026A4005400FEF757FE08E0012F06D1DFF8D046AC
:1026B40000F0D9FAA047FFF758FFD8F80000400708
:1026C4005CBF002000F078F800200AB0BDE8F0817B
:1026D40038B5002408B1150002D16FF0020407E0F8
:1026E4008160C26003610146DFF89C0600F0A7FC2C
:1026F400204632BD10B50446FEF718FEDFF88816F2
:102704000A1992F8E8305B1E82F8E830DBB223B98C
:102714008A680123A3409A438A605EE0F8B50546BF
:10272400FEF704FE0446DFF86016481990F8EE2020
:10273400521E80F8EE20D2B2CABB0FF2B860DFF8A6
:102744005C7600EB850210F825505688280615D5CE
:102754003968096A304688473968896A3046884743
:102764003968096B30468847DFF834160120086061
:10277400DFF8300600688007FAD512E0680606D54F
:1027840001EB86010020D1F80411884709E039687B
:102794008969304688473968496B3046884702283A
:1027A400F9D105F03F003F2818BFFFF7B7FF2046D7
:1027B400FEF7C0FD0020F2BD10B50446FEF7B6FDDD
:1027C400DFF8C4158A680123A3401A438A602144B0
:1027D40091F8E820521C81F8E820FEF7ABFD0020B8
:1027E40010BD2DE9F0410646FEF7A0FD0446DFF8D2
:1027F4009855A81990F8EE104A1C002980F8EE208C
:1028040034D10FF2F05818F8260000F03F003F28AA
:1028140018BFFFF7E6FF08EB8600478818F8260084
:10282400DFF8786501060ED53168C96938468847EE
:102834003168496A384688473168C96A38468847E2
:1028440000F088F812E0400606D505EB8701012068
:10285400D1F80411884709E0316849693846884746
:102864003168496B384688470128F9D12046FEF77C
:1028740061FD0020BDE8F081F8B5FEF757FDDFF8F3
:1028840008550446287A800748BF6FF0030659D4D8
:10289400D5F8DC00012853D10420C5F8DC0002205F
:1028A40000F0EDF906004DD1DFF8FC74396C0968CD
:1028B4000120884768B13A6C526800210320904790
:1028C400FFF763FE0028FBD0DFF8E004006800F0A7
:1028D400CBFBB969096B4FF480608847B969096B10
:1028E4004FF48160884700F035F801203968C968E1
:1028F4008847DFF8BC04DFF8BC34016849084900A4
:1029040001604FF03F32DFF8B0140A60DFF8AC2406
:102914004A60DFF8AC140A68002202631A600122DC
:102924008260096841688906FCD4DFF898140A605B
:102934003720B96989698847B869806B804701E0A5
:102944006FF004060120C5F8DC002046FEF7F2FC17
:102954003046F2BDDFF8481401200860DFF8440473
:1029640000688007FAD570472DE9F04F0025002450
:10297400012883B0A24618BF6FF0010964D1DFF8C3
:102984000884D8F8DC0001285CD10220C8F8DC00F7
:10299400FFF7DCFD0090012000F071F95FEA000907
:1029A40053D1FEF7DFFCDFF82014DFF8F063019069
:1029B4000C600120B16A09688847012803D100200E
:1029C40000F0B3F90124DFF80414DFF8F4030D6018
:1029D40000681120FFF7ECFD00B101251020FFF77E
:1029E400E7FD08B145F002050F20FFF7E1FD08B14E
:1029F40045F004050B20FFF7DBFD20B13168096BBE
:102A04004FF4806088470A20FFF7D2FD20B1316877
:102A1400096B4FF481608847DFF88413DFF8B0B3A3
:102A24000120086045F02000316889698847DFF893
:102A3400A4130120086098F80800C0070CD54FF0D3
:102A4400010A1CE06FF0040982E00120C8F8DC00F0
:102A54000098FFF77FFD7BE0316A89685846884714
:102A64000746042FF8D0012F04D1326A526803219B
:102A74005846904700F06FF88008800008600020F6
:102A840000F00EFBDFF8380300683068806B804785
:102A9400BAF1000F0BD1012F04D1326A526801211F
:102AA4005846904700F057F840F0030008600120B2
:102AB400DFF81813086028463168496988470B20F5
:102AC400FFF776FD20B13168C96A4FF4806088470A
:102AD4000A20FFF76DFD20B13168C96A4FF48160A7
:102AE4008847AF49012008600020BA4908600320E4
:102AF400C8F8DC003168496B284688470128F9D1B9
:102B0400AF480068042000F0BAF80546AE49012039
:102B14000860AB480068B04800688006FBD514B173
:102B2400012000F002F900F00DFC082000F0A7F8E5
:102B340040EA05040120C8F8DC000198FEF73AFCDD
:102B440000F080FB0098FFF705FD0CB14FF0FF3952
:102B54004846BDE8FE8FA148A0490068704730B5DB
:102B6400002401288BB004D021D303281DD018D30E
:102B74001DE001A8FFF7F2FC834D99490694ADF8D6
:102B84001440079401AB012205F17800FEF7E6FB3F
:102B940000940023934A2C2105F19C00FEF7FAFBD4
:102BA40005E000F0EFFB044601E000F0A9FC20463C
:102BB4000BB030BD38B5FEF7B9FB0546724890F846
:102BC400E000012410B1FFF7E0FC04462846FEF7BC
:102BD400B1FB204632BD70B5FEF7A8FB044600F0F9
:102BE4001AFE6949002081F8E000684885680220DF
:102BF400A8470646102000F042F80EB10320A8476B
:102C04008EE000007047000010B55D4C82B0E16BAF
:102C1400096804208847022818BF032808D100F057
:102C240022F8A047FFF7A1FCBDE81640022061E5A9
:102C34006D48594900680968534CC0F38150032812
:102C44000CBF4FF47A7041F2883000F006F804F1BA
:102C54005400BDE81640FEF77DBBB0FBF1F104F172
:102C64005400FEF773BB032000901C2324684548DE
:102C740064684FF04052002170470020704738B517
:102C84000446414D284600F0D0F9A0B9284600F08A
:102C9400D2F90546A868204208D02A69EB680021C9
:102CA4002046984710B14FF0FF3032BD284600F05F
:102CB400C4F90500EED1002032BD4C4901280CBFF7
:102CC40040F2FF70002008600020704770B5FEF7E6
:102CD4002DFB2D4E2D4D044696F8E00028B100F052
:102CE4009AFD68B1002086F8E0000220AD68A8478C
:102CF40006461020FFF7C3FF8EB10320A8470EE05D
:102D0400254909683220B0FBF1F101B9012106F12E
:102D14003000FEF71BFB06F13000FEF71BFB00BF83
:102D24002046BDE87040FEF705BB38B5012823D125
:102D34002F4909680968884701281DD000F05EFD05
:102D4400114C012084F8E000207A800616D4124940
:102D540009683220B0FBF1F505B9012504F1300012
:102D6400FEF7F0FA294604F13000FEF7EFFA04F119
:102D74003000FEF7EFFA01E000F073FD002032BDF1
:102D8400A401001000A00C40640D002028090100DB
:102D9400B03F00508F280020DC190100B80100105A
:102DA4002820086028200840A0010010800000109E
:102DB4001010094020042243003009403F3F3F00E7
:102DC4002C200940880104430C400940000222439E
:102DD40000400340800104431410094024220840A9
:102DE40051360000E5330000B43F00500000046099
:102DF400E00100108F0000008F0001008F0002002E
:102E04008F000300900000018F0001019000000278
:102E1400900000038F0001048F0000058F00080458
:102E24008F0000048F000006510000007F000100A5
:102E34003F0004003F0002003F0001007F00020049
:102E4400DFF800F011B0011038B504460D4600F06B
:102E54005EFD616A0D43656200F05AFD2046BDE8DF
:102E64003240FFF7EDBF024681B01078022903D14A
:102E7400517800EB012013E0032906D151789278B0
:102E840000EB012000EB02400AE0042908D151784C
:102E9400937800EB0120D17800EB034000EB016054
:102EA40001B0704721490868C2430A600A680242B7
:102EB400FAD170471E490A68002AFCD1CA61086029
:102EC400C8690028FCD00020C861486870471948C8
:102ED40001686FF00202114041F4007101600321A6
:102EE4001548816041F2300141610121C1605021E6
:102EF40041610121C1604FF4CA6141610121C16096
:102F0400016070470D4802680A6082684A60C268BE
:102F14008A60406B20F0784040F08050C860704771
:102F2400704701461022064800F01CB810100440F7
:102F34000010044000000460004104404C130050A1
:102F440018000021704701700A0A42700A0C090E29
:102F54008270C170001D704701488068704700BFCF
:102F6400C801002062B38B0708D0521E11F8013B40
:102F740000F8013B00F024808B07F6D1830740F072
:102F8400208000BF103A07D330B4B1E83810103AAB
:102F9400A0E83810F9D230BC530724BFB1E80810B8
:102FA400A0E8081044BF51F8043B40F8043BD207A2
:102FB40024BF31F8022B20F8022B44BF0B78037096
:102FC4007047121F17D35B0009D151F8043B20F856
:102FD400023B1B0C121F20F8023BF6D20BE051F807
:102FE400043B00F8013B1B0A20F8023B1B0C121F98
:102FF40000F8013BF3D238BF121D521E24BF11F852
:10300400013B00F8013BF8D870478160426070478B
:10301400102803D302491038C1F8000F704700BFCD
:1030240000E000E0002200F09BBC006808B9012029
:10303400704700207047006870470068704738B5D3
:1030440004460D4600F0A5FC002129606168696012
:103054006168002914BF0D6025606560FFE7BDE865
:10306400324000F098BCA62A70B5044600F066F918
:10307400451EAD41ED0F074E30680028FCD0A04737
:1030840001203060002D1CBFBDE8704000F05AB92B
:1030940070BD000000800C401628A8BF203870477F
:1030A4002DE9F84F06469548954C0068954D8007E4
:1030B40004D50820A87194482060C1E093480068B2
:1030C40000688047804692480068009000270017F7
:1030D40000F101090098800208D4C8F13E00C01034
:1030E4000928A8BF08208145B8BF814689480068DF
:1030F400C0F30460FFF7D0FF824687480068C0F33E
:103104000440FFF7C9FF09EB0A011629A8BF1521DE
:1031140004DA6FF009029142B8BF114601F01F02B0
:103124007E4B42F4F8521A807D4A126812F0030F63
:1031340018BF0127520748BF47F002070EB147F0F6
:10314400040795F90720A8EB0202052A02DAAA79F6
:1031540097425DD0A8F10F0C0026BCF1000FB646D3
:1031640007F0010207F00403DFF8B89123D40CEB55
:103174000C1C4FEA2C2EBEF1080F28BF4FF0070E8F
:103184007646072E28BF062609EB860A59F82660DC
:10319400DAF804A0AAEB060A0AF0FF0613B1CAF390
:1031A400072B5E445FEA877B44BFCAF3074B5E4448
:1031B4000AB106EB1A6659F82E9009F0FF0A13B10A
:1031C400C9F307239A44BB0744BFC9F307439A448E
:1031D4000AB10AEB196A401AACEB0E220099AF71DE
:1031E400724380320128B8BF0120342301F0FF016B
:1031F40058430AEB12224843B0FBF2F0B0F5803F8B
:1032040028BF4FF6FF7008F30708A88085F80780E9
:1032140045480068A988286000201F2904D21F217E
:10322400A98004E04908401CB1F5007FFAD20F39A7
:10323400090940EAC1003D4908432060002060605C
:10324400BDE8F18F10B53A48006884B22CB32F481A
:103254000068006880472B4991F90720904205DAFD
:103264006FF07F029042B8BF1046C87188888442CC
:1032740001D28C8010BD2C4A12680B68D21A921CA1
:10328400202A28BF1F22231A5208D3401818B0F549
:10329400803F28BF4FF6FF70888010BD2548026824
:1032A40002B9704710B5244B996801F04060B0F141
:1032B400406F21D011480468A4071DD45C68A4079A
:1032C4001AD404681B68C3F303531C331B0114F0A2
:1032D400050F06D09A420FD26FF00501214001601C
:1032E40010BD934208D20A0158BF44F001044901B9
:1032F40058BF44F00404046010BD000000000940FD
:103304003010094094270020FDFDA400EC010010BA
:10331400B43F0050B81200503C1100506E62084097
:10332400242208409C1300500820094000E7A48090
:103334003410094028500940AC3F0050EFF310808E
:1033440072B67047EFF3108062B670470138FDD152
:1033540070477047DFF800F0A1C7011010B50C18D2
:10336400FFF7ECFF401E8041C00FDFF854140A68D9
:10337400002AFCD0246801220A6008B1FFF7E2FFAA
:10338400204610BD38B5DFF83C44DFF83C14207803
:10339400897B002508430AD0FDF7C8FFA1780029DE
:1033A40006BF0121A1700125FDF7C4FF0DB1002066
:1033B40032BD0220FFF700FA0E20FFF712FADFF801
:1033C4000C04016809B1012032BDDFF80414402265
:1033D400CA600A600121C1610020607032BD000032
:1033E400F8B5DFF8EC1300200860DFF8E80300F11B
:1033F400D804A17A0A0000F081800129DFF8D853AB
:10340400DFF8D82331D110684BF2F5214843060A7E
:10341400DFF8CC030068C0F3814001280BD1A86C0D
:103424000068804700F039FA00F051FA3509C010FD
:10343400684306EBE036607B10B10020607306E061
:10344400DFF8A003006820F07F4030184608DFF85A
:1034540098030660310C416001218160DFF8680344
:10346400807B002848D0052047E0022909D115684F
:10347400284600F013F9A5F2FF5003283CD3082096
:103484003BE003293AD1116800F1B806A1F5C06107
:103494003068F161002848BF4042002948BF4942D2
:1034A4008842A8BF002026DA7068D04F80B200900E
:1034B4000823D5F800C0DCF804C04FF47F42302163
:1034C4003846E047B06880B200901223D5F800C0B7
:1034D400DCF804C04FF4F80204213846E047B06930
:1034E40080B200900A232D686D684FF44062202159
:1034F4003846A847012020700B202073BDE8F14016
:103504002DE9F843DFF8CC82B94EDFF8E092B94CEC
:10351400B94FAF4808F1E105E9784A1E0B2A00F2D9
:103524008880DFE802F00626374E63374E63374E55
:103534006B7631680968202088470F20E0600723F4
:1035440041F61D5020614FF4C0720220009000210A
:103554007468D4F804C04846E0477668F6680723E0
:103564004FF4C07200214846B04701203860022061
:1035740048E00120E061287800281DBF0020386160
:1035840003200620E870032020600020786078681B
:10359400800738D470684668E878032805D102208B
:1035A40000F04DF8B047042008E0002000F047F890
:1035B400B047E87806280CBF07200A20E8700120ED
:1035C4001AE0042903D12021A161012105E001228F
:1035D4000A29A2610CBF0321022169700021216024
:1035E4000821C16001600120206026E005290CBF8C
:1035F40006200920E8700020786004E0002038608C
:1036040078600C20E87008F17800BDE8F243FDF71B
:10361400A1BE0021016001206C4908600E20FFF763
:103624007DF80220FFF766F80120E8700020A870FA
:1036340003E0BDE8F143FFF78DBEBDE8F1830090E0
:1036440005236022002148467047000080B5614987
:10365400694891F8E410891E0A291AD8DFE801F0B4
:10366400060A0E190A0E190A0E19120001688907B2
:10367400FCD510E041688907FCD40CE04168890757
:10368400FCD508E001688907FCD441688907FCD4AB
:1036940001E0FFF75FFEBDE8014031E7F8B50746FA
:1036A400524C30212046FFF759FE4A4E06F1B80528
:1036B400C0F30720686004212046FFF74FFEC0F3E3
:1036C4008440A86020212046FFF748FEC0F38120F3
:1036D400A861B7F5C060286002D186F8D800F1BDB2
:1036E400296996F8D8202AB96A68A968EA60E86165
:1036F400AA696A61E86900284CBF6FF001020222DE
:1037040000EB40001018421000EB927001EBA00097
:103714006968E960012810DA6A69032A04D115305E
:1037240001281DDA01201BE00B300128B8BF01205D
:10373400491E48BF0021E96007E01F2812DB6A69BF
:103744002AB915381F28A8BF1E20032109E00B3809
:103754001F28A8BF1E20491C4029A8BF3F21E9609B
:1037640000216961286108231B4EE86880B200903B
:103774004FF47F4237687F6830212046B8470120E4
:103784000090112337687F684FF4003204212046EB
:10379400B847286980B20090122337687F684FF4D5
:1037A400F80204212046B847686980B200900A23D1
:1037B4002046346864684FF440622021A047F1BD7C
:1037C40000800C40450E00202809010004800C40B4
:1037D4002C500C40640D0020A401001008400C4043
:1037E400B43F0050102009403C600C4000A00C4045
:1037F400A001001000400C4034600C4010B5384C5F
:10380400626D52680121032090472068C06A804796
:103814003449886010BD38B5314C616D09680120A8
:10382400884701281BD0A5692C48ED680023012294
:103834003421A847A0B100F02CF82068C06A804762
:1038440028498B680A68C860A2EB9202C01A264B0A
:103854005843000C0860904238BF104608600120AD
:1038640032BD38B51E4C626D52680021032090476A
:10387400616D09680120884708B100F00AF82068E2
:10388400184DC06A80476860206E006880472861D0
:1038940031BD16480068FFF7E7BB10B514490A6844
:1038A40014490968140424161B384443E41004EB37
:1038B4002244120600FB00F3121609065A43584329
:1038C400091604EBA222484302EBA04010BD00FB02
:1038D40000F1C0EBA15000B27047000000A00C4002
:1038E4008C0100108027002040420F00800000104F
:1038F40090130050A410005000E005E0EFF3118095
:10390400202181F31188704780F311887047F5E70F
:10391400FAE70000F2E7F7E70D49C20744BF0122C6
:103924000A60820744BF4FF480720A60400744BFB4
:103934004FF4803008607047064AC30748BF1160DF
:10394400830748BF5160400748BF9160704700003B
:10395400042009401820094062F30F2262F31F4239
:1039640000B500BF130096469446103928BFA0E85E
:103974000C50FAD85FEA417C28BF0CC048BF40F81D
:10398400042BC90728BF20F8022B48BF00F8012BDD
:1039940000BDFDF7CBBCFDF7CDBCFEE7DFF800F0C2
:1039A40005840110DFF800F089840110DFF800F0CD
:1039B40021C00110DFF800F055A40110DFF800F079
:1039C400F99B0110DFF800F019AE0110DFF800F0E8
:1039D4004FBF0110DFF800F0A5A5011002090A2A63
:1039E40000F00F00ACBF373230320A280A70ACBF87
:1039F400373030304870704700B58FB008233C2210
:103A040000216846FFF7D2FFDFF8380D00F15001BE
:103A1400079140F2622201210892069100236A462E
:103A24000FF21941FFF7CEFF0FB000BDFEB5DFF86E
:103A34002C0CDFF8584D01684068DFF8245CDFF88F
:103A4400506D60756176000A20750A0A4520207061
:103A540022764C2060700A0C5020A070090E2D2094
:103A6400E070A17542202071E2753420607104F188
:103A740008013020A07147F6FF772D20E071207EE9
:103A8400FFF7ACFF607E04F10A01FFF7A7FF04F122
:103A9400380104F11D0001F0F7F904F1E40001F02C
:103AA4000EFDE06300218020019000914FF47A73B1
:103AB4001A46294604F19C0001F0B6FC4FF400704C
:103AC4000021019000914FF4FA731A46294604F13B
:103AD400540001F0A9FC4FF4806000210190009192
:103AE40032233222294604F1780001F09DFC4FF480
:103AF40080400021019000914FF47A72DFF8483C35
:103B0400294604F1C00001F08FFC0FF60D3001F0DE
:103B140037FD002060631E222121304601F0BFFDE5
:103B24004FF6FF753A462946DFF8D40C01F0B7FD8D
:103B34003A462946DFF86C0D01F0B1FD3A462946B4
:103B4400DFF8640D01F0ABFD3A462946DFF85C0D61
:103B540001F0A5FD606B00230122314601F05EFDFA
:103B6400DFF8306CA023062200F064F9A0230722BA
:103B740000F060F9A023082200F05CF9A0230922D8
:103B840000F058F9A0230A2200F054F9A0230B22D4
:103B940000F050F94FF47A63022200F04BF932231B
:103BA4000C2200F047F932230D2200F043F93223AE
:103BB4000E2200F03FF932230F2200F03BF93223AA
:103BC400102200F037F93223112200F033F93223A6
:103BD400122200F02FF93223132200F02BF93223A2
:103BE400172200F027F93223182200F023F9C82302
:103BF400152200F01FF9C823162200F01BF94FF418
:103C04007A73192200F016F900231A2200F012F92F
:103C140000F0A0FD0246DFF8EC1B00F004F90120DF
:103C24008DF8040000210720ADF800108DF8030082
:103C3400002301AA00F0CAFC00230DF103020121B4
:103C44004FF4437001F05AFD00236A46022140F20A
:103C5400063001F053FD002304F1F00211214FF46A
:103C6400427001F04BFD0023DFF8742C00F0D6F80D
:103C74001E208DF8020000230DF10202012140F202
:103C8400044001F03BFD04F1200104F5827001F0D1
:103C940086FE94F820001226704301F0A7F994F8E8
:103CA4002010206448B1002204E0D2B206FB02F3E3
:103CB400521CC552D3B28B42F7D3C80001F096F917
:103CC400A06468B194F820200021002506E000EBF0
:103CD400C103491CDD801D709D805D809142F6DB2F
:103CE400009414230022DFF8381C00F0D9FA4FF0B6
:103CF400FF32DFF8301C00F096F84FF0FF32DFF8A7
:103D0400281C00F090F802F039F94FF0FF3002F06F
:103D140039FA01208DF8030003200FF2F8028DF820
:103D240001000221D2E900358DF8021001A8042116
:103D3400C0E900358DF800100DF1030201210020C7
:103D440002F056FA0DF102020121012002F050FAAC
:103D54000DF101020121022002F04AFA6A46012112
:103D6400032002F045FA01AA0521042002F040FADA
:103D740004F5867002F035FADFF8B01BDFF8B05BAB
:103D840000F0B1FD00F0E6FC0246DFF8A81B00F0ED
:103D94004AF800F0DFFC0246DFF8381C00F043F874
:103DA40002208DF80700012100208DF805008DF810
:103DB40006100DF107008DF80410009001234FF454
:103DC400806200F033F80DF106000090012340F208
:103DD400024200F02BF80DF105000090012340F29F
:103DE400034200F023F801A80090012340F20642A8
:103DF40000F01CF804F58872DFF8101C00F013F8CA
:103E0400DFF8A01C00F06FFD00220D21002002F05D
:103E1400EFFCF7BD0102030405000000162140F287
:103E2400073001F06BBC102001F095BA2946102030
:103E340001F091BA3146102001F08DBA2DE9F04F0E
:103E440089B0FFF7F3FDDFF8C88BDFF8405908F5B8
:103E54008A70089008F5917A05F19C00059008F5A0
:103E6400947708F5A67004904FF03E0908F1F80025
:103E7400079008F58170039008F1FC00069030E18A
:103E840000F09AF90446029800281CBF002C01F0A7
:103E94001DF870000AD40EE0E86B01F031FB040059
:103EA40004D000F012FA204601F0A1F8E86BFFF705
:103EB4008DFD0028F0D0300618D57868401C052800
:103EC40026F08006786011D10698062205F11401C7
:103ED400FFF758F80399386A08700023079AFFF728
:103EE4009DFF00F062F9059801F0DCFAB00571D588
:103EF4003868B968401C491C3860B9600D219AF8CB
:103F04000020002002F074FC9AF80000401E80415A
:103F1400C00F8AF8000026F40076DFF88C0B0468E2
:103F24000398FC60210A81770399887F02F0BAFC28
:103F340083460398C7F814B0C4770399C87F02F086
:103F4400B1FC014639614FF06E5002F0B9FC59469C
:103F540002F022FDB861DFF8541B02F0B1FC02F05C
:103F64008DFD0A2290FBF2F20A214A43F8610521F1
:103F740092FBF1F100EBC100801A386200220121AA
:103F8400032001F0C6FDDFF85809062205F11401EB
:103F9400001DFEF7F7FF386850281BD10021396057
:103FA4007960B9604046F821FFF73CF80898002191
:103FB4000022002380E80E0008F59270016005F1EC
:103FC400540001F06FFA05F1780001F06BFA0598DE
:103FD40001F04FFA700540F184804FF0000B09FBAB
:103FE4000BF008EB0006348834B1062205F14C01CD
:103FF400701D02F059FD90B10BF1010BBBF1040FE0
:10400400EDDBBBF1040F40D1002109FB01F008EB0B
:1040140000042088E0B1491C0429F6DB35E0641C67
:1040240034800021701890F90B0068B100F0AEF8EC
:10403400F8DB718895F91C004118718009B2308849
:1040440091FBF0F03071DCE7287F7118C872F0E75B
:10405400062205F14C01601DFEF784FF2088401CF8
:1040640020800021601890F90B00002800F08A805D
:1040740000F08CF8F6DB618895F91C00411861802A
:1040840009B2208891FBF0F02071002008F58E72AF
:104094000AF102010956002948BF49421154401C43
:1040A4000428F5DB0FF65C200268009208F58E7494
:1040B40004222146684602F0F7FC90B1B86837281C
:1040C4000FDBDFF81C28216802F10A0000230160DD
:1040D4001621386A9073FFF7A2FE00F066F80020FC
:1040E400B8604FF0FF33A86BDFF8C4290021FFF755
:1040F40065FC0600F5D00020029002AA01A90DF18A
:10410400060000F0F8FE00287FF4C3AEBDF80600F8
:104114000124102802BF9DF80410687F814230D129
:10412400029801884FF6FF7291427FF4A9AE80781D
:10413400410726D5686C002823D0A97F00F1080226
:10414400491CA977009203794288DFF8681900F0C6
:10415400A7F85FFA80FBBBF1160F18BFBBF1040F81
:104164000FD0697F00F0F7FA03460020009010207A
:104174006A6CDFF84419528801F0EDF8584600F0F3
:1041840092F880E6287F2144C87274E7002008F181
:104194000B0209FB00F3D25C0AF102031A54401C1F
:1041A4000428F4DB491C32297047049A00230121B6
:1041B40040F2053001F0A2BA1CB50178012491291E
:1041C4000AD0B02904D0D02908BF00F0E7F828E0CD
:1041D40000F029F8044624E041780E2902D0102981
:1041E4001BD01EE0818842F20302914202BF816823
:1041F4000878002815D151F8012F00929DF800008D
:104204004A68DFF8B818019200F0FD008DF800004C
:104214006A46102001F09FF803E00021082002F014
:10422400B3FC204616BD38B50446DFF86055607807
:10423400162811D1697F00F08EFA042200920346F9
:104244006288DFF8741800F02BF828B9012000F018
:104254002AF86C64002032BDDFF8641800F043FBD8
:10426400A0B1608800F07AFA288621790B290DD054
:10427400012912D1217A0A2918BF122906D0A96C62
:1042840011F8300010B1204600F0ECF9217904F166
:104294000800FFF787FB012032BD1329EFD1F5E7B2
:1042A400102001F058B810B5DFF8E0440146606C06
:1042B40050B119B101790830FFF774FB606C00F05C
:1042C40005FE00206064A07710BD38B50446208840
:1042D400012808D002280DD0082833D0102840D057
:1042E400202834D031BD6068FFF766FF606800F0B5
:1042F400EDFD31BD60680178F9B1022931D1DFF8F3
:10430400C4572946022001F0B7FF28782B2828D06B
:10431400DFF8B4172D2808BF01F1780003D0212855
:1043240004D101F1540001F0A4F81AE0222818D1B4
:1043340001F1540001F0B6F813E06946002001F0E1
:104344009BFF0EE06068007800F066F909E0DFF892
:104354007C070090002361684A89DFF87417FFF72F
:104364009FFF606800F043FE31BD80B50146012027
:1043740000F03EF9401E8041C00F02BDC28852B910
:1043840001238B72C288CA8002890A8182888A804A
:104394004088488070470020887270472DE9FE4F9E
:1043A4000446DFF81C77A078DFF82857DFF8E0B37D
:1043B400DFF814674FF001084FF6FF7960B1012868
:1043C4003BD0042810D0052800F07F80062800F098
:1043D400C0800D280BD0EDE060892882E21C082102
:1043E400002001F0D9FDE5E000F07CFAE2E021795B
:1043F400601D00F02AFBA07A0C2804BF617A6129B1
:1044040010D1E889401CE8810622E07A3077611DEA
:1044140006F14C00FEF7A6FD06F1780001F029F83C
:1044240001F08FFB21698878232805D1227B284657
:10443400FEF798FD01F085FBBCE00020F077E07802
:104444000028F9D04A46022100F0BDF80027DFF821
:10445400B0B3DFF884562CE06168172001EBC70184
:1044640078432E184A7872700622616811F8371062
:104474002954A91C01EB000A6068811C01EBC701E7
:104484005046FEF76FFD504601F047F801460F22F3
:1044940006F10800FEF766FD0BEBC70106F1080004
:1044A400C8604A4608FA07F081B200F08CF87F1C15
:1044B400FFB2E0788742CFDB1C2F7BDC08FA07F0E1
:1044C40082B200F07FF87F1CF6E76078002871D193
:1044D40000212973211D608900F096F900F002FA89
:1044E40096F82010884206D300208DF8000000239F
:1044F4006A4600F06BF8584601F0C1F8648920461A
:1045040000F02CF9308696F82020904209D2B16C44
:1045140001F830800B1D002223F83020891C21F87B
:104524003020288A011FADF804105020717F00F05C
:10453400F9FE009001AB2246DFF8A01500F007F960
:1045440000F0D0F9012835D105F1140000F091FFF5
:1045540030E000F0C7F90746A08800F0FFF8308685
:1045640096F82020904225D2316C1222424321F841
:1045740002900022B16C01F8302001EBC00108FA6E
:1045840000F0CA80494682B2C64801F088F800F0BB
:1045940013F8C54801F083F800F00EF8C34801F0A1
:1045A4007EF8F8B230B91C2200F00CF805F11400C2
:1045B40000F078FFBDE8F78F308E08FA00F082B281
:1045C400494670474946584601F069B8012140F20E
:1045D400053001F093B810B50446012000F006FD43
:1045E40028B104700146BDE81040022000E010BD6F
:1045F40038B504460D46082000F0F8FC50B104809C
:1046040045600246DFF8C034996BD86BBDE838408A
:1046140000F05CBF32BD000038B5C00710D50524DA
:1046240044F620650120FFF7D5F92846FFF7D2F9B3
:10463400641EF7D1BDE8344000210020FEF71CB908
:10464400DFF89C0401680A689047082805D1BDE892
:104654003240DFF8900400F00CBF31BDE812005086
:10466400F947000018B5044687B0608800F076F872
:10467400DFF8541491F820300886984260D22379E8
:104684007F2B5DD08A6C02EBC0021078012814D114
:10469400032B55D10FF270400088ADF808000223B7
:1046A40013705020497F00F03DFE019002AB0220C0
:1046B40000906288DFF8301433E0022834D1072BED
:1046C4000DD1208958B1E0680378407803EB0023CA
:1046D4005380E0688378C07803EB002393802079CB
:1046E400072806BF63781A2B012829D1508838B3CC
:1046F400032350881370ADF8040002209288497F88
:104704008DF80800ADF80620FF20F1228DF80A008C
:104714008DF8092000F01FF8009001AB6288DFF8E3
:10472400CC1300F014F80BE0032808BF092B07D1C1
:10473400208928B1E0680178407801EB0021D1801C
:1047440008B010BDF41D002040771B00425B102010
:1047540000F001BE617F502000F0E4BD38B5DFF801
:10476400682392F82030126C01460020122400E0E5
:10477400401C85B29D4206D280B204FB00F5555B15
:104784008D42F5D132BD4FF6FF7032BDB806002020
:10479400E8070020BD84011070B504460D46164696
:1047A400042000F023FC38B104808570C6700146F3
:1047B400BDE8704010201BE770BD2DE9F843814629
:1047C4000E4617469846142000F010FC04000FD043
:1047D400089D06224946E01CFEF7C4FB6681277348
:1047E40084F80D8025612146BDE8F4432020FFE6CE
:1047F400BDE8F1830146B448806BFFF7DBB80000E5
:1048040024080020518801102DE9F84FAE4E96F887
:104814002020336C00254FF6FF7B00E06D1C954291
:104824003CDA12276F43DC5B5C45F7D1D853012493
:10483400084600F072FE0146306CDFF86880DFF84D
:104844006890DFF868A0831C0F22D819FEF78AFB52
:10485400AC405A46A1B2404600F021FF5A46A1B2EC
:10486400484600F01CFF5A46A1B2504600F017FF1C
:10487400306C811CC81908EBC50109EBC502C8607E
:104884000AEBC501D060C86099488179CA0603D48F
:104894005A461C2100F003FFE8B200E01520BDE8F1
:1048A400F28F0000A8080020F4080020400900202E
:1048B40010B58349844C00F016F894F8201088420F
:1048C4000CD2E07F30B90121E1770022032001F00E
:1048D40020F903E001F035F90020E077012010BD54
:1048E400D00700203946102000F035BD10B5794CB2
:1048F400217B012905D14FF6FE7001F072F80020EA
:104904000AE01721744A48431044831C427800216A
:10491400002001F0E0F801202073012010BD000008
:1049240029850000BD1601004117010085FA000029
:1049340001C8000031810110F8B5634C0746A06C32
:10494400811D84B031F8371000293FD0694E30788A
:1049540012257D4338B3206C405B002301221221D1
:10496400FFF71CF8029088B3A06C811D012031F878
:104974003710ADF80600ADF804100021029801705C
:10498400ADF80C105020617F00F0CCFC009001AB1E
:10499400206C5949FFF7DAFEC0B290B1122101A888
:1049A400FFF700F812E0ADF804105020617F00F02A
:1049B400B9FC009001AB206C5049FFF7C7FEC0B2B0
:1049C40020B93078401E8041C00F3070012005B0FE
:1049D400F0BD00008D19010080B500F011F802F15E
:1049E4002401185AD084002001F04EFA012002BD9F
:1049F40080B500F005F8185A00F0F3FF012002BD5D
:104A0400314A136C122148437047000079170100A2
:104A1400680500201CB540F2053400220DF10101A7
:104A2400204600F057FF9DF8010018B100218DF8D1
:104A3400001002E001208DF8000000236A460121E5
:104A4400204600F05BFE012016BD2DE9F0472C4DF9
:104A54002E781E2E81468A4621DA00274FF0170849
:104A64001D4C00E07F1CF8B2B0420BD2FFB2A01C78
:104A740008FB07F101440622484602F015F8002815
:104A8400F0D10CE008FB06F7A01C49460622384486
:104A9400FEF768FAE019761C80F801A02E70BDE8D4
:104AA400F0870000C5AB00102850094000002041E9
:104AB400FF7F00C0DDFE001099B7001095B4001010
:104AC400F17F0110CE250020B806002040E201004D
:104AD40061110100BC1D0020A8200020250F010049
:104AE400E80100100C07002009020100D51901009B
:104AF400E80700208A2800200D1A0100091A010085
:104B04008928002000000000F0FF0000DFF800F01A
:104B14002DB40110DFF800F0CDAC0110DFF800F087
:104B24002DC00110DFF800F0FDB1011020B1082301
:104B34003C220021FEF73ABF704780B5FDF706FD21
:104B4400ADF80000FCF7F2FBADF80200009802BDDE
:104B540001B5BDF80200FCF7EDFBBDF80000BDE8AF
:104B64000240FDF7F7BC38B5DFF86828DFF86818AD
:104B7400DFF8684892089200891A2161E2601046C1
:104B84008B18002501E020F8025B9842FBD38B08C8
:104B940002EB8303E82023F8045C10804FF6FC70DA
:104BA4000140EC39A2F8E810002002F1E80161604C
:104BB40000F004F8A060E068606031BDF8B500243E
:104BC4000025061D16F003001CBF311D0E1AFFF749
:104BD400B4FF0146DFF80408B6B20160112EB4BF79
:104BE400436883681888070403D580F400400025CF
:104BF40017E02F0011D027881A8817442780BFB2E6
:104C0400B7420ED33846BCB1801B83B2042B0EDBF3
:104C1400A05346F4004626800DE0B04210DA012588
:104C24001C46034418880028DDD1002404E02088B1
:104C340040F400402080241D00F0D6F92046F2BD47
:104C44001C46E0E710B50446FFF777FFDFF88C1742
:104C5400086034F8042CC2F30E0224F8042C221F3A
:104C64004B689A4238BF4A60BDE8104070E738B5D7
:104C74000446FFF762FF00220C23DFF86417534356
:104C8400CD18A96C21B18C4206D0521C032AF3D34F
:104C9400FFF75EFF002032BDFFF75AFF05F1480021
:104CA40032BD7CB50546FFF748FF044600210C22BF
:104CB400DFF82C074A438618B06C48B1854210D0FF
:104CC400491C0329F3D32046FFF742FF002076BD99
:104CD4003065B5640021FFF719FFF06408B901F0ED
:104CE40071FF2046FFF734FF06F1480076BD38B562
:104CF4000446FFF722FF0025DFF8E4260C21694370
:104D0400515A21B18C4206D06D1C062DF6D3FFF703
:104D14001FFFFF2032BD01E310B504462088FFF7D2
:104D2400E6FFFF2802D14FF0FF3010BD0C21DFF861
:104D3400B02648431044816811B96FF0010010BDDA
:104D44002046BDE81040084702460FF2B8601047FD
:104D540010B500200C21DFF88826002401FB00F3A5
:104D64001344401C03289C641C65F7D300200023D3
:104D740001FB00F4401C13530628F9D3BDE810408E
:104D8400F1E678B58FB0FDF7E1FB05466846FFF71D
:104D9400CDFE05204FF47A71069008910022DFF8C9
:104DA4004406DFF84416049005916946DFF83C0692
:104DB400FFF7B0FE040006D0FFF7BFFE064620460C
:104DC400FFF76FFF08B901F0FDFE3046FFF7C0FEA4
:104DD4002846FDF7BFFB10B070BD38B504460D463C
:104DE400FFF7ABFE002145F80C1C226812B92560C0
:104DF40006E00A4652F80C1C0029FAD142F80C5C71
:104E0400BDE83240A4E680B5FFF788FEFFF72FFF28
:104E140010B96FF0040002BD816809B9022002BD17
:104E24004068ACE0062881B00ADA0C22DFF8B0351D
:104E34005043185A00281CBF4FF6F873984202D109
:104E44004FF0FF3001E00880002001B0704730B51A
:104E5400DFF89C552A680C464FF47A71A1FB0001D7
:104E6400002301F0B3FE002399424FF0004201D821
:104E7400904202D36FF0020030BD2060002030BDAC
:104E8400014688684968084770B505460E46FFF72D
:104E940045FEFFF706FF040009D0FFF74EFE01466A
:104EA400002200F09AF820B1521C062AF9D301F02E
:104EB40089FE4FF6F87018805C60002098602A70B4
:104EC4006068306000F090F8002070BD0C38B9E6DE
:104ED40070B5044615461E460846FFF708FFFF282E
:104EE40002D14FF0FF3070BD014633462A462046BA
:104EF400BDE870407CE07CB50546164600F0A9F894
:104F0400040010D128886946C0B2FFF78BFF28B18E
:104F14003068FFF7DBFF6FF0050076BDBDF80000D9
:104F24002880FFF770FF204676BD38B50546FFF7A9
:104F3400F5FDFFF79CFE044601F060FF002818BF52
:104F4400012800D014B96FF0040032BD4DB900201F
:104F54000090009B606800F0B9F9401E8041C00FCA
:104F640032BD15F1010F08BF4FF0FF30F0D0694694
:104F74002846FFF76CFF0028EBD032BD80B500F067
:104F840064F8002002BD2DE9F843054600F0A3F9BA
:104F9400FFF787FE04006FF002091CD0FFF7CDFD78
:104FA4000146002200F019F840B1854211D0521C8C
:104FB400062AF7D301F006FEBDE8F2831D805C608B
:104FC4009E603A706068C8F8000000F00DF8002098
:104FD400F2E700F009F84846EEE70C23DFF8000496
:104FE40053430344188870470846B1E5E6E529E6CB
:104FF4002DE9F8430E46062EBCBF0446062C154682
:1050040098466FF002090BDAFFF797FD0C21DFF8E1
:10501400D02301FB06F7D719796819B9FFF798FD72
:10502400484610E0FFF794FDA8F1080041460470DB
:105034004670857078680830FFF7CFFE786840685E
:1050440000F003F80020BDE8F2834FF00041FEF7C2
:10505400B1BC2DE9F04106460F469046FFF75EFDD0
:10506400FFF705FE050008BF6FF004001BD0FFF733
:1050740064FDA968002441B10C46A4F10C010A683E
:10508400AA6000220A60FF228A72FFF761FD0CB950
:10509400022008E0A4F10C000179317040793870E5
:1050A400C8F800400020BDE8F08100BF052001F0F1
:1050B400B4FE01F087FD00BFFDF738BA10B5DFF884
:1050C400300302686FF00044A4FB020100234FF494
:1050D4007A7201F07BFD002399424FF0004201D81F
:1050E400904200D3204610BD7CB50C4615461E46A2
:1050F4006946FFF7ACFE30B9009833462A4621468C
:1051040000F002F8002076BD2DE9F8411D4689B073
:105114002C6880460E46174604BB0C20FFF74EFD54
:10512400040008BF6FF003002CD0082324220021C0
:105134006846FCF703F90020ADF8100005900694CA
:1051440000236A464146DFF8AC02FFF7EBFC20601F
:1051540000B9ABE76660A7602C600BE0DFF89862EB
:105164003068804705462068FCF7ECF8A7602846BD
:105174007168884720684146FCF7E8F82068FCF726
:10518400E9F800200AB0BDE8F08100281CBF0068DF
:10519400FCF7D8B87047E0B58DF80400684601F014
:1051A40079FE9DF805000EBDE0B50190684601F05A
:1051B400A7FE0EBDE0B50190684601F0ABFE0EBD42
:1051C4002DE9F84384B0044600F085F8FFF74FFD5D
:1051D40005460020029001F011FE002818BF0128A6
:1051E40000D015B96FF004006DE044B900200190BF
:1051F400FDF79CF9814601980124814423E014F1D0
:10520400010F08BF4FF0FF30F1D001A92046FFF78E
:105214001EFE0028ECD056E0039902A8FFF7DDFD3E
:105224006868FFF712FF0199012411F1010F0AD0F8
:10523400080008D0FDF77AF9B9EB00002ED00199E7
:1052440081422BD30190019B686800F03FF828B39A
:1052540003AA69460DF10100FFF7FBFE0400E2D149
:105264009DF801000DF10201FFF7DCFD0028D3D108
:10527400039A9DF80010BDF80200B0470028CBD077
:1052840017B1BDF802003880B8F1000F1CBF9DF8BB
:10529400001088F800100C9803990160FFF7B3FD23
:1052A400029EFFF74AFC014656B1324600E0024630
:1052B40052F80C0C0028FAD1A86842F80C0CAE6025
:1052C400FFF792FE204605B0BDE8F0834FF00042A0
:1052D4000021FEF773BB0E4617469846FFF71EBC27
:1052E40038B5FFF71BFC044601F088FD002818BF01
:1052F400012811D0FFF721FC0025394A0C236B4308
:10530400D15A39B1D1184B681968A14206D06D1C25
:10531400062DF3D3FFF71CFCFF2032BDFFF718FC6A
:10532400E8B232BDE0B5ADF800008DF806100020FB
:1053340032490A68ADF802006846904710B99DF8F2
:1053440007000EBDFF200EBD1078422801D10120B8
:105354007047002070470CB478B504460E4687B0F9
:1053640001F04CFD0CAD002812BF0128052001F00E
:1053740054FD1420ADF810000021FF2002918DF897
:10538400120006960595FFF7ABFF05AB03222146F5
:10539400FFF79EFD002001A9019000910023002247
:1053A400174941F28830FFF70BFF012808BF062098
:1053B40006D020B9019828B1FFF788FD02E0052046
:1053C40001F02BFD0598006808B070BC5DF80CFB7B
:1053D400000000009C28002000400020341B002016
:1053E400C81A0020C1100100780400204D4D0000AF
:1053F400DC190100854E0000540400205C040020E8
:105404004D5300001D4D00003F4B0000554B000064
:10541400DFF800F0A1B60110DFF800F035BD01108F
:10542400DFF800F019BD01102DE9F04389B0804682
:10543400894617461D46109C119E082324220021EC
:105444006846FBF77BFF474906964FF47A700A6873
:10545400B0FBF2F0454305954743ADF810406B4669
:105464003A4649464046FBF779FF404609B0BDE855
:10547400F083FBF76FBF38B504460D46FDF754F8CB
:1054840010B12046FBF75EFF00F00EF82046BDE8A1
:105494003240FBF75FBF80B5FDF746F800B101204D
:1054A400C0B202BDFBF74EBF2E4A10684FF47A71AA
:1054B400B1FBF0F0454329462046FBF747BF10B542
:1054C40004460021FFF7A4FF204610BD70B5054631
:1054D4000C4616460C20FFF789FD01000BD08E60A8
:1054E4002846FFF799FF24B14FF080412046FEF78C
:1054F40061FA012070BD3046FFF779FD002070BDD0
:1055040010B50446FFF78CFFA04204D08468FFF76F
:105514006EFD204610BD002010BD78B585B0044650
:1055240068460FF248011422FDF72CFD0E48302581
:105534000570831C78254570A21D062112F8015DB3
:105544002D09491E1DF8056003F8016B167806F055
:105554000F061DF8065003F8015BEFD106B070BDCD
:1055640000000000DC1901009423002030313233A4
:10557400343536373839414243444546000000004B
:105584003EB50446224D05F1100105F13C0001F041
:10559400E9F8E8600FF2310101F045F9E8681D4AC5
:1055A4004FF4E02101F045F9002001900090002320
:1055B400C8220FF2390105F11800FFF735FF05F194
:1055C40018006860AC6037BD10B5114C0020207025
:1055D400052001F00BF918B9217841F0010121707F
:1055E4006068BDE81040FBF7B5BE000010B5084C7C
:1055F40000202070A06850B1E068074A4FF0C05105
:1056040001F017F92078A168BDE81040084710BDE3
:105614008C090020050005800500001080B50029D4
:1056240018BF002801D0100001D1002002BD087964
:1056340038B13148921C42708360084600F01FF86C
:10564400012002BD38B52C4949680A79CB88012468
:1056540004FA00F52B420BD1C5B2954238BF401C69
:10566400F6D305E0C1B28A4200D2FF20C0B232BDF7
:10567400C4B29442F6D189680029F7D1F5E738B568
:105684001D4DAA68044612B16868214690476C60B3
:105694000020FFF7D7FF2870BDE8314015E010B5B2
:1056A4004FF6FF73994202D0C4882143C1809A42C5
:1056B40003D0C18821EA0202C2800F494A6890429D
:1056C40002D1BDE81040DAE710BD38B50A490878C0
:1056D4004D780224401CC0B2FFF7B4FF641CFF28BD
:1056E40002D0E1B2A942F5D3E0B2A84238BF641CAB
:1056F400FAD331BD00000000882300202DE9FC47C7
:10570400DFF818580E461746002440F20133E978B2
:10571400AA7895F80090DFF80888DFF808A8C31A7B
:1057240021D05B1E26D05B1E2BD09B1E2ED05B1E71
:1057340060D05B1E63D05B1E74D05B1E00F088805B
:105744005B1E00F08C805B1E00F090805B1E00F0FE
:1057540096805B1E00F09A800E3B35D0B3F1E901D0
:1057640000F09B80A0E0102E2FD11022394605F1C5
:10577400700081E0102E28D11022394605F18000F6
:105784007AE0042E21D1386828629BE0012E1CD1D6
:1057940001292DD03878A8703AB10028F5D100F04D
:1057A400DDF900F06CFBC0B28DE00028EDD0DFF82D
:1057B40078171020FFF7CFFDDFF870170A789042B2
:1057C40012D3AC7015207EE0012E6BD1012A0FD0CC
:1057D4003878E87031B1002874D100F0BFF900F0D6
:1057E4004EFB6FE000286DD0012000F092FB69E0D1
:1057F400122467E0022E55D13888288362E0202ED7
:1058040050DA05F198041F212046FDF70BFC00F047
:105814005CF82E7100F0A2F92979009102460194F6
:10582400012311E0202E3DDA05F1B8041F212046A2
:10583400FDF7F8FB00F049F8AE7100F08FF9A97993
:105844000091024601940023514600F041F936E0EC
:10585400012E27D13878042824DCE87132E0012EA7
:1058640020D1387804281DDA28722BE0062E19D1AD
:105874000622394605F1D800FDF774FB22E0012E1B
:1058840010D1387807280DDC68721BE0012E09D18D
:105894003878042806DAA87214E0012E02D1387888
:1058A400E8720FE018240DE028280ADA022E08D145
:1058B4003B88DFF87C1602461020FFF74CFD0446B7
:1058C40000E00224E0B2BDE8F687324639462046BD
:1058D400FDF748BB38B50D4600244FF4407302462B
:1058E400D11ADFF838061ED0491E1ED0491E20D01A
:1058F400491E22D0491E23D0491E25D0491E27D037
:10590400491E27D0491E29D0491E2BD0491E2BD011
:10591400491E2BD0491E30D0491E30D00E3915D027
:10592400E9392ED030E040782CE0102200F17001EB
:105934001FE0102200F180011BE0006A28602CE0C7
:10594400062200F1900114E080781BE0C07819E091
:10595400008B1FE0027900F198010AE0827900F1DE
:10596400B80106E0C0790DE0007A0BE0062200F1F0
:10597400D8012846FDF7F6FA0FE0407A02E0807A73
:1059840000E0C07A287008E0282A05DADFF8A415B8
:1059940000F077FA288000E00224204632BD1FB5CB
:1059A400DFF8784500B16062DFF880251078087070
:1059B40050202178FFF7B6FC024604F170000190F4
:1059C40004F12003E07A039304F180010291009032
:1059D40010206378DFF86015FFF7BDFC002004B0E9
:1059E40010BD1CB5DFF834251178044600F0B7F873
:1059F4001322009223460246DFF8401500F068F8AF
:105A0400C0B216BD00B58FB008233C220021684601
:105A1400FDF7CCFFDFF8280500F1500107914FF4A2
:105A2400077203210892069100236A460FF235118A
:105A3400FDF7C8FF0FB000BD7CB5DFF8E04404F10A
:105A44001C012046FFF720FA01200021019000915B
:105A540000230FF225550022294604F12800FFF700
:105A6400E3FC02200021019000910023002229463A
:105A740004F14C00FFF7D8FC0C206070002104F105
:105A8400700000220023002580E82E0004F1800528
:105A9400002085E80F002062E0712072A1720720C7
:105AA400607204F1700000901023DFF89864022201
:105AB40000F00DF800951023032200F008F804F11B
:105AC400200000900423042200F001F873BD314645
:105AD4001020FFF740BCFEB51446DFF840240F4603
:105AE400064611781D4600F03AF88DF800008DF84E
:105AF40001608DF802708DF803400622294601A842
:105B0400FDF730FA6A46DFF8401400F0B5F9C0B288
:105B1400FEBD7CB51646DFF804240D460446117814
:105B240000F01DF88DF800008DF801408DF802504A
:105B34008DF803606A46DFF8141400F09DF9C0B2D2
:105B440076BD80B5DFF8D403017800F008F802468A
:105B5400DFF8FC1300F095F9C0B202BD49465020AD
:105B6400FFF7E0BB2DE9F04F85B0FFF765FFDFF8E5
:105B7400C403DFF8A873DFF8DCB3DFF8DCA3049018
:105B840007F1D808DFF8D40303904FF6FF79F869DA
:105B94004FF0FF3352460021FDF710FF04004FD0B1
:105BA4000020029002AA01A90DF10600FFF7A3F953
:105BB400002845D1BDF806000125102802BF9DF834
:105BC40004103878814235D10298018849450BD1B7
:105BD400408841042ED507F1200100910423039944
:105BE4000422FFF775FF25E006463078A22802D08C
:105BF400D0281BD01EE0707913281BD131890129CC
:105C040004BF7879022807D107F14C00FFF74AFC5A
:105C14007088FFF7E6FE0DE00499052200F031F9E3
:105C240081B207F14C00FFF726FC03E0304600F098
:105C34003DF80546029800281CBF002DFFF746F9E1
:105C4400E00723D5F878B97801431FD018B10320B1
:105C54008DF800000BE0F979387A8DF800108DF892
:105C64000100062241460DF10200FDF77BF9787A26
:105C740039788DF80800B87A8DF80900FFF76FFFBE
:105C840002466B4659461020FFF765FBA00707D56F
:105C94007879012805D0022804BFF889FFF7A1FE0E
:105CA40075E707F10C0100F0EFF870E7F0B5044672
:105CB40085B0A1789B4E994D080014D0022940D09C
:105CC400032918BF04295AD005296FD0062900F0EA
:105CD4008D80072900F09C800C2900F09280112906
:105CE40000F09D8024E0607810BB05F17001009104
:105CF40010239A4F02223946FFF7EAFE05F180018C
:105D04000091102303223946FFF7E2FE0622E11C2C
:105D140005F19000FDF726F92978FFF720FF0246E8
:105D240005F198000190012328790090FFF7CFFE38
:105D3400686A00281CBF016800291FD020468847D4
:105D440098E06178B9B9E07868B12978FFF707FF7E
:105D540005F1B80101910246A97900910023FFF7EA
:105D6400B6FE607007E005F12800FFF794FB10B958
:105D7400012000F0CEF861780029D9D179E060786B
:105D8400002876D1032902D10121A970D0E7AA788D
:105D9400298B39B1E8780243CAD005F12800FFF70E
:105DA4006AFBC5E7012AC3D1A870C1E76078C8B906
:105DB400207B6B490190231D608900901020E278BC
:105DC400FFF7C9FA207B0428B2D100210120A97071
:105DD4008DF80800002302AA012140F20530FFF7E4
:105DE4008DFCA5E73128A3D10020DDE7A2885D4919
:105DF4006B461020FFF7AFFAA2885B4900F041F828
:105E040096E7237BA28859491020FFF7A4FA30E0D3
:105E140005F14C00FFF746FB607850BB88E7287B10
:105E2400A188ADF80010022809D1686A00281CBFB7
:105E34004268002A05D06946201D904715E00128D4
:105E440003D100208DF80A000FE070B901208DF80D
:105E54000A00E088ADF802002089ADF804006089EA
:105E6400ADF80600A089ADF808006A46404900F084
:105E740003F8012005B0F0BD1020FFF76CBA02460C
:105E840041461020FFF767BA2DE9F0410D4688B06E
:105E940004466A88334903AB1020FFF75CFA9DF887
:105EA4000C10C80758BF142030D51C4E06F14C0006
:105EB400FFF7F1FA48BB05221E49FFF7E2FF074648
:105EC4006888ADF800006A46A988ADF80210E88831
:105ED4002849ADF804002889ADF806006889ADF8B2
:105EE4000800FFF7C9FF8046C0B258B974710C228C
:105EF400294606F10C00FDF735F8B9B206F14C005D
:105F0400FFF7B9FA5FFA88F000E0162008B0BDE8A0
:105F1400F08101460148C069FDF74CBD88040020AA
:105F24009945011009450110F17F0110694F0020C6
:105F3400BD840110F58401102D060100E514011043
:105F4400501B0020AD83000091EF000025F60000F7
:105F5400AD0E01005944011003000080ED830000E0
:105F6400C9EA0000097F0110E1CA000059CA000013
:105F7400051601107D150110CBE77047E0B50FF24F
:105F8400F8107A4A019010210091132378491020C7
:105F9400FFF7E1F9C0B20EBD2DE9FC420027082845
:105FA4000D469146734E00F27780DFE800F0050C51
:105FB4001824303C48546A00082D6BD10822494605
:105FC40006F1080063E0152D64DA152106F11000CE
:105FD400FDF728F82A46494606F1100057E0152D2A
:105FE40058DA152106F12800FDF71CF82A4649461F
:105FF40006F128004BE0152D4CDA152106F140007E
:10600400FDF710F82A46494606F140003FE0152DF9
:1060140040DA152106F15800FDF704F82A464946EE
:1060240006F1580033E0152D34DA152106F170001D
:10603400FCF7F8FF2A46494606F1700027E0152DC3
:1060440028DA06F1880415212046FCF7EBFF2A46DE
:10605400494620461BE02846FEF7C8FF04000ED040
:10606400706806F1A001884218BFFEF7C0FF2A46F7
:1060740049462046FCF776FF746035700DE013271F
:106084000BE0072D06D10722494606F1B000FCF7C4
:1060940069FF02E0182700E002273846BDE8F682CF
:1060A4002DE9FC4791464A68107852780A9CDDF83D
:1060B4002C80DFF8C0C000EB0220002680B242F63C
:1060C40023221D462746801A0CEB070307D0401EE7
:1060D400052811D9801F20D026382ED040E0082F63
:1060E4002DD8C7F10807B84534BF4446C4F10804A5
:1060F4002C8003F108012EE0D1F80CA0504600F0EA
:1061040019FF80B2B8421ADBC11B8845B4BF4446AC
:10611400041B2C800AEB07011DE09CF800000146DB
:10612400A1420CD3C01B8045B4BF44460C1B2C8039
:10613400DCF804002A88C1190EE0082F01D30726D1
:1061440010E0C7F10707B84534BF4446C4F107045B
:106154002C8003F1B0012A884846FCF703FF01E0D4
:106164002E800A263046BDE8F68700001C03002076
:106174000913010064020020A56000000000000073
:1061840000000000FEB5DFF8EC52DFF8EC620446D4
:1061940028788000FEF72AFF010071610BD04FF6CA
:1061A400FF77384600F0E2FE28788000FEF71EFFF5
:1061B4000100B16101D11320FEBD384600F0D6FEC6
:1061C400E0070BD50FF2BC20AC4A019010210091DE
:1061D4001523AB491020FFF7BEF800E00020C0B241
:1061E400FEBD18B1A4490861002070471120704712
:1061F4007FB50024134605280A469F4D37D8DFE8AB
:1062040000F003080D10232B01292ED118782873D0
:106214002EE0012929D11878687329E0012927D0B3
:1062240023E0012921D11878944BA873FF210FF2A0
:10623400B90002900191152668690096002205F1C3
:106244000E0100F0ADFE13E005290ED1194605F14B
:106254001C00FCF787FE0BE0082906D105F1240099
:10626400196801605968416002E0182400E00224C2
:10627400204604B070BD000010B500240B4605286C
:106284007D492DD8DFE800F00305071C1F25087B96
:1062940017E0487B15E008781870487858708878BB
:1062A4009870C878D87008791871487958718879C5
:1062B4009871C879D871087A1872487A587210E0BF
:1062C400887B18700DE005221C311846FCF74AFE45
:1062D40007E001F12400016819604168596000E099
:1062E4000224204610BD000070B510460A7A00242E
:1062F400D50601D5082070BD049A0AB10B2070BDE3
:106304000A78022A4BD14A681578527805EB02259F
:10631400ADB24FF6F176AD1B012D08D9AD1E12D0EA
:106324006D1E04D06D1E08D06D1E2DD034E00125E5
:106334001D80C9680A78027033E005221A80C96892
:10634400FCF710FE2DE00F221A80CA681378037040
:10635400CB685A784270CA6893788370CA68D378D5
:10636400C370CA6813790371CA6853794371CA68E0
:1063740093798371CA68D379C371CA68137A037233
:10638400C9684A7A42720CE008221A80C9680A680D
:1063940002604A68426004E01C800A2401E01C8018
:1063A4000124204670BD2DE9FC410E7A0024FF250E
:1063B400B70648BF082045D40E78022E18BF012422
:1063C4003FD1D1F804C0089E9CF800E09CF801C0BD
:1063D400294F0EEB0C2E1FFA8EFE42F60218BEEB6E
:1063E400080E3BD04DF2EF68BEEB080E18BFBEF1AD
:1063F400020E03D0BEF1030426D038E0C868137837
:1064040003705378437093788370D378C37013798F
:1064140003715379437193798371D379C371137A77
:106424000372527A4272C86807F10C01884214BFA1
:1064340002250025386900281FBF01680029284665
:1064440088472046BDE8F681340008BF082B05D1F3
:10645400CC6815682560556865600525012401949C
:10646400009600F005FEFF2D0446E3D1E9E70A2477
:10647400E7E70000694F00205C2300204C0A00205D
:1064840009130100ED620000AB630000000000008E
:1064940070B5FCF761FD04460026DFF8C0530DE03B
:1064A40024FA06F0C00708D505EB8600406820B141
:1064B400026811001CBF31469047761C2868F6B26A
:1064C4008642EDD370BDDFF898030168DFF89403CA
:1064D4000160DFF89403FCF7B7BC2DE9F0470E0028
:1064E400F5B2044644BF86F0204686F4C046A800B0
:1064F40000F1804000F5012004EA06030168DFF89A
:106504006C733B4086EA0102A1431943224004F420
:10651400E023120EB3F5E02F02F0010202D1CA010A
:1065240005D411E014F4E02F08BF002A0CD001F4C4
:10653400E022B2F5A02F04D0B2F5C02F04D1052279
:1065440000E0062262F31241DFF824730160386828
:10655400E84000F0010805F1804000F50839B00D6D
:10656400B8F1000F00F0010A03D1600248BF89F8B6
:1065740000A020020DD5FAF7D9FE0122AA403968FD
:1065840033024CBF13460023914319433960FAF791
:10659400D1FEB8F1000F03D0600248BF89F800A013
:1065A400BDE8F087002948BF0021800000F1804049
:1065B40000F5012001F03F010268920941EA8211CD
:1065C4000160704710B5DFF8AC02006800F07F048A
:1065D40000F0F6FD012804D100F0E8FD022808BF10
:1065E400641C204610BD2DE9F04FA1B00546FBF711
:1065F400FEFF00F0E5FD0026012804D100F0D6FDE1
:10660400022808BF0126DFF87002C168C1F3815176
:1066140001294FF0010A04D10068000E0AFA00F0C3
:106624000643DFF85802DFF834920078DFF850723E
:10663400FFF7C8FF5FEA000BC9F800B004D0FF22DF
:1066440059463846FDF788F94FF00008002405E064
:106654000AFA00F07C5440EA0808641C55F8240047
:1066640000F0FF01FE2909D0FF29F6D0594503D2D5
:1066740026FA00F2D207EBD5022070E00920FCF7DD
:10668400B0F8C9F8805008232422002117A8FAF78B
:106694006DFE8DF874A017AA012109F1D400FAF750
:1066A4006DFE0024DFF8DCA10BE05046FFF715FF78
:1066B4004FF0FF31E0B2FFF775FF0020CBF8040084
:1066C400641CD9F80000844213D226FA04F0C007EF
:1066D40009EB840B48BF0420F0D428FA04F0C00767
:1066E40047BF385D55F8201004F0FF0040F4C04166
:1066F400DBE70823302200210BA8FAF747FEDFF876
:106704008851DFF88821287813900BAB0020009083
:10671400102109F18400FAF73DFE08232822002104
:1067240001A8FAF73BFE6868DFF8641107900023BC
:106734000020089001AA09F1A000FAF737FEDFF85B
:106744005401016821F47C5141F40051016001209D
:10675400DFF844110860DFF844110860002021B01C
:10676400BDE8F08F2DE9F0413C4E04460D4606F19C
:10677400D40800F036F8002035B9002020606060AD
:10678400A06085B125E0401C15F82010FE29F4D046
:10679400FF29F8D03268914204D206EB810149689E
:1067A4000029F0D000244046FAF7E4FD2046BDE875
:1067B400F08106EB81020123546003FA01F162685F
:1067C4001143616055F820202E49204600F031F82D
:1067D400384615F82010FE29E5D0471CFF29E8D1DA
:1067E400F6E74FF0FF314046FAF7CCBD2C4915E0EF
:1067F40010B51A4B1C68A14204D203EB81035B68F9
:10680400834201D0022010BD01F18041100001F546
:10681400083118BF01200870002010BD0968C1406C
:1068240001F00100704710B10160002070470220A0
:10683400704738B5094C25680B46114601F0FF0234
:10684400AA4204D204EB82025268824201D002209E
:1068540032BD1846FFF741FE002032BDD02500208E
:10686400E0200240E020026070260020007F077FC5
:10687400D020024044130050A83F00508F2800202D
:10688400C0260020007FC76750090100CB640000C8
:1068940095640000003009400C400940080009409C
:1068A400C020024000280AD0B0FA80F18840D1F11B
:1068B4009D01C905020672F1004241EB10207047A8
:1068C400FF2212EAD05C1DBF12EAD15394459342D1
:1068D4002BE09C44D30780EA01021A4043EA0020DB
:1068E40043EA0121A1FB0030C04238BF40007CF1E3
:1068F4007F010BDBFE294ADA5B0842EAC15153EA05
:10690400006373F1004C51EB10207047D1F1080C77
:10691400DCF120012FDB5B0810FA01F10B4320FAB4
:106924000CF073F100415041704794451CBF02EADA
:10693400D153934280EA010202F000421DD040008C
:1069440019D0490017D05BB9634514D00902B1FAD4
:1069540081F39940BCEB030CC00140F00040C1E757
:106964000002B0FA80FC10FA0CF0B3EB0C0CC90175
:1069740041F00041B6E71000704740000AD04900DA
:1069840008D010F1807F94BF11F1807F02E042F0C3
:10699400FF407047D043704790EA010F40F12E84C6
:1069A40081F00041431A4FF000423EBF5340C01AE9
:1069B400C91800BFD3095FEAD05C13EB400F34BFA2
:1069C400B3EB410F40E07CEBD1530CD342EA0121FD
:1069D40022D8D1EB402009D3400A28BF5FEA5001F6
:1069E40040EBCC507047401A15D04002B0FA80F208
:1069F400521C9040400A4FEA3C23B3EB026384BF2D
:106A040000EB730007E040F400001A16DB07C2F144
:106A14000102D04018437047182BFCDC31FA03F212
:106A240002FA03F3591A38BF42F00102D2EB4020B4
:106A34003CBF4000ACF1010C5FEACC5CC20572F1D2
:106A440000414CEB5020704713EB400F0FD2C9426A
:106A540009D0ACEBD153022B03DB4902172BDDDD4C
:106A640070479143401AC042D5D10020704713EBC0
:106A7400410FD0D36FF0000070477047C0F3C75187
:106A84007E390EDDC217D1F1200106DD000240F08F
:106A94000040C840104450407047D04380F000404C
