:10701000F03F0020A50901001D0201001D02010032
:107020001D0201001D0201001D0201001D020100E0
:107030001D0201001D0201001D0201001D020100D0
:0C7040001D0201001D020100E901010019
:10705000FEE7DFF84C09007D7047DFF84429014660
:10706000107D11757047DFF83819D1E90023C0E9A8
:1070700000237047DFF82809C1690847DFF82019A5
:107080000A6A10475AE160E110B501F074FC38B1AA
:10709000DFF86C49A06801F077FCA0614FF0FF3089
:1070A00010BD38B5FFF7EEFF0446DFF854098068DD
:1070B000002101F06DFC05462046FFF7E4FF28465D
:1070C00032BD70B5FFF7DEFFDFF834690446B06803
:1070D000002101F05DFC05467069451BB069A842BE
:1070E00038BF00252046FFF7CEFF284670BD70B59B
:1070F000DFF8746904460D46B068214601F046FC8D
:107100003461756170BD2DE9F0478046DFF84809AC
:10711000DFF8545904682E5989464FF0FF3A05E0CC
:10712000F868A0EB0900504598BF824628198642AE
:1071300017D037463668B88A0128F7D1B8F1010F61
:1071400004BFF968494508D1386900281ABF4018BA
:10715000F860B882F869B9698847B88A0128E5D12A
:10716000DEE75046BDE8F0872DE9F041FFF78AFFE2
:10717000DFF8F4480746A068012101F009FC01216D
:10718000A1830021E183656922682168461B401ABA
:10719000AA1A904203D20020A08338462CE0384639
:1071A000FFF771FF002706E07D1929460120FFF750
:1071B000AAFFF61B0746BE42F6D2FFF763FF8046E2
:1071C000E08B012804D129460020FFF79CFF0746E9
:1071D000A06917F1010F08BF064603D0BE1BB042DD
:1071E00038BF064671193046FFF781FF0120208421
:1071F0000020A08325604046BDE8F04143E770B51C
:1072000004461D46A2606869DFF84C38DFF858284C
:107210002061A1612146A869E0610020A0821E686A
:10722000901900F087F9288A18B12046BDE870400F
:1072300046E070BD38B50446FFF724FF05462046FA
:1072400000F087F944E08260816100220261C3613D
:1072500082820146DFF80038DFF80C2818681044F5
:1072600068E176E138B5DFF80058298C0446012939
:1072700004BFA88B002816D1A86801F089FB2968F3
:107280006B69024628681B1A511A8B420BD3A068FF
:107290008118E1600123A3826B699A1A90420ED291
:1072A000BDE8344023E7FFF7FCFEA1680818E06062
:1072B0000120A082A88B012804BF0121E98331BDF0
:1072C00038B50446FFF7DEFE05462046FFF7CAFF45
:1072D0002846BDE83240D6E600218182DFF820173B
:1072E000C0684A69904203D1DFF83C281068E7E79C
:1072F00070478160704710B50446A08A012804D108
:10730000FFF7CFFEE168081A10BDA06810BD7047F6
:10731000808A7047704780B500F001F8FCE77CB5C3
:10732000DFF8A80845680668002403E055F8240043
:107330008047641CB442F9DB73BD00BFEFF31180DA
:10734000202181F31188704700BF80F311887047B6
:107350000021DFF8F02801601368184401F002BC36
:1073600038B50446FFF7E9FF0546207C022808D11E
:10737000204600F0EEF8002121742946A06800F0B4
:1073800092FC2846BDE83240DEE703681A400368F5
:107390000B408B4208BF0A4312B101689143016060
:1073A000104670472DE9F0431C4614F1010F18BF39
:1073B000002C91B006460D4691460AD06B462246F7
:1073C000DFF8841808A8FFF73EFF08AA03920220FE
:1073D00002E00021039103208DF810000695CDF8FE
:1073E0001C90DFF8687838690290FFF7A6FF8046A6
:1073F0004A4629463046FFF7C8FF05000AD00398E1
:1074000018B1FFF72EFF002003904046FFF79CFFC6
:10741000284635E024B94046FFF796FF00202FE0CC
:107420003C88012038800299DFF82408C1F818D080
:1074300069460268B01800F066F8029800F00AFC8D
:107440009DF81000022804BF0398FFF70BFF404689
:10745000FFF77AFF204600F009FBFFF76EFF0446B6
:10746000039818B1FFF7FDFE002003900021029859
:1074700081612046FFF768FF9DF8100000B1059874
:1074800011B0BDE8F083F8B50546DFF8B8070F4640
:1074900001686E18FFF751FF29680F4304462F60FB
:1074A0003068B04203D12046BDE8F2404CE7DFF837
:1074B0009C0707880121018028463668F269B16976
:1074C000FFF763FF706160B1304600F042F80120C1
:1074D0003074F06808B1FFF7FFFEB068214600F095
:1074E000E2FB2046FFF730FF3846BDE8F24000F0EF
:1074F000BDBA23E729E71AE00168814201D10120E2
:10750000704700207047426808604A60116041601F
:10751000704738B50446FFF7ECFF256829682160FD
:1075200029684C60FFE7FFF7E5FF284632BD406061
:107530000060704738B504460D46FFF7DAFF2C604F
:107540006168696061680D606560FFE7BDE83240B1
:10755000D0E7016842681160416800684160704787
:10756000ECE6F2E610B50446107EDFF86C272072D8
:10757000618100211068204401F0F4FA00212160AB
:107580000121616010BDDFF850170A68104401F056
:10759000FDBA38B50446FFF7E3FF0546207C022814
:1075A00008D12046FFF7D5FF002121742946A068A5
:1075B00000F079FB284693E070B50C4614F1010FFA
:1075C00018BF002C8EB005460AD06B462246DFF865
:1075D0000C1705A8FFF737FE05AA0392022002E068
:1075E0000021039103208DF81000FFF7B9FF064634
:1075F0006889B0BB24B93046FFF7B3FF00203DE0F7
:10760000DFF8480604880121018000690290C0F873
:1076100018D000F01FFBDFF8040702686946A818BD
:10762000FFF771FF9DF81000022804BF0398FFF7D1
:1076300019FE3046FFF795FF204600F017FAFFF7D6
:107640008FFF0446039818B1FFF70BFE002003904C
:107650000021029881612046FFF783FF9DF810000A
:107660000CE06889411E6981039818B1FFF7F9FDA4
:10767000002003903046FFF774FF01200EB070BD6C
:10768000F8B50646FFF76CFF0446DFF84C060068C5
:10769000325831188A420AD1307AC1074EBF0120D0
:1076A0007089401C70812046BDE8F24059E7DFF840
:1076B0009C2515880123138037583A683250516051
:1076C0003B74F86808B1FFF707FEB868214600F080
:1076D000EAFA2046FFF745FF2846BDE8F240C5E13B
:1076E000BDE832403DE701F037BA27E6EFF31180FD
:1076F000002126E629E60000B0FA80F0C0F11F0064
:1077000070472DE9F8430446DFF81456A06AD5F80F
:107710001080EF68AE682861EC60606AA860206A3B
:1077200060620020A08328800120FFF796FC81463C
:10773000FFF7DCFF2169E068A2689047FFF7D5FFFB
:107740004846FFF78AFC01202880C5F81080EF60CA
:10775000AE60BDE8F18338B5DFF8C44525696068DF
:10776000FFF7CAFF616901EBC00100F083F86068B0
:1077700030B1FFF7C1FF616901EBC0018D42F4D365
:1077800031BD70B5DFF898452669FFF7AEFF0546B5
:107790006068FFF7B1FF616901EBC000864211D25A
:1077A000DFF8A804068801210180DFF80C0601F04B
:1077B000EFFA002020802846FFF79CFF3046BDE806
:1077C000704053E1002020802846B3E038B5DFF850
:1077D00054150D68002404E02146002001F02CFA25
:1077E000641CAC42F8DBDFF878150968002000E083
:1077F000401C8842FCD34FF0FF3032BD02E0DFF87E
:1078000020152DE10020002800D0704780B5FFF73B
:107810006CFFDFF80C25516821B1FFF76BFFFFF714
:10782000B0FF02E01180FFF765FFDFF82014088841
:1078300001220A80BDE8024018E1002800D070470C
:1078400038B5DFF8DC44606888B1FFF74FFFFFF719
:107850004CFF25696068FFF74FFF616901EBC001CC
:107860008D4204D200F006F860680028F3D10020B1
:10787000208031BD086802680A6051600A688A4247
:1078800003D161688269914361603AE7DFF890044F
:107890008068704710B5044664602460A160106978
:1078A000E06050692061906910F1010F08BF052068
:1078B0006061014601208840A0610020A083D0695A
:1078C000DFF85C24606220625069FFF70CFFA06261
:1078D000002010BD7047F8B50546FFF706FF0446C7
:1078E000A88B18B12046BDE8F24003E70121DFF87C
:1078F0003064A983378831802946A86AFFF703FEE0
:107900007168A869014371602046FFF7F3FE17B95B
:10791000BDE8F14035E7F1BD38B504460D46FFF747
:10792000E4FE616A0D436562FFF7E4FE2046BDE8B0
:107930003240D0E7BDE87040DCE6FFF7FFBCEFF374
:1079400011800021FFF7FDBCFFF7FFBC0000000025
:10795000B0FA80F0C0F11F00704710B5DFF8EC42BC
:107960000020208101E000F0BBF960680028FAD017
:107970006068FFF7EDFFA16901EBC000616981421A
:1079800009D2226960610068206100F1100102F1F2
:10799000100001F003F820890028E1D110BD00009B
:1079A000C00A002010B5DFF89046208908B1FFF723
:1079B000D4FF6BE070B500F0EDFF00B3DFF8180600
:1079C0000568002407E02146002001F06BF9002142
:1079D00000F0FEF8641CAC42F5DBDFF83806DFF897
:1079E0006C620568002406E0306B50F8240000212A
:1079F00000F0EEF8641CAC42F6D34FF0FF3070BDDF
:107A0000200B0020002010B594B0FFF796FFDFF8A0
:107A1000284601E000F064F960680028FAD0606848
:107A2000FFF796FFA16901EBC0006061006820616B
:107A3000002020810220FFF710FBFFF780FFFFF7F7
:107A40007CFF00F096FF206900F1100104A800F00F
:107A5000A5FF14B010BD0000380A0100DFF8EC11DA
:107A6000088801220A807047200B0020002800D0DF
:107A7000704710B5FFF761FFDFF8D041218929B1C8
:107A8000DFF89C22108808B9FFF767FF00212180EA
:107A9000BDE8104053E7002800D0704710B5DFF86C
:107AA000AC41218929B1DFF87822108808B9FFF7A5
:107AB00054FF0021218010BDDFF87C05006970476C
:107AC000808F012800D0704710B5FFF736FFDFF830
:107AD00068150446C868401EC86005D12046FFF7F7
:107AE00033FF0020FFF7CAFA2046BDE810402BE71D
:107AF00070B556480469058801210180FFF71DFF14
:107B00000646204600F0A6F8032020752046FFF721
:107B1000D7FF3046FFF718FF64602460FFE7284670
:107B2000BDE87040A2E70000400A01002DE9FC41D9
:107B300017460546B869A8600E46786A002803BF54
:107B4000DFF838050168696268623C6A984614B9D2
:107B5000DFF82C05046800F023FFF969424219B3ED
:107B600038B1401E40181040241A0C1928621440E5
:107B700000E029624FF0FF30EC616862AE62386964
:107B8000E86278692863B86A6863B88DA8870128B5
:107B900003D12E48C168491CC1604146284600F007
:107BA00017F880B1801C0EE010B10419641E144057
:107BB000EC610246E969686A434600F0C5FC0028AA
:107BC0002862DBD10120BDE8F6810000F809010040
:107BD00070B50B460446DFF8AC24DFF8AC1400F0B7
:107BE000DBFE206108B9012070BD01202075002056
:107BF000A061164DA06800280AD50021E160DFF8D9
:107C00008C040168681820642146FFF793FC17E094
:107C1000A06801218140E160A168A86900F09CFF93
:107C2000206401202E882880FFF787FE0546204625
:107C300000F02CF82846FFF787FE3046FFF716FFC6
:107C4000002070BD440A010061730000680B002031
:107C5000440A01002DE9F0410446DFF8DC53D4F872
:107C600040806E68E768FFF774FCD8F80000404574
:107C700004BFBE436E602869A04204BF0020686153
:107C80000220207501202881BDE8F08138B5044626
:107C9000FFF753FE05462946204600F004F8284623
:107CA000BDE8324050E62DE9F041DFF88C6377689B
:107CB00004468846E568206C2146FFF724FC2F43E4
:107CC00077600121217531814046FFF73DFEBDE817
:107CD000F04132E6000000004C0A010093750000FC
:107CE00080B5DFF8AC03DFF8AC230068904204D124
:107CF000FFF725FEFFF713FB0DE058B9FFF71FFE56
:107D00000020009002E00099491C00910098002892
:107D1000F9D000E08047BDE801400EE64C0A0100C2
:107D20004C0B0020500A010080B500F015FE08B190
:107D30004FF0FF3002BD00F018BEF8B5002101A8D9
:107D4000FFF7F9FF0398009005E0009ABE2111703B
:107D50000099491C009100996945F6D305B000BD12
:107D6000540A010000F003BEFFF7E8BAEFF31180F8
:107D70000021FFF7E6BA38B5FFF7F6FFDFF8181372
:107D80004A698869D20800EBC202083A0A614FF0DA
:107D9000FF32DFF808030A600024056807E0214687
:107DA000002000F013FE002100F042F8641CAC42F9
:107DB000F5DBFFF720BD000057770000FEB5044655
:107DC000089DDFF8D40261821746C26952F821008B
:107DD000DFF8CC221E461368984210D00191002390
:107DE000DFF8C0020168DFF8C002009102938F2320
:107DF00001880022284600F08FFB0120FEBD0846C6
:107E000000F096F8A76000F019F908BFFF20207471
:107E10000021308B00B10121B08C08B141F002018A
:107E2000E1602046294600F003F800B1801CFEBD49
:107E300038B50446217BB4F912008A07054602D5FD
:107E4000227C202A07D2A16800F0B2F8B4F912000F
:107E50004042608209E0DFF84002416A41F8254073
:107E60002846DFF8481200F0A3F8217C284600F0ED
:107E7000D3F8207BC10744BF284600F071F80020EA
:107E8000E06032BD012900D170471CB5B0F9124045
:107E9000002C48BF6442204600F04AF8DFF8000298
:107EA0000168204600F084F8DFF8EC01426A002106
:107EB00042F8241013BD78B5DFF8DC01DFF8F011CB
:107EC000C069DFF8F02108600B68934211D0DFF839
:107ED000D041DFF8E45124682D680023AB4208D27A
:107EE0000F2B2CBF264652F8236040F823605B1C02
:107EF000F4E7DFF8C8314A681C68DFF8C40122F4EF
:107F00007F4202EB042282184A6020208876DFF844
:107F1000B4010268CA6071BD28E700002021EFF3B8
:107F2000118081F31188704780F311887047000039
:107F300010B51028DFF8901104D300F028F8C1F82C
:107F400080310AE00F2807D108690A6932F002027D
:107F500000F002000A6100E0002000BF10BD000038
:107F600010B51028DFF8601104D300F010F8C1F844
:107F700000310AE00F2807D108690A6952F00202AD
:107F800000F002000A6100E0002000BF10BDA0F177
:107F90001002520901EB8201B0F11003012403F039
:107FA0001F03D1F8000104FA03F3184070470000E2
:107FB000DFF8E420D36903EB800002688A4218BF2F
:107FC0000160704710B5DFF80441206900F0F0FE51
:107FD0000021216010BD00005C0A010070B502465E
:107FE000DFF8E80083695360446994602546287887
:107FF000BE2803D001200023136070BD002000299B
:10800000F9D015F8016BBE2EFBD0691E5B1AE31880
:10801000F2E700006C0A0100DFF8AC2081B00244F6
:10802000102828BF82F8F01303D2042828BF82F852
:10803000141D01B070470000680B0020706960607B
:10804000306A10F1010F704781604260704710285C
:1080500004D3DFF874101038C1F8000F704710B562
:10806000DFF834305C6801222280DFF830211268AA
:10807000002AFDD0BDE8104010470000640A01004E
:10808000680A0100F17A0000A5790000580A010091
:10809000600A01001F730000EC0A00201C0A0100A6
:1080A000280A0100140A0100969200003101010023
:1080B00008ED00E010700000180A01002C0A010011
:1080C0000000FA05200A010000E000E0EC0A0020B0
:1080D0002DE9FC410446FFF747FE00F021F87C48FB
:1080E000068801800020FEF7B8FF8046DFF8C8044C
:1080F000DFF8E022416AD2F8040D00F0FF0051F8E9
:108100002070FC60FFF732FE7868B9688847FFF797
:108110002BFE4046FEF7A1FF06EB0520BDE8F681E9
:108120006A48058801210180704700F0FF00FFF7D1
:1081300084BB000AFFF7AFBC7CB504460D46E1697D
:10814000164619B1206ABE2200F056FE206B01903F
:108150002B46E06A00903246A16A206AE469201842
:10816000001F00F0B9FE76BDDFF8F004006870472C
:108170007047FFF7E3B8FFF7E4B80020704710B589
:10818000DFF8DC340446186800220121204400F0A6
:1081900029FD0021616010BD00000000240A0100DB
:1081A00038B50446494D6068296988420BD0DFF82C
:1081B000B02410684FF0FF312044FFF7FDF9286923
:1081C0006060002032BD012032BD31B94160DFF86E
:1081D00090140A681044FFF753BA704701207047A3
:1081E00000F0B0BEFFF7AAB8FFF7AFB8DFF874141D
:1081F000C20744BF01220A60820744BF4FF4807265
:108200000A60400744BF4FF4803008607047DFF8D1
:10821000A424C30748BF1160830748BF51604007CB
:1082200048BF9160704710B504460020D4E90A2386
:1082300047F6906100F018FF0123994228BF4FF0E4
:10824000FF3010BD1CB5DFF880040C460168CA6A17
:108250009047011D201AB0F1004F05D8081BB0F15E
:10826000004F38BF8C4200D20C462146BDE81C406E
:108270000120CCE72DE9F04180460A46D8E90A0101
:10828000D8E90C45A0FB026701FB0277A6196F41F4
:10829000340C002244EA07414046FFF7D3FFC8E907
:1082A0000E67BDE8F08180B5DFF80C14086800287F
:1082B0001EBFDFF810245068002804D0818811B157
:1082C000002100F089F84FF0FF3002BD680B00205C
:1082D0004C0B0020DFF8E013086800281EBFDFF811
:1082E000E4235068002806D0828822B1017B00294F
:1082F00008BF00F001B87047F8B50646FFF772FFF7
:108300000446DFF8C853DFF8C8730120E861FFF7BF
:108310006DFFF96A0A6A142090473169B1F5802F20
:1083200034BF0421090C0120FFF771FF3A6813687C
:10833000232100209847DFF89C1301200860DFF814
:10834000B004016821F4E02141F480310160012092
:1083500028602046BDE8F24046E710B5DFF8741407
:108360004C6800F005F86069A169BDE81040084755
:1083700001203BE7F8B50446DFF84C030D460168E1
:108380000A6B9047D4E90A6732463B4600F06CFE20
:108390003DB1A6FB002306FB013307FB0033C4E914
:1083A0000C23F2BD000010B5DFF82003DFF87444A1
:1083B000002101600121C16121602068FFF7D8FF21
:1083C000DFF864140A68136A14209847206810BD07
:1083D0000000000000E000E038B50446FFF702FFAF
:1083E00005462046FFF7DFFF2846FFF7FDFE002089
:1083F00032BDF8B505461646EA69A9691C463046FD
:1084000000F04AFF76602CB1EA6908232146304625
:1084100000F054F8079BF668AA686969E86800F0FC
:10842000C5F8040001D10020F2BD00F082F86968AF
:10843000216004F1080769684A68626069684A68EF
:10844000146069684C6000F079F8286810F1010F39
:1084500018BF3860286908B1716839503846F2BDD4
:10846000F8B505460E461746EA69A9691C4638461E
:1084700000F012FF7F602CB1EA69082321463846DC
:1084800000F01CF86969FC680839304600F058FFB4
:10849000286810F1010F18BF3060286908B16168C1
:1084A00031503046F2BD0800194606D0130004D002
:1084B00011F1010F08BF1047104770472DE9F8432D
:1084C000CE68376815460A689846A5EB0809D21B9E
:1084D0004A45044688BF4A4600F0DEFE256047450F
:1084E000646004EB090588BF4746E5603A463146BB
:1084F000284600F0E1FEC5F80080BDE8F183DFF812
:108500003C130A78012A04D118B1C06810B10120C7
:1085100000E00020C0B270477FB5089C099D0A9E0C
:10852000009401950296DFF818432568A8477FBD9F
:10853000FEE7DFF81003006800F03BBA0146DFF801
:108540000403006800F037BA2DE9FF41044698465D
:108550000E4615464046FFF7D2FF074615B9DFF82D
:10856000E8020568002C12BF2046DFF8E012086818
:1085700043462A46314600F015FA050012D11FB9CC
:108580004046FFF7BCFF68B9DFF8C4020168DFF8B6
:10859000C4020091029601943423018800224046CF
:1085A000FFF7BAFF284604B0BDE8F08180B500931C
:1085B000002300F003F802BDEC0A002070B51E464F
:1085C000049B0D46FFF7C0FF040003D03246294646
:1085D00000F012FC204670BD0A6942604A69826060
:1085E0004969C1607047F8B504460E461746FFF763
:1085F000A0FF62680025791E114018BF7D1AA1688E
:10860000AB19994203D2FFF799FF0020F2BD8E1BF0
:10861000D118761B61605719A660FFF78FFF3846A7
:10862000F2BD1FB5DFF83002018801290DD1DFF856
:108630002C12DFF82C020C680188009400220292B0
:10864000019255230020FFF767FF1FBD00207047F0
:10865000C2680A608068486088607047300A01001C
:10866000340A010004200940DFF8F8118888002846
:1086700000D070477CB50122DFF8EC018A804568A4
:108680000668002403E055F824008047641CB442C7
:10869000F9DBDFF8D80101688847DFF8D4014568C5
:1086A0000668002403E055F824008047641CB442A7
:1086B000F9DB73BD18200940100A0100DFF8A4019E
:1086C000C0887047E40A00208C0100100000244399
:1086D00084010010800224432DE9F84F8A460026C9
:1086E0008046BAF1000FC4BF4FEA8A0100F02CFEA9
:1086F000DFF87051DFF87C01DFF87C11C5F80080ED
:10870000D0F800900C68002709E034F8170028B171
:1087100059F827100020884748F827007F1C574544
:10872000F3DB0120E8800027DFF85001046800E057
:108730007F1CA7421ADA01264FF0000BD34513DA4B
:1087400058F82B0010F1010F09D059F82B10884769
:1087500048F82B0010F1010F18BF002000D10120B4
:1087600006400BF1010BE9E7002EE1D01EB90FF234
:10877000281000F008F800202860BDE8F18F00BF45
:108780004FF0FF30704710B50446FFF7D2FE204689
:1087900000F013F9DFF8E8000168BDE81040084771
:1087A00070B50546FFF7C5FEDFF8D810DFF8D83002
:1087B0004A681E680124B24206DA0E6846F8225062
:1087C0004A68521C4A6000E00024FFF7B7FE2046CA
:1087D00070BD0000E40A002010B5044600F00CF85B
:1087E0002046DFF8A8100A68BDE8104010470000D6
:1087F00000200940FEE7FEE770B50446FFF799FE4A
:10880000DFF880506E6806E0296801EB8601761E6D
:1088100051F8042C9047012E2046F5DABDE870404F
:1088200000F0CDB82C200940B001001018490A68AA
:10883000104718490A681047FEE770479E930000EA
:10884000740A0100A40A0100AC0B0020880A010090
:10885000700A01004E93000046930000780A010060
:108860003E930000B00B0020000A01008C0A0100BA
:10887000080A0100980A0100940A0100900A010008
:10888000A80A0100B80B0020B00A0100AC0A0100E0
:108890009C0A0100A00A01007864632E72756E7450
:1088A000696D652E537461727475703A20276D611D
:1088B00078506173736573272065786365656465B7
:1088C0006400000000B587B007216846FFF704FF89
:1088D00007B000BDFFF784BC00B581B0FEF717FDFF
:1088E000DFF8A401C06801B05DF804EBFEF7F3BF48
:1088F00000B581B0FFF7E2FE012818BFFEF7A8FB24
:108900000FF21D00FFF74CFFFFF7E4FCFFF72AFA18
:10891000FEF774FF01B05DF804EBFFF773B80000D9
:1089200000B581B0FEF76BFFFFF798F801B05DF876
:1089300004EB0320FEF791BB10B504460320FEF7BD
:108940008CFB2046BDE81040FFF746BFDFF83C1126
:10895000DFF83C0188617047DFF82801006810B13A
:108960004069C00F704701207047FFF737BBFFF722
:10897000D3BAFFF727BBDFF80C01006810B180699C
:10898000C00F704701207047FFF74DBCFFF772BC66
:10899000FFF7F0BC01207047FFF7CEBB00F0C2BA72
:1089A000FFF7E2BB30B581B00468A568A84701B005
:1089B00030BDFFF7DEBBFFF7DEBBFFF737BFFFF7CA
:1089C00038BF09B9DFF86011FFF778BD81B001EB5E
:1089D000410208B9DFF8C80200EBC20001B07047DD
:1089E000F0B58FB004460020149F00900D46164647
:1089F000019702AA2146DFF82C01FFF731FD00970D
:108A000002AB324629462046FFF7D8F90FB0F0BD39
:108A100000B581B00146012000900023DFF800235B
:108A2000DFF80001FFF73FFD01B000BD10B588B0D1
:108A30000020019300900B4602AA0021DFF82001DC
:108A4000FFF7D7FC040008BF002003D002A9FFF7FE
:108A50008FFB204608B010BD10B588B000200193F0
:108A600000900B4602AA00212D48FFF7C2FC04002B
:108A700008BF002003D002A9FFF781FB204608B001
:108A800010BD0000B00B0020200B0020EC0A0020DD
:108A90000004000009B9DFF8B812FFF70FBD70B588
:108AA0008CB005460193002000900E46134602AAA2
:108AB0000021DFF8A002FFF79CFC040008BF0020A3
:108AC00005D002AB32462946FEF799FB20460CB092
:108AD00070BD70B58CB00D46002101910091044627
:108AE000164602AA2146DFF86C02FFF7B9FC02AB7A
:108AF000324629462046FEF782FB0CB070BD00B519
:108B000081B00146012000904FF0FF33DFF848228A
:108B1000DFF84002FFF7C7FC01B000BD0000000015
:108B20006407010024070100A405010010B588B006
:108B3000034600200191009002AA0021DFF81C02E8
:108B4000FFF757FC040008BF002003D002A9FEF77E
:108B5000FFFB204608B010BD08B100EBC100704714
:108B60004407010010B588B00B4600210191009127
:108B7000044602AA2146DFF8E801FFF771FC02A9CA
:108B80002046FEF7B8FC08B010BD000000B581B06B
:108B90000146012000904FF0FF330022DFF8C001B2
:108BA000FFF781FC01B000BD09B9DFF8B811FFF78C
:108BB00085BC000030B58BB00546002001920090C6
:108BC0000B4602AA0021DFF8A001FFF712FC040007
:108BD00008BF002004D002AA2946FEF7C3FC2046A5
:108BE0000BB030BD30B58BB00D4600210191009126
:108BF0000446134602AA2146DFF86C01FFF730FC59
:108C000002AA29462046FEF7ADFC0BB030BD00B5E8
:108C100081B00146012000904FF0FF33DFF84C2176
:108C2000DFF84401FFF73FFC01B000BD000009B9C7
:108C3000DFF83C11FFF742BC81B001EB410208B9FB
:108C4000DFF8300100EB021001B0704770B5044648
:108C500000208CB00D4600901E461346019602AAD5
:108C60002146DFF81401FFF7FBFB334602AA294631
:108C70002046FEF70FFE0CB070BD00B581B0014676
:108C8000012000900023DFF8F420DFF8EC00FFF76C
:108C90000AFC01B000BD01B93949FFF70FBC000063
:108CA0001C0800204C2281B0514300B935480844CB
:108CB00001B0704770B50546002092B00B46009099
:108CC0001646019602AA00212F48FFF792FB0400E6
:108CD00008D0334602AA2946FEF728FF3046FFF7A0
:108CE0000EFC10B1002012B070BD204612B070BD55
:108CF00070B50446002092B00D4600901E46134603
:108D0000019602AA21462048FFF7AAFB334602AA91
:108D100029462046FEF70AFF12B070BD0000000091
:108D2000857E000010B58AB00020019300900B46AC
:108D300002AA00211548FFF75CFB040008BF0020D1
:108D400003D002A9FFF748FC20460AB010BD00007E
:108D5000BC0601008407010035720000A407010071
:108D6000C4070100E0060100E40701008775000068
:108D7000D4050100AC08002004080100D5780000EB
:108D800068050100140900202408010044080100BE
:108D900010B5EFF31484002C1CBF002181F314885C
:108DA0008047002C1CBF022181F3148810BD0000F5
:108DB00000B5EFF3038212F0FF0F0DD06A46A2F167
:108DC000200282F309886FF0020E10604FF080716C
:108DD000D1610849916170475DF804EB694681F300
:108DE000098880F308884FF00200EFF3148180F3C4
:108DF00014887047D98D000062F30F2262F31F427E
:108E0000401810F0030308D0C91A1FD3DB0748BF6E
:108E100000F8012D28BF20F8022D130030B41446AD
:108E20001546103928BF20E93C00FAD8490728BF69
:108E300020E90C0048BF40F8042D890028BF20F825
:108E4000022D48BF00F8012D30BC7047C91818BF6B
:108E500000F8012DCB0728BF00F8012D7047F0B4B2
:108E60000246106895681318506803EB5004C00759
:108E700021D54D441FE0F0BC02F10C00704713F8FF
:108E8000017B05F8017B491EF9D1A0B1B60813F8A2
:108E9000011B06F00306032E08BF13F8016B01EB5C
:108EA00006214942801C294405D011F8016B05F8C0
:108EB000016B401EF9D1A342DDD013F8016B16F00F
:108EC000030104BF13F8011BC91C30090F28DAD1B4
:108ED00013F8010B0F30D6E740F8043D40F8042D9D
:108EE00040F8041D019940F8041D009940F8041D44
:108EF0000B4940F8041D81EA0101A1F1010140F88C
:108F0000041D40F8041D40F8041D40F8041D40F8FD
:108F1000041D40F8041D40F8041D40F8041D70476E
:108F2000358F00002DE9F04FC0F800D0D1F800D007
:108F3000BDE8F08F0498804700980199029ADDF807
:108F40000CE0104710B53448046814F1010F08BF55
:108F5000002400F01DFA314900200860012030494A
:108F600008603049086030480068806C80472F48AE
:108F7000006820B12E480068204600F01CF82D49FA
:108F80002D4A002008602D4801686FF31B411143F2
:108F900001602B480168C1F30131012906D1016844
:108FA000284A114041F400320260016026480068FE
:108FB0000028FBD110BDF8B504462448012101600A
:108FC000234909680029FBD0C021224D296022498C
:108FD0004A68920705D40A68204B120C42F0F0024E
:108FE0001A7000221E4E02638F68316D0968384680
:108FF0008847326D5268394620469047316D8968FE
:10900000384688473168C968022088474020286070
:10901000012014490860F1BD1C1300508404604213
:109020005C600C4008220443F001001080012843DA
:10903000000120438C2108400000390148200340F2
:1090400004000940FFFFFCFC0C00684210100940BE
:109050009402224300600C40AC3F0050566208402E
:10906000A001001094046042B3BBD9B1B2F5803FB7
:109070007DD2022A1ED98C46B1FBF2F102FB11C34C
:109080001B0443EA1043B3FBF2FC02FB1C3380B227
:1090900040EA0343B3FBF2F002FB103240EA0C401B
:1090A00000237047022A05D98446B0FBF2F002FB88
:1090B00010C270474AB105D100F0010249085FEAC9
:1090C0003000704700220023704700F069B90B00A0
:1090D0000200002100207047904271EB030CF6D390
:1090E000B3F5803F2FD2F0B5B3FA83F7B1FA81F42C
:1090F000A7F10F0E3D1B5340CEF1200602FA0EF2EF
:10910000F3415340B5F10F0746D80F3C2C44414082
:10911000C4F12006A040F1414140B1FBF3F603FB4E
:109120001611A2FB0645001BA94102D2761E80182B
:10913000594180EA010221FA0EF362FA0EF200218F
:109140005A403046F0BD30B4B1FBF3FC03FB1C11B8
:10915000A2FB0C45001BA94103D2ACF1010C801805
:10916000594130BC02460B46604600217047B2F1BF
:10917000807F65D3F0B5B2FA82F7B1FA81F4C7F116
:109180000F063D1B22FA06F307F1110EF2412035BE
:109190005A40B5F10F07B8D94140C4F12006A040AC
:1091A000F1414140B1FBF3FC03FB1C11A2FB0C4558
:1091B000001BA94103D2BCF1010C801859410F2FAB
:1091C00012D30F3FC90341EA5041B1FBF3F603FB51
:1091D0001611A2FB0645D4EBC030A94102D2761E7F
:1091E0008018594146EACC3C07B34140C7F12006FC
:1091F000B840F1414140B1FBF3F603FB1611A2FB6D
:109200000645001BA94102D2761E8018594180EA0A
:10921000010221FA0EF3C7F1200462FA0EF20CFAF1
:1092200007F05A402CFA04F13043F0BD80EA010205
:1092300021FA0EF3002162FA0EF260465A40F0BDA8
:109240008C46B1FBF2F102FB11C31B0243EA10632F
:10925000B3FBF2FC02FB1C331B024CEA002043EA86
:109260001063B3FBF2FC02FB1C331B024CEA002030
:1092700043EA1063B3FBF2FC02FB1C331B024CEA13
:10928000002043EA1063B3FBF2FC02FB1C324CEA01
:10929000002000237047230062B38B0708D0521EC2
:1092A00011F8013B00F8013B00F024808B07F6D158
:1092B000830740F0208000BF103A07D330B4B1E8F4
:1092C0003810103AA0E83810F9D230BC530724BF48
:1092D000B1E80810A0E8081044BF51F8043B40F87A
:1092E000043BD20724BF31F8022B20F8022B44BFE5
:1092F0000B7803707047121F17D35B0009D151F828
:10930000043B20F8023B1B0C121F20F8023BF6D254
:109310000BE051F8043B00F8013B1B0A20F8023B2C
:109320001B0C121F00F8013BF3D238BF121D521E56
:1093300024BF11F8013B00F8013BF8D870470A0040
:109340000022FFF75DBD0100002200F02FB80900E8
:109350000D480068000C00F00700062828BF4FF0F9
:10936000FF30704709490A68C2F30F324BF69A136F
:109370009A424FF0FF3006D10868000F0B2801D148
:1093800003207047002070479412005018130050BB
:1093900080B5FFF7E7FF032800D101BDFEE701001C
:1093A0007047000062F30F2262F31F4200B500BF56
:1093B000130096469446103928BFA0E80C50FAD8FE
:1093C0005FEA417C28BF0CC048BF40F8042BC907A6
:1093D00028BF20F8022B48BF00F8012B00BD000079
:1093E00020B1082330220021FFF7EBBA704720B1EB
:1093F000082328220021FFF71ABC704738B500F077
:10940000DDFF25680DB129682160FEF78DFD284636
:1094100032BD70B504460D462668002028601EB98E
:10942000FEF77CFD25600DE0FEF778FD00E0366874
:1094300031680029FBD1AE4203D1FEF775FD002053
:1094400070BD3560FEF770FD012070BD0022DFF8B1
:109450008C1B01EB4211CB7F1B0605D5B1F91C30EB
:10946000834201D108467047521C082AEFDB0020D6
:10947000704738B504281AD1DFF8084B04F1EC0521
:109480002846FDF745FF90B12846FDF734FFDFF889
:10949000501B09684843642809D22846FDF71CFF81
:1094A000052001F081F90120E07700F096FC002012
:1094B00032BD70B50546FEF731FD0446DFF8C80A37
:1094C000C17D0A0022D0491EC175C9B2F1B9DFF8C9
:1094D000B46A082106F14C00FEF71EFAB5B1B06B74
:1094E0007830FDF7F9FEB06BDFF8F41AC068096850
:1094F000281AB0FBF1F1022906F1EC0538BF012171
:109500002846FDF7F6FE2846FDF7DAFE2046BDE8C0
:109510007040FEF709BD10B50446207B00F00F0037
:1095200002280FD100F032FDA168081ADFF8541AA2
:10953000896BC968800801F57A71814238BFB0F142
:10954000405F00D3002010BD38B5DFF8980ADFF87F
:10955000982A0168DFF82C4A02EA0105E943016014
:10956000A90606D54068800603D54FF4005100F0E7
:1095700030FC15F4602F08D0206905F46021084301
:109580002061002104F19C00CEE131BD70B5FEF7F1
:10959000C5FCDFF8F0490646206910F4602F27D09B
:1095A0002069C5012D0EE80748BF002506D4A8078D
:1095B00048BF012502D4680748BF0225681D40B294
:1095C00000F05DFF2069012105F1110291408843FF
:1095D00020613046FEF7A8FC04EB850046683000A9
:1095E00009D0206800224FF00063691DB04702E0F7
:1095F0003046FEF799FC206930B104F19C00BDE8CB
:1096000070400021FEF788B970BD70B501F0A2FB73
:10961000DFF87059DFF8004CAB6A024690071DD4A2
:10962000D3E90401104007D0EB62996908439861BF
:109630004FF4804100F097FDA86A002847D16E6A78
:10964000002E44D0F068A96B884224D005F14C006C
:10965000BDE870404FF48051FEF75EB90BB9A86ABF
:10966000EAE70020A862D3E904019E69024042F0C3
:10967000020232439A61626982436261E26822EACD
:109680000100E060194605F13000FFF7C2FE02213B
:1096900000F069FDE3E7B068FFF73DFFA86408B19B
:1096A000A86CCAE0D6E90401626902436261E2681B
:1096B00041EA0200E0600020E061B0682060E069FB
:1096C0000028FCD005F12400FFF798FEAE6270BDC3
:1096D0000020EEE6F8B506461446B76E1D4607B103
:1096E000B847A00708D4D6E9180120402940002235
:1096F000914208BF904207D0C6E91C4506F14000E0
:10970000BDE8F240FDF7BCBFF1BDFEE780B5FEF756
:10971000BDF8DFF870280146906BD26BBDE80840B9
:1097200010470421DFF8F40AFEF7F6B880B501F01F
:1097300011FBDFF8EC1A084204D0BDE804404FF0FA
:109740000051EFE701BD70B5040075D0A16820207D
:1097500001E04968401E79B1C2B26AB10A8840F698
:1097600003039A421CBF40F604039A42F1D1E06819
:1097700018222830FFF7A0FDA0690021A1616168CF
:10978000D9B140F00202E07F002300F00700012879
:1097900007D0022809D0042804BF00224FF08053CC
:1097A00006E000224FF0005302E000224FF0804319
:1097B000B4F91C10E0686568A847FEF7AFFBDFF856
:1097C000C4570646E88E401CC0F30B00E886002014
:1097D000296BC87705F13000FFF710FE3046FEF721
:1097E000A3FBB5F93610E06800F1C002B2F9003011
:1097F000994202BFDFF89017097D00291CD19178AA
:1098000009B9016811B90020907016E0AA6B1268BE
:1098100012F1010F10D0DFF8C8271268B1FBF2F186
:10982000022938BF01217830FDF763FDE068BDE80B
:1098300070407830FDF744BD70BDBDE8704038E63B
:1098400038B50D46A807DFF83C4716D5206BFFF763
:109850007AFF206B25F0020510B145F0020109E006
:10986000680702D4606A00285DD004F1EC00FDF7BF
:1098700033FD042104F14C0056E0680753D5012064
:1098800084F82000042000F08FFFDFF8CC0A006885
:10989000006B80472064606A08B1C068A063A06B59
:1098A000DFF8B82A41680B781360126809788A4299
:1098B0001CBF8569002D05D000224FF000736FF0AA
:1098C000FF01A847022000F06FFF112000F081FF88
:1098D0000120E076A06B617E007C084204BF0E2070
:1098E00000F077FFA06BDFF8301940688268002A2B
:1098F00004BFC068002804D00020C861DFF8D40A83
:10990000086040F2FF70DFF8D02A10600020886104
:10991000DFF80C0948610FF21900E0631920BDE877
:109920003240FEF71DBB31BDBDE83440FDF7F4BF4A
:109930002DE9FF478046880040F1C980DFF8445692
:10994000A86B40684068010018BF8047A86BDFF82B
:10995000C89840688168002904BFC168002914D0F4
:10996000D9F81C100029FBD00021C9F81C10806810
:10997000010018BF8047A86B4068C068010018BF8D
:109980008047DFF8A40A01F0EDF90020C9F81C00B7
:1099900040F60A0ADFF8940ADFF8EC45C9F800003F
:1099A00008F10806012001F025FA0FF28110E863A2
:1099B000A4F800A0002060800021207B00F0F000CF
:1099C000207300206060607B00F0F00040F0010038
:1099D0006073306807467980697E09B1717AB1B1E8
:1099E000018840F60202914218BFB1F5C15F05D16E
:1099F000398A4FF60F421140398204E0398B4FF615
:109A00000F42114039830021717201F0E1F9306891
:109A1000694601F0CFF9684601F0DBF900E007463E
:109A2000786800281CBF01885145F8D17C6040F659
:109A30000301787B00F0F0007873686A8068008822
:109A400088421CBF40F60401884202D100202864ED
:109A500017E0308CA8B100207084706208F13400E7
:109A6000017801F0F0010170417801F0F00141F05E
:109A70000101417008F128006060607B00F0F00097
:109A80006073D9F81C000028FBD00020C9F81C0026
:109A90004FF6FF323068018A11400182E87F30B111
:109AA00001F020F80028FBD001F02DF80CE0DFF8E1
:109AB0000C1A0968096801208847012804D000F0C1
:109AC00081F90FF21100E8633068C9F80000BDE8C1
:109AD000FF870000DFF8E809014200D17047DFF896
:109AE000DC19012010B50968DFF898440968884737
:109AF000012808D10FF23500DFF81C17E063DFF80A
:109B00008804086010BDDFF8D81409683220B0FB63
:109B1000F1F1022938BF0121EC342046FDF7E9FBC1
:109B20002046BDE81040FDF7CBBB00002DE9FE4FFD
:109B300006460D466804DFF84C4419D5FEF7EEF9E9
:109B4000E66AB769B9070ED46EB10021B161FEF7BC
:109B5000EBF9706848B1B6F91C10F06876683A46BF
:109B60000023B04701E0FEF7DFF925F4804523E14B
:109B7000A8070AD5206BFFF7E6FD206B002825F02B
:109B8000020501D045F0020516E1A80004F18008A5
:109B900040F60909DFF8F073DFF8BCB77DD594F81B
:109BA000200028B1042000F09DFD002084F8200052
:109BB00040F60202B0680188914218BFB1F5C15F5A
:109BC00005D1028A2D2161F30912028204E0028B81
:109BD0002D2161F309120283206CD0B1DBF85410FF
:109BE000096804208847A0B1DBF80000006B8047BB
:109BF000216C814228BF401E401A718A11EB10303F
:109C0000F060A0F5FA70B0F5FA6F84BF40F6C410AA
:109C1000F060D6F818C0BCF1000F1CBFDFF8A41824
:109C20008C450DD0787B0F21084204BF708D4845CC
:109C300006D100224FF000736FF480713046E04788
:109C40000022DFF884184046FEF7FEF9A07E50B1EE
:109C50000220ADF80000684601F084F8BDF8080065
:109C6000A0820020A07601202076F87D401CF875A7
:109C70000020E076606A18B11920FEF7E8F901E0EB
:109C800045F0020577692FB100224FF08063002173
:109C90003046B84725F000558EE0A07F25F0080A31
:109CA00020B1280702D50020A07772E0280772D5DE
:109CB000E07F20B10020E077052000F013FD0020B8
:109CC000207601202077002001F094F80022DFF8B0
:109CD000FC174046FEF7B8F9A17E607E81F00101D5
:109CE000084202D10120607611E0A06C68B3DBF875
:109CF0000000006B8047216C626C401A02EB103050
:109D00006064A16CC90181421FD200206064A7F881
:109D1000009000F057F800207880387B00F0F000C9
:109D2000387300207860DFF8F004416921F0020107
:109D300041616FF002010161076002699207FCD581
:109D40000161416941F0020141610020206401F09C
:109D500016F8DFF8841600200860022000F0C2FC2C
:109D6000112000F0D3FC307C10B90E2000F0CEFCA6
:109D70000020A083787D18B906F14000FDF780FC33
:109D8000DFF84C07E063387E18B10020387600F029
:109D900024F8554610E0A8040ED5A66A002E1CBF74
:109DA0007068002806D0B6F91C10F06876680022AA
:109DB0002023B04725F4005515B1294600F009F8D5
:109DC000BDE8F78F787B00F0F00040F00100787379
:109DD000704704F14C00FDF79FBD042104F14C00D5
:109DE000FDF79ABD30B58DB000F0F9FBDFF8E40661
:109DF000DFF8E4460168634D41F00201016001A80B
:109E0000FFF7F5FAA078DFF8D4160790002301AA2F
:109E100005F14C00FEF71AFF01A8FFF7E1FA002058
:109E2000ADF81C0001AB2078DFF8A02609901921BD
:109E30000020009005F18000FEF7D2FD01A8FFF799
:109E4000D6FAE078DFF898160790002301AA05F10A
:109E50009C00FEF7FBFE01A8FFF7C2FA0120ADF857
:109E60001C0001AB6078DFF87C2609901A210020E5
:109E7000009005F1D000FEF7B3FD00230022DFF8CB
:109E8000681605F1EC00FEF724FEDFF84406DFF863
:109E90005C26E86300234FF488700421284400F016
:109EA0000FFC4FF6FF70A8820DB00120A8760020AD
:109EB000E8756876E876E861286485F8200030BDAA
:109EC0002DE9F041304E0446707D90B00F4690462B
:109ED0001D4618B9FFF786FF01207075002F1CBFC3
:109EE0006760B8F1000F4BD0C4F80880FEF716F891
:109EF000B17D002942D10121B175FEF715F835B9C0
:109F000009A80FF22C611C22FFF7D6F909AD2868C9
:109F100020606868E060287C2074A8686061012087
:109F20006074688A6082E868010018BFA061A0219F
:109F300004F12800FFF708FA0823242200216846CC
:109F4000FEF732FE01208DF818006A46002104F168
:109F50004000FEF747FE0823242200216846FEF752
:109F600099FD06946B460022DFF8841504F1780011
:109F7000FEF7AFFD204610B0BDE8F081FDF7D4FF3D
:109F80000020F8E7B81D0020DC1E002038B5FDF7E2
:109F9000C5FFDFF86015097E31B1DFF85C150C688C
:109FA000FDF7C2FF204632BDFDF7BEFFDFF8A80374
:109FB0000068006B804710F50030DFF8402541F164
:109FC0000001A2FB0045DFF8380502FB01550169DD
:109FD0000020221845EB0103184632BDC8160020A8
:109FE0003C0A01000810044020000E002DE9F84F43
:109FF0000446894692469B46FDF790FFDFF8F454ED
:10A000008046B5F93400B5F93610401AC0F30B009C
:10A0100008286FF0010646DAA88E401CC0F30B003A
:10A02000A886B5F93400ADF800000020DFF8D4149C
:10A0300001EB4017F97F090604D5401CC0B208287F
:10A04000F4DB002704F17800FDF746F9C7F8089023
:10A0500087F81EA0C7F804B02021BDF80000B8831F
:10A06000FC60DDE90A23DFF8A00410401940C7E9CD
:10A070000401C0340020F87740F6FF79686A0028B0
:10A08000394605F1240006D0FFF7C3F930B100F0DE
:10A090005DF840464DE0FFF7BCF940B9A88E484452
:10A0A000C0F30B00A88600F068F930464CE000F0E1
:10A0B0004DF8687F297EDFF84864084207D0012008
:10A0C000A87700206877A876F07D401CF07500F036
:10A0D00054F9A86A002835D1287E18B11920FDF757
:10A0E000B6FF2FE0E87E68BBFDF718FF0446287F27
:10A0F00010B1012030761BE0B868FFF70CFAA864B5
:10A10000D0B1A86BDFF80414C0680968AA6C121AF1
:10A11000B2FBF1F2022A23BFAA6C101AB0FBF1F1D4
:10A120000121EC352846FDF7E4F82846FDF7C8F88C
:10A130002046FDF7F9FE05E02046FDF7F5FE042177
:10A1400000F011F8BDF90000BDE8F28FBDF8000085
:10A150002080F87F40F08000F877A07810B10020D0
:10A16000A070A876704705F14C00FDF7D5BB2DE92E
:10A17000F04106460F4614461D46FDF740FB80465B
:10A180003846FFF763F9070003D14046FDF73BFB74
:10A190000AE0F87F0721084209D04046FDF733FB6B
:10A1A0000721F87F0842FCD10220002116E07968DF
:10A1B000DFF85C03814202D07968B1667860C6E955
:10A1C00018454046FDF71FFB4FF0FF3106F14000F8
:10A1D000FDF7F2F90020B066D6E91C01BDE8F08178
:10A1E000DCB5DDE906670446CDE90067180008BF65
:10A1F000DFF81C332046FFF7F9FE002803D50020C6
:10A200004FF00041DCBD0146204602B0BDE8D04021
:10A2100002224FF0E043AAE700100440041E002091
:10A220000200004001E042F002022DE9F843DFF8AD
:10A23000C442606A0090894603271546FDF76EFE0A
:10A2400019F1010F05F0010680460AD1A06A002825
:10A2500019BFA06AB0F91C90E08E00F1010900203E
:10A26000E0750FFA89F0FFF7F1F801006ED0A06AEF
:10A27000814205F0020525D1280003D0606A0090D4
:10A28000002060620122C87FB2401043C877FDF70A
:10A29000B6FA0746002E14BFDFF87802DFF878021E
:10A2A00000F060FD00F069F825B906E000F058F80C
:10A2B00000F05EF800980028F8D13846FDF7A3FAC0
:10A2C000832745E0009A8A4204F1EC0016D1FDF79D
:10A2D00003F8280012BF0020606A0068606200F086
:10A2E0004CF8009800F03CF800F042F8009818B3E1
:10A2F0002800F6D120E0009A12680092009AEAB194
:10A3000012688A42F7D1FCF7E7FF009800681DB198
:10A31000009A0021116004E00168009A1160002198
:10A320000160009003E000F01BF800F021F80098B5
:10A330000028F8D100F021F8832701E000F01DF893
:10A34000E07E28B90221FFF744FD01E000F015F896
:10A350003846BDE8F28300008C010010D02108408F
:10A36000C07F009940F00400C8776846FFF746B800
:10A37000014604F13000FFF74CB84046FDF7D4BD6C
:10A380000FF2AC111C22FEF797BF38B500F016F89B
:10A3900005465848007E68B1204600F0E3FC0446BC
:10A3A00000F046F804F0FF00012801D1812032BD01
:10A3B000022032BD00F03CF8012032BD0446FDF71A
:10A3C000ADBD0A464B49896B884201D003207047D6
:10A3D0000BE0000051000706000004600A464549F2
:10A3E000896B884201D00320704700211046CCE7DA
:10A3F00070B540498A6B90426FF07F0411D1087E9E
:10A4000078B1FDF78BFD0546444800F0ABFC0646ED
:10A4100000F00EF806F0FF00012802D1300200160D
:10A4200070BD204670BD00000100070601010E044A
:10A430002846FDF779BD70B50E461546FDF76EFD51
:10A4400083242C491EB1022E0DD005D30EE08A6A5A
:10A450003AB1896A898B02E08A7E12B9898A298099
:10A4600005E0802403E0097E297000E0032459E020
:10A4700080B50846FEF7EAFF00B1806802BD38B536
:10A48000FFF79CFF1B49CA7D520702D58B7D9C427A
:10A4900010D001228B8A02FA04F52B438B820C34F4
:10A4A0001F490B68A24023EA02020A60096809B941
:10A4B000134A1175BDE83240FDF736BDE0010010CA
:10A4C000040000200B9700000B9600002D97000061
:10A4D0004198000000200940600401000D97000031
:10A4E0008D950000499500002397000073940000AB
:10A4F000D1960000B81D00200430044000093D0042
:10A50000DC1E0020C8160020F1EFFF9F3C0A01006E
:10A51000D5960000010002040100010401000304BB
:10A520000C100440FDF700FD204670BD0000000047
:10A53000FFFFFFFFC4090000000000000B970000B0
:10A5400001001A01000000000000000020B10823F3
:10A5500024220021FEF79EBA704710B5DFF850475D
:10A5600082B00120009009232468DFF8480764685E
:10A570004FF400720021A04713BD10B5DFF830473B
:10A58000DFF830072468E468002301223421A04763
:10A5900000B10120C0B210BDDFF81C078068704711
:10A5A000DFF81417084490F8EE00704700220229E3
:10A5B00004D1012806D140F2EE2203E0012808BFB1
:10A5C0004FF47A7210467047DFF8EC0690F8E61008
:10A5D00021B1D0F81001010018BF004770472DE9E4
:10A5E000F041DFF8D44604F1E1058AB0A8790028EB
:10A5F00062D10120A871DFF8C466DFF8C486307B21
:10A6000068717068C4F8100101A8FFF79FFF00206F
:10A610000690ADF81400079001AB00220FF215511F
:10A6200004F10C00FEF755FA01AB00220FF2CD51F8
:10A6300004F13000FEF74DFA01AB00220FF2F941B0
:10A6400004F15400FEF745FAB16801208847DFF8AD
:10A6500074060078D8F80400C0F38157707B20B1ED
:10A66000032F02D10120287003E0032F18BF022F0F
:10A6700012D1022000F098F8DFF84C160968032F79
:10A680000CBF4FF47A7042F2107000F07EFA04F1C1
:10A690005400FCF715FE08E0012F06D1DFF8104644
:10A6A00000F079FAA047FFF758FFD8F800004007FC
:10A6B0005CBF002000F078F800200AB0BDE8F0810F
:10A6C00038B5002408B1150002D16FF0020407E08C
:10A6D0008160C26003610146DFF8DC0500F095FB94
:10A6E000204632BD10B50446FDF718FCDFF8C8154A
:10A6F0000A1992F8E8305B1E82F8E830DBB223B921
:10A700008A680123A3409A438A605EE0F8B5054653
:10A71000FDF704FC0446DFF8A015481990F8EE2078
:10A72000521E80F8EE20D2B2CABB0FF2DC50DFF826
:10A730009C7500EB850210F825505688280615D523
:10A740003968096A304688473968896A30468847D7
:10A750003968096B30468847DFF8741501200860B6
:10A76000DFF8700500688007FAD512E0680606D5A4
:10A7700001EB86010020D1F80411884709E039680F
:10A780008969304688473968496B304688470228CE
:10A79000F9D105F03F003F2818BFFFF7B7FF20466B
:10A7A000FDF7C2FB0020F2BD10B50446FDF7B6FB75
:10A7B000DFF804158A680123A3401A438A60214404
:10A7C00091F8E820521C81F8E820FDF7ADFB00204D
:10A7D00010BD2DE9F0410646FDF7A0FB0446DFF869
:10A7E000D854A81990F8EE104A1C002980F8EE20E1
:10A7F00034D10FF2145818F8260000F03F003F281B
:10A8000018BFFFF7E6FF08EB8600478818F8260018
:10A81000DFF8B86401060ED53168C9693846884743
:10A820003168496A384688473168C96A3846884776
:10A8300000F01AF812E0400606D505EB870101206A
:10A84000D1F80411884709E03168496938468847DA
:10A850003168496B384688470128F9D12046FDF711
:10A8600063FB0020BDE8F081DFF86414012008607C
:10A87000DFF8600400688007FAD570472DE9F04FD3
:10A8800000250024012883B0A24618BF6FF00109FB
:10A8900064D1DFF82484D8F8DC0001285CD10220E0
:10A8A000C8F8DC00FDF7DAF80090012000F07FF92D
:10A8B0005FEA000953D1FCF7A2FFDFF82014DFF8AC
:10A8C0000C6401900C600120B16A09688847012876
:10A8D00003D1002000F0C1F90124DFF80414DFF8EF
:10A8E000F8030D6000681120FFF75AFE00B1012542
:10A8F0001020FFF755FE08B145F002050F20FFF7C5
:10A900004FFE08B145F004050B20FFF749FE20B1CA
:10A910003168096B4FF4806088470A20FFF740FEDA
:10A9200020B13168096B4FF481608847DFF8A013CC
:10A93000DFF8B0B30120086045F020003168896974
:10A940008847DFF8A4130120086098F80800C007C2
:10A950000CD54FF0010A1CE06FF0040982E00120E1
:10A96000C8F8DC000098FDF781F87BE0316A89685F
:10A97000584688470746042FF8D0012F04D1326A81
:10A98000526803215846904700F06FF88008800015
:10A990000860002000F05EFADFF83C0300683068D1
:10A9A000806B8047BAF1000F0BD1012F04D1326ABE
:10A9B000526801215846904700F057F840F00300D4
:10A9C00008600120DFF818130860284631684969DB
:10A9D00088470B20FFF7E4FD20B13168C96A4FF4C6
:10A9E000806088470A20FFF7DBFD20B13168C96A23
:10A9F0004FF481608847B649012008600020BA49B9
:10AA000008600320C8F8DC003168496B2846884795
:10AA10000128F9D1B0480068042000F0C8F80546C4
:10AA2000AE4901200860AC480068B0480068800664
:10AA3000FBD514B1012000F010F900F05DFB0820F7
:10AA400000F0B5F840EA05040120C8F8DC000198E0
:10AA5000FCF7D9FE00F0D0FA0098FDF707F80CB12A
:10AA60004FF0FF394846BDE8FE8FA148A049006875
:10AA7000704738B50446FDF751FA054621468E4821
:10AA800000F0D7F92846BDE83240FDF74DBA30B5A1
:10AA9000002401288BB004D021D303281DD018D363
:10AAA0001DE001A8FFF752FD834D92490694ADF8D1
:10AAB0001440079401AB012205F17800FEF709F874
:10AAC000009400238C4A2C2105F19C00FDF788FF9F
:10AAD00005E000F02DFB044601E000F0E7FB204616
:10AAE0000BB030BD38B5FDF719FA0546724890F83D
:10AAF000E000012410B1FFF740FD04462846FDF7B1
:10AB000013FA204632BD70B5FDF708FA044600F08E
:10AB100058FD6949002081F8E000684885680220F6
:10AB2000A8470646102000F042F80EB10320A847BF
:10AB30008EE000007047000010B55D4C82B0E16B04
:10AB4000096804208847022818BF032808D100F0AC
:10AB500022F8A047FFF701FDBDE816400220C1E53D
:10AB60006648594900680968534CC0F3815003286E
:10AB70000CBF4FF47A7041F2883000F006F804F10F
:10AB80005400BDE81640FCF79BBBB0FBF1F104F1AB
:10AB90005400FCF7AEBB032000901C2324684548FA
:10ABA00064684FF04052002170470020704738B56C
:10ABB0000446414D284600F01EF9A0B9284600F091
:10ABC00020F90546A868204208D02A69EB680021D0
:10ABD0002046984710B14FF0FF3032BD284600F0B4
:10ABE00012F90500EED1002032BD454901280CBF05
:10ABF00040F2FF70002008600020704770B5FDF73C
:10AC00008DF92D4E2D4D044696F8E00028B100F048
:10AC1000D8FC68B1002086F8E0000220AD68A847A3
:10AC200006461020FFF7C3FF8EB10320A8470EE0B1
:10AC3000254909683220B0FBF1F101B9012106F183
:10AC40003000FCF756FB06F13000FCF739FB00BF83
:10AC50002046BDE87040FDF767B938B5012823D11B
:10AC6000284909680968884701281DD000F09CFC24
:10AC7000114C012084F8E000207A800616D4124995
:10AC800009683220B0FBF1F505B9012504F1300067
:10AC9000FCF722FB294604F13000FCF72AFB04F103
:10ACA0003000FCF70DFB01E000F0B1FC002032BDEC
:10ACB000A401001000A00C40AC090020F403010026
:10ACC000B03F00502A2000203C0A0100B8010010CB
:10ACD00028200860282008402C2009400C4009400A
:10ACE0000002224300400340800104431410094045
:10ACF00024220840F9B300008DB10000B43F005099
:10AD000000000460E00100108F0000008F000100CF
:10AD10008F0002008F000300900000018F000101EE
:10AD200090000002900000038F0001048F000005D6
:10AD30008F0008048F0000048F00000651000000FF
:10AD40007F0001003F0004003F0002003F000100BF
:10AD50007F00020021490868C2430A600A68024273
:10AD6000FAD170471E490A68002AFCD1CA610860FE
:10AD7000C8690028FCD00020C8614868704719489D
:10AD800001686FF00202114041F40071016003217B
:10AD90001548816041F2300141610121C1605021BB
:10ADA00041610121C1604FF4CA6141610121C1606B
:10ADB000016070470D4802680A6082684A60C26894
:10ADC0008A60406B20F0784040F08050C860704747
:10ADD0007047014610220648FEF75EBA1010044084
:10ADE0000010044000000460004104404C13005077
:10ADF000180000217047006808B901207047002042
:10AE00007047006870470068704738B504460D46C3
:10AE100000F048FC002129606168696061680029D0
:10AE200014BF0D6025606560FFE7BDE8324000F0AB
:10AE30003BBC0B684A68002B0CBF42605A604A68F2
:10AE400009680AB901607047116070471628A8BFE9
:10AE5000203870472DE9F84F06469548954C006814
:10AE6000954D800704D50820A87194482060C1E062
:10AE700093480068006880478046924800680090C8
:10AE80000027001700F101090098800208D4C8F1DA
:10AE90003E00C0100928A8BF08208145B8BF8146E0
:10AEA00089480068C0F30460FFF7D0FF82468748F6
:10AEB0000068C0F30440FFF7C9FF09EB0A01162937
:10AEC000A8BF152104DA6FF009029142B8BF1146FC
:10AED00001F01F027E4B42F4F8521A807D4A12683C
:10AEE00012F0030F18BF0127520748BF47F00207AF
:10AEF0000EB147F0040795F90720A8EB0202052AD6
:10AF000002DAAA7997425DD0A8F10F0C0026BCF1B5
:10AF1000000FB64607F0010207F00403DFF8B8910E
:10AF200023D40CEB0C1C4FEA2C2EBEF1080F28BFCB
:10AF30004FF0070E7646072E28BF062609EB860A35
:10AF400059F82660DAF804A0AAEB060A0AF0FF0610
:10AF500013B1CAF3072B5E445FEA877B44BFCAF391
:10AF6000074B5E440AB106EB1A6659F82E9009F0B9
:10AF7000FF0A13B1C9F307239A44BB0744BFC9F3BF
:10AF800007439A440AB10AEB196A401AACEB0E2245
:10AF90000099AF71724380320128B8BF0120342379
:10AFA00001F0FF0158430AEB12224843B0FBF2F0D4
:10AFB000B0F5803F28BF4FF6FF7008F30708A88060
:10AFC00085F8078045480068A988286000201F2967
:10AFD00004D21F21A98004E04908401CB1F5007F7C
:10AFE000FAD20F39090940EAC1003D4908432060FF
:10AFF00000206060BDE8F18F10B53A48006884B267
:10B000002CB32F480068006880472B4991F907202E
:10B01000904205DA6FF07F029042B8BF1046C871C7
:10B020008888844201D28C8010BD2C4A12680B683B
:10B03000D21A921C202A28BF1F22231A5208D3405A
:10B040001818B0F5803F28BF4FF6FF70888010BDFC
:10B050002548026802B9704710B5244B996801F081
:10B060004060B0F1406F21D011480468A4071DD49E
:10B070005C68A4071AD404681B68C3F303531C3329
:10B080001B0114F0050F06D09A420FD26FF0050194
:10B090002140016010BD934208D20A0158BF44F01C
:10B0A0000104490158BF44F00404046010BD0000CD
:10B0B00000000940301009401C200020FDFDA400C4
:10B0C000EC010010B43F0050B81200503C11005089
:10B0D0006E620840242208409C130050082009405A
:10B0E00000E7A4803410094028500940AC3F0050CC
:10B0F000EFF3108072B67047EFF3108062B67047BE
:10B100000138FDD17047704710B50C18FFF7F0FFFC
:10B11000401E8041C00FDFF854140A68002AFCD09A
:10B12000246801220A6008B1FFF7E6FF204610BD3F
:10B1300038B5DFF83C44DFF83C142078897B0025E3
:10B1400008430AD0FCF7EAFEA178002906BF0121D6
:10B15000A1700125FCF7E8FE0DB1002032BD0220F0
:10B16000FFF722FB0E20FFF734FBDFF80C04016829
:10B1700009B1012032BDDFF804144022CA600A6020
:10B180000121C1610020607032BD0000F8B5DFF818
:10B19000EC1300200860DFF8E80300F1D804A17A7E
:10B1A0000A0000F081800129DFF8D853DFF8D823A6
:10B1B00031D110684BF2F5214843060ADFF8CC0381
:10B1C0000068C0F3814001280BD1A86C006880475B
:10B1D00000F039FA00F051FA3509C010684306EB67
:10B1E000E036607B10B10020607306E0DFF8A0035A
:10B1F000006820F07F4030184608DFF898030660AA
:10B20000310C416001218160DFF86803807B0028F8
:10B2100048D0052047E0022909D11568284600F0EA
:10B2200013F9A5F2FF5003283CD308203BE0032983
:10B230003AD1116800F1B806A1F5C0613068F1613A
:10B24000002848BF4042002948BF49428842A8BF61
:10B25000002026DA7068D04F80B200900823D5F81D
:10B2600000C0DCF804C04FF47F4230213846E0478C
:10B27000B06880B200901223D5F800C0DCF804C09A
:10B280004FF4F80204213846E047B06980B20090DC
:10B290000A232D686D684FF4406220213846A84784
:10B2A000012020700B202073BDE8F1402DE9F84308
:10B2B000DFF8CC82B94EDFF8E092B94CB94FAF4815
:10B2C00008F1E105E9784A1E0B2A00F28880DFE8E0
:10B2D00002F00626374E63374E63374E6B76316881
:10B2E0000968202088470F20E060072341F61D50A1
:10B2F00020614FF4C0720220009000217468D4F8DD
:10B3000004C04846E0477668F66807234FF4C072E9
:10B3100000214846B04701203860022048E0012063
:10B32000E061287800281DBF002038610320062036
:10B33000E87003202060002078607868800738D4A7
:10B3400070684668E878032805D1022000F04DF8BF
:10B35000B047042008E0002000F047F8B047E87844
:10B3600006280CBF07200A20E87001201AE00429F3
:10B3700003D12021A161012105E001220A29A26156
:10B380000CBF032102216970002121600821C160E6
:10B3900001600120206026E005290CBF062009205D
:10B3A000E8700020786004E00020386078600C20AD
:10B3B000E87008F17800BDE8F243FBF781BF002197
:10B3C000016001206C4908600E20FFF79FF9022000
:10B3D000FFF788F90120E8700020A87003E0BDE8BD
:10B3E000F143FDF707BABDE8F18300900523602221
:10B3F000002148467047000080B56149694891F8CE
:10B40000E410891E0A291AD8DFE801F0060A0E198D
:10B410000A0E190A0E19120001688907FCD510E0FE
:10B4200041688907FCD40CE041688907FCD508E035
:10B4300001688907FCD441688907FCD401E0FDF765
:10B44000D9F9BDE8014031E7F8B50746524C302143
:10B450002046FFF759FE4A4E06F1B805C0F3072013
:10B46000686004212046FFF74FFEC0F38440A860C7
:10B4700020212046FFF748FEC0F38120A861B7F5E0
:10B48000C060286002D186F8D800F1BD296996F81D
:10B49000D8202AB96A68A968EA60E861AA696A617D
:10B4A000E86900284CBF6FF00102022200EB400067
:10B4B0001018421000EB927001EBA0006968E9607F
:10B4C000012810DA6A69032A04D1153001281DDA2F
:10B4D00001201BE00B300128B8BF0120491E48BFE6
:10B4E0000021E96007E01F2812DB6A692AB91538D4
:10B4F0001F28A8BF1E20032109E00B381F28A8BF62
:10B500001E20491C4029A8BF3F21E9600021696134
:10B51000286108231B4EE86880B200904FF47F42F8
:10B5200037687F6830212046B847012000901123FA
:10B5300037687F684FF4003204212046B8472869F5
:10B5400080B20090122337687F684FF4F80204211C
:10B550002046B847686980B200900A2320463468C4
:10B5600064684FF440622021A047F1BD00800C4088
:10B570008D0A0020F403010004800C402C500C4084
:10B58000AC090020A401001008400C40B43F00505A
:10B59000102009403C600C4000A00C40A0010010AD
:10B5A00000400C4034600C4010B5384C626D52685D
:10B5B0000121032090472068C06A80473449886091
:10B5C00010BD38B5314C616D0968012088470128EC
:10B5D0001BD0A5692C48ED68002301223421A8471F
:10B5E000A0B100F02CF82068C06A804728498B6819
:10B5F0000A68C860A2EB9202C01A264B5843000C9E
:10B600000860904238BF10460860012032BD38B54E
:10B610001E4C626D5268002103209047616D0968DD
:10B620000120884708B100F00AF82068184DC06A68
:10B6300080476860206E00688047286131BD1648E9
:10B64000006800F033B810B514490A681449096855
:10B65000140424161B384443E41004EB224412065D
:10B6600000FB00F3121609065A435843091604EB6F
:10B67000A222484302EBA04010BD00FB00F1C0EB4A
:10B68000A15000B27047000000A00C408C010010D7
:10B690000820002040420F0080000010901300504E
:10B6A000A4100050FCF73ABCFCF73EBC70B5044651
:10B6B000FFF71EFD451EAD41ED0F124E306800280C
:10B6C000FCD0A04701203060002D1CBFBDE87040B9
:10B6D000FFF712BD70BDF8B504460D46FFF708FD33
:10B6E000461EB641F60F074F38680028FCD02846A2
:10B6F000A04701203860002E1CBFBDE8F140FFF7D5
:10B70000FBBCF1BD00800C402DE9FC4EDFF80C5A6B
:10B710000E469246002440F2013BAB7869792A79C3
:10B7200095F80190B0EB0B0740F67B4C32D07F1EB2
:10B7300037D07F1E3DD0BF1E41D07F1E00F07A80E3
:10B740007F1E00F07D807F1E00F08D807F1E00F048
:10B750009F807F1E00F0A4807F1E00F0A9807F1EC6
:10B7600000F0AF807F1E00F0B480FF1E00F0B980B3
:10B770007F1E00F0BE807F1E00F0C3807F1E00F0A1
:10B78000C8807F1E00F0CD807F1F00F0D580BF1ED7
:10B790002BD0EBE0102E05D11022514605F1A4006C
:10B7A0008CE0102E40F0E0801022514605F1B400EC
:10B7B00084E0042E6DD1DAF80000E862E4E0012EA6
:10B7C00067D1012934D09AF80000287132B10028DD
:10B7D000F4D1022B18D0052BF0D115E00028EDD0C4
:10B7E000012B21D0042B1DD11EE0012E51D1012AA5
:10B7F0001ED09AF80000687169B100280AD1032BA5
:10B800001CBF072B052B05D100F0B8FA0246822198
:10B8100000F05DF9B8E00028FCD0012B1CBF042B20
:10B82000062B01D0052B02D1012000F072FCABE009
:10B830001224A9E0022E2CD1BAF80000A883A3E0BC
:10B84000202E32DA05F1CC041F212046FDF778FDC9
:10B8500000F0A1F8AE7100F091FAA97900910246CA
:10B860000194012311E0202E1FDA05F1EC041F21C1
:10B870002046FDF765FD00F08EF8EE7100F07EFACF
:10B88000E979009102460194002300F07BFA78E008
:10B89000012E69D19AF80000042865DC287273E053
:10B8A000012E61D19AF8000004285DDA68726BE01D
:10B8B000062E59D10622514605F58670FDF7ECFC9F
:10B8C00062E0012E50D19AF8000007284CDCA872E3
:10B8D0005AE0012E48D19AF80000042844DAE872B0
:10B8E00052E0012E40D19AF8000005283CDC287473
:10B8F0004AE000F04CF837D1811F614534D26882AC
:10B9000042E000F044F82FD1811F61452CD2A8827B
:10B910003AE000F03CF827D1B0F5FA7F24DAE8826B
:10B9200032E000F034F81FD1A0F10A0140F677426E
:10B93000914219D2288327E0012E04BF9AF8000013
:10B94000012811D105F1800000F027FC50B905F164
:10B95000100100F08EFB040016D105F15C0000F030
:10B9600023FC11E016240FE018240DE028280ADA41
:10B97000022E08D1BAF8003002467D21102001F0D5
:10B9800063F8044600E00224E0B2BDE8F68EBAF89F
:10B990000000022E7047324651462046FDF77CBC1F
:10B9A00038B50D4600244FF440730246D11ADFF833
:10B9B0006C0736D0491E36D0491E38D0491E3AD0C1
:10B9C000491E3BD0491E3DD0491E3FD0491E3FD0A5
:10B9D000491E41D0491E43D0491E43D0491E43D081
:10B9E000491E45D0491E45D0491E45D0891E45D027
:10B9F000491E45D0491E45D0491E45D0491E45D057
:10BA0000491E45D0491E4AD0491E4AD0491E4AD037
:10BA1000891E4CD0491E17D0491E46D0491E48D019
:10BA20004AE0C07846E0102200F1A40133E0102281
:10BA300000F1B4012FE0C06A286044E0062200F162
:10BA4000C40128E0007935E0407933E0808B37E0AD
:10BA5000827900F1CC011EE0C27900F1EC011AE01C
:10BA6000007A27E0407A25E0062200F5867112E090
:10BA7000807A1FE0C07A1DE0C08B21E0007C1FE0CF
:10BA8000408A1DE0808A1BE0C08A19E0008B17E025
:10BA9000062200F58A712846FDF7FEFB13E0008CB4
:10BAA0000EE0408C0CE0808C0AE0007B02E08078A5
:10BAB00000E0407B287006E0282A03DA00F006F850
:10BAC000288000E00224204632BD05227E2110207D
:10BAD00000F0BABF1FB5DFF84446A178B1B900B194
:10BAE0002063617800F04BF904F1B4010291024641
:10BAF00004F12C03039304F1A400002101900091B0
:10BB00007B21E37800F03FF9002000E0112004B031
:10BB100010BD1CB5DFF80446A078062818BF07281A
:10BB20000BD1617800F02BF9132200920246E38BCF
:10BB3000862100F028F9C0B216BD122016BD00B54E
:10BB40008FB008233C2200216846FDF7A4F8DFF8F7
:10BB5000D00500F1500107914FF4DC7203210892E7
:10BB6000069100236A460FF2C901FDF7C1F80FB034
:10BB700000BD7CB5DFF8A44504F12801601C00F08D
:10BB8000FFFC00214FF6FF70A170E083D721102049
:10BB900000F05AFF20700021012001900091002345
:10BBA0000FF285550022294604F1380000F0BEFA54
:10BBB000022000F035F804F15C0000F0B7FA042030
:10BBC00000F02EF804F1800000F0B0FA0420E070DC
:10BBD000002104F1A40000220023002580E82E00AB
:10BBE00004F1B405002685E84E00E162217261721D
:10BBF000E2720721A172009010230222EC2100F0D2
:10BC0000C2F8009510230322EC2100F0BCF804F1E7
:10BC10002C00009004230422EC2100F0B4F873BD42
:10BC20000021019000910023002229467047000066
:10BC30002DE9F84386B0FFF79CFFDFF8E054DFF80A
:10BC4000E49405F5867605F180074FF6FF78A86A3B
:10BC50004FF0FF334A460021FBF7A4FB0400F6D067
:10BC60000020029002AA01A90DF1060000F0BFFC1D
:10BC7000002839D1BDF80600102802BF9DF8041035
:10BC8000687881422CD10298018841450BD14088C7
:10BC9000410425D505F12C01009104230422ED2156
:10BCA00000F071F81CE00178A22904D0D02908BF67
:10BCB00000F06CF814E04179132911D100890128B2
:10BCC00004BFA97B022905D1384600F06DFAFFF7C1
:10BCD00020FF05E0FFF7F9FE81B2384600F04DFA8B
:10BCE000029808B100F06EFCE0072ED5687929793A
:10BCF00001432AD018B103208DF80C000BE0297AFB
:10BD0000687A8DF80C108DF80D00062231460DF181
:10BD10000E00FDF7C1FAA87A69788DF81400E87A68
:10BD20008DF8150000F02BF8024603AB842110209B
:10BD300000F08AFE00281FBF0820A870286B00288A
:10BD400003D0016809B108208847A00704D505F190
:10BD50001001002000F08DF9600706D5A87B0128AE
:10BD600004D0022808BFFFF7D4FE70E700902B8BA9
:10BD7000EA8AA98A688A00F0B3F968E74946502040
:10BD800000F049BE8321102000F05EBEFEB50546DE
:10BD9000DFF88843A978A2786379080004F58A76E9
:10BDA00004F1800715D0022947D0032918BF0429C0
:10BDB0006ED0052900F09080062900F0C080072988
:10BDC00000F0E3800F2900F0FB80112900F0FF80D4
:10BDD000F7BD6878010024D104F1A400009010237D
:10BDE0000222ED21FFF7CFFF04F1B40200921023ED
:10BDF0000322ED21FFF7C7FF0622E91C04F1C4006E
:10BE0000FDF74AFA0120A0705020617800F003FE8F
:10BE1000024604F1CC0001900123A0790090FFF7C5
:10BE2000B1FFC0B208B10820A070206B00281FBF6E
:10BE300001680029A0788847F7BD697811BBE878C8
:10BE400068B16178FFF79BFF04F1EC0101910246B4
:10BE5000E17900910023FFF795FF687012E0022A54
:10BE600018BF072A0ED0062A02D1012B0AD101E001
:10BE7000032A07D004F1380000F08FF910B901202F
:10BE800000F047F968780028D6D00821A170CCE7E7
:10BE9000687800BB2079032908D1062A08BF07204B
:10BEA000C2D000280CBF03200220BDE7A18B31B116
:10BEB00003430AD004F1380000F05FF905E00128DF
:10BEC00007BF0020207100206071A078072814BFF0
:10BED00004200620A8E7A6E7687850BB0622291DA3
:10BEE0003046FDF7D9F96889E0830620A070E8891B
:10BEF0002084288A6084688AA084E8782073207C63
:10BF0000012818BF02280AD11F22FFF7DFFD80B2E7
:10BF10004FF47A71414304F15C0000F02EF90420E3
:10BF200001902B1D688900907221EA78FFF72BFFA2
:10BF30007BE73128CFD100202071042074E7AA8844
:10BF40007321FFF7C4FD06213046FDF7F9F9002003
:10BF500020846084A084A879607304F15C0000F000
:10BF600023F9384600F020F94FF6FF70E08360793E
:10BF700008B103218AE7A87908280CBF052004200E
:10BF8000A070012000F0C5F84FE7384600F00CF92A
:10BF90006878002813D1E988218428896084688919
:10BFA000A08404F15C0000F0F8F8002807D1636B6E
:10BFB000002B04D0A28C618C208C1B689847F7BDA5
:10BFC000AA8805238C21102000F03EFDF7BD217CBE
:10BFD000A888ADF80000052903D100208DF80A00DB
:10BFE00041E001218DF80A1004F15C0000F0DCF85A
:10BFF000207C012818BF04281AD1608AE988814270
:10C0000028BF0846ADF80200A18A2889884238BFB7
:10C010000846ADF80400E18A6889884238BF0846BE
:10C02000ADF80600218BA88988421AD2084618E08C
:10C03000032818BF02280AD1608AADF80200A08A3E
:10C04000ADF80400E08AADF80600208B09E0E8882E
:10C05000ADF802002889ADF804006889ADF8060043
:10C06000A889ADF808006A468721102000F0ECFC92
:10C07000F7BDFEB50F46294D79880446288C8842C5
:10C0800024BFB988814207D3688CF988884202BFEF
:10C09000A88C3989884220D0FFF717FDE98BADF8CD
:10C0A000001006467888ADF802006A46B888ADF8F8
:10C0B00004008521F888ADF806003889ADF808003D
:10C0C000102000F0C1FC0746C0B238B9AC73B1B261
:10C0D00005F1800000F051F800E01827F8B2FEBD2D
:10C0E0003EB50E4DAC78062C01D014203EBDADF807
:10C0F0000200ADF80410ADF80620ADF8083005F1E7
:10C100005C00069C00F050F869462046FFF7B1FF3E
:10C110003EBD01460148806AFBF7B5B9880300209F
:10C12000D00B002007000080F3E700002DE9F0436A
:10C1300089B08046894617461D46109C119E0823EB
:10C14000242200216846FCF7A5FC354906964FF4E9
:10C150007A700A68B0FBF2F0454305954743ADF8A5
:10C1600010406B463A4649464046FCF7B2FC404612
:10C1700009B0BDE8F083FBF7A3B838B504460D4617
:10C18000FBF7C6F810B12046FBF7A6F800F00EF852
:10C190002046BDE83240FBF793B880B5FBF7B8F80E
:10C1A00000B10120C0B202BDFBF796B81C4A10686E
:10C1B0004FF47A71B1FBF0F0454329462046FBF776
:10C1C00098B810B504460021FCF7CCFC204610BD01
:10C1D00070B505460C4616460C2000F083FA0100A7
:10C1E0000BD08E602846FBF7A5F924B14FF08041B3
:10C1F0002046FBF748F9012070BD304600F073FA85
:10C20000002070BD10B50446FBF783F9A04204D0AE
:10C21000846800F068FA204610BD002010BD0000C0
:10C220003C0A010020B108233C220021FCF733BD69
:10C23000704780B5FBF712FCADF80000FBF76EFE0F
:10C24000ADF80200009802BD01B5BDF80200FBF791
:10C250006BFEBDF80000BDE80240FBF707BC38B537
:10C26000DFF84828DFF84818DFF8484892089200BD
:10C27000891A2161E26010468B18002501E020F840
:10C28000025B9842FBD38B0802EB8303E82023F880
:10C29000045C10804FF6FC700140EC39A2F8E81005
:10C2A000002002F1E801616000F004F8A060E0689D
:10C2B000606031BDF8B500240025061D16F00300AE
:10C2C0001CBF311D0E1AFFF7B4FF0146DFF8E4076B
:10C2D000B6B20160112EB4BF4368836818880704A2
:10C2E00003D580F40040002517E02F0011D02788E7
:10C2F0001A8817442780BFB2B7420ED33846BCB164
:10C30000801B83B2042B0EDBA05346F4004626802C
:10C310000DE0B04210DA01251C46034418880028BD
:10C32000DDD1002404E0208840F400402080241D5A
:10C3300000F0D6F92046F2BD1C46E0E710B50446F1
:10C34000FFF777FFDFF86C17086034F8042CC2F3AE
:10C350000E0224F8042C221F4B689A4238BF4A6010
:10C36000BDE8104070E738B50446FFF762FF0022D1
:10C370000C23DFF844175343CD18A96C21B18C422C
:10C3800006D0521C032AF3D3FFF75EFF002032BD14
:10C39000FFF75AFF05F1480032BD7CB50546FFF7AF
:10C3A00048FF044600210C22DFF80C074A43861898
:10C3B000B06C48B1854210D0491C0329F3D3204604
:10C3C000FFF742FF002076BD3065B5640021FCF721
:10C3D000ADFBF06408B900F087FB2046FFF734FF9F
:10C3E00006F1480076BD38B50446FFF722FF002568
:10C3F000DFF8C4260C216943515A21B18C4206D082
:10C400006D1C062DF6D3FFF71FFFFF2032BDFEE2A5
:10C4100010B504462088FFF7E6FFFF2802D14FF051
:10C42000FF3010BD0C21DFF890264843104481688E
:10C4300011B96FF0010010BD2046BDE8104008475B
:10C4400002460FF29860104710B500200C21DFF86B
:10C450006826002401FB00F31344401C03289C645D
:10C460001C65F7D30020002301FB00F4401C13538C
:10C470000628F9D3BDE81040F1E678B58FB0FBF798
:10C48000EDFA05466846FFF7CDFE05204FF47A71B8
:10C49000069008910022DFF82406DFF824160490A5
:10C4A00005916946DFF81C06FCF704FC040006D081
:10C4B000FFF7BFFE06462046FFF76FFF08B900F002
:10C4C00013FB3046FFF7C0FE2846FBF7CFFA10B04B
:10C4D00070BD38B504460D46FFF7ABFE002145F8A8
:10C4E0000C1C226812B9256006E00A4652F80C1CA2
:10C4F0000029FAD142F80C5CBDE83240A4E680B5D0
:10C50000FBF7DAFAFFF72FFF10B96FF0040002BD56
:10C51000816809B9022002BD4068ACE0062881B0FC
:10C520000ADA0C22DFF890355043185A00281CBF55
:10C530004FF6F873984202D14FF0FF3001E00880C7
:10C54000002001B0704730B5DFF87C552A680C46F2
:10C550004FF47A71A1FB00010023FCF785FD002355
:10C5600099424FF0004201D8904202D36FF002008E
:10C5700030BD2060002030BD01468868496808470A
:10C5800070B505460E46FBF797FAFFF706FF040065
:10C5900009D0FFF74EFE0146002200F09AF820B1C4
:10C5A000521C062AF9D300F09FFA4FF6F870188053
:10C5B0005C60002098602A706068306000F090F83D
:10C5C000002070BD0C38B9E670B5044615461E460D
:10C5D0000846FFF708FFFF2802D14FF0FF3070BD7B
:10C5E000014633462A462046BDE870407CE07CB5D3
:10C5F0000546164600F0A9F8040010D128886946BF
:10C60000C0B2FFF78BFF28B13068FFF7DBFF6FF098
:10C61000050076BDBDF800002880FFF770FF2046BA
:10C6200076BD38B50546FBF747FAFFF79CFE044692
:10C63000FAF70FFD002818BF012800D014B96FF0D9
:10C64000040032BD4DB900200090009B606800F0EE
:10C65000B6F9401E8041C00F32BD15F1010F08BF71
:10C660004FF0FF30F0D069462846FFF76CFF0028F6
:10C67000EBD032BD80B500F064F8002002BD2DE99A
:10C68000F843054600F0A0F9FFF787FE04006FF0BD
:10C6900002091CD0FFF7CDFD0146002200F019F879
:10C6A00040B1854211D0521C062AF7D300F01CFA83
:10C6B000BDE8F2831D805C609E603A706068C8F8D7
:10C6C000000000F00DF80020F2E700F009F84846FD
:10C6D000EEE70C23DFF8E003534303441888704768
:10C6E0000846B1E5E6E529E62DE9F8430E46062EB3
:10C6F000BCBF0446062C154698466FF002090BDABB
:10C70000FFF797FD0C21DFF8B02301FB06F7D719DF
:10C71000796819B9FFF798FD484610E0FFF794FDD6
:10C72000A8F10800414604704670857078680830AA
:10C73000FFF7CFFE7868406800F003F80020BDE8FE
:10C74000F2834FF00041FAF79EBE2DE9F041064614
:10C750000F469046FBF7B0F9FFF705FE050008BF4E
:10C760006FF004001BD0FFF764FDA968002441B1FD
:10C770000C46A4F10C010A68AA6000220A60FF229C
:10C780008A72FFF761FD0CB9022008E0A4F10C00E9
:10C790000179317040793870C8F800400020BDE858
:10C7A000F08100F0A1F900BFFAF77BBC10B5DFF80B
:10C7B000180302686FF00044A4FB020100234FF449
:10C7C0007A72FCF751FC002399424FF0004201D8E5
:10C7D000904200D3204610BD7CB50C4615461E463F
:10C7E0006946FFF7B0FE30B9009833462A46214625
:10C7F00000F002F8002076BD2DE9F8411D4689B011
:10C800002C6880460E4617460CBB0C20FFF752FDE5
:10C81000040008BF6FF003002DD00823242200215C
:10C820006846FCF737F90020ADF810000590069433
:10C8300000236A464146DFF89402FCF730F9206095
:10C8400008B900F051F96660A7602C600BE0DFF8D2
:10C8500080623068804705462068FAF73DFDA76092
:10C8600028467168884720684146FAF742FD2068EB
:10C87000FAF726FD00200AB0BDE8F08100281CBFB1
:10C880000068FAF729BD7047E0B58DF804006846E6
:10C8900000F05CF99DF805000EBDE0B5019068461A
:10C8A00000F08AF90EBDE0B50190684600F08EF9FF
:10C8B0000EBD2DE9F84384B0044600F085F8FFF77B
:10C8C00052FD054600200290FAF7C3FB002818BF6E
:10C8D000012800D015B96FF004006DE044B90020C4
:10C8E0000190FAF7DEFB814601980124814423E0A0
:10C8F00014F1010F08BF4FF0FF30F1D001A920461D
:10C90000FFF721FE0028ECD056E0039902A8FFF7BC
:10C91000E0FD6868FFF715FF0199012411F1010F8F
:10C920000AD0080008D0FAF7BCFBB9EB00002ED003
:10C93000019981422BD30190019B686800F03FF878
:10C9400028B303AA69460DF10100FFF7FEFE0400BB
:10C95000E2D19DF801000DF10201FFF7DFFD002893
:10C96000D3D1039A9DF80010BDF80200B04700280B
:10C97000CBD017B1BDF802003880B8F1000F1CBF52
:10C980009DF8001088F800100C9803990160FFF7DB
:10C99000B6FD029EFFF74DFC014656B1324600E05F
:10C9A000024652F80C0C0028FAD1A86842F80C0C88
:10C9B000AE60FFF795FE204605B0BDE8F0834FF06E
:10C9C00000420021FAF7EEBC0E4617469846FBF7E8
:10C9D00073B838B5FBF770F80446FAF73AFB00284D
:10C9E00018BF012811D0FFF724FC0025324A0C2380
:10C9F0006B43D15A39B1D1184B681968A14206D09E
:10CA00006D1C062DF3D3FFF71FFCFF2032BDFFF78F
:10CA10001BFCE8B232BDE0B5ADF800008DF80610A1
:10CA200000202C490A68ADF802006846904710B90A
:10CA30009DF807000EBDFF200EBD1078422801D1E1
:10CA400001207047002070470CB478B504460E46AC
:10CA500087B0FAF7FEFA1420ADF810000021FF208D
:10CA60000CAD02918DF8120006960595FFF7B1FF07
:10CA700005AB03222146FFF7A7FD002001A9019085
:10CA8000009100230022144941F28830FFF711FF82
:10CA9000012804D018B9019808B1FFF793FD059853
:10CAA000006808B070BC5DF80CFB0000302000206E
:10CAB000F03B00207C1900205C160020017A010068
:10CAC0003003002041C400003C0A010079C5000089
:10CAD0000C030020140300203BCA000011C4000016
:10CAE00033C2000049C20000012000F07FB80000FE
